:100000004D424E014D3448300106040001002200EB
:100010006000000000C000000000000000000000C0
:100020000000EEEE000000000000000000000000F4
:1000300001000106000000000000000000000000B8
:100040000200110100002D000000000000B40000BB
:10005000030011012D00300000B40000000C00006E
:10006000001C00208D0100000000000000000000C6
:100070000000000000000000000000000000000080
:100080000000000000000000000000000000000070
:10009000000000000000000000000000550000000B
:1000A000810000009D000000590000006D0000006C
:1000B00000000000FEE70000034B01225A70A0235D
:1000C0000022DB051A707047240B0020034B01222D
:1000D0009A70A0230022DB059A707047240B002041
:1000E00008B5044B01221A70034B0022DA7700F0A6
:1000F00095FD08BD240B00200800005038B5802570
:10010000ED052B79DBB2002B0CD130490B604B6035
:100110002B89081C9BB28B608A680C30103107F069
:100120003DFE47E0012B0DD1284BD968002941D075
:100130005A68186982423DDA5A68501C58602B7A16
:100140008B5437E0022B30D1204CE368002B2AD0AF
:10015000226821698A420CDA22689B5C1BBAEB6038
:10016000A3682068C01880B207F074FE23680133CA
:1001700017E0A2682368201C211CD2180C30103113
:1001800007F00CFEE368002B0DD0A16822688A18E6
:10019000A2601B781BBAEB60A06880B207F05AFE21
:1001A0000123236006E0EB6004E0032B02D1074B40
:1001B00000225A60C0468023DB0501221A70C04627
:1001C00002221A7000221A7038BDC046D8020020E0
:1001D00080230222DB05FF321A600421024AFF312C
:1001E000118000221A70704706000040F8B5A02365
:1001F000DB059B684A4A1F21DBB21160D12B0BD073
:10020000D02B01D80133DBB2A022D2059168FF20A8
:10021000814319439160F1E70023424A42499A1809
:100220008A4204D24149C95804331160F5E7404B72
:10023000404A191D043B934203D200221A600B1C52
:10024000F6E7EFF308823C4B191D043B9A4203D9B1
:100250003A4818600B1CF7E7FFF7BAFF38493948EE
:10026000053989B280B204F07DFF374C374D012348
:100270005B4223716371A371E3712B1C3C331A78C9
:100280002B1C3D331B781B02134398423FD107F0D0
:100290006DFD2F4B2F4918882F4A88420BD06E7D59
:1002A00018882B7D36023343984204D113889BB2C1
:1002B00023711B0A637113888B421BD0EE7DA87DCE
:1002C000138836023043834214D100200423013BBB
:1002D000DBB2FF2B07D0214EEF18F65C3F79B74217
:1002E000F5D10120F3E7002804D013889BB2A37155
:1002F0001B0AE371637922791B0213438B4206D0F8
:10030000E279A37912021A43124B9A4204D1144B98
:1003100002221A6062B6FEE700F082F8F7E7C046F4
:100320002800005000000020D802002028AC000067
:10033000DC0200201D0B0020980B0020CDCDCDCD80
:1003400000C0000000000000280B0020C0BF00001B
:10035000FEB30000FFFF0000BEBF000000B40000BD
:1003600000E100E0014B18607047C046300B0020F0
:10037000014B18687047C046300B0020014B1860D5
:100380007047C046340B0020014B18687047C046C8
:10039000340B0020014B18687047C0460000002055
:1003A00038B5114C256805F0C7FAA862256805F034
:1003B000C7FAE862256805F0C7FA6861256805F0A4
:1003C000C7FAA861256805F0D7FA084923680968C3
:1003D0001A1CF8320E31E861116002221A67E0330C
:1003E00003221A6038BDC04600000020340B0020F4
:1003F00008B502F01FFF021E05D10749A9230B71A2
:1004000007F05CFCFEE7054B1B6803CB04F03AFFEA
:10041000FFF7C6FF08BDC04613050020C802002034
:1004200037B507F0D7FA6C46073420700AF076F932
:100430000AF0D4F902F064FEFFF7DAFF07F0CAFA17
:10044000051C0E2800D90E25E8B2034B8200D358B4
:10045000211C98472570F1E7040000200E4B322044
:100460001B680022191C88314860642088600220C3
:100470000861012048610A60CA60181C0121A4308B
:1004800049420160826001618261B83304380160D1
:10049000826001611A60704700000020F0B585B0ED
:1004A00000AFB960F86005F011FD83000A33DB0886
:1004B000DB006946C91A8D46041C684605F00EFD2E
:1004C00063000833DB086D46DB00EA1A9546684690
:1004D00005F022FD00226E46111C013C06D3A3004C
:1004E000EB58C9186300F35AD218F6E72E4C0220D5
:1004F00023683B609C331C1C0C3C25680138632D31
:100500000DDD002525601D613D6801268835B44656
:100510007D6076429E6065467E684540356026680F
:10052000013626601C698C4200D219619D688D429B
:1005300000D999601E68012E09DD00241B4E1C6045
:100540001C623C689E6101269434464026601C680B
:1005500001341C601C6A944200D21A629D69954263
:1005600000D99A61043B0028C5D10F4EFC6833685E
:10057000BD681A1C88321268BD4692009A18111C78
:10058000A831A032096812688A1A22801A1C943293
:10059000126892009B181A1CB832B03312681B689C
:1005A000D31A2B8005B0F0BD00000020FFFF000033
:1005B000F0B585B01F1C0AAB1B78151C0191039385
:1005C000041C04F04FFD1E4B281C1B680021DA6838
:1005D00092000AF0A5F9019E002E0CD0201C05F017
:1005E000DDFA184B281C1B68391C5A69002307F0D8
:1005F000CFFD013EF0E7002C0FD1124B1B685F6965
:10060000DB69029305F086F9061C05F08DF9029965
:10061000031C321C381C07F0A3FC281C0021019A83
:1006200007F00AFE039B012B08D1002C06D1054BD5
:10063000201C1D6805F0E4FBFC35286005B0F0BD0A
:10064000C802002000000020F0B589B00591069294
:100650000793049007F066FC234B80791B68029097
:100660005A699B6905985A43002192000AF058F98B
:10067000029F013F7A1C2BD0049805F08FFA1A4B89
:100680001E6872690192019B013B0393F1D3B46927
:10069000164B059AE518039B6343ED18AD005519F9
:1006A000013C13D3B368019A5343E3180133069A0C
:1006B0009B0098582B6818182860002F04D10299C5
:1006C0000AF07CF900042860043DE9E7039AD9E7C1
:1006D000079B012B06D1064B04981C6805F090FB84
:1006E000FC34606009B0F0BDC8020020FFFFFF3F8E
:1006F000000000207FB53B4B1B681A1CDE321278CD
:10070000002A04D11A1CC0321278002A02D06833A1
:1007100000221A70FFF73EFE041C07F07FFF061C44
:1007200007F062FF304B1B88033B052B25D8E36B9A
:100730000B3B0B2B21D8256B616C281C0AF08CF924
:100740000338042819D80B3D0E2D16D88D239B0095
:10075000F558012D11D1231CF6331B78002B0CD139
:10076000231C78331B78002B07D1626F052A02DC2B
:100770000132626703E0636730E000236367231C94
:1007800068331D78002D1CD0E26E18490192A36BCE
:10079000002002930323226B4B707C235B42039265
:1007A000CB7001AA10230B7107F088FAE36E226F59
:1007B0000025934202DC0133E3660FE0E566012584
:1007C0000CE0A36B226B0A49019302926423092077
:1007D00001AA03950B7107F071FAE566281C04B0B5
:1007E00070BDC046000000202804002074000020D6
:1007F0007B000020F0B56C4E93B0336804AF1C68EA
:100800003A6104346400221C0832D2086946D200DE
:10081000F860881A5A68854604325200131C08335F
:10082000DB08DB00C01A04AD8546B96004A9796114
:10083000081C00210AF074F8221C281C00210AF070
:100840006FF85A4CF86823685A69191CDB690090E4
:10085000281D01907869303104300290386903F026
:10086000FDFC336878609A6891001A682368013249
:100870004A43586900210AF053F82068436D6430F8
:10088000036008F07DFE2368586900957A69191C99
:1008900001925C313A69303303F056FEBB689D46E5
:1008A00007F058FB051C07F0B9FE2B7B002B0CD082
:1008B0005C300378002B08D122683623FF33D35CE9
:1008C000012B02D0012004F0F7FD336838495A6843
:1008D00018684A709A68CB787F250870AB4302206D
:1008E0008024034364422343CB7053238A700B71EB
:1008F00001323B6952009A18012007F0DFF9381CD9
:100900000021202218300AF00BF833681868596863
:100910009A6838767976BA760533DB7F3969FB7663
:100920007B7F0220AB430132034352008A181C43F1
:100930007C77391C0092002201201831131C07F02B
:1009400083F902F0E1FB02F063FCFFF7D3FE00281D
:1009500026D1164C2368586905F0C8F92568281C6B
:10096000291C5C31303003F0D1FD23682866186EF5
:1009700005F01AF904F088FF7A68002A07D1236885
:10098000F8681A1C30321B68396907F051FB0220E5
:1009900004F0C0FD2068643008F0F2FD052000E09E
:1009A0000420BD460FB0F0BDC802002000000020AA
:1009B0000C050020F0B59400231C0A3385B0DB0839
:1009C000DB006946C91A02AF8D4602AA061C7A608E
:1009D000101C0021221C09F0A3FF231C0833DB0894
:1009E000DB006946C91A8D4602AD281C221C002175
:1009F00009F096FF0C4C301C2368D96A9A6A5C3364
:100A000000910193291C7B6808F0DCFD301C02F08A
:100A100043FC2368301C9A6ADB6A291C00937B68BC
:100A200008F02AF8BD46F7BD0000002070B50C1C88
:100A3000151C1E1C08F0C2FA0B4B201C1B68996A7F
:100A4000DA6A08F0B9FB201C08F072FF291C201C90
:100A500008F0ACFC291C321C201C08F01DFD291CD0
:100A6000201C03F051FB70BD0000002038B509F0D8
:100A700005FE051C012009F015FE041C281C04F0CD
:100A8000D9FA201C04F0E2FA38BD38B509F0E2FECC
:100A900009F0FCFD051C002009F004FE041C281CC4
:100AA00004F0C8FA002005F0CBF8201C04F0CEFAC0
:100AB00004F0E4FC38BD10B5A4B08C22041C002165
:100AC00001A809F02DFF01A8211C08F027FD08F05E
:100AD0004FFD01A8211C02F09DFC24B010BD0000B8
:100AE000F7B5071C07F09AFD484E34682379002BB0
:100AF00002D0012B2CD065E0454A211C1268FC3144
:100B000012780D68816E2260002905DC2169414B55
:100B1000994202D02369013323612369934251DD55
:100B2000C36E002B4ED1221C84321370391CA26973
:100B30000420FFF789FD04F017FD012005F02EF8D1
:100B400004F06AFE01239B2231689A408B542CE00A
:100B50002F4B271C1B68FC3701935B787D68236053
:100B60002069231CFE330130998B09F0CBFF00294B
:100B700004D12369002B01DD3B68ED18231CFF33F2
:100B80005B7F012B09D1019A3D6813780222236013
:100B90009B235B00E254002307E022691D4B9A422D
:100BA00010D02369013323610CE031680022081C56
:100BB000FF3042770B710A6117490E33101C0B711D
:100BC00007F07CF83368186805F0E6F9041C281C67
:100BD00005F006FA241A0120002C08DD3368186895
:100BE00005F0DAF9041C281C05F0FAF9201A31681E
:100BF0009B2252008B5C012B02D100208854181CD0
:100C000004F05AFC04F07AFCF7BDC0460000002056
:100C1000340B0020FFFFFF7F1305002008B50B4BAE
:100C200036221B68FF329A5C002A0DD11A79012AFC
:100C300005D1FF335B7F0420002B05D102E0002AA1
:100C400002D1022004F082FF08BDC046000000204F
:100C5000F0B587B007F07EF9071C07F0DFFC816E66
:100C6000A34B002906D1046F621E9441E4B2002C0C
:100C700005D000E001241A680021C83205E01A6896
:100C8000C8321168FE2901DC013111601B680021A6
:100C90001A1CDC3215881180183A029511708C42AA
:100CA00004D094490968C97C002958D0181CC33065
:100CB0000178C9B2002908D003785BB2022B00D0BA
:100CC00001231370002303700EE11E1CC03635781B
:100CD000002D09D0012515701A1CC132CC330170CA
:100CE00031701170196000E1002C38D1191CCC3121
:100CF0000D68002D08DD013D012D01D00D602EE0B5
:100D000003230C601370F0E01A1CF832126811888B
:100D1000794A914223D01A1CD8321188774A126836
:100D2000D2898A421BD8734D2868027C181CC830AF
:100D30000068904213DB05AA1180DA331B887049E2
:100D4000538002234B70CB70201C15230B7106F0CF
:100D5000B5FF674B2A681B68527CCC331A60654E1E
:100D60003368987C002800D0BEE0614D002C22D171
:100D70002A689B7FD43212689A4214DB614912239D
:100D8000201C221C0B7106F099FF2A683068131C86
:100D9000D033196801311960C07F814203DB1C60C8
:100DA000C432022313702A680023111CC231D432CA
:100DB0000B7013603DE02B681A1CCC3210602A3295
:100DC0001278002A35D0191CD831098805AA11805B
:100DD000DA331B884A49538002234B70CB701923A6
:100DE0000B7106F06BFF2B683268191CD8310D8827
:100DF000908B1639854214D2181CDA300588108D74
:100E000085420ED2908D029D85420ADA097800292A
:100E10000FD1D4331968927F91420ADA01311960F7
:100E200007E001220A70191C0022D431D0330A6075
:100E30001A602F4E3268131CF6331B78002B53D1E7
:100E40003B7B002B4ED0131CC0331D78002D4BD1A3
:100E5000284F106B3B683A689B8A118B9C463B6815
:100E6000528BDB8A0093634607F016F83B680390C9
:100E70009B8C32689C463B68106BDB8C3A68118C0B
:100E8000528C0093634607F007F833681A1CD83277
:100E90001188039ADA33914207DA1A88824204DA17
:100EA0003A680298528D904210DB05AA11801B8887
:100EB0001349538002234B70CB70002017230B7112
:100EC00006F0FCFE33680122C1331A7033681A1C25
:100ED000C1321278002A07D0002C05D0C03301227D
:100EE0001A7002E0C13213700125281C07B0F0BD52
:100EF00000000020300B0020FFFF0000340B00201A
:100F00007400002013050020F0B58FB000AF3961E8
:100F1000061C04F0A1F8786104F092F89C4DB860CA
:100F20002C686846E268131C0E33DB08DB00C01A2D
:100F3000854660686B461218FB62131C0E33DB0893
:100F40006946DB00C91A53000E33DB08DB008D460F
:100F5000C91A684679628D460021786309F0E0FC81
:100F6000E06861684218012152004942786A09F03C
:100F7000D7FC2369E2688749D2189200386909F0E2
:100F8000CFFC2B68F86ADA68796909F087FC002ED3
:100F900014D17F4D804C2B6808201A681B79227071
:100FA0006370A3707F235B42E370211CD223FA6A33
:100FB000237106F083FE2B681B68BCE040240025EB
:100FC000FC61BD6200210122F86A05F099FA032054
:100FD00004F0E4FD6E4C704923681E6858689A68F6
:100FE0000423CB7051230B716C4B8A701B68013248
:100FF0005B69920048709A1802200E7006F05EFE3F
:1010000023681B683B63396B614B0139B96100D2BE
:1010100081E01B6859688C466646013EB44677D32A
:101020005B4BBA6918683C6943685D4D5343634440
:101030009A00A2181168A942EED03E6B8068574C06
:1010400070432468604464690130800000595E0088
:1010500084B23C62201CA14203D87D6A611AA95364
:1010600020E07C6AA6190025745F7E60013414D0EC
:101070007E6BF41825786EB2FE60013601DA013518
:1010800003E0FE68002E08DD013DBB6A44480133E1
:101090009BB22570BB6210602CE07D6BEC1825784C
:1010A000002D01D110600CE06DB26E1C05D1386AC4
:1010B0007A68091A1180002202E0012D01D1FF2275
:1010C00022707C6BE1180A7850B2002806DC7D6A39
:1010D0005800405F013007D0002A05D1FE6A013276
:1010E000F3563E2B05DD05E0FC6AE356002B01DDDF
:1010F000013A0A70264BBD691B687E6B5B687C6990
:101100006B436344F15CE25CFD6A8A18EA5483E74E
:10111000B869386377E71B68BC6ADA681B69D3185B
:101120009C4200DB35E7FB69013BDBB2FB61002B36
:1011300000D047E72DE7013B11D32A685268013AF6
:10114000F9D32968FE6A4968594389187118BE683D
:10115000F0183F300E78007830180870EFE7F86A22
:101160000021012205F0CCF92B68211C18681B799D
:1011700020706370A3707F235B42E37008201D23FF
:10118000FA6A237106F09AFDBD460FB0F0BDC04665
:10119000C8020020FFFF00000C0500200000002016
:1011A000FEFF000038B5051C0C1C03F049FF34306D
:1011B0000078211C434258412840FFF7A5FE38BD66
:1011C000F0B5464E87B000AF35683624B860796018
:1011D000FF342B5D022B02D100232B5502E006F0D9
:1011E0000FFC285531683E4D0A5D002A11D12B684D
:1011F0000A2098621020D862FF31122018634A71C9
:1012000009F08CFA09F0EAFAFFF7F2F804F084FD2D
:1012100015E006F093FE0026067009F0D5FA2B685B
:1012200003CB04F02FF8FFF7BBF82B6802221A62F9
:1012300004229A620822DA620A221E611A632B686B
:101240000A26D8699D6A8200111C0A31C908C900A2
:101250006846401A78618546596818686E4341436C
:101260008900331C0A31C9080833C9006846DB0805
:10127000401AAD00DB00C11A2B1C0833DB08DB0071
:1012800085468D463860C91A684638618D46F960D2
:101290007869002109F044FB321C3869002109F00B
:1012A0003FFB2A1CF868002109F03AFB0D4B002295
:1012B0009A603A693868DA60084A18607969F868AB
:1012C000126859601861125D074990004458B86867
:1012D0007968A047BD4607B0F0BDC04600000020B9
:1012E000C8020020380B00204000002010B5041C6C
:1012F00006F008FC06F06EFBA042FBD009F0EAF90C
:10130000FFF776F806F0FCF910BD0000F7B500AF66
:10131000051CFFF7ABFBFFF737F82C4B041C1B68D1
:10132000DE8906F01DFB6B4600207B6004F088FC24
:1013300004F04EFC264B1B6831331B78002B04D085
:101340000020E081291C00F023FB04F0C1FAC0B2A8
:1013500006F000FDFFF724F81E4B01201B68DA6839
:101360001B69D3189B000A33DB08DB006A46D21ADC
:1013700095466946FFF716FF7B689D4606F0C2FB5F
:1013800006F0CAFB052815D004D8002814D003287D
:101390000AD806E006280AD0031C113BDBB2022B58
:1013A0000AD801F079FC07E005F060FB04E004F0E6
:1013B00065F801E004F050F806F00CFBA842DFD01D
:1013C000FFF763FBBD46E681F7BDC046340B002046
:1013D000300B0020C802002098B500AF041C06F0B6
:1013E00091FB0B4B01201B68DA681B69D3189B002B
:1013F0000A33DB086A46DB00D21A95466946FFF7D6
:10140000D1FE06F0E7FAA042FBD0BD4698BDC0462B
:10141000C802002010B5041C06F074FB01F03AFC71
:1014200006F0D8FAA042FBD010BD10B5041C06F09F
:1014300069FB04F0F9FC06F0CDFAA042FBD010BD28
:1014400010B5041C06F05EFB0220211C00F0A0FA7F
:1014500006F0C0FAA042FBD010BD10B5041C06F087
:1014600051FB0120211C00F093FA06F0B3FAA042D0
:10147000FBD010BD10B5041C06F044FB002004F0A6
:101480008DFB04F0EBFB06F0A5FAA042FBD010BDEB
:1014900010B5041C06F036FB002003F0E5FE00202A
:1014A00004F07CFB04F0DAFB06F094FAA042FBD0D7
:1014B000012003F0D9FE10BDF0B5A3B002AF386132
:1014C00006F020FB002009F0BFF909F087F90020A1
:1014D00004F0B6FB5B4C694623685D6818681B69BD
:1014E0004543EB180733DB08DB00C91A8D4602AA17
:1014F000FA6103F0B1FD03F0A3FDFB695D19181C4F
:10150000291C7D6104F022FD23686C465A681B6922
:10151000D3189B000A33DB08DB00E41AA54602ACB3
:10152000BC6106F0EFFA381C00212022203009F0BF
:10153000F7F9444C20202368012519681A79C15510
:1015400021202221C255CA550533DB7F25202322C5
:10155000D355C35D7F229343FA692B43C1190B70A6
:1015600000920022131C0420053906F06DFB7969F6
:101570002A1CF86904F0C4FF002004F00FFB256862
:10158000B8696E682B69B4009B199C462E4B0419F0
:101590001968BC60002363450CDA9A00B34203DA91
:1015A000CC69B869A45802E04C6AB868A458845061
:1015B0000133F0E73C1C4034201C0021202209F0BC
:1015C000AFF92968AB6821706670A3700535EA7FB2
:1015D0007F26E27062790425B2432A4362711A4A77
:1015E000013312689B005269211CD3180022203459
:1015F00000930220131C06F027FB201C0021202250
:1016000009F08EF9012323700E4B211C1B6810205A
:101610001A7905336270A270DB7FBA69E37063796F
:10162000B3431D43657100920022131C06F00CFBAE
:1016300006F0D0F93C69A04200D174E7BD4621B064
:10164000F0BDC046C80200200000002010B5041CF8
:1016500006F058FA06F0BEF9A042FBD010BD00001B
:10166000F0B58BB000AFB86106F05CFC584C6E462C
:1016700023689D68DB687D625A00111C0E319B0057
:10168000C9080E33C900DB08DB00761AB546F61A26
:101690006D4600216846B5467D61FE6009F040F95F
:1016A000002004F07BFA7E6A4A4A20681568B2007E
:1016B00052420368BA60321C5A439100F961B10783
:1016C000711A79609107891A3A62013B23D3446801
:1016D0003E6A3219261C5E437618B400FE689200FA
:1016E00034193C61FC69A2420BD03C690426A41861
:1016F000A4466C697642A458B44466463460043A01
:10170000F0E7BE683A6AA419FC617C6A7E68121B25
:101710003A628919D9E7BC690B2C55D1002004F035
:101720003DFA2B4B19682B4B08681C687B6AB86123
:1017300043439A003A629A07D21A3A61FB6184469F
:1017400066464A68013EB4462ED365465543FE6957
:101750002148B318121852197E6938695200B2181C
:101760002D18FE68AD0075199B003D603E6AB342BE
:101770000ED03D68E818656904380668E858301AE4
:101780000025565F864200DA1080043B023AEDE7FE
:10179000BD6876193E627D6AFE69761BFE617D68D2
:1017A0003E6976193E61CBE70C49B8697E23D2B217
:1017B0005B4208704A708A70CB70012052237A69AC
:1017C0000B7106F07BFAA9E7BD460BB0F0BDC04631
:1017D000C802002000000020FFFFFF7F0C05002052
:1017E00010B5041C06F08EF9201CFFF739FF06F037
:1017F000F1F8A042F8D010BD70B5037886B0041C93
:10180000012B2BD103F010FC6568164C266806F0FE
:1018100005F9FF36B07504A806F03AF9684606F0F7
:1018200003F969460F22281C09F038F823688B2138
:1018300049005A182978FF331170987D049A059B46
:1018400005F048FB2368FF33DC7D6408201C05F0AD
:1018500075FB201C05F012FD04F05EFA012006B0B5
:1018600070BDC0460000002008B5416803780A4AF0
:101870000A4812680068F8320E301060002B03D05E
:10188000C9B2002000F084F804F022F8C0B206F0DB
:1018900061FA022008BDC04600000020340B002081
:1018A00008B503680079002805D101201968FFF701
:1018B00079FC032004E00138434243410520C01A6B
:1018C00008BD0000037A70B506784568002B05D086
:1018D000012B06D104F020FA002303E001230424A5
:1018E00001E001230524044A70B21268291C9269A0
:1018F000FEF7AAFE201C70BD00000020037BF7B598
:1019000004680679057A0527012B02D104F004FA50
:10191000032706F013FB76B241782268301CA368D7
:101920000095FEF745FE381CFEBD0000F0B5174BD4
:1019300087B01A683623FF33D25C0C1C07684668F0
:101940008568C368002A05D1F8B2311C2A1C00F052
:1019500099FB16E05A78197812020A439978FFB277
:1019600009040A43D97868460906114305910B22F8
:10197000191D08F093FF381C311C2A1C059B01F02F
:10198000B9F82070207807B0F0BDC04600000020F4
:10199000F0B5D24B9DB000AF1A683623F8633960BA
:1019A000FF33D35C012B01D0032400E005243C620B
:1019B000CB4C2068407C43000133FB65786303F027
:1019C00077FF236878665B7CFF22D31A984200DD9C
:1019D0007B66786E7C6B041B3C636C4603F070FF87
:1019E000BC65FC6D684665002B1C0833DB08BD4CEC
:1019F000DB00C01A012363707C235B423A1C8546DE
:101A0000E370211CB1230020643223716E4606F07E
:101A100055F90023211C3C6B5A001819FC6D013349
:101A2000B052A342F7DB0223CB70321CE4B2632333
:101A300000204C700B717C6406F040F92B1CBC6DCF
:101A40000833A546DB08DB006846C01A8546C01A85
:101A50006C468546BC65386404F038FAB8610120EC
:101A600003F0BAFD00212A1C386C08F059FFB86D4C
:101A700000212A1C08F054FFFC6D6846A400231CBA
:101A80000A33DB08DB00C01A8546C01AFC627862A4
:101A90006C468546C01A8546BC626C467C61BC6952
:101AA000A4007C600024FC640021FA6AB86A08F093
:101AB00037FF786AFF21FA6A08F032FF0024884B6A
:101AC000BC641B68BC6C1B7C9C4251DA3C6B0026DE
:101AD000E4B2201C3C6103F000FF03F0C9FE03F0F8
:101AE00071FD7C697D6AFC61BC6AF86D0136F21794
:101AF000C30F86425341DBB2FB60002B06D139692C
:101B00008819C0B203F0E9FE03F0B2FE6B46BB6079
:101B10007B686A460A33DB08DB00D01A85466A46D2
:101B20007A6504F0DBF90020031CBA69934205DAF8
:101B3000796D9A008A5801338018F6E72368984235
:101B400000D920602968884200D2286003F02EFD69
:101B5000FA69043501C2FA61BB68F8689D4604342D
:101B6000002802D103F02EFDBFE7BC6C0134A6E7CC
:101B700000255D4E2C1CB96A7A6AA300C858D35858
:101B8000C01A3B6A9C4206DB864204DD396B061CA8
:101B90006118B9633C65854200DA051C03F006FD57
:101BA000BA6D6300D052FB6D01349C42E3DB281C0C
:101BB00003F0FCFC4A4B1B68DB89984206DAFC6B9D
:101BC000012C03D07C6EBC637C6B3C65FEF746FC4D
:101BD000FC6B012C21D13A6C0023BC6D5900615A79
:101BE0001088884200D21180FC6D01330232A3427A
:101BF000F3DB3C6D63003C6C1A5BFC6C131CA24273
:101C000000D2231C37499BB27C6CFB64002002236A
:101C10004C70CB7008713A6C19E0F86B314C0228AB
:101C200008D1796C042300206170E3702071211CBD
:101C30007A6927E0281C03F0B9FC7A6C80B2F8645A
:101C4000627002230020BA6DE3702071211C06F03F
:101C500035F83C6D6823DC53BC6B6A20C4533C6D83
:101C60006E216300BC6D6C201B5BFC6CC353CC53BA
:101C70001C4904234B700223CB703A1CB2230B7116
:101C80000020683206F01AF8144E3C6D326863008A
:101C9000111CF831BC6D09681B5B09888B4227D980
:101CA000002925D008F0D6FD041C08F00BFDC379EF
:101CB000051C002B06D0012006F040F83368F833ED
:101CC0001D6027E0002C25D1084B1B689B7C002B56
:101CD00020D1012006F026F81CE0C04600000020BC
:101CE000340B002074000020FFFFFF7F300B00202A
:101CF000F7321278002A0DD00E4C2068C2899A4221
:101D000008D9002006F01AF80B4B22681B680E3227
:101D1000F8331A60FC6B002C06D1BC6BE0B203F008
:101D2000DCFDBD461DB0F0BD3B68063B012B00D875
:101D3000BAE6F2E7340B002000000020F0B585B0D1
:101D400000920391029008F085FD061C05F0BAFE92
:101D5000071C05F0BFFEA04D01902B681A1CF43241
:101D60001278BA4220D0002F08D09C4900203B2393
:101D7000021C0B71022605F0A1FF10E00199052459
:101D800000290DD195493C23381C3A1C0B7105F0F4
:101D900095FF2B68F6331E78731E9E41F6B2012420
:101DA0002B68F4331F701DE01A1CF532127801996C
:101DB0008A4216D0002906D1F6331E78731E9E4142
:101DC000F6B23A2301E03923022684490020021C9E
:101DD0000B7105F073FF2B68019AF5331A7001241B
:101DE00000E0052405F0FEFD071C05F063FE009BE6
:101DF000032B02D0002F03D107E00124002F36D09F
:101E0000002005F0F7FD012431E02B68F4331F8832
:101E1000002F2CD10099012902D0022904D00EE014
:101E2000009805F07FFF0AE0381C05F07BFF2B6867
:101E3000F7331B78002B02D0381C05F07FFF05F02C
:101E40006BFF2B68071CF6331B7883420FD00028EA
:101E500002D01123012601E01223061C5F49002055
:101E6000021C0B7105F02AFF2B68F6331F7008F077
:101E7000F1FCB04238D008F0EDFC08F007FC071C7C
:101E8000301C08F003FC009008F0E4FC301C08F063
:101E9000DBFC08F0A3FC524B1B68DB7C002B0FD053
:101EA000012C0DD0009B3A1C363236330298039930
:101EB00006F092F9002003F071FEFEF7CFFA06E07B
:101EC0002B680020DE33187003F0BAFE01240020D6
:101ED00005F034FF2B6800211A1CF7321170414ABB
:101EE000F83312680E321A6008F0B4FC08F0EAFB0E
:101EF000C379002B08D005F01BFF2B68F7331A7845
:101F0000824201D01870012406F088FB061C05F0FF
:101F1000E9FD3379834200D0307105F0C5FD327997
:101F2000051C314B002A01D0002200E00278F25457
:101F3000AB7A012B2DD12D4A6B7A297AB25A1B022A
:101F40000B439A4219D1D322EB799200A979B25A64
:101F50001B020B439A4210D1D222EB789200A9784F
:101F6000B25A1B020B439A4207D1214A6B79297955
:101F7000B25A1B020B439A4206D0D2229200B018EA
:101F8000A91C0A2208F08AFC1A4A0023B354AB7237
:101F90001FE02B7C012B1CD1D522EB7B9200A97B6F
:101FA000B25A1B020B439A4207D1134A6B7B297B1F
:101FB000B25A1B020B439A4206D00F4B291CF01851
:101FC0000C31062208F06AFC0A4B0122F25400236D
:101FD0002B74201C05B0F0BD00000020130500206C
:101FE000300B0020340B0020460300004E0300009D
:101FF0004A0300006203000052030000F0B59BB0EA
:102000001C1C0A9304236E460E9363680022051C71
:1020100007360120327002920392049205920690D4
:102020000795089209920B920C920D920F931092C1
:102030001192129413921490159216951791189468
:102040001993171CB90002AB3F01D8190B4BCB58A1
:10205000311C98470A4B071C1A689C235B00D15C13
:10206000012902D10021D15403E005F0B3FCA842BC
:10207000E8D0E068FEF71FFD1BB0F0BD4C0000206B
:1020800000000020F0B5714CC9B001932368171C03
:102090001A1C0025FF321D7155771D610E1C009022
:1020A00006F0C2FA6A4B01991B680A950B950C95CC
:1020B0000E910F95109509970D979A895878FA21E6
:1020C0005043890008F0C8FC25683378009AFE3533
:1020D000A883934203D005F015FD009B337006F0F2
:1020E0009DFA0021051C8C2225A808F019FC00216E
:1020F000282211A808F014FC03AE002128221BA8F6
:1021000008F00EFC00210A22301C08F009FCD9233B
:102110009B0025A9E950DA239B0011AAEA50DB2392
:102120009B001BA9E950DC239B00EE50474B00228B
:102130001B689A6005F008FE051C03F0C9FBA84265
:1021400006D0281C03F0C9FB03226B46DA7258E064
:1021500040490020A623021C0B7105F0AFFD019839
:10216000FEF7BEFC21686D46081CD830DA31FEF758
:1021700095F9394B39491B6802205B680B354B7068
:102180000423CB705B230B712368DA6905F096FD9D
:10219000236833491A1CD83212880C2006921A1C64
:1021A000DA321288DC3307921B8806AA08930123CF
:1021B0000B7105F083FD226809A91079294A830073
:1021C000D318000108189B69291C98472368C4226A
:1021D0009A563868B968FFF7B1FD052800D0287015
:1021E000214B1A68214B9A4202D003F01DFEFEE7F4
:1021F000164B1F4A1B689968914202D09A680132B7
:102200009A606D460B352B78104E052B0CD005F0DF
:10221000F7FB33683621FF315A5C824213D001212B
:102220009C228A4099540EE005F0EAFB3268362180
:10223000FF31535C8342EAD105F0CCFB009A904217
:1022400000D177E7E3E7287849B0F0BD000000202F
:10225000340B002013050020C80200207400002069
:102260007B0000204C000020940B0020CDCDCDCD74
:10227000FFFFFF7FF7B5434C151C236801911A1C23
:10228000C1321278061C002A23D01A1CF6321278AA
:10229000002A1ED11A1CDE321178002919D1C03350
:1022A0001B78002B15D10123137002F0C9FE071C07
:1022B00002F0BAFE3A1C031C36323B33301C019943
:1022C00005F08AFF03F036FC022003F03FFCFEF726
:1022D000C5F823681A1CDE321278002A4ED01A1C68
:1022E000294F0020C03210703A680190126A011C18
:1022F000013A0ED30E265643B446AC446646B68821
:10230000002EF5D036B20131B042F1DA301C019224
:10231000EEE71A1CF6321278002A12D1012910DDDC
:1023200006F07CF9012383663B681B6A013B0AD3F4
:10233000019EB342FAD00E225A430021AA1891807E
:10234000F4E7002904D023680022E4331A6008E08F
:102350001A1CE432E03311681B68994201DC013138
:1023600011602368191C1A1CE431E03209681268F4
:10237000914205DDC03301221A7001E0E4331A6096
:10238000F7BDC04600000020C8020020F0B5744E22
:1023900099B00468306802AF39602C2200213030D7
:1023A00008F0BEFA381C00212022183008F0B8FAD4
:1023B0006C4D02202B685A6819687A769A683976CB
:1023C000BA760533DB7F7F21FB767B7F01328B433F
:1023D00004210B437B77336892005B69391C9A18A0
:1023E00000920022131C183105F02EFC2B68694660
:1023F0009A68796151001A6802324A43131C083303
:10240000DB08DB006946C91A8D4602AE0021301C8C
:1024100008F086FA321C00232068A168FEF7EAF96A
:10242000F8607A69FB689546052B00D086E02E6837
:10243000111CF36A7A601A01131C0833C91A8D46FD
:1024400002AB181C00217B6108F06AFAF26A786915
:10245000E168FEF7AFFA2B6869469A6A0E235A4381
:10246000131C0833DB08DB00C91A8D4602AD0021BE
:10247000281C08F055FA23697869291CE268FEF7E0
:10248000D5FAFEF7E5FB384B1B68DB7C002B04D14B
:102490002068A1682A1CFFF7EDFEE168281C00F007
:1024A000B9FF07F0F7FB83000733DB08DB006A4660
:1024B000D21A954602ABBB602A4B0E221C68061C42
:1024C000A16A38610B1C013B5343ED187961043557
:1024D0007A69013A7A610FD30022AB5E002B09DDE5
:1024E0003B69B968013B980008180422291D3B612B
:1024F00008F0D4F90E3DEBE73D1C383500212022D1
:10250000281C08F00DFA236861682B706970A368B5
:102510001349AB7009680534E27FC96A0133EA7078
:102520005B007E22CB1852426A710093F2B2032004
:10253000291CBB6805F088FB7A68954603F0E4F92E
:1025400003F0F8FA03F010F8012003F027FB03F082
:1025500063F9F9683B68BD46197017B0F0BDC04615
:1025600000000020C8020020300B0020F0B5052735
:102570009FB012975F6800240122051C6E4602A8D6
:102580001B911C490736069207900A920E930F92F0
:10259000139714921693062719921C931D903F23AC
:1025A000201C221C3470089409940B950C940D94F3
:1025B000109411941594179718941A950B7105F0AF
:1025C0007DFBA20006AB240118190B4B311CD3581C
:1025D0009847041C05F014FA084B1A683623FF3399
:1025E000D35C834203D105F0F5F9A842E9D01FB0CE
:1025F000F0BDC046130500204C0000200000002064
:10260000F0B595B002AF7B603B1C6033061C3961AE
:1026100001CB79681B780D78FA61BB60B14C002D55
:1026200000D0B2E03A691378082B0DD103F074FBA7
:10263000236805209A6971682B1CFEF705F83B6931
:1026400005201D70786147E26A4605207A6103F033
:10265000A5FAA54B1B6898695A69410001324A43A3
:10266000131C0833DB08DB006946C91A8D4602AB30
:10267000291C181CFB6108F053F9236872689969DA
:10268000F86905F033FE051C05F0AEFF221C012D94
:102690000ED12368FF33597D002909D1F4301A7E09
:1026A0000078904201D8197614E001321A7627E0BA
:1026B00013680022FF335A751A765B7E934207D166
:1026C0008A4B70681B68F96933331A7805F022FF6A
:1026D000012D15D103F020FB062003F05FFA786886
:1026E000012303707F4B39691B6800220A70FF3396
:1026F0007F495A76101CA3230B7105F0DFFA3FE0E7
:10270000784D7A482B680268191CFC3133321278F4
:1027100009695200914214DDFF331A7E002A10D15C
:102720005C7E002C0DD103F0F7FAB3683268062006
:1027300000940121FDF73CFF2B68FC331C6103F082
:10274000EBFA2B686B49FC331A698A4201D00132DB
:102750001A6104F095FF04F031FF644A13683333C3
:10276000187802F0B5FE002002F0D4FEB86803F03D
:10277000B4F804F047FF02F075FC3B6EAC30036028
:102780007869052185467961A6E1584D2B68343377
:1027900018782368186002F09BFE062003F0D6F933
:1027A00051486B46BB61036868469A6851001A68D5
:1027B00002324A43131C0833DB08DB00C01A85468B
:1027C00002A97961081C002108F0AAF820680021FC
:1027D0002C22303008F0A4F87A693068B168002300
:1027E000FEF708F87861BA699546052800D073E1CC
:1027F0002B68FA215A8F343318788900504308F037
:102800002BF93949B8600D686846EB6AF8601A011F
:10281000131C0833C01A854602AC201C002108F0A6
:102820007FF8EA6A201CF168FEF7C4F82E49684672
:102830000B6800219A6A0E235A43131C0833DB08E5
:10284000DB00C01A854602AD281C08F069F8201C80
:10285000291CF2683369FEF7E9F800212C1CB961E4
:10286000214BBA691B689B6A9A4215DABA690A2336
:102870005343F0682288C3181A806288A11C5A80CA
:10288000E288201CDA80A2880E349A8007F052F980
:10289000B9690131B961E3E73B69281C1A78F96924
:1028A00007F024FA39690870FA680B7895465A1EC1
:1028B0000C4D012A03D82A680021FC325161032BF8
:1028C00009D0072B18D0012B00D003E12B68002280
:1028D000FC335A61FEE0F86907F06CFD041E19D064
:1028E0000BE0C04600000020C8020020300B002092
:1028F00013050020FFFFFF7F182405F089F8784BAF
:102900001B681B6C18400123A3401840431E9841CC
:10291000404204402A68131CFF33997D022908D1E4
:10292000FC325269B868824203DD396908220A70B4
:1029300000249A7D022A3ED1DB7D5A0733D5182C1C
:1029400031D1381C283005F0A3F8FB69F8691A78F2
:102950005B78BE8D1B0213438278FD8D12041343F6
:10296000C278381C120613431A882430BA845B8854
:10297000FB8407F00DF924217B5E9E421DDA3A8D1F
:10298000B6189E4219DD2622BB5E9D4215DA7A8D6D
:10299000AD189D4211DD012005F06CF8B88CF98C62
:1029A00005F05CF888E0980705D51A2C03D10120C2
:1029B00005F046F880E0002C7ED14A4D2B681A1CA9
:1029C000FF32917D0122022906D1191CFC3149698F
:1029D000B868814200DC00223869017808295FD19B
:1029E000D2B2002A5CD005F085F800283AD0022443
:1029F000381C221C3C49243007F050FF381C211C95
:102A0000243005F0EBF8052005F018F9381C0021FA
:102A10002022283007F084FFF96928220B7B2D2122
:102A2000D3552923DC55CB5D7F2293432A20C455FF
:102A30001C4380235B421C43FB69CA1914701A783B
:102A40005B78F8691B0213438278391C1204134324
:102A5000C278283112061343002200930520131C6C
:102A600005F0F2F803F066F8012002F025FD796820
:102A700000240C702B68201C1A1CFC325461146159
:102A8000FF3301225A7504F0DBFF201C04F0F2FF33
:102A90001649A223201C221C0B7105F00FF91BE024
:102AA000FC335A6912498A4201D001325A6103F05B
:102AB00041F802F029FF0FE0282202212923D01932
:102AC000D155DC5505F08AF803F034F8012002F006
:102AD000F3FC01E000241DE77869BD4613B0F0BDAA
:102AE000300B002000000020BCAA000013050020CD
:102AF000FFFFFF7F82B0F0B5E3B06993DBB20792CE
:102B00009A075B07DB0F06936B46D20F002526332F
:102B10000F1C05921D70061C02F0A4FA031CAC33B6
:102B20001B6812AC0390049305F07EFD6B46A02257
:102B30002733201C5200291C1D7007F0F1FE504B5A
:102B4000220A1C705A70220C240E9A70DC709D743C
:102B50004C4B1A68FF32937D022B10D1D27D1A4262
:102B60000DD0494BFA201B6880001B8F584303F09F
:102B700037FA02F0A1FC02F0C1FC02F0C5FE4349A5
:102B80000020A223021C0B7105F098F83B78B34299
:102B900002D004F0B7FF3E703A4B00221B689A60E7
:102BA00005F0D2F8041C02F093FEA04204D0201CD1
:102BB00002F093FE042435E0049F69466B462631FB
:102BC0002F4A2733009701900798FFF719FD0AADA8
:102BD000041C281C04F028FF69AB1A78059F022109
:102BE00078008A43069F02430420B90082430A43C7
:102BF00029781A7006231A400B409A4212D00EAD63
:102C0000281C04F011FF1F4B0F221868291C1730D5
:102C1000FF3007F043FE2B785A079B07D20FDB0FDC
:102C200006920593174D1A4A2B689968914202D073
:102C30009A6801329A60052C0CD104F0E1FE2A68F2
:102C40003623FF33D35C834206D104F0C3FEB04287
:102C5000A6D001E0042C05D0039B049FAC331F6079
:102C600002F0B6FF6B4627331B78002B01D002F031
:102C700061FF201C63B0F0BC08BC02B01847C0461E
:102C80004C0B002000000020300B0020130500201A
:102C9000FFFFFF7F70470000F0B5C94BA3B01C6871
:102CA00000AF65682168F86368004D436D002B1C18
:102CB0000833DB08DB006A46D21A9546B8632A1C43
:102CC00068460021FD61786307F02AFE626821688A
:102CD00095004A439200131C0A33DB08DB00684668
:102CE000C01A85466B460021FB6207F019FE636837
:102CF00022689E005A439200131C0A33DB08DB0053
:102D00006846C01A85466B46FF21BB6107F008FE86
:102D1000F86B0021013878613963162810D8012337
:102D2000A84A8340134206D1A74A134208D0A74BB2
:102D30001B682E3302E0A54B1B6830331B783B63C6
:102D4000BA6B3B6BAD085208B608013BFD60BA6038
:102D50003E617B627A6A013200D18BE07869022899
:102D600004D9FB6B113B012B00D97FE0002002F05E
:102D700015FF934B964A1E6815683368BC6C7B64DC
:102D80003B623B6A013BBB636DD37468013C611CD1
:102D900066D0B368396A6A694B43E31801339B0014
:102DA0009858FB6B032B2AD004DC012B06D0022B96
:102DB0000BD0EBE7FB6B113B012BE7D8E969A300D4
:102DC0005B58C01AC343DB171840BA6BFB68F96A3B
:102DD0005343E3189B005958FA6A401898507B6A8D
:102DE000002BD3D1B96BBB684B43E3185B00396B45
:102DF000BB6207F0E3FDBA6A7B6BD052C6E7B96BE2
:102E0000FB684B43F96AE21892005258BA62824258
:102E100000D2B862B96AFA6AE3189B009950BB6B9A
:102E20003A69B9695A43A3189B003A605A589446C4
:102E3000824200D984463B68B869E118890062463D
:102E40000A50B86A7F21831AFD2B01D85B0899B21A
:102E5000BB68BA6B786B5343E3185B00195295E774
:102E6000BA6B3A628DE7B86BBC647864796A0139F1
:102E700079626FE7524E1A2233681868596878628F
:102E8000B9631C690533DB7F381C00214C303B6281
:102E900007F046FD7A6BFB69101CD518291CFA6BEC
:102EA00000F0C6F9F86B11286CDB12280BDD132833
:102EB00068D10022786B291C03F022FBBA6B002337
:102EC000FA633B6260E0F96B11290CD13368BA6B8D
:102ED0005B68013A013B7B613C1C0023FA63483488
:102EE000BB6101200DE03368796A1B68BA6B013B56
:102EF00001397B613C1C01237962FA634434BB6174
:102F000000203568F861296879647B6C591E396343
:102F10007964002B34D06A68BA64BA6C531EBB64FF
:102F2000002AF2D0386BB969BE684218F86842438B
:102F3000F869C1188A18F96A92005058396BFA6812
:102F40004E434A4384469A18F86A92001258216800
:102F500078699E19760081420EDA6146FA208B1A52
:102F60008000891858434910002900DC012107F02E
:102F700073FD7A6BB052D0E7786B00233352CCE705
:102F80001C1C01E0B86BF863796ABB6B386A3D1CA6
:102F90006835FA6B2970AB70E870391C381C7E23D9
:102FA0005B426A704C311A226E306B712C7107F0E3
:102FB00075FC281C796B04F0B7FDBD4623B0F0BD4D
:102FC000C80200200400400003000300300B002072
:102FD00000000020F0B5474E85B000AF346839607E
:102FE00001684068231CB860FE337960998B2069C2
:102FF00007F088FD404B0D1C1B689A6951005A6907
:1030000001324A43131C0833DB08DB006946C91A46
:103010008D46F960081C002107F082FCA169F86860
:10302000BA6805F063F9341C01280DD13368FF3309
:10303000587702F041FA02F067FC02F07BFD0020B5
:1030400002F0ACFD33684BE02C4EF9683368B86889
:103050005A7805F05FFA23680022FF335A7702F0AE
:1030600053FC02F067FD02F07FFA012002F096FDAA
:1030700002F0D2FBFDF7ECFD31682268CB78111C21
:10308000FE31898BC91AA94201DD9D422BDC1269F0
:103090009A4228DD04F05EFF3368426859688A422C
:1030A00003DB9A6883689A4203DA23680122843337
:1030B0001A70002D04D102F057FA281C02F06EFDA0
:1030C0003368DB789D420ED123681A1C8432127853
:1030D000002A04D17A685969106804F0FDFF23685A
:1030E000843300221A7039680523BD460B7005B081
:1030F000F0BDC04600000020C8020020340B0020B4
:1031000008B504F0BBFB08BDF8B505F087FA3E4FE3
:10311000061C3C68206B642803DDA36BC3420CD5FE
:1031200026E0002826D1394BA26B1B68012512210D
:103130005B5E9A421FDB051C1DE0C8281ADD5B00A0
:103140000025C34217D5616C07F086FC0A2812DC03
:10315000E7239B00F358022B0DDD231C78331B78EB
:10316000AB4208D1231CF6331D786B425D4102E06F
:10317000012500E000256834257005F04FFA3C6811
:10318000E36B1E2B31DC206B831EC62B2DD8616CAC
:1031900007F062FC052828DC231CF6331B78002B83
:1031A00023D12379002B20D13623FF33E35C002B7E
:1031B0001BD1E7239B00F358013B23D39A00DD2169
:1031C000B218890052181268012AF5DCE16F002359
:1031D000221D052905DD211C783101200870E367D7
:1031E00001E00131E167D3670CE0221DD16F0023BC
:1031F000052904DD211C78310B70D36701E0013112
:10320000D167E367F8BDC04600000020340B002002
:1032100008B505F0E9F9054B1B681A1CFF32527915
:10322000002A02D0683300221A7008BD0000002076
:103230007047000008B502F0CBFC02F04FF801F037
:10324000E9FF01F09DFF0F4B1B681A7A0E4B1B68BC
:10325000D033002A01D0022200E003220B491A6079
:1032600000230B700A49A0220B700A49D2050B708B
:103270009363D36B3F218B43D36362B603F0D2F9E0
:1032800008BDC046680B00206C00002029000050DB
:10329000280000502A00005038B5051CFDF77AF8C8
:1032A000041CFF3405F0A0F96379002B27D0144BE0
:1032B00000221B68DB6A013B07D31901691808204B
:1032C000095E0029F7D10122F5E70E4B1968086B5A
:1032D0000B1CFC33002810D1896B00290DD1002A6A
:1032E0000CD0DA68FE2A01DC0132DA60DA68322AB0
:1032F00005DD0022DA60627101E00022DA6038BD8B
:10330000C80200200000002070B5051C0C1C161C13
:1033100004F02CFC002802D001280AD023E00E2063
:103320004643AD19EA88FF23FE2A00D8D3B2637161
:1033300019E00E2070432818C288FF23FE2A00D807
:10334000D3B263710B220A238256C3560921D31AC2
:103350000822415682568A1A934202DDA371E27115
:1033600001E0A271E37170BDF0B587B01D1C0CAB1C
:1033700003AC1B78161C00910C220021071C201C9A
:10338000019307F0CDFA0F236A1C1A4040210A432B
:1033900022700122B25603201A40627030567288A1
:1033A000318866780001334003436370019BA1704C
:1033B000E270002B26D1227880235B4213432370D6
:1033C0003A7B01231A402378102112018B431343C7
:1033D0002370BA88131C12B2FF2A00DDFF232A1CB7
:1033E000381C211C2371FFF78FFF009B04229A5E7B
:1033F000074B1B685D195035002A01DD012300E0F1
:1034000000232B70201C04F0C1FB07B0F0BDC046A8
:10341000D0020020F0B5AA4C93B023680B901B6833
:10342000C82004914000FA215843890007F014FB9A
:103430000C9004F0A1FB23680126F5331B78099654
:10344000002B65D09F4B049D1B680B9C9E689F6959
:103450000696DE6807961E6908965E690A9600263B
:1034600009960596984B059E1B681B6A9E424FDA8B
:103470002B8811A803806B88438006F089FB042009
:10348000235E002B3EDD238810AE33806388301C22
:10349000738006F07DFB0021735E069A9A420ADA79
:1034A0000798984207DD0221725E089E964202DA72
:1034B0000A9E964224DC04202A5E002A1DDD834AEF
:1034C000059E12689020921980001218127952B24B
:1034D000012A12DD069EF21B9A420EDA079EF219AD
:1034E0009A420ADD10AB089E02201B5EF21B9A4234
:1034F00003DA0A9EF2199A4202DC0023A38001E05B
:1035000001260996059E0A35013605960E34A9E76F
:103510000B9E0024043605966B4B1B681B6A9C426D
:1035200000DB97E1049E11AD3388281C2B80738843
:103530006B8006F02DFB0E23059E6343043E079629
:10354000059E06930023F35E002B00DC23E1079821
:103550000599038810AE023933800B88301C7380C4
:103560000A9106F015FB2B8832880D93574B0B926E
:103570001A6876881319191C50310E966D880878D0
:1035800053490F950968002801D1453100E04631C3
:10359000097808914F49575C002F04D0109806F025
:1035A00079FA071C03E0D626B6009B191F70474B1B
:1035B000D6201D6880002B191B181B78012B0FD1FA
:1035C000059E0227317A049E327A914200D1A9E009
:1035D00000200093011C10AA231CFFF7C5FEA1E0E8
:1035E000049EDC230422B25E9B00022F09D1002A34
:1035F00000DC97E0EB581B5D022B00D192E0032723
:1036000090E0012F6AD1002A35DDEB581B5D5A1E70
:10361000012A48D8022B2ED0DA239B00EA5810AB9F
:103620000026995FA00012188C4603900021505E7E
:103630006646301A0226995F40438C460221535E4B
:103640006646F31A5B43244EC318B3422CDDDB23DA
:103650009B00EB5803980C9E1B589E4224DDD923F7
:103660009B00E858069E0023009380190499231CB0
:10367000FFF77AFE17E0D9239B00E858069E0799CA
:1036800080190E2207F00AF9DA239B00E858A600F9
:103690000422801910A907F001F9DB239B00EB58E5
:1036A00000229A5100E00327084BDB2219689200A0
:1036B0008A58A300D3181A6801321A6032E0C04653
:1036C00000000020840B0020C8020020D00200204F
:1036D000800B002046030000C4090000002F21D108
:1036E000002A1FDDEB581B5D012B1BD1DB22920052
:1036F000AA58A300D2580C9E964213DDD9229200FC
:10370000A858DA229200AA58069ED2188019049965
:10371000231C0097FFF728FE04F04CFA04F020F970
:1037200004F02AFA049E0423F35E002B15DD0E9E9E
:1037300032B20F9E33B2D31AD817089E1B184340DB
:10374000B3420ADA0B9E32B20D9E33B2D31AD817A7
:10375000089E1B184340B34216DB099E002E13D06F
:10376000032F01D0002F0FD1002300930798231CB3
:10377000049910AAFFF7F8FD079E3388049E338052
:103780000A9E3388049E7380384B1A68DC239B00A2
:10379000D3581F554AE0049E0423F35E002B45DDF9
:1037A000324BDC221B6892009A58165D012E21D103
:1037B000DB2189005958A20089580C9888421BDDEA
:1037C000D92189005858069900274018DA21890024
:1037D0005B5804999A180097231CFFF7C5FD04F065
:1037E000E9F904F0BDF804F0C7F90096381C391C5B
:1037F0002A1C06E0022E07D0012300200093011CA2
:1038000011AA231CFFF7B0FD059B049E043B1B88F7
:103810003380059B023B1B887380154B1A68382345
:10382000FF33D15C002901D00021D154059E013421
:103830003388049EB380059E7388049EF380059EA2
:10384000337A049E3372059E0E360596049E0A3620
:10385000049661E6054B1B689A6E191C5C310A7070
:10386000DA6604F0A7F913B0F0BDC046D00200201C
:1038700000000020F0B5C44B9BB01B6800270793E5
:10388000C24B0B901B6811911B6A04970393039C16
:103890000E235C43039A051910940E952B1C0F9769
:1038A0000E3B013A0BD3D988049C8C4200DA049178
:1038B0000425595F0F9F8F42F2DA0F91F0E7B44C65
:1038C000012123681A1C5232127891401A1C53327B
:1038D00012785433891A1A788B1ADBB21393FCF7D7
:1038E00059FD23680D901A1C383212780C9236223A
:1038F000FF32815C01291AD1A64B1B68F5331B7876
:103900000C93109B0B9D039C0E3BEB18013C089401
:1039100006931C1C039B079F8C20093380009B008F
:103920003A18089DD31804340A93059517E09B2292
:103930000D9F5200BA5C3933022AE2D1DFE7231F20
:1039400000201B5EFF2B0EDD0027E35F002B15D14F
:10395000059F0A9D013F043D05970E3C0A95059F72
:103960000137ECD1CCE00021635E002BECDD382286
:103970000D9D0123FF32AB540C93E5E7844B0D9F63
:103980001B6836201A1C4732FF3015783A5C002A33
:1039900004D11A1C608802CA14330CE0012A0DD12C
:1039A0007C4B88261B6876001A1CFC3211696088E3
:1039B0009A192133FF3304F080FA061C0D9BFF3364
:1039C0005A79734B002A05D01A6829321278964228
:1039D00000DA161C1A68131C48331B78002B01D11F
:1039E00064234AE06C48079F2B1C38181490417BD5
:1039F0001591002921D10025675F64217943079D36
:103A0000CB2080008C4629181D1C7543AC4512DD67
:103A1000B74210DC8D68AC460125AC4467468F6028
:103A20005C4F3F6880373F78BC4506D1149845739A
:103A3000159D8D6001E000208860079F56483D1865
:103A4000697B002913D00027E15FCB20079F8C46BC
:103A500080003918B44508DD88680C9F0130886003
:103A6000B84204D10020687300E000208860079D00
:103A7000494FE919497B0029B2D0079D8C27BF0027
:103A8000E919059D4819057D0027E05F002D03D049
:103A90000C9F6DB2BD4221DC6421414373439942C6
:103AA0000FDB131C44331B78049D61886B439B110F
:103AB000994206DB136C0F9F7B439B11984200DBFE
:103AC00046E70A9D079F8C200023800063802380A7
:103AD0002B603B185A68013A5A6039E7283212784D
:103AE0002E4D724368435343984200DB30E70A9DF2
:103AF0000023638023802B604B68013B4B6027E7EA
:103B0000079C8C25AD00089E631900225A609A1903
:103B1000039F143205920A227A43119C109E0B9D3A
:103B2000A2180392AA190C3A0492089A089F6C32C0
:103B300052009A1804320F92089A8C207432520064
:103B40009B18083310930C237B438000079C1B18A1
:103B5000E3180993089F013700D1CCE20E9E0E9D19
:103B60000A3E0027F35F0E3D0B950A96059C002B3D
:103B700000D144E223780C9A0133DBB259B2063209
:103B800091420DDC23700FE0D0020020C80200201B
:103B9000800B0020840B00202F0300001027000062
:103BA0000C9B059D04332B70059E0023F356012BBF
:103BB00009D1069F039B3A880A3B049C1A80039B09
:103BC0002288083B1A80059E00257557012D65DD6A
:103BD000A81C032106F096FF039CCFB212970A3C63
:103BE000022D45D1924B039D1868924B0021625ED5
:103BF00019680368083D9C460026AB5F4E69096959
:103C000040684910511ACF170138C919000279408C
:103C1000401A7F280ADD76109E1BF0176746013F89
:103C200036183F024640BF1B7F2F11DC069E049FC3
:103C30000020305E0021795E801AC91A05F08EF9E5
:103C40000B2805D92388069C23802B88049D2B8074
:103C50000323013B1CD3099F069E5A00BA183088E3
:103C6000111C5A31049C0880218860321180F0E7D1
:103C7000089D06236B43079EC91822886E4B490096
:103C80007118CA52039B083B1A88A4239B00CA528E
:103C9000069F049C3F88248819971894674B1B68DB
:103CA0001A1C9C321178012923D19D331B78089D61
:103CB0009D421EDA0D9BF6331B88002B19D10D9BFC
:103CC000DE331B78002B14D1D4216943594B059E58
:103CD0001B68883159180023F3560092584A0B98F4
:103CE0001268383212780192039A0A3A00F0F0FC16
:103CF0006CE1059F00257D57012D00DC66E1032D59
:103D000000DC3EE1089C06266643129F4A48BC1927
:103D1000079F64003C19205A032111901298043027
:103D200006F0F0FE89194900A42379189B00E05A97
:103D3000414ACB5A8F5A14909C46042D16D1039BAE
:103D4000069D0A3B0020285E00215B5E049DC01A90
:103D5000039BC2178018083B504000215B5E002285
:103D6000AA5ED31ADA179B18534013E0069D002071
:103D7000285E0F9D0023EB5E049DC01A0022AA5E00
:103D8000109DC1170023EB5E4018D31A4840D91785
:103D90005B184B400899079D2A4AC0186B189B185E
:103DA0001978274A002906D011685A3109888842B3
:103DB00008DC002105E011685C310988884201DBDC
:103DC000012119701B78002B3ED112688021131C31
:103DD0005832128856331B8800924A0004F05CF86F
:103DE000154F069D061C0021695EE05F049F0B1ABB
:103DF000DD175A196A4000257D5FA427BF0094464D
:103E0000E25FAD1AEA17AD18554065442B1C321C11
:103E100005F04AFF069B321C1880E05F049C2B1CB7
:103E20000021615E05F040FF049D288085E0C046CA
:103E3000C8020020D00200208A020000840B00206B
:103E4000800B002002030000119C149DA1B2CF1B27
:103E50003FB2FB0FDF197F10AAB215976746D31B3D
:103E60001BB2069CDD0FEB180025645F049F5B10FE
:103E70000B94159C169300203F5E0B190B9D169C0E
:103E800017971BB2EB1A1219179DDF1712B2DB1925
:103E9000AA1A7B40D717D2197A409B180024802B8E
:103EA00001DD1C1C803C12980321053006F02AFE1F
:103EB000924B119A1F68079D89193B1C5333490087
:103EC0001E78691810B25D788D4A139B58438B5E3B
:103ED0007343C0180B9B6B43C0183B1C52331A78BA
:103EE00055371041119014983B7807B21398474307
:103EF000A4208000095E4E43BE19179F16997D438A
:103F00007519159E59437343119F11411341154172
:103F10008022F8186D18231C0B99D20005F0C4FEFE
:103F2000069E049F30808022231C0021795E281C7D
:103F3000D20005F0B9FE049C2080039B0A9E063B3C
:103F40000021715E0025585F6C4D431A2F68DC1705
:103F50001B1963403C22BA5E05F0A6FE0A9E039B35
:103F60000E9C3080043B083C188821882B683C2735
:103F7000DA5F431ADD175B196B4005F095FE208070
:103F800024E038230D9EFF33F25C039B0A3B002A9A
:103F900008D01B88069F049C3B80039B083B1B8822
:103FA000238013E0069D00269B5F0022AA5E069FE9
:103FB000D3185B103B80039B049C083B0022A25E4D
:103FC00000255B5F049ED3185B103380059F0022A1
:103FD000BA560C9CA24200DC88E00A9D0023EB5EEE
:103FE000002B66DD039B063B00269B5F002B60DDFC
:103FF000199C0F9F189E109D3C802E8059E0002236
:10400000A2560C9DAA4230DD0399063900268A5F2C
:10401000002A32D0079F8C208000089D3A1854193E
:10402000A07F0130C0B2A077344C40B224683A344B
:104030002478A04202DD059E33701EE0039B069F9C
:104040000A3B1B88049C3B80039B0A9D083B1B8802
:1040500023800B882B80039B043B19880E9B083B15
:10406000198053680133536007E0079F089C254D72
:10407000059E3A19521933701370089E059F013E30
:10408000039C069D08960E9E013F0A3C0E3D0E3E87
:1040900005970394049F0F9C06950E96109D099E0C
:1040A0000E3F023C023D0C3E04970F94109509967A
:1040B00050E5079C8C25AD006319596801315960A2
:1040C0000E4B1B6838331B789A4201DA059F3B7010
:1040D0009B230D9C00225B00E254079D8C26B600BA
:1040E000089FAB19DB1900229A77C6E701230A9EC5
:1040F0005B423380F1E71BB0F0BDC046800B00206F
:104100008A0200000203000008B5FFF7B3FB08BDF8
:10411000F0B591B0069008910B920D9300244C4B92
:104120001B68DB6A9C4200DB8FE0069F2301FB18C3
:1041300008201B5E002B00D185E0089FA300FB1820
:104140000327DF5709979B78013F5BB207930597D9
:10415000099F059801370A97B84274DC079E013E13
:10416000079B01339E426BDC394B059A196801327B
:1041700088680B9F4243531C9B19FD5C0490013DD2
:104180005CD3C96A8D4259DAAC4257D03149169F87
:104190005B000868DB5B011C0C93FF314979089FC9
:1041A0008C46A300DB5F67462B49002F0BD03627D8
:1041B000BC46FF27BC446746C05D002803D10968A0
:1041C000498E490801E00968498E59430C988911C4
:1041D000834233DC079FD2190132169F5200D35B12
:1041E00099422BDA0A9B04984343F31801335B008E
:1041F000DB5B994222DAA54202DB2B1C251C1C1C2E
:10420000069A21010FAF51180A310422381C06F01A
:1042100045FB069B29015918381C0A3104F0B6FAEF
:1042200000970B9F231C01970D9F06980297169FDE
:10423000089903972A1C04F0C7FA2C1C02368FE752
:10424000059F023783E7013469E711B0F0BDC0462E
:10425000C802002000000020800B0020F0B5A24B17
:1042600093B00B9200221A80A04B11901B68072676
:104270001A7B0C1C0896062A00D808929C4A1268E1
:1042800078321278002A05D11F7A07970A27DE5F55
:10429000069606E0974B1B681E7A07960A201F5E5B
:1042A0000697954D95492B680B9F1A685E680A70B2
:1042B0009A6804238A7001329200CB70BA18512395
:1042C00002204E700B7103F0F9FC88490023096845
:1042D000A21D04918649D3770232D3777F26621DCF
:1042E0000968D6772D68E21DD6770E9184496A68F1
:1042F0000968013AD2B2099182490D922A68096887
:10430000013A52B20F9105930093002A00DAB2E00D
:104310000D98530041B20A93002900DAA9E0AE6873
:10432000571C7743049B01377F18BE0001971B7809
:104330000B9FF059002B16D036230E9EFF33F65CF0
:10434000012E05D12E68099F4E43BF18BE5D04E0C3
:104350006E68099B56435B189E5D331C43430F9E5A
:104360003669734318136B68189F5343CB189B002F
:10437000DE59330C1B1A0198119E4700BB539F1D39
:1043800004DA594E3788013737805DE0002B5BDB5C
:1043900004980E268657B34215DB27689E1BBE196C
:1043A000266066690E2701366661C07B049E40B2B6
:1043B0008446F7576068634501DCDF1B01E0664611
:1043C000F71BC7196760E768BB4204DDCEB2D7B2FE
:1043D00010960C97E360089EB3421BDB261C083640
:1043E0001F27F7578F4200DAF177E61D1F27F7578F
:1043F0008F4200DDF177A61D1F27F757974200DA9D
:10440000F277661D1F27F757974200DDF277059F69
:10441000013705971A9E4F00F65B98B20197B44694
:10442000844402901A9F019866463E520A98199F4A
:10443000199E3F5A0298BC4684440A9F6046F05336
:10444000009EF618009612E0049F1026BE57B34255
:1044500006DCA0689E1B8619A660A6690136A661C7
:104460002669B34200DA2361009FFF1A00970139E1
:1044700052E7013A49E7204B00981B680125D968AB
:1044800006F0EAFA20497C235B42221CCB70E061F3
:1044900076231C32281C0B714D7003F00FFC059E17
:1044A000A21D26621F21631D51561F229A56154BCD
:1044B0001B68914201DB1D7301E000221A73109FFB
:1044C0000C9E231C28335E701F70E768079E012036
:1044D000B74205DA2369069FD80FFA179F42504169
:1044E000C0B213B0F0BDC04628040020740B0020F9
:1044F000000000207C0B0020C80200200C050020DA
:10450000780B0020CC020020740000200B4B0968BF
:104510001A683623FF33D35C094A1268507B48433C
:104520008011002B01D1137B04E0012B05D1054B39
:104530001B68DB79984200DA181C704700000020E5
:10454000740B00207C0B0020F0B595B00C1C1E1CD9
:104550000B92069003F0F2FC5A4F08903A68032140
:1045600051562020411A022010564900091A4910BC
:10457000554DC9B205912B68907A19781B79009036
:10458000D27A05980192029072681A9805F0A0FFFD
:1045900038682B687268067A19791B780096407A19
:1045A000059E019002961B9805F092FF00211822AB
:1045B0000EA806F0B5F9A3687F22180A190C002688
:1045C0000D932272A27240B25AB249B21B162F68E2
:1045D0006672E672059007910993049605988242E7
:1045E00052DC1A9D5300EB180A93079B099E501C3E
:1045F000B34247DCB9680B9D4143591801314E0065
:10460000755F5900AC461B9D664669180989761A84
:104610000A99B4460E896546A91B089E367BB142AD
:1046200013DD0B2565579D4200DAE3720A256557B5
:104630009D4200DDA37209256557954200DA62723A
:1046400008256557954200DD2272CD1F072D08D839
:104650000EADED5C0126AC46B44466460EADEE549C
:1046600001E0002904DD049D8D4202DA049100E09E
:104670000021BE68069D704318180130800041512A
:104680000133B3E7021CA9E70DA80EA9069A00F0B2
:10469000C1FB0D4E0D493368049D5A6825601868AA
:1046A0004A709A68069D8A707C2301325B429200B0
:1046B0000870CB70AA18832305200B7103F0FEFA53
:1046C00015B0F0BD880B0020C80200200C050020AA
:1046D000F0B5E5B014926AAA20CA0D901278281C91
:1046E00019920A1C0491D03248301178007888421F
:1046F00001D301311170CE4A0D9F16680022BA5EB7
:10470000B06F0D9D4243121417920222AA5EF76FFA
:104710007A4312141892012B39D1049A0021D13214
:104720001170049AD0321370049B179D189F0022B9
:1047300001311D60DF605A601A619A605A619A61A6
:10474000DA611A625A629A62DA6234330429ECD16D
:104750006A9B049D9A8C22332A63DA886A66598997
:104760002A1C98321160D98951631A88291CAA61C0
:104770009A880431EA64AA651A89CA6788310A608E
:104780008A609B892A1CB4321360D36053616A9D8E
:10479000002402351A941B940395039DA200002364
:1047A0005219181C1A255D43049FD15A7D192D6B8F
:1047B000023369434018082BF4D1FA21890006F02E
:1047C000FDF8682109196A4602348852082CE4D1A0
:1047D0001CA80021102206F0A3F8002534236B4307
:1047E000049F20A8FB181B6B039F0693EB00FB188C
:1047F0002F0107933F1800240799069A085B682346
:104800001B1950436A46995A06F0D8F863001CAA4F
:104810009958F850023408189850082CECD10135FA
:10482000042DDBD1D02230A8002106F079F8149DA8
:10483000B76F0023EB5E149D7B431B143093022360
:10484000EB5EF26F012653431B1433933DAC21AF53
:1048500003960023049A079306931E1C181CF9580C
:1048600015684D434019D5684D43761955684D4339
:10487000069949190691FD58116910336943079D3E
:1048800034326D180795402BE9D1039D1CAAAB006B
:104890009D58291C06F0E0F8291C2060301C06F009
:1048A000DBF8291CE060069806F0D6F8291C606049
:1048B000079806F0D1F8039E2061012E19D000233D
:1048C000049A0593181CFE589168103371434018E0
:1048D000516934327143059E76180596402BF2D10A
:1048E000291C06F0B9F8291CA060059806F0B4F858
:1048F0006061039D3434013503950437042DA8D13C
:1049000038AC0025A80020A984460A1C6244002374
:104910000992049A0A930893079306930393181C29
:10492000099ED769F15896694F434E438019039EFB
:104930001033F619176A03964F43069EF619576A05
:1049400006964F43079EF619976A07964F43089EAF
:10495000F619D76A089679430A9E343276180A9671
:10496000402BDDD167461CABFE58271C311C06F0DE
:1049700073F8083F3860002D1BD0311C039806F0F7
:104980006BF8271F3860311C079806F065F86060E7
:10499000012D0ED0311C069806F05EF8311C206007
:1049A000089806F059F8311CA0600A9806F054F8EF
:1049B000E06001353434042DA4D1049B002130AAD9
:1049C0008D58521856689768D0681D605E601569EA
:1049D00056699F609769D8601D615E619F61D0696B
:1049E000156A566A976AD26A3431D8611D625E626E
:1049F0009F62DA623433D029E1D1049C0026251C61
:104A00000835069507966A9B079F3233022F0BD015
:104A1000032F0FD0012F03D01D789A88DB880CE07C
:104A20005D781A895B8908E09D789A89DB8904E0C2
:104A3000D0020020DD781A8A5B8A9C46012D60D066
:104A4000002D4DD0022D79D1069E6068366827680A
:104A50000111C9198019069F0F9020697F68089677
:104A600073116669CB180111C91911937311CB1811
:104A70001293A36A80190A96DE0F1090F618E06A66
:104A800076100596C10F266A09184910F7187F1885
:104A90000397A069E7693E18206AC70F3F187F1087
:104AA000F719E669606ABF193F1805983E18039820
:104AB000C70F3F187F10606AF719E6693618059826
:104AC0003618206A3618F018666A40180590F118F2
:104AD000E06AC91809181B180E918618139339E05B
:104AE000069F26687F68A069119612972E1C1718DA
:104AF00013950E95039505950A95109508950F95B4
:104B000028E0666827683311DB19069F0F9626692F
:104B10007F6811933311DB19E0691293A369616A0D
:104B20004700FF18401810967F1800268918059036
:104B30000E91139603960A9608960BE0002613969C
:104B40000E9603960596371C0A96109612960896AE
:104B50000F9611961298189B119A1B1A0B93FB171C
:104B60001B0F1799DB191B116344891A0991B801AE
:104B7000191C0C9305F070FF059A0C991590900183
:104B800005F06AFF039B0C991690980105F064FFED
:104B90001199099B8A0215994B43D3189B122360E4
:104BA0000F9B16999A01099B4B43D3181B019B122B
:104BB0006360089B06999A01099B4343D3181B0124
:104BC0009B120B60129B15999A020B9B4B43D318B7
:104BD000069A9B125360109B16999A010B9B4B43AC
:104BE000D3181B019B1223610A9B9A010B9B434321
:104BF000D3181B019B12636180231599DB00591A9E
:104C00000B1C7B43DA17920DD3189B128C46A361C1
:104C1000002D05D1E56125626562A562E56234E09B
:104C2000059B4B43DA17920DD3189B12E361169B39
:104C3000059A5F427A430E9B99025218D3179B0D37
:104C40009A1892126262022D1BD1039D61464D4358
:104C5000EB179B0D5D19AD122562039DB6026F43E4
:104C6000139DAB02FF18FB179B0DDF19BF12A76244
:104C7000039F7843301AC617B60D30188012E062D1
:104C800003E000232362A362E362099A0B9B524371
:104C90005B43D318584A934205DC642058430C996F
:104CA00005F0DAFE00E05548554B4610554D012001
:104CB0009E421BDC301C291C05F0CEFE291C421C28
:104CC0005143771AFB17FF185F404F4B4000C05A03
:104CD000520078434D4FC919761AF11776184E4095
:104CE000D15A4E43291C801905F0B6FE68430C9931
:104CF00005F0B2FE079F069DBE0030AB013734358C
:104D0000F050079734340695042F00D07BE600243A
:104D1000251C68266100361930AA6F46F35B885857
:104D2000049E58431A236343FA21F3181863890039
:104D300005F044FE02344519082CEAD10024049FF2
:104D4000291C3E19306B05F039FE002801D0306374
:104D500001E0012333633434D02CF0D10024049BD0
:104D6000251C211C201C1A6B1E680131564330186B
:104D7000DE6814195643343375190429F3D1211C04
:104D800005F06AFE211C061C281C05F065FE049D2A
:104D9000199A2B1CD033197801322C6B01339142B4
:104DA0000CDD1A78002A15D16A9A463295788D4220
:104DB00010D3128894420DDB012200E00022002172
:104DC0001970012A08D1149E0D9F33883B80738887
:104DD0007B800EE001221A700D4B0D9F1B681A1D7F
:104DE0000833D26FDB6F56435843361400143E80AD
:104DF000788065B0F0BDC04614AE4701FFFFFF7F6D
:104E00006F11010010270000BEAA0000F0D8FFFFBC
:104E1000D0020020F0B54D4B91B000AF7962196817
:104E200084464B680868BB6343430733DB08DB00F9
:104E30006C46E41AA5466E463863FE626046C0784A
:104E4000634640B238629B785BB2BB621E1C3D6A0F
:104E5000AE4254DC7C6AA35D082B4ED96546012026
:104E600028560023EB56F861B86BFC6A584330189B
:104E700020187863FC69A3423FDC0624002B09D08C
:104E80008868584380198000145810184568806855
:104E900064192418886801337861584380198000A8
:104EA000155810186419F8603D6B8068013DB860B2
:104EB00020185C1EAC4211D07C695D1C6543AD19A5
:104EC000AD00BD6155594019F863B869FC6B151800
:104ED0006868AD682418FC63641900E0841DF868F4
:104EE00045680320684304190D2044437D6BB86B6B
:104EF00024122C702D187D63BCE70136A7E7BB6A2E
:104F000064460320205683421DDC7E6AF05C08283C
:104F100017D9644600202056BC6BFD6A44431C1917
:104F20002C19664601257557A8420ADC8D680130A8
:104F300045435D1926780135AD00AE50BE6BA4190E
:104F4000EFE70133DCE7BD4611B0F0BDC802002039
:104F5000F0B5304F85B0019038680A1C031CFF3350
:104F600002909E7D0B1C143303930023022E2AD142
:104F7000029CFF34E47D344225D01478012C07D103
:104F80000D7D651BE8172D184540072D0DD108E054
:104F9000052C12D10D7D641BE01724184440012C10
:104FA00007D1541A0E2C12DD13E05578002D06D0CF
:104FB0000DE05478002C0CD009E0022C07D0033C03
:104FC000012C06D803E010780C7DA04201D00133FB
:104FD000DBB2039D0132AA42C8D10022022B15D8B0
:104FE0000198012303700B7D591EC9B2062901D80F
:104FF000094A525C3868FF30817D022906D1C07DA4
:10500000084203D0063B022B00D81A22101C05B020
:10501000F0BDC04600000020CEAA0000014B186081
:105020007047C046680B0020014B18687047C046A7
:10503000680B0020014B18607047C046640B0020CD
:10504000014B18687047C046640B0020014B186084
:105050007047C046600B0020014B18687047C0467F
:10506000600B0020014B18687047C0466C000020A0
:105070000B4B70B519680B685D1E0FD34A68013A77
:105080000AD38E68541C5E43A419064EA400A419CA
:105090002668C6402660F2E72B1CEDE770BDC046CF
:1050A000C8020020004000508D23013B002B01D09E
:1050B000C046FAE7044B10221B78DBB21807C00F7A
:1050C000134018437047C0462B0000500F4BF7B5F4
:1050D00018261E700E4BA0271E70FFF7E5FFFF0578
:1050E0000B4B01AC00252C3760701D703E70FFF734
:1050F000DBFF064B20703D701D7023786278181C12
:105100005040400013400343D8B2FEBD2A00005077
:105110002D00005010B50D4B00201B78AA2B12D18A
:105120000B4B1C780B4B64B218780B4B40B21978C0
:105130000A4B20181A780A4B49B21B78401880187D
:10514000C01A43425841C0B210BDC04650000200D0
:1051500051000200520002005300020054000200FD
:10516000550002008023DB020022188059809A80BB
:10517000C046024B188880B27047C0460600040043
:10518000154BC022920098581449014099509958E3
:10519000FF20814340200143995098581049014015
:1051A0008020000401439950985880210002000A91
:1051B00009060143995002221A6001221A6008214F
:1051C00004221A601960FC3300215960054B1969EB
:1051D0000A431A617047C04600E100E0FF00FFFF8C
:1051E000FFFF00FF00ED00E013B5094A0424137827
:1051F0000021DBB21C4301910198F421FF31884268
:1052000005DC1370C046147001990131F3E713BD3A
:105210000D00005013B500220192A022D205D06BE0
:10522000C021C9000143D16301AB18780321884331
:10523000012108430C24A043042420433024A0432C
:10524000102420433F2420404024204318709878A5
:105250000F24A043072420439870D8780143D970C5
:10526000019B936113BD00000122A023DB051040C8
:105270000206034998690840104398617047C04688
:10528000FFFFFFFE82B00022019201301F2201AB1E
:105290001040C9B21870481C023110400A409200F8
:1052A0005870DA70019AA023DB05DA61196A024AA4
:1052B0000A401A6202B07047FFCFFFFF0002064BA0
:1052C000000A0138002258609A6005221A60C04620
:1052D0001A68D103FCD5704710E000E0F0B5534FD9
:1052E00085B03B681A1C303215780232196B12787F
:1052F00033331E780F231407994312092D070192A7
:105300002D0F0B1C80222B4352001343484A039558
:10531000484D1340484A2B4048491340240F0B4046
:105320000199220413430A0545493607360F0B40FD
:10533000009613433206434E029433401343424ACD
:10534000A024E4051340E360FFF74EFF3B68E268EA
:1053500031331B781540DB069B0FDB021D43E560F4
:10536000E26880239B001343E360E26880239B0193
:105370001343E360029C039DFFF7CCFE002813D08B
:10538000324F882039781E34C9B205F065FB397870
:105390004443C9B2882005F05FFB0F3545431E3CEE
:1053A00000230F3D9C4203DB231E0F2B00DD0F2348
:1053B0000F22954200DD151CA024E4051F491A4068
:1053C000E36812040B401343E360EB43E268DB172E
:1053D0001D400F239A431D401543E560E368F0220A
:1053E000934380221343E360E368154A184813404F
:1053F000E360E3683340E360FFF760FFE268802327
:105400005B051343E3600099E2680B0616401E43F8
:10541000E6601048FFF752FF019B09491A05E3684F
:105420000B401343E36005B0F0BDC046640B0020A1
:10543000FFF9FFFFFFE7FFFFFFDFFFFFFFFFF0FFC9
:10544000FFFF0FFFFFFFFFF0FFFFFFEF5400020021
:10545000FF0F0000FF6F0000064A074B1268012093
:10546000D032126819789040021C0A43D2B21A70E6
:105470007047C0466C000020290000500549064BCB
:1054800009681A78D03109680120884082431A706F
:105490007047C0466C00002029000050044B18786B
:1054A000044B1B68D0331B68184101231840704718
:1054B000290000506C000020044B82B0019001AA2A
:1054C000188092789A7002B07047C046240000504D
:1054D00007B500F061FD064B019001AA1880927893
:1054E0009A70044B00221A70034B0122DA7707BD31
:1054F00024000050240B002008000050034B002221
:105500001A70034B0122DA777047C046240B002043
:105510000800005072B6084B1B5C002B03D1C0463C
:1055200062B630BFF6E762B6A023DB059968034A8E
:105530000A409A607047C046240B0020FFFFF9FF25
:1055400072B6074B1B5C002B02D1C04662B6F7E770
:1055500062B6A023DB059968024A0A409A60704748
:10556000240B0020FFFFF9FFA023DB055A6801216F
:10557000120E58689143034A090602400A435A60D2
:105580007047C046FFFFFFFE08B5074B1B681A1C9B
:105590003732127838331B78520001325043994029
:1055A00005F05AFA08BDC046640B002008B5044B4C
:1055B0001B683A33197849000131FFF7E5FF08BD50
:1055C000640B002008B5A0230120DB055870FFF70D
:1055D000A1FFFFF7C9FF08BDF7B5A026041CF6051B
:1055E000042808D005280ED15A4B1B681A1C8C328F
:1055F0001768903305E0574B1B681A1C94321768E4
:1056000098331B6821E0544B1B685F6A9B6A736187
:10561000FAF7C0FEF7300378002B17D005F01AF91F
:1056200005F050F881787F22114089040191716959
:105630000B1C4A490B40019919437161C178474BD2
:105640000A40716992040B4013437361A023DB0588
:105650001F611E691F231E40FFF75CFD00280AD052
:105660003F4B882019780436C9B205F0F5F9464356
:105670000023043E03D4331E1F2B00DD1F23A02272
:10568000D20510691F210B40884303431361032C8B
:1056900034D005DC012C2DD013DC002C11D030E0EF
:1056A000052C0AD005DB062C2BD12A4B1D68A23510
:1056B00027E0284B1D689C3523E0264B1D689F354D
:1056C0001FE0FAF767FE031CDE331B78002B03D0C4
:1056D000204B1D683B3514E0F7300378002B05D0D4
:1056E00005F0B8F804F0EEFF051D0AE01A4B1D683E
:1056F000363506E0184B1D68393502E0164B1D683B
:105700003C35A023DB05596928783F22104091439E
:105710000143596168781F215D6908401149C00241
:105720002940014359611049640009680C19211C82
:10573000823108785968104091430143596083349D
:10574000217858680A401102084A02400A435A6008
:10575000F7BDC046680B0020640B0020FFFF03FE6E
:1057600054000200FF07FFFF6C000020FFC0FFFF96
:10577000244BF7B51A68244B1B6839331B785B063A
:105780009B0E0193131C3133197800238D0055199A
:10579000581E5B18002B27D053181B1832331B7868
:1057A0008024D3185E78A023DB055F68E4033C43C4
:1057B0005C60019CB606240400945F68B60EBC468B
:1057C000124F64462740009C27435F60C046243642
:1057D00076008400F65A2C19B03426605E680C4CB2
:1057E00034405C60031CD3E7131C313309491B7838
:1057F0000F204B700423CB70B023D2180B7102F032
:105800005DFAF7BD6C000020640B0020FFFFC0FFB5
:10581000FFFFBFFF74000020F7B5FFF7A9FF124B91
:1058200000241D682B1C31331E78731C9B005B42C7
:105830000093B300EB180193009B043C9C4208D0FA
:10584000019B01211F19B0373868FFF79DFE3860B2
:10585000F2E706490423CB70B023EA180F204E70FC
:105860000B7102F02BFAF7BD6C00002074000020D1
:10587000044B00225A70A023DB055A7001221A70D3
:105880007047C046240B0020A023DB059968064A18
:105890000A40802189020A439A60044A00219170DB
:1058A00001229A707047C046FFFFF9FF240B0020C9
:1058B000024B1B68A83318687047C0466C00002074
:1058C000024B1B68A83318607047C0466C0000206C
:1058D000A023DB059868C0B2704730B5A023DB0574
:1058E0009B68DBB283420ED001DA013300E0013B5A
:1058F000A022D2059568FF211C1C8D430C40291C59
:1059000021439160EEE730BD08B50020FFF702FEAD
:1059100008BD0000034B1B68373318784000013086
:105920007047C046640B0020024B1B683833187860
:105930007047C046640B00200048704700100050BC
:105940000048704700200050004870470040005059
:10595000064A074B12681B687D3210789B68013835
:105960005843044B8000C0187047C0466C000020AC
:10597000C802002000400050054B1A68054B906893
:105980001B6879331B785843034B8000C01870475D
:10599000C80200206C00002004400050F0B585B023
:1059A00000AFFAF7F7FC5D4B1988031CDC331A884B
:1059B0008A181A805A4B1B681A78BB6053B2042BA2
:1059C00024D1584B1B689E331B78FB60FFF7C0FF48
:1059D000554B02221968531E9C4600D29AE04B6830
:1059E000013B11D38C6854430134E518AD007D6050
:1059F000BD68EE183A363678FD68A419A40024581C
:105A0000EC407D682C50EBE76246E4E7052B23D1A0
:105A1000444B1B68A1331B78FB60FFF799FF424B97
:105A200004221968531E9C4674D34B68013B11D362
:105A30008C6854430134E518AD007D60BD68EE18F4
:105A400052363678FD68A419A4002458EC407D68CD
:105A50002C50EBE76246E5E7002A45D0022B0BD13C
:105A6000DE300378002B03D02E4B1B683D3338E02B
:105A70002E4B1B68383334E0032B03D12B4B1B68B0
:105A80003E332EE0012B27D16D467D60FFF774FF7A
:105A9000254B061C1B6868465C68A5002B1C0A3356
:105AA000DB08DB00C01A85466B46FB60013C0BD36C
:105AB000B86803193A331B789B009859FFF776FDB5
:105AC000FA68A300D050F1E7301CF9682A1C04F0F2
:105AD000E5FE7C68A54607E0062B05D1114B1B6847
