:10000000000800201D0300000000000000000000A8
:1000100000000000000000000000000000000000E0
:1000200000000000000000000000000000000000D0
:10003000000000000000000000000000DD010000E2
:100040002902000000000000000000000000000085
:10005000E1010000000000000000000000000000BE
:10006000F901000000000000000000000000000096
:10007000000000000000000000000000002934D053
:100080000123002210B488422CD301242407A1426A
:1000900004D2814202D209011B01F8E7E400A14227
:1000A00004D2814202D249005B00F8E7884201D3C2
:1000B000401A1A434C08A04202D3001B5C0822439A
:1000C0008C08A04202D3001B9C082243CC08A0420B
:1000D00002D3001BDC082243002803D01B0901D0F7
:1000E0000909E3E7101C10BC7047002801D000206C
:1000F000C04307B4024802A14018029003BDC046A5
:10010000D90000000029F0D003B5FFF7B9FF0EBCFD
:100110004243891A1847C046002941D010B4041C34
:100120004C40A44601230022002900D54942002862
:1001300000D5404288422CD301242407A14204D296
:10014000814202D209011B01F8E7E400A14204D276
:10015000814202D249005B00F8E7884201D3401A8D
:100160001A434C08A04202D3001B5C0822438C08AF
:10017000A04202D3001B9C082243CC08A04202D319
:10018000001BDC082243002803D01B0901D0090909
:10019000E3E7101C6446002C00D5404210BC7047B9
:1001A000002806D003DB0020C043400801E0802087
:1001B000000607B4024802A14018029003BDC046E1
:1001C000190000000029EBD003B5FFF7A7FF0EBC14
:1001D0004243891A1847C0467047C046FEE70000F0
:1001E000034B01221A71034B00211970DA6070472A
:1001F0002C04002000000850084B0120084AC021B0
:100200001872890500230B710B721375054A923120
:100210005371537353755377087070472C04002043
:1002200000001050C000003038B5A025ED05EB7D72
:10023000DBB2022B16D005D8012B4AD1284B002265
:100240001A6046E0042B1AD0082B42D1244900231F
:10025000CB600B602A6A52BA0A61081D083102F0AD
:1002600089FF36E01E4B5968002932D01A68986819
:1002700082422EDA501C18602B6A8B5429E0184CED
:100280006368002B24D0E268A1688A4209DA9B5C8B
:100290006B6223699A1890B202F0B6FFE3680133EB
:1002A00013E02369211CD218201D083102F062FFDF
:1002B0006368002B0BD02169E2681B7888182061E5
:1002C0006B6280B202F0A0FF0123E36001E0237CB7
:1002D0006B62A023DB0501221A73C0465A7338BD36
:1002E000C0020020A023DB050122492110B55A7469
:1002F000D970002119720221DA7299710F215A7195
:100300001A715972044BC02189005858FF24A04328
:1003100058501A6010BDC04600E100E0F8B5002357
:10032000414A42499A188A4204D24149C958043381
:100330001160F5E73F4B404A191D043B934203D23D
:1003400000221A600B1CF6E7EFF308823B4B191DE5
:10035000043B9A4203D93A4818600B1CF7E7FFF7B1
:10036000C1FF38493848043901F0DEFC374C85B20A
:1003700001235B42281C23716371A371E37102F0B6
:10038000B3FE33490A1C0B1C3D323C3312781B78F8
:1003900012021A43231C954243D12E4A2E4C158833
:1003A0002E48A5420BD04E7D15880A7D3602324379
:1003B000954204D1028892B21A71120A5A710288C7
:1003C000A2421BD0CE7D8D7D028836023543AA42E3
:1003D00014D100250422013AD2B2FF2A07D0204EC0
:1003E0008F18B65C3F79B742F5D10125F3E7002DB0
:1003F00004D0028892B29A71120ADA715A79197984
:1004000012020A43A2420CD0DA799979124B1202F5
:100410000A439A4205D0134B1B781C2B01D100F0E4
:100420004DF962B6FEE7C04600000020C002002081
:10043000E8390000C4020020250400206C040020DC
:10044000CDCDCDCD00400000000000003A040020DA
:10045000C03F0000D03D0000FFFF0000BE3F000095
:10046000D43D000081001050014B18607047C04619
:1004700044040020014B18687047C0464404002023
:10048000014B18607047C04648040020014B1868B3
:100490007047C0460000002038B5094C256802F0BE
:1004A00005F8E860256802F007F8064A2861126836
:1004B00023681178044A1268127C4A43DA8038BDF6
:1004C000000000204804002044040020F8B500AFDC
:1004D00001F0D0FB86B06C46102286B00021201CB3
:1004E00003F0E9F90020032101F06CFE0120011C5A
:1004F00001F068FE1B4E6D4631680C23CA68D25865
:10050000EA50043B181DF9D102F0C0FC0B2826D19B
:100510000020032101F056FE0120011C01F052FED3
:1005200031680C23C868C258E858821AE0589042D3
:1005300000DAE250043B1A1DF4D10B497F20CA783F
:10054000042382434B701343802252421343CB70E7
:1005500001205223221C0B7102F08AFDD4E7BD4614
:10056000F8BDC046000000209800002008B501F04A
:1005700025F9021E05D10449A9230B7102F078FD6B
:10058000FEE7FFF789FF08BD6403002008B50020DF
:1005900003F054F901F074FB08BD08B503F07CF9D1
:1005A00003F04CF901F06CFB01F042FD08BD0000C6
:1005B00070B53C4C23685A78002A42D19D7803F0EC
:1005C000B5F88378002B02D16BB2013303D12168D7
:1005D00000258D8010E023689988DA88914203D243
:1005E0009988013189B2998002215956012903D095
:1005F0009B88934200D30125226893789D4209D0BD
:10060000294900202B1C0E33021C0B7102F030FD17
:1006100023689D7023689A78002A03D1234A1268C0
:10062000127804E0012A03D1204A12685278DA7065
:100630001A1C68321278DD6B002A14D01B6CED187E
:1006400011E05A780025012A0DD1184D29688A78C1
:10065000DA7002F057FC002803D02B682268DB78A0
:10066000D37023681D6C2368D87801F02BFF061C1B
:10067000281C01F04BFF301A01F08CFF031C0120F5
:10068000002B0AD02368D87801F01CFF041C281C1A
:1006900001F03CFF201A01F07DFF01F0BDFF01F0E9
:1006A000C3FF70BD00000020640300204804002048
:1006B00008B503F065F801F06DF908BDF0B5A7B015
:1006C00002F0E4FB6D462235287003F097F803F042
:1006D000BFF801F05BF8FFF749FF02F0D7FB6E4669
:1006E0002336041C3070082800D1F7E027D80228F0
:1006F00000D1B7E0052800D1E6E0002800D02AE1CB
:10070000974B1E6802F0E6FB70700EAE211C602253
:10071000301C03F0D0F8211C142209A803F0CBF8F8
:1007200010AB0A9312AB0B9316AB0C9309960524EE
:1007300003F002F801F0B2FB01F00EFE0BE00B2813
:1007400000D1F7E00D2800D1FEE0092800D002E139
:1007500002F0E0FBD9E0022C12D004D8002C6FD0BC
:10076000012C0AD073E0042C40D028D3052C6ED184
:1007700001F096FDC0B202F0B1FC002002F090FA48
:1007800002F096FD071C02F09FFD061C02F0A2FD80
:10079000734B3A1D1B6800900220019009A802903B
:1007A00000200390191CDB6848310493081C331C9B
:1007B0000EA900F005FE052C01D0002447E009AB8E
:1007C000002150220B981974597403F074F8644E88
:1007D0000120011C376801F003FD624B38641B687F
:1007E00001201A783368DA7002F05AFA02F060FDDC
:1007F000071C02F069FD079002F06CFD8446584E1C
:100800003A1C67460837316800970227019709AFFD
:10081000029701270397081C079B09697C32023362
:100820000491483010A900F0CBFD33681A1C6832DF
:100830001278002A01D04C4A12685A66052CBCD1A5
:1008400068462330291C09AA00F04CFA041C02F067
:100850001DFB6B4623331B78834200D17BE7FFF7F8
:1008600027FF78E0FFF792FE02F0D6FA002001F0B1
:1008700069FDFFF711FE02F04DFB02F055FB041E6F
:10088000062C0BD0062804D8052810D101F0C6FB91
:100890000DE0142805D0172803D008E001F0C8FBAC
:1008A00005E002F049FB011C201C00F04DFE02F0A7
:1008B000EDFA33788342E0D0FFF76FFE002001F0BD
:1008C00041FDFFF7E9FD46E002F024FB01F09CFD4D
:1008D00002F0DCFA33788342FAD03CE002F01AFBF3
:1008E00022494323002203200B7102F0C1FB01F0D7
:1008F00033FD0020012101F065FC01F03DFD02F017
:10090000C5FA33788342EBD025E01849432300220F
:1009100003200B7102F0ACFB01F01EFD0120011C55
:1009200001F050FC01F028FD02F0B0FA3378834268
:10093000EBD010E002F0EEFAFFF7C8FD02F0A6FAE5
:1009400033788342F8D006E002F0E4FA02F09EFA2F
:1009500033788342FAD06B4623331B782B70BCE686
:10096000000000204804002018010030640300202B
:1009700008B502F01BFF01F00DF808BD70B502F0DC
:100980008BFF02F0D3FE041C02F0A4FA2C4D2B685E
:100990002E1C5A78824233D058705B78012B0AD1D2
:1009A0006369E360236AA361E36A63626389E38046
:1009B0006379E37024E023490020DF23021C0B71DC
:1009C00002F056FBE368201C6361A36900212362E7
:1009D000636A0822E362E38818306381E378637115
:1009E00002F069FF201C00210822243002F063FF7E
:1009F0002B6800215878C0B202F0D8FE01201EE01A
:100A000002F04CFA041C02F051FA031C002C0AD02C
:100A1000002002F053FA336800215878C0B2FFF783
:100A2000A7FF05200BE0201C002B08D002F04CFA99
:100A3000336801215878C0B2FFF79AFF032070BDD8
:100A40000000002064030020F0B5C3B002AFF860DE
:100A5000396100209849A6237A61021C0B7102F0CB
:100A600007FBFFF7A5FD954E35682B1C68331B78F7
:100A7000002B03D12A6953601360BAE0904C3E1CEE
:100A80002036BE60331C221C43CA43C31268381C84
:100A90001A6000211022303002F00DFF211C381C9A
:100AA00010316022403002F0FDFE211C381C7031F4
:100AB0006022A03002F0F6FE0023FB61814B8249E8
:100AC0001A688A4201DC01321A605A688A4201DCE3
:100AD00001325A6002F00EFA7D352870774D0F20F2
:100AE00029687A4A7D310C78794B251C854305D1DC
:100AF0001578854306D06420186003E01578854397
:100B000000D11D601868002801D0013818601378E2
:100B10000F201E1C864302D0012C00D10B700978D7
:100B2000684C0B1C1170113B21395842434148421B
:100B30004141D078DBB2C9B253709170984202D073
:100B400000202060D3701079884202D000206060BD
:100B5000117120203021DB00C019C919C218CB182F
:100B60002068022102F07DFB584B30229B78402602
:100B70005343A021F619C919F218051CCB18606857
:100B80000C2102F06EFB534C534B2D181D60E37883
:100B9000FD6101227F256270AB430426802233432E
:100BA000524213433A1CE370211CDE231C32002006
:100BB000237102F05DFAF8680121083000F0FEFAB6
:100BC000E3780220AB431E43CB2323713B4B211C14
:100BD0001B6835401A696070E57002F049FA01F04F
:100BE00017FB041C02F0BCFA844202D0201C02F065
:100BF000A7FA7A69F868396900F0C4FA2F4D061C23
:100C00002B685A78012A0AD032490422CA70672216
:100C100002200A71DA68487002F02AFA01E003281B
:100C200046D068462968F8600C23CA68A020D258CC
:100C3000C018043BC2511A1DF7D13C1C403400219E
:100C40000C22201C02F037FE012323700423637062
:100C5000A3706371A0230022DB1900930220131CF0
:100C6000211C02F0CBF91D4BF8681A681C4B854615
:100C70009A4202D001F0C8FBFEE701F0E3FC2A68CB
:100C80005178C9B2002902D1081C01F09BFA2B68E7
:100C900068331B78002B03D00120011C01F092FA6D
:100CA0002B6800201856FFF769FE002800D0061CAC
:100CB000301CBD4641B0F0BD6403002000000020A0
:100CC000C838000084000020DB460300D402002066
:100CD000DC03002098000020D803002068040020D6
:100CE000CDCDCDCD7FB50C1C051C161C02F01EFD14
:100CF00010226846002102F0DEFD22782B789A420D
:100D000003D002F007F92B78237002F0E1F9041CFC
:100D100001F0C6FAA04204D0201C01F0C7FA052455
:100D20000BE0301C694602AAFFF78EFE041E04D1B8
:100D300002F0ACF82B788342E7D0201C04B070BDE1
:100D4000F0B587B0019300260CAB171C9E57041C0E
:100D50000D1C02F0ADFA831DDA7F012E01D19D300A
:100D600002782478002C19D02B78934212DC0133BE
:100D7000DBB22B700393019B1149059346235B4221
:100D80005E430020103603AA04970E71002402F07F
:100D90006FF912E000232B7001240EE0019B08493B
:100DA000049357235B425E430920203603AA03972E
:100DB00005940E7102F05CF92C70201C07B0F0BD98
:100DC0009F000020F7B5141C0191061C02F082FA66
:100DD000071C02F06DFA0023154D9C4216D00199B4
:100DE0002B68013189008C59596EB0301A1C0C1BCC
:100DF000016870321288002906DD5C67002C03DD73
:100E0000201C02F0E9FB021C131C6343019CB86820
:100E1000A200925950432A681B1872321088584316
:100E20008013C343DB171840024B1B68C01AFEBD7A
:100E300000000020D8030020F0B59FB00E920D9165
:100E4000051C02F035FA0C9002F03EFA0B9002F00D
:100E500041FAC74B00221B680F909A62DA620C239A
:100E60000422013A0DD316A9012A02DC2C68E058AD
:100E700003E06E68F01808380068800BC850043B27
:100E8000EFE710AC00210C22201C02F014FD01231E
:100E900080222370524204236370A3701343637152
:100EA000002216AB00930920131C211C02F0A6F8A7
:100EB000AF4B1B685B78002B00D103E1AC4E0022E6
:100EC00033686F685A619A61191C1B6901920B9A09
:100ED0000F9802320C9C0097029280687C340127A4
:100EE0000390221C143104970E980C9400F036FEE7
:100EF0003668041C331C7B331B78002B0AD0331C50
:100F0000783318883221FFF7FDF889B2002901D122
:100F10004636377002F004FC954B06901A68131C95
:100F200061331B789C46002B0CD1924B0E9F1E68A0
:100F30003F689148711EB60019603750002901D1F1
:100F40001421196000210B1C8B4E069F7618F8881F
:100F5000F66C864201DD013300E0013B0439081CD8
:100F60005030F1D1092B08DC131C60331B78302181
:100F7000333BDBB299429B411C406146002908D0BB
:100F8000131C60331B78632B03D1131C00216133C6
:100F90001970131C7D331B780F218B4311D1774BB4
:100FA0001B68002B0DD1002C0BD1D2780F9E0E990F
:100FB000F3680092CC220292019468680C9A02F0C5
:100FC00071FB6F4902234B707C235B42CB700E9AFE
:100FD000CD2301200B7102F04BF802F069F9644C4B
:100FE000236899695A691E1C031C903000684636B4
:100FF0008C331B680090301C00F0CCFB00F03AFEF4
:10100000071C012001F078F9061C012001F08AF983
:10101000FB8800215E434643F3175B0E9E19F611D1
:101020001A961AAE0A1C301CFFF7CCFE23681A90E1
:101030001F1C463739780122002905D169688203CF
:1010400009688A42924152423A701A1C7D321278E3
:101050000F218A4316D1494A1268002A12D1191C5D
:1010600001259A6947315B69381C0095FFF768FED6
:10107000002807D02368291C5878C0B2FFF778FCF5
:10108000032073E013AC0D991022301C02F00AFC0F
:1010900000210C22201C02F00EFC8022042352426C
:1010A00001206370A3701343002220706371211C20
:1010B000131C009601F0A2FF0D980E9900F0A8FBFA
:1010C000002053E002242A4F28683B680B9A191C21
:1010D000013CDB6800900F9802920C9E019400681E
:1010E000002204360390049228310D98321C00F03F
:1010F00035FD00280CD13A680F99D2784B680092E0
:1011000069220292019428680D99321C02F0CAFAF1
:10111000002CD8D11A497C2302225B424A70CB7042
:1011200001206A230D9A0B7101F0A2FF104E0C9F53
:101130003368D96A9A6A181C7B69BF694430009782
:1011400000F028FB3368181C191CDA6A44309B6ACB
:1011500045310094FFF7F4FD002800D1AEE6336876
:10116000211C5878C0B2FFF703FC02201FB0F0BD6D
:10117000000000208C000020DC020020DC030020A6
:101180009800002070B5141C0D1C061C02F0CEFA4D
:10119000094B002118682822143002F08CFB221C15
:1011A000301C291CFFF748FE041E03D100F05AFB37
:1011B00000F0F0FB201C70BD00000020F0B585B0F1
:1011C0000391041C02F074F8019000F065FD051C09
:1011D00001F006F9019BAA8AA0331B88754D9A423B
:1011E0000FD9019A2B68A2320020125ED96D91426C
:1011F00007DD191C002278310A800A717B33012235
:101200001A702B68191C7B3108781A1C7832002858
:1012100002D01088013010801088019AA432128800
:10122000904201D300220A70634904220226CA7048
:10123000CE220A71301C1A694E7001F019FF277A0C
:101240002B682268B740D71918690021039AFFF765
:10125000B9FD3860207A07220130C0B2207284467E
:10126000607A0027431CD90F9A42794149420B40CA
:10127000616880002A6840586546761B704327687D
:1012800002903E687D689B007019029D2E1A585886
:101290006346584336187610D665207A00238500B9
:1012A0007D190293984208D09E00AE1B043E029F17
:1012B00036680133BF190297F4E7012804D9637A2D
:1012C000029D9B0068105850019BD66DA8331B6887
:1012D0009E4204DB7B321378002B58D112E01C2590
:1012E000344E60683368471900211869039AFFF784
:1012F00069FD043D3860291DF2D1336860331A78E6
:1013000001321A702B4B1B681A1C60321178481E70
:101310000131622800D900211170DD6D274A954204
:1013200003DD1A1C0121613211701A1C7B32117805
:10133000013A002904D01178481E0131622800D9F1
:10134000002111701C22002160688658043A891916
:10135000171DF9D1627A022592001258207A1B6972
:10136000281A5043029D28184008821A5118C908AB
:101370001960237A012B04D900232372637A013385
:101380006372637A072B13D90023637210E01C2564
:10139000084E62683368571918690021039AFFF7ED
:1013A00011FD043D38602B1DF2D133687A33A6E776
:1013B00005B0F0BD000000209800002010270000BC
:1013C000F0B58BB00993002413AB059108921C571C
:1013D000051C01F06DFF079011980021820005980F
:1013E00002F069FA002C06D1544B201C03211F681F
:1013F00000F0F6FEF863201C00F07EFF071C201CA6
:1014000000F090FF009701900294281C0899109A10
:10141000119B01F065FF012C37D1082206920227AB
:10142000129800210830FFF7C9FE444D2B68D87888
:1014300001F048F82B68061C186C01F067F8301AA8
:1014400001F0A8F8012600280CD02A68D07801F015
:1014500039F82B68061C186C01F058F8301A01F0A6
:1014600099F8061C301C01F0D7F801F0DDF801F006
:10147000E9F80120011C013F00F0A4FE002FCFD1AC
:10148000069B013B0693002BC9D107980578002DD8
:1014900022D0012C15D1301C01F0BEF801F0C4F8A7
:1014A00001F0D0F8129800210830FFF787FE059868
:1014B0001499119A02F0B9F8201C032100F082FE61
:1014C00008E0201C032100F07DFE05981499119A74
:1014D00002F0ABF8013DDAE7119B012C12D1174B5A
:1014E000129A1B68157468331B78002B02D0119B6D
:1014F000013B07E0119B013BF9D305989A000021BD
:101500008150F8E7079A009313780598019308999A
:10151000109A099B02F098F8094C0E23A371119BB5
:1015200004206370211C6923059A2371E07001F087
:101530009FFD0023A3710BB0F0BDC046000000204A
:101540009800002070477047F0B595B00690029162
:101550001022002110A802F0AEF900241022FF2171
:101560000CA802F0A8F9201C089401F099FB211C9A
:10157000201C00F027FE012001F092FB0120211C1D
:1015800000F020FE069A172A50D1029B0393A34233
:1015900003D1764B1B689B7C0393039A0592059BB2
:1015A000002B43D013AD0FAC0427013F3BD3012FD9
:1015B0001ADDBB00002607930496049A039B9A4207
:1015C0000DDA0120002100F0FDFD694B079A1B6830
:1015D000DB689B58F618049B01330493EDE7301C3D
:1015E000191CFEF74BFD08E00020011C00F0EAFD8D
:1015F0005F4BBA001B68DB68D0582A68031E934211
:1016000000D2131C22682B60904200D9101C20606D
:101610007F22181AFD2801D84008C2B208ABFA543C
:10162000043D043CC1E7059A013AB7E7514B082253
:101630001878514BC0B200930021504B01F000FECE
:10164000069A142A07D0172A78D10125FFF77BFFC5
:1016500008AE2F1C75E0029B002B03D1434B1B6887
:101660005B7C0293029A0392039A002A50D013AD36
:101670000424013C48D3424E424F012C0BDC002095
:1016800000F050FE002000F037FE33681A1C2E32A6
:10169000167838330AE0012000F044FE012000F003
:1016A0002BFE33681A1C623216786C331B780021CB
:1016B0005F430497344FFA2300970722DB00301C66
:1016C00001F0BEFDFA23009700210722DB00301C49
:1016D00001F0B6FD264B221C1B6812329200D05A34
:1016E000D35C80046927800D1B0778431B0F2A27D2
:1016F0007B43C018049B0A21C018FEF70DFD2A6821
:10170000043D10186860B4E7039B013B0393ABE70B
:1017100013980299FEF7B2FC029913901298FEF703
:10172000ADFC029912901198FEF7A8FC0299119055
:101730001098FEF7A3FC1090FFF704FF10AE0025F1
:10174000042709AC0C22201C002102F0B4F8ED01A2
:10175000012323702F430423201C311C6370A370CA
:101760002371677101F0F0FB15B0F0BD4404002057
:10177000000000203200003030750000F0550000FD
:101780004C0400201A4F00002823000008B501F087
:10179000E5FA08BD10B5002A02DDD14205D50AE000
:1017A000002A02D10124994206DB029B01249A42BD
:1017B00002DC002400E00124047010BD08B5012201
:1017C000104B52421A8700F081FDFEF78BFD00F0AE
:1017D0000BFC00F075FB00F025FB00F0BFFA00F0F9
:1017E00028FB00F03FFB00F063FF62B6064B1B686E
:1017F0001A78064B1B68002A01D0012200E0022261
:101800001A6108BD00001050500400209000002014
:10181000134B70B51C68002323700D1C061CFEF7CB
:1018200035FE41784B42594143784900002B0ED197
:101830004A1C9200A21804320B1C06E09800305893
:10184000002800DC00201060043A013BF6D202318F
:101850002B6889006418002B00DC0023636070BDD6
:10186000B8020020F0B5474B85B01C6801F094FB2E
:1018700000232370FEF70AFE01904578EDB2012D9A
:1018800000D003256F1E01357E00AD00A619651935
:10189000063604353C4B022F0CD001984278002AC2
:1018A00004D11B68197802919B7807E0019842786F
:1018B000012A04D11B68997902911B7A03932B6842
:1018C000002B0BD0AA69002A03DC0298834205DAB8
:1018D00002E003998B4201DA00232B60019B5A78C6
:1018E000D2B2002A0FD1E368333B622B0BD82369B5
:1018F000333B622B07D82549F023E2602261101C9C
:101900000B7101F0B5FB2B681F4A002B17D03388F1
:101910001F4918B2884201D0013333801368002078
:10192000315E9B7A994203DC01235B422B6002E02B
:10193000237801332370E3190022DA701CE0126867
:101940000021705E0092927A904214DDEA68002ACB
:1019500012D0E019C1788446481CC0B26146C870F4
:1019600040B284460098C17A8C4504DC2A60237812
:101970000133237000E03380023E043D013F89D2F1
:1019800005B0F0BDB8020020600400206403002010
:10199000FF7F0000F0B56E4B89B01B68029301F029
:1019A000A1FA059001F0A6FA049001F0F5FA01F011
:1019B000EDFA071CFEF76AFD4378051CDBB2012B2C
:1019C00000D003235C1C0299A4000F225E1E0C1998
:1019D00013400434039307AB00221A809A70022E3E
:1019E00002D06A78012A03D11A7840210A431A707A
:1019F00007AB1A780F218A4303990A431A70022E03
:101A00000BD06B78002B05D1524B1B681A880092C3
:101A10005B8807E06B78012B05D14E4B1B68D9889A
:101A200000911B890193E268019923688A421CDCBA
:101A300000998B4219DB07AA1078802149420143A3
:101A40001170042F04D1FF2B00DDFF23537048E0F9
:101A5000092F46D1404A934200DD131C5BBA07AA06
:101A60009BB253701B0A93703BE000998A4202DBE1
:101A700001998B4235DD022E02D06B78012B3BD1D0
:101A8000009B9A4238DB226801998A4234DB304B52
:101A90000F211B6830331878049B0B4008421DD17E
:101AA000002B29D007AB18788021494201431970D7
:101AB000042F04D1FF2A00DDFF225A700CE0092F09
:101AC0000AD1131C244A934200DD131C5BBA07AAF7
:101AD0009BB253701B0A9370012303E0002BFBD0D1
:101AE0000AE00023022E02D06A78012A24D1002BBA
:101AF00019D007A801F05AFA2368039AA361013AA2
:101B00000F231A40043C0392013E00D363E702997D
:101B1000049A0B788B700E4B1B6830331A7001F0EF
:101B200059FA09B0F0BD049A1207E5D007A801F0F0
:101B30003DFA2368E360DFE76B78002BDCD1059981
:101B40000029D9D007A801F031FA2268E260D3E772
:101B5000B802002060040020FFFF0000F0B585B04F
:101B6000161C0EAA12780B9D0C1C52B23D49029213
:101B7000AA0021619D58731CDB7F002B06D00B9BB4
:101B80000C9FFF5C0D9B7D435D436D130A9FBB580B
:101B90009B0B5B1B002B0DDD1C27F55FAB4218DB9D
:101BA00027685D1BBD4200DA3D1C2560A568013534
:101BB000A5600EE0002B0CD01E27F55FAB4208DCC1
:101BC00067685D1BBD4200DD3D1C6560E568013551
:101BD000E56087183B608B4200DA224B2361FEF7F9
:101BE00055FC051C01F09CFD0390368B029A019672
:101BF000012A2CD12B1C7B3302931B78002B19D08C
:101C00002E1C783630883221FEF77CFA89B2002902
:101C100010D1039A13893A689A420BDA2B1C31804F
:101C20007C331A780132D2B21A70012A02D9029F8B
:101C3000397019702B1C7B331B78002B07D07A3539
:101C40002B78013B622B02D8E1239B000193019D7D
:101C500022692BB2D017D90F9A424841C0B205B0C1
:101C6000F0BDC0460080FFFF014B18607047C046C2
:101C700050040020014B18687047C04650040020F3
:101C8000014B18607047C0464C040020014B186897
:101C90007047C0464C040020014B18687047C0468E
:101CA000900000201B4B30B500211C1C1A781A48EC
:101CB00089180133C9B28342F8D1184B00221D782C
:101CC00001335219164DD2B2AB42F8D12478AA2C66
:101CD00002D10078814201D0002004E01B789A42B2
:101CE000FAD1012014E08022520383189B001B6864
:101CF000FF2293430B4A934202D1002802D107E00E
:101D0000002B04D101300428EDD1022000E0002096
:101D100030BDC04650004000570040005800400011
:101D20005F00400000FFFFFF084B094A5864081A93
:101D300000219864118001221A64C046054B1B885B
:101D4000002BFBD0044B188880B270470000105065
:101D50004C0010505200105050001050C0239B05F2
:101D60001A1C0321F23211705170114A12683C3270
:101D700010781A1CF13210700D3A0A201070181CDD
:101D80000122943002704170191C9031FF330A70A7
:101D9000CA709A72074BC22292009958FF20814361
:101DA000402001439950802252001A607047C0467B
:101DB0004C04002000E100E00A4B002902D0D96F5A
:101DC000014301E0D96F8143D967074B002A02D054
:101DD0001A6C024301E01A6C82431A641A681043B9
:101DE000186070470400025000000250074BC243C5
:101DF000002903D0D96F0843D86702E0D96F11409A
:101E0000D967034B196C0A401A64704704000250EA
:101E100000000250024B1A6C104318647047C04611
:101E20000000025008B501200021021CFFF7C4FF8A
:101E300008BDC0239B05191C0322AF31181C0A7072
:101E4000AE30002101700238027004220271C271AA
:101E5000063002701A1CB1321170B43301221A70AC
:101E6000704700000A4BFF201B681A7B094B9A74CD
:101E700000225A7401221A74074BC1229200995809
:101E8000814380200143995010221A607047C04658
:101E90004C0400200000105000E100E008B50348A9
:101EA0000021102201F007FD08BDC0460C010030E2
:101EB000024B0122DA770022DA7770470500003002
:101EC00038B5394D2B689A68C0239B051A63374B88
:101ED00001221A70FFF7E6FE01283CD1344A354B47
:101EE00011780F2902D81278D2B200E00022DA77F6
:101EF0002A68937A022B01D12F4B06E0042B01D1E3
:101F00002E4B02E0062B07D12D4B1978092903D857
:101F100019782C4BC9B219701378A02B01D12A4A19
:101F200006E07D2B01D1294A02E0B02B02D1284ADC
:101F30001478E4B2E4B2211C2031C9B2254A402908
:101F400002D8E418E4B21470234B117A1B78CB1832
:101F5000DBB2137225E0022823D18022D20311784C
:101F6000144B0F2902D81278D2B200E00022DA779F
:101F70002B681B78A02B01D1184A06E07D2B01D1DC
:101F8000174A02E0B02B02D1164A1478E4B2E4B248
:101F9000221C1032D2B2202A03D8E4180D4AE4B22F
:101FA0001470FFF785FF38BD4C040020800000301E
:101FB00058004000080000305B0040005A0040001C
:101FC00059004000320000305100400052004000F3
:101FD0005300400000001050540040000400400036
:101FE000080040000C004000C0239B05191C10B5E0
:101FF00000222A31181C1C1C0A70283401212B30A5
:1020000001702170233862700824C477D81D06330C
:10201000C177DA77FFF74CFF10BD000008B5034B1E
:1020200000211B681869FFF7E1FE08BD9000002041
:1020300008B5034B1B681869FFF7ECFE08BDC046E6
:1020400090000020044A054B12681B681069184074
:1020500043425841C0B2704790000020C000025077
:102060000A4B1B695A0706D5A023DB051A7E002AF6
:10207000FAD101221A7472B6054B1B5C002B03D1F6
:10208000C04630BF62B6EBE762B6704700ED00E0D5
:102090002C04002072B60A4B1B5C002B0DD1C046ED
:1020A00062B6084B1B695A07F4D5A023DB051A7EDC
:1020B000002AFAD101221A74ECE762B67047C046D2
:1020C0002C04002000ED00E00C4B1B685A78002A1D
:1020D0000CD00B4952B252000868D11D8900C8507B
:1020E0000849063209689200D15005E0064A126894
:1020F000DA61064A12689A617047C0469000002073
:102100001801003014010030100100300C010030C3
:1021100038B5C0239B051A1C00243032147050328D
:10212000147001259A1DD577DA1DD4772833223211
:1021300015701C70FFF7BCFE024BDD701C70323353
:102140001D7038BD0000105038B500F0C1FF0C4ABA
:102150000023C0241070A405D370323213700125FF
:10216000E21DD577A21DD377223215705370FFF789
:102170009FFE231C803330341D70257038BDC0464F
:10218000000010500B4A08B5002313720A4A126867
:10219000D17B0A4A1175C02292050121117011727A
:1021A000074A1370984204D00820FFF759FFFFF741
:1021B0008BFF08BD2C0400204C04002000001050B0
:1021C0009200003010B5041C00F074FA034B01209B
:1021D0001B685C70FFF7D6FF10BDC0469000002062
:1021E00010B5041C00F048FA201C00F063FA074BFD
:1021F00000201B685C70FFF7C5FF0820FFF74AFF4F
:10220000FFF762FF00F046FA10BDC04690000020C4
:1022100073B51C4C1C4E2368FA25ED006233187808
:1022200000212B1C0096072201F00AF823680021E8
:102230006233187807222B1C009601F001F8134B2B
:1022400000211878124B07220093C0B2114B00F006
:10225000F7FF114B69221B680A21503318881B783D
:102260008004800D1B0750431B0F2A225343C018C4
:1022700023680A4A6C331B785343C018FDF74CFFA0
:1022800080B276BD4C0400202823000032000030CC
:1022900030750000F0550000000000201A4F0000CB
:1022A000014B1878C0B2704700001050064A1378EE
:1022B000DBB2834206D001DA013300E0013BD9B240
:1022C0001170F6E77047C04600001050084B1A68BE
:1022D000084B507B591CC877107C991CC87701218A
:1022E00059751168196051689960927B1A7370472B
:1022F0004C04002000001050002804D1084B1B683B
:10230000D87D9B7D08E0012809D1054B1B681A1C6C
:102310004B324A3310781B78C01A0130FFE7704700
:102320004C040020002803D1054B1B68588B06E0A5
:10233000012804D1024B1B684E331888FFE7704711
:102340004C04002008B5FFF7C1FFFFF7B9FDFFF708
:1023500005FD00F0ADF908BD10B5054C0123237350
:1023600000218022034801F0A6FA0023237310BD48
:10237000FF00003000000230F0B5164E012389B096
:10238000337368460021202201F095FA1023013BA7
:1023900008D32F21104AC91A4900895A68465A00A1
:1023A0008152F4E70D4CB32310270225211C032092
:1023B000094AE5702371677000F05AFEE57003204A
:1023C0000025211C6A466770257100F051FE3573A7
:1023D00009B0F0BDFF00003000000230980000207E
:1023E000064B01221A73064A0020911CC98F1288DD
:1023F0001873044B8A1A1B689A827047FF000030DA
:102400000000023090000020F7B5234800F07EF86D
:1024100000F022F9214F0025214E224CB7421FD255
:102420008036F31B2026832B00DC9E100123667070
:1024300000203A1C211CB610E370207100F018FE39
:102440003B1C321C013A08D3002D04D116491868F0
:10245000884200D01D1C0433F4E7B600BF19DBE747
:102460000E4904226B1A01270193E270A723211C55
:1024700001AA002067702371843600F0F9FD04235F
:10248000751BE3700020A823211C01AA0195677029
:10249000237100F0EDFDF7BD801A060068040020EE
:1024A0008007002098000020CDCDCDCD014B1868CD
:1024B0001830704790000020014B1868203070479A
:1024C0009000002070B50D4BFF2419781E7B631A15
:1024D0008921490059430A4B051CC9180948FDF7D1
:1024E0001BFE084BF6B25843074BB600F1580C40A0
:1024F000291C6143FDF710FE70BDC046000010505E
:102500001953000040420F009839000070B50B4B82
:10251000FF2419781D7B631A892149005943084B10
:10252000061CC9180748FDF7F7FDEDB2064BAD00D4
:10253000E95870432140FDF7EFFD70BD00001050D9
:102540001953000040420F009839000010B50C4BA1
:102550000C491A7B1B7892008C5C0B4A444312682E
:102560000A489168CB1A8921FF3349005943084B27
:10257000C918FDF7D1FDC1B2201CFDF7CDFD10BD7E
:1025800000001050983900009000002040420F00D9
:1025900019530000F7B5194BFF251A7B1F78197ADC
:1025A0009C7A9300E4B20094154C691A1B59154AA1
:1025B00043430193144B154859438918FDF7ACFD6B
:1025C000FFB28921ED1B49006943114B061CC91854
:1025D0001048FDF7A1FD011C301CFDF79DFD019A7F
:1025E00003235043009AFA2113409B00E418236C04
:1025F00089005943FDF790FDFEBDC0460000105014
:10260000983900005CAA0900350C000000CA9A3B0A
:102610001953000040420F00024B00221A709A70BA
:102620009860704700000850044B00221A71044B58
:10263000DA609A705A7001221A7070472C040020D8
:102640000000085008B5FFF763FD0420FFF708FD00
:10265000FFF77AFD08BD00000002064B000A0138B2
:10266000002258609A6005221A60C0461A68D10399
:10267000FCD5704710E000E0044B054900221A60C9
:1026800059609A6005221A607047C04610E000E069
:10269000FFFFFF0010B5044C0448A368C01AFFF701
:1026A00055FF0023236010BD10E000E0FFFFFF0096
:1026B00001207047F7B5051E03D1574B1C68143431
:1026C00004E0012802D1544B1C684834206A534B63
:1026D00053491860A27E534B53481A70227A534BC9
:1026E000C0261A70A27B524BB6051A70E27D514B80
:1026F0001A70E37CCB70A27C4F4B1A70236BDAB25A
:102700004E4B1A70227F4E4B1A70E27F4D4B1A705F
:10271000A27F4D4B1A70E18CFDF7FEFC231C2A337F
:102720001B7803384343DA17520ED218231C2B337D
:102730001B78D2114343DF177F0EFF18231C2C3365
:102740001B78FF117B43D917490ECB18DB1101937E
:10275000231C29331B783D495843C3175B0E1818B7
:10276000C011C0B20870D10F891839484910C9B2D8
:10277000009101700078D2B2101A3649C0B20870C8
:102780003548FFB20770201C283007783348344B97
:1027900007700099334801703348012101700078B7
:1027A000121A0198033A12183048D2B20270227CF1
:1027B0001B480270002D13D12D4A1068827A59717E
:1027C0001A71621DD57F5D72C07A59731873D27FFA
:1027D0005A7402221A7080238B402168F15015E050
:1027E000012D17D1224A11680A7B5D751A75621D89
:1027F000D07F5876497B5D771977D17F1D4AD17795
:1028000004221A70226880235B00F25062688223DF
:102810005B00F250F7BDC0464C0400209800003029
:102820008C00003096000030204E00008400003004
:102830008A000030930000308E000030AC00003081
:10284000B0000030B3000030B2000030EA000030C9
:10285000EE000030EC000030ED000030F100003000
:10286000C0000030F0000030EF000030EB0000301E
:1028700050040020C2000030F7B50022914202D07F
:10288000012900D10222510041181C4D0C88D600AC
:102890007619F4800F881A4B141C1B681234BF057C
:1028A000A400BF0C0197174DE75A2F40019D3D43EF
:1028B0000F7AE55237720F89E65C0F210F408E4385
:1028C0003E43E654541C660080190C4D0688E40013
:1028D0006419E680133206889200D75A094DB6056E
:1028E000B60C3D403543D552057A2572D45C00893B
:1028F0008C430840211C0143D154F7BDC000003077
:10290000000000200FC0FFFFF7B5002508AC655799
:102910000026B54202D0012D00D102267400B60077
:10292000041901960020019EB446104EB444664638
:1029300037183E68964202D927887F1A04E03F681C
:102940009F4202D227887F1827800430023408284B
:10295000E9D10749054F02234B70ED000423EA1922
:10296000CB703F230B7100F083FBF7BD0C010030EF
:1029700098000020F0B591B0061CFFF7BDFC041CC8
:10298000301CFFF7CFFC9B4B1968002E01D14A8801
:1029900000E0CA8862434243D117490E8A18D21117
:1029A00005921B68002E01D19B8800E01B895C43C7
:1029B0004443E3175B0E1C19E41108940B948E4CEE
:1029C000059AE3780A927F229343042780223B43AF
:1029D0005242134302216170E37000204723211CFF
:1029E0000AAA237100F044FB80230CAD9B00082150
:1029F0001A1C2B806B800B1C29816981AA80111CF9
:102A0000AB811A1CE378E9807F218B43EA810222A3
:102A100062701F43794A3F232371F3009A180F40D5
:102A20000820211CE770099200F022FB022363704A
:102A3000E3787F218B43022213430B40E370412351
:102A40002371B300EB181A1C0820211C069300F018
:102A50000FFB02236370E3787F2177008B43022210
:102A6000043713437F000B40EF19E370211C42230E
:102A70003A1C08202371079700F0FAFA80210A23F4
:102A8000890004930391271C0399049A4910013A81
:102A900003910492002A3ED00CA8311CFFF7ECFEF3
:102AA000301C0021FFF78EFB00960CA80399059AB5
:102AB000089BFFF729FF012E22D1514C2268D078C4
:102AC000FFF700FD2368051C186CFFF71FFD281A8F
:102AD000FFF760FD031C301C002B0BD02368D87857
:102AE000FFF7F0FC2368051C186CFFF70FFD281A90
:102AF000FFF750FDFFF790FDFFF796FDFFF7A2FDF2
:102B00003D4902234B70CB7008204123069A0B717C
:102B100000F0AEFAB8E7082304240393039A013CBB
:102B2000521003920CA8311C002C3ED0FFF7A4FEDB
:102B3000301C0021FFF746FB00960EA80399059A6A
:102B4000089BFFF7E1FE012E24D12D4D2968C8789E
:102B5000FFF7B8FC2B680490186CFFF7D7FC049AB9
:102B6000101AFFF717FD031C301C002B0CD02B682C
:102B7000D878FFF7A7FC2B680490186CFFF7C6FC09
:102B80000499081AFFF706FDFFF746FDFFF74CFD15
:102B9000FFF758FD184902234B70CB7008204223E1
:102BA000079A0B7100F064FAB8E7FFF765FE301C76
:102BB000211CFFF707FB04230225FB70201C402388
:102BC000391C099A3B717D7000F052FA4123201C98
:102BD000391C069A3B717D70FD7000F049FA422362
:102BE000201C391C079A7D70FD703B7100F040FA83
:102BF00011B0F0BD50040020980000200C010030FE
:102C000000000020F0B589B00D1C041C0392049351
:102C1000FFF772FB0590201CFFF784FB039AA91CA9
:102C2000D3B20191CA001B4967005118049A0B7274
:102C3000012393407F190793174BBF00002506908F
:102C40000291FF182E1C07998E4207DA201C0021E2
:102C5000FFF7B8FA3B680136ED18F4E70F4B019A1D
:102C60001B6812329200D35C029A1B071B0F13726F
:102C7000039B0F2B03D1201C0021FFF7A3FA059A19
:102C80000699E8015143FDF747FA049B184109B042
:102C9000F0BDC046C00000300C0100300000002034
:102CA00008B5FFF767FE08BD014B18607047C046C6
:102CB0005404002038B5FDF7DDFB051CFEF7DAFFF4
:102CC000244C291C2068102200F0ECFD226803230C
:102CD0009375214B0F20597E1D7E090229439D7E4D
:102CE0001A1C08322D04A26029436269DD7E6360EC
:102CF0002D061070E26829430D0A117055700D0CF5
:102D0000090ED170597F95701D7F090229439D7F5F
:102D10002D042943DD7F2D0629430D0A11715571BC
:102D20000D0C090ED171191C2D331B782C3109782B
:102D30001B020B4313721B0A5372A3699571022283
:102D4000D8709A70E3691A6800221A6004221A7116
:102D50005A7138BDA8000020D03F000038B5FDF7FB
:102D600089FBFEF787FF124CA56A00F063FD6860DF
:102D7000FFF7A0FF0F4B226B1B681B88190A5171CC
:102D800013710221042B03D00021092B00D1032150
:102D9000231C3C33917101225A7000229A7000F07A
:102DA00045FD054B04225860236C1A7038BDC0469F
:102DB000A8000020540400206C03002008B5084A35
:102DC000916C4B780749DBB20B72012B05D0022BBB
:102DD00005D1536C01225A7001E0FFF71FF908BDBD
:102DE000A80000206C030020094B10B51B7A094C89
:102DF000012B05D0022B05D1626C0023537001E03A
:102E0000FFF716F9636B7F211A788A431A7010BD99
:102E10006C030020A8000020F8B5194D0024194EBD
:102E2000337A012B07D0002B18D0022B17D1164B69
:102E30005B6C5C7813E0FFF705F9041C002D0BD1E7
:102E4000FFF7F6F82E23FF33013B002B01D0C046DD
:102E5000FAE7FFF7E3F80A4D013D00E01C1C0A4FBA
:102E6000BA6C5378327A9A4206D0FFF7BDFFBB6C3A
:102E7000044A5B78137201E0002CD0D1F8BDC04643
:102E8000FF2C01006C030020A8000020024B9B6C6B
:102E90001878C0B27047C046A8000020024B9B6C57
:102EA000187DC0B27047C046A8000020024B9B6C42
:102EB000587DC0B27047C046A8000020014B9B6CF3
:102EC00018757047A8000020014B9B6C587570471F
:102ED000A8000020024B9B6CD878C0B27047C04657
:102EE000A8000020024B9B6CD87DC0B27047C04642
:102EF000A8000020024B9B6C187EC0B27047C046F1
:102F0000A8000020024B9B6C987EC0B27047C04660
:102F1000A8000020034BA0225B6C1A701A78A02A2C
:102F2000FCD07047A8000020024B1B6D1878C0B27F
:102F30007047C046A8000020024B1B6D9878C0B2B5
:102F40007047C046A80000200E4B30B51A6DFF2414
:102F500014700D4C5865216005788478996A6C432B
:102F60000579407964194006400E60430860586C4A
:102F7000A0210170996C1378FF2B02D10B78022BE2
:102F8000F9D030BDA80000206C030020014B1B6865
:102F9000188870475404002008B5FFF73DFF024B26
:102FA0000022DA6008BDC0466C03002070B5074BF4
:102FB000074C1A6BE668011C9579986B2A1C8019DE
:102FC000751900F06FFCE56070BDC046A8000020D8
:102FD0006C03002008B5074BDB68002B09D0064ABC
:102FE000DBB2506B7F21194001703C329370FFF7C8
:102FF000E5FE08BD6C030020A800002073B56C46F8
:10300000E271194A0734D56D2E7886422AD1FF2005
:1030100028709366131C9C331B6820789B68800083
:10302000116654661871114B06980C7818608878F0
:10303000936A60430C79497900194906490E414366
:103040001960516CA0230B70D16D936C0A78FF2A24
:1030500002D11A78002AF9D00A78FF2A02D11A7808
:103060000A2AF3D073BDC046A80000206C030020DC
:1030700070B5144CE36B1D79EDB2012D21D1854063
:1030800058781E78000230439E7836043043DE784C
:1030900036063043284214D0FF2018710A482164B4
:1030A00002608C780D78C9786C434906490E074A4E
:1030B0006143906A526C0160772111701A79FF2A7E
:1030C000FCD070BD280100206C030020A800002067
:1030D000014B5B6C9878704728010020014B5B6CBA
:1030E0009870704728010020024BDB689872000A34
:1030F000D8727047A8000020014B5B699872704736
:10310000A8000020014B5B69D8747047A80000201C
:10311000014B5B69D8727047A8000020014B5B69C6
:1031200018757047A8000020014B5B69D87570477F
:10313000A8000020014B5B6918767047A8000020AA
:10314000024B5B699876000AD8767047A800002089
:10315000024B5B691877000A58777047A800002077
:10316000034B5B69D87E9A7E000210437047C046CD
:10317000A8000020002303600B60204BF7B59A42A3
:103180003ADC13121E4C122B25D89B00E418E46E77
:10319000002C31D0E368013B5D1C2DD0D5B20195E8
:1031A00065681E1CEF5C019D013BED1BF4D4276894
:1031B000B300DB59002B1FD0A268925D521B0A603E
:1031C000002A02DD5D19056016E00E4B48330360EE
:1031D0005B780B6010E0E36A666A013B0CD35D002C
:1031E000755B551BF9D4266A9B00F2585219026090
:1031F000A26AD3585D1B0D60F7BDC046FFEF00000B
:10320000A800002028010020C02208B5D2000B4BE6
:10321000904206D15B6C1A78052A0DD005221A70EF
:103220000AE05B6B84221B7892005B065B0E9B18A6
:10323000984201D1FFF7D8FD08BDC046A800002084
:1032400038B5051C1C1C181C8D4209DB04989542DE
:1032500006DAC01A6D1A6843511AFCF75DFF201890
:1032600038BD70B501254E1EAC00B54202DA1659C4
:10327000B0420CDA261F1D5911599B59401AEB1AFE
:1032800058439359C91AFCF747FF401970BD0135DF
:10329000E9E7000010B5054C2060007FFFF744FF10
:1032A000236894331878FFF745FF10BD58040020B9
:1032B000014B18687047C04658040020014B186045
:1032C0007047C0465C040020014B18687047C04638
:1032D0005C040020014B18687047C046B40200200F
:1032E000F0B597B00B9300271EABDF570890009105
:1032F000161CFDF7CBF80490FEF7C8FC002F06D192
:103300003830B24A0378151C5D4301970BE0012F5A
:1033100007D16C30AD4A0378151C02215D43019141
:1033200001E000250195AA4900203823021C0B71F9
:10333000FFF79EFE019A08999300089AC918043372
:10334000D3180991002280210A930B9B07910691C3
:1033500003920292141C591E0591002B75D0012F67
:103360005BD1059B002B11D10999692308882A227A
:103370008004800D58430B780A211B071B0F534311
:10338000C0184019FCF7C8FE041C5CE0059A012A2D
:1033900059D10A9B0A99188869238004800D5843E3
:1033A0000B782A221B071B0F5343C0180A21401910
:1033B000FCF7B2FE391C029000220323381CFFF7F1
:1033C00021FC391C03900F220323381CFFF71AFC41
:1033D000039A831ADA1799185140009B03911989AF
:1033E000002904D1049B802272331A8008E0039ADA
:1033F000C80151184908FCF741FE049B723318803C
:10340000009B588900281ED00021C001FCF784FED3
:10341000002180B20690079115E0019A0599531892
:10342000089A9B00D31818881B7880046922800DA5
:103430001B0750431B0F2A225343C01840190A216F
:10344000FCF76AFE2418059B85E7012F04D0201C99
:103450000B99FCF713FE041C009A9588002D02D1ED
:103460008023336007E0E801211CFCF707FEDC281D
:1034700000DDDC203060009964220B881D995A43DE
:103480001C9B5A434A43D3175B0E9B18009ADB11CF
:103490000132D27F002A02D032685343DB117360BD
:1034A000069B4C495C4302234B707C235B42E4093E
:1034B000CB7000205F230CAA0C950D940B71FFF7C5
:1034C000D7FD012F00D07FE0029988B2FFF740FEC0
:1034D000009A049D168E70352E80D488002C20D042
:1034E000177B6421381C64306043FCF715FE029B97
:1034F000834208D86421CF1B381C6043FCF70CFEC4
:103500000299814204D2049B002268331A7008E0B9
:10351000029A944205D0201C7043111CFCF7AEFDAA
:103520002880029B0499009ACB660699D4884B4365
:10353000DB0912941393158E029A211C5543281C03
:10354000FCF79CFD029B14901C196108281CFCF7D9
:1035500095FD204C7F26E37804258022B343574213
:103560002B433B431590E37000206023211C12AADB
:1035700065702371FFF77CFD0099079A0B89002085
:103580000E93039B211C5343DB090F9302236370AB
:10359000E3780EAAB3432B433B43E37061232371CB
:1035A000FFF766FD009902224B8900201093E37813
:1035B0006270B3431D433D436223211C10AA119046
:1035C000E5702371FFF754FD17B0F0BD1A4F0000EE
:1035D0006403002098000020F8B5071CFCF756FF94
:1035E000031C70331D88041CFFF762FE061C823624
:1035F0003388002B17D0E36E002B14D0231C6833C4
:103600001B78012B0FD1031CB033021C1968B43294
:103610002433381CFFF725FE338880B25843E16E0F
:10362000FCF72CFD85B2281CF8BD70B59300C018BE
:10363000C9180023043B013A04D3C558CE58AC192D
:10364000C450F7E770BD0000F7B5089C051C009159
:10365000171C0193013C12D3A600A8590999FCF745
:103660000DFD009B0133DB7F002B05D0019A135D1C
:1036700058433B68584340138003A851EAE7084C7D
:10368000089A0E23A3716270042044232A1C211C73
:103690002371E070FFF7ECFC0023A371F7BDC04677
:1036A0009800002070B5161C059A940005191A2080
:1036B000325E0C59944200DA141C0499181CFCF771
:1036C0002BFD4443B3782A681C41141B2C60084C22
:1036D0000E23A371069B012604202A1C211C667060
:1036E000E0702371FFF7C4FC0023301CA37170BD90
:1036F0009800002010B5094C20600078FFF7FCFC12
:1037000023689878FFF7FEFC23689879FFF700FD9F
:103710002368187AFFF702FD10BDC0466004002040
:10372000014B18687047C04660040020014B1868C0
:103730007047C046B802002038B5104C0C252068F0
:103740002A1C00210C3000F0B6F820682A1C002149
:10375000183000F0B0F8206800210622063000F092
:10376000AAF8206800210322033000F0A4F82068A2
:103770000021302200F09FF838BDC046B80200207A
:10378000094B10B51C680021A01D082200F093F819
:10379000E01C0021042200F08EF8201C00211022E1
:1037A0000C3000F088F810BDB8020020124B70B544
:1037B0001E68002805D10225002905D00125022414
:1037C00003E0012901D10D1C0024600030186A00BB
:1037D0000021063000F06FF830190234A4002A1CD2
:1037E00036190021033000F066F8AA00301D0021D0
:1037F00000F061F870BDC046B802002010B5094C59
:10380000201CFEF731FA201C0E30FCF72DFE201C88
:103810002230FFF749FAFEF72DFA0348FFF74EFD75
:1038200010BDC046E43D00008C3F000000487047DA
:10383000E43D0000D420400070470000C2235B003C
:103840005843024B181824307047C046E43D00002E
:103850000E4B10B51B68C2241B7864005C430C4BF4
:103860002034E4180B4B201D1860FEF709FA201CC9
:103870008030FCF705FE201C8430FFF70BFDBC23D5
:103880005B00E018FFF736FF10BDC046BC02002009
:10389000E43D000064040020014B1B681878704769
:1038A000BC02002010B50023934203D0CC5CC4546A
:1038B0000133F9E710BD031C8218934202D019703E
:1038C0000133FAE77047FFFF00000000010000002D
:1038D0000000000001000000B7020000BB0400006F
:1038E0002C070000E6080000300B0000C80D0000A7
:1038F000CA1000001A2300004F4C0000187A000084
:1039000024B7000025B70000B7020000BB04000088
:103910002C070000E6080000861E00004149000058
:103920004249000043490000444900004549000065
:103930004649000047490000B5F7FFFF01F9FFFFC6
:103940001FFAFFFF8EFAFFFF15FBFFFF65FBFFFF6E
:10395000E0FBFFFF08FDFFFF2AFEFFFF2CFFFFFF3C
:1039600000000000000000003D04000052040000C0
:1039700064040000480400005C0500000806000024
:1039800008060000080600000806000008060000FF
:103990000806000008060000000000000200000009
:1039A0000300000004000000050000000600000005
:1039B00007000000080000000A0000000C000000E2
:1039C0001000000014000000180000001C0000009F
:1039D00020000000010000000200000004000000C0
:1039E0000800000010000000040000200000FF009C
:1039F00000000000000000000000000000000000C7
:103A000000000000000000000000000000000000B6
:103A100000000000000000000000000000000000A6
:103A20000000000000000000000000000000000096
:103A30000000000000000000000000000000000086
:103A40000000000000000000000000000000000076
:103A50000000000001000000000000000000000065
:103A6000000000000000000000000000DC46030031
:103A7000DC460300140000002C0300206B03002030
:103A800001000000000000010300840000000000AD
:103A9000B30300200000000000000000A703002086
:103AA000A7020020890200204D0200208C03002084
:103AB0006C030020720100207C0300200200000043
:103AC000A00300209F0300209303002007000000B4
:103AD0008B030020870200206C0200205C02002083
:103AE0005902002000000000510200209203002033
:103AF00000000000000000000000000000000000C6
:103B00002802002014020020000000000000000035
:103B10000000000000020020EC0100200000000076
:103B200000000000D401002000000000B8010020C7
:103B3000000000000000000000000000A0010020C4
:103B40008C0100207801002049020020440200205E
:103B5000000000008603002000010020006000003B
:103B60006C01002084030020880100200100000077
:103B700005000000E8000020850300209C010020D3
:103B8000010000000100000060010020B3010020DE
:103B9000B001002003000000040507001020000011
:103BA00000010020CD010020C80100200500000018
:103BB00008010C010400102030310000F400002046
:103BC000E7010020E40100200300000008030C00CE
:103BD00010200000C0000020FE010020FC01002099
:103BE0000200000004060010EC0000201202002079
:103BF0001002002002000000021B0010D80000206C
:103C000024020020E4000020030000000010110046
:103C1000A80000203E02002038020020060000001C
:103C20001708080C0A1E00203040507001000000E8
:103C3000000020060100010000002010020E02001A
:103C400000FF0000002003026000900068020020D6
:103C500000600901000100000000000000000000F9
:103C6000000000000000000000000001000000054E
:103C70000000483248534D4500000000000000009D
:103C80000000000000000000000000000000004DE7
:103C9000495000000000000905000000E00300207A
:103CA000F003002024040020FFFFFFFFFFFFFFFFC1
:103CB000FFFFFFFFFFFFFFFFFFFFFFFFFFFFFFFF14
:103CC000FFFFFFFFFFFFFFFFFFFFFFFFFFFFFFFF04
:103CD000FFFFFFFFFFFFFFFFFFFFFFFFFFFFFFFFF4
:103CE000FFFFFFFFFFFFFFFFFFFFFFFFFFFFFFFFE4
:103CF000FFFFFFFFFFFFFFFFFFFFFFFFFFFFFFFFD4
:103D0000FFFFFFFFFFFFFFFFFFFFFFFFFFFFFFFFC3
:103D1000FFFFFFFFFFFFFFFFFFFFFFFFFFFFFFFFB3
:103D2000FFFFFFFFFFFFFFFFFFFFFFFFFFFFFFFFA3
:103D3000FFFFFFFFFFFFFFFFFFFFFFFFFFFFFFFF93
:103D4000FFFFFFFFFFFFFFFFFFFFFFFFFFFFFFFF83
:103D5000FFFFFFFFFFFFFFFFFFFFFFFFFFFFFFFF73
:103D6000FFFFFFFFFFFFFFFFFFFFFFFFFFFFFFFF63
:103D7000FFFFFFFFFFFFFFFFFFFFFFFFFFFFFFFF53
:103D8000FFFFFFFFFFFFFFFFFFFFFFFFFFFFFFFF43
:103D9000FFFFFFFFFFFFFFFFFFFFFFFFFFFFFFFF33
:103DA000FFFFFFFFFFFFFFFFFFFFFFFFFFFFFFFF23
:103DB000FFFFFFFFFFFFFFFFFFFFFFFFFFFFFFFF13
:103DC000FFFFFFFFFFFFFFFFFFFFFFFFFFFFFFFF03
:103DD0001301FFFF483248535041524130303030D8
:103DE000303030300100E40CB80BE40CB80B0001AB
:103DF0000302323031375F4A355F4B4559000000CE
:103E000000000A1E0A000900A00800009401000139
:103E1000010004000001030F030000003001032C27
:103E2000000004000100000000000100100009096A
:103E3000010101010103070003000404030800005D
:103E400000005E010540202000000000030000008B
:103E500030050E2100007A00010000000000010082
:103E6000080009080101010101070700040004041A
:103E700006040300010064000A2B2A2A0000000047
:103E8000030000005A5A0F0F030000003F0001001A
:103E900000000000000000000000000074FFFFFFB1
:103EA000DC0500003200CEFF3200CEFF0102000030
:103EB0000000000000000000000000000000000002
:103EC00000000000000000000000000000000000F2
:103ED00000000000000000000000000000000000E2
:103EE00000000000000000000000000000000000D2
:103EF00000000000000000000000000000000000C2
:103F0000000000001E000000661B5C13C2010000E0
:103F1000190000006AFFFFFFFFFFFF7F3C00C4FFA6
:103F20001400F6FF00050000C80078ECE80300006C
:103F3000F0D8FFFF53000000000000000000000068
:103F4000E0010000581B0000BC1B00000000000046
:103F50000000000000000000000000006E000000F3
:103F60006E0000005200000052000000000000003F
:103F700000000000000000000000000064003200AB
:103F80009600C80078000201040000002D314000B6
:103F9000FFFFFFFFFFFFFFFFFFFFFFFFFFFFFFFF31
:103FA000FFFFFFFFFFFFFFFFFFFFFFFFFFFFFFFF21
:103FB000FFFFFFFFFFFFFFFFFFFFFFFFFFFF1301FB
:103FC0004D425401483248530000000000400000B8
:103FD000EEEE040113011301EEEEEEEE000F0F10F2
:103FE000002209012E0200000504172042092200C8
:103FF00000000000000000000000400094BE00002F
:00000001FF
