:1007E000006B0000001000008314000000000000F7
:1007F00000000000000000000000000000000000F9
:1008000078FFE4B8200118F6D8F99000007F007E48
:1008100007E4F0A3DFFCDEFA7581700227D7121E11
:10082000901224259002187401F0220230AC74AAB0
:100830007583F5758255A574557583FA7582AAA5D9
:1008400074A57583F5758255A5220002213190406B
:100850007FE493FF64326003EF7002002253A87FAD
:100860000080FD021CF212173874121217B27413B2
:10087000F0902EC47480F0A3E4F0220230A9E709BE
:10088000F608DFFA8046E709F208DFFA803E888240
:100890008C83E709F0A3DFFA8032E309F608DFFA78
:1008A0008078E309F208DFFA807088828C83E3099C
:1008B000F0A3DFFA806489828A83E0A3F608DFFA76
:1008C000805889828A83E0A3F208DFFA804C80D2C4
:1008D00080FA80C680D4806980F28033801080A640
:1008E00080EA809A80A880DA80E280CA8033898298
:1008F0008A83ECFAE493A3C8C582C8CCC583CCF044
:10090000A3C8C582C8CCC583CCDFE9DEE7800D89EA
:10091000828A83E493A3F608DFF9ECFAA9F0EDFBF1
:100920002289828A83ECFAE0A3C8C582C8CCC58339
:10093000CCF0A3C8C582C8CCC583CCDFEADEE88092
:10094000DB89828A83E493A3F208DFF980CC88F004
:10095000EF60010E4E60C388F0ED2402B404005035
:10096000B9F582EB2402B4040050AF23234582235F
:100970009008CE73EF8DF0A4A8F0CF8CF0A428CE11
:100980008DF0A42EFE22C2D5EC30E709B2D5E4C327
:100990009DFDE49CFCEE30E715B2D5E4C39FFFE477
:1009A0009EFE120BF2C3E49DFDE49CFC8003120B3F
:1009B000F230D507C3E49FFFE49EFE22C5F0F8A302
:1009C000E028F0C5F0F8E582158270021583E03862
:1009D000F022BB010A89828A83E0F5F0A3E022506D
:1009E0000687F009E71922BBFE07E3F5F009E319D2
:1009F0002289828A83E493F5F074019322BB010774
:100A000089828A830209BC500B09C5F027F7C5F01B
:100A10001937F722BBFE0D09F8E325F0F3C5F019ED
:100A2000E338F322F889828A8374019325F0C5F0B4
:100A3000F8E4933822BB010A89828A83F0E5F0A3A7
:100A4000F0225006F709A7F01922BBFE06F3E5F0E5
:100A500009F3192275F008758200EF2FFFEE33FEBF
:100A6000CD33CDCC33CCC58233C5829BED9AEC9986
:100A7000E58298400CF582EE9BFEED9AFDEC99FC28
:100A80000FD5F0D6E4CEFBE4CDFAE4CCF9A882226F
:100A9000B800C1B90059BA002DEC8BF084CFCECD8F
:100AA000FCE5F0CBF97818EF2FFFEE33FEED33FDC8
:100AB000EC33FCEB33FB10D703994004EB99FB0FAD
:100AC000D8E5E4F9FA227818EF2FFFEE33FEED3384
:100AD000FDEC33FCC933C910D7059BE99A4007ECFC
:100AE0009BFCE99AF90FD8E0E4C9FAE4CCFB227543
:100AF000F010EF2FFFEE33FEED33FDCC33CCC833D7
:100B0000C810D7079BEC9AE899400AED9BFDEC9A38
:100B1000FCE899F80FD5F0DAE4CDFBE4CCFAE4C8B0
:100B2000F922EB9FF5F0EA9E42F0E99D42F0EC6479
:100B300080C864809845F022EB9FF5F0EA9E42F071
:100B4000E99D42F0E89C45F022E8600FECC313FCFD
:100B5000ED13FDEE13FEEF13FFD8F122ECF0A3ED41
:100B6000F0A3EEF0A3EFF022A8828583F0D083D02B
:100B700082120B7F120B7F120B7F120B7FE473E448
:100B800093A3C583C5F0C583C8C582C8F0A3C58338
:100B9000C5F0C583C8C582C822EC8EF0A4CCC5F0D0
:100BA000CCCDF8EFA4CEC5F02DFDE43CFCE8A42E9E
:100BB000C8C5F03DFDE43CFCEFA4FFE5F028FEE4F1
:100BC0003DFDE43CFC22EF4E6012EF60010EEDBBF8
:100BD000010B89828A83F0A3DFFCDEFA2289F050C0
:100BE00007F709DFFCA9F022BBFEFCF309DFFCA933
:100BF000F022BC000BBE0029EF8DF084FFADF02287
:100C0000E4CCF875F008EF2FFFEE33FEEC33FCEE8A
:100C10009DEC984005FCEE9DFE0FD5F0E9E4CEFD7D
:100C200022EDF8F5F0EE8420D21CFEADF075F00850
:100C3000EF2FFFED33FD4007985006D5F0F222C3A9
:100C400098FD0FD5F0EA22208A03020FB690021B0E
:100C5000E07002A3E06003020FB6900219E0700298
:100C6000A3E06003020FB6900171E07002A3E060A0
:100C700003020FB61217AB6003020FB6900134E007
:100C8000703090011F12160EFFAEF090010D12167B
:100C90000ED39FE5F09E4003020FB6121715E490A5
:100CA000017DF0A3F012183D90021F12185EF56D41
:100CB0008003756D00756E17E4F5B2F5BA90018189
:100CC000E0F555A3E0F556C209758D20438D2075DA
:100CD0008D8043AA08D2AF758B02758EAF20062493
:100CE0001217AB701F200C1CE5DB20E217758AC4BD
:100CF000200C0DE5DB20E20875870300000080066C
:100D0000D2098002D209758B11758A5053AAF7D384
:100D100090021AE09490900219E09401400EA3E032
:100D20002470F0900219E034FEF08007E49002197C
:100D3000F0A3F0D3900226E09490900225E0940175
:100D4000400EA3E02470F0900225E034FEF080070E
:100D5000E4900225F0A3F0122F02900055E0902EAF
:100D6000C3F0A3E4F0A3F012167953997F12307CFC
:100D7000121742902EC0E030E2F9902EC0E4F090BD
:100D80002E02E0F56FA3E0F57043890212167F434F
:100D9000800212173F902EC0E030E2F9121883F55E
:100DA00022A3E0F523E5702527FFE56F3526FEC376
:100DB000EF9523F525EE9522F5241217F7E5259FEB
:100DC000E5249E40048E248F25902EC4E4F04399A0
:100DD00080900167E524F0A3E525F0C3E55695254D
:100DE000FFE5559524FE12308E8E578F581218B895
:100DF0004003020F8BAE24AF257C007D10120B99AF
:100E00001218C2AF6CAE6BAD6AAC699002CB121611
:100E100050FBD3120B389002CB4017121779956C08
:100E2000FFEE956BFEED956AFDEC9569FC1218C21C
:100E30008007120B6800000000E47F607EEAFDFC82
:100E40009002CB121650FBD3120B38400A9002CB03
:100E5000120B680000EA6012160B7D091217C99088
:100E600002CB1216507B0A1216AC1218C290013433
:100E7000E07032AE55AF56FC7D091217242525FFD0
:100E8000EA352412169BE47B0A1216B88E558F564B
:100E90009002CB12161C12168E12175C1216261216
:100EA000168E020F8B12175C12162612168E9001E8
:100EB0001012160EFFAEF09002CB12164DFBD3129D
:100EC0000B385003020F9B1215FA1217A4FE1218CA
:100ED0000F4003020F9B90010D12160EFFAEF07C27
:100EE000007D02120B99C8ECC8EDC0E0EEC0E0EF47
:100EF000C0E01215FA1217A4FEE4FCFDD0E0FBD00E
:100F0000E0FAD0E0F9EB2FFFEA3E12169BE47B03F8
:100F10001216B890010D12162612179390010D1299
:100F2000160ED39430E5F094754008747575F03062
:100F3000120A35900184E060521216FC404D900177
:100F40000D12160E1217A4FE12308E9002CFEEF084
:100F5000A3EFF090010D12160E12166D95F05010C1
:100F60001217EA400B121623F9E475F0051209FD79
:100F700090010D12160EFFD312166F95F0400CD390
:100F80001217EA40061216231218AF20090D121884
:100F9000B850081217AB7003020CC9900183E0042B
:100FA00012162EE49001631216F5F090013504F04C
:100FB00090021D12170E221215FAFDACF0D39FEC11
:100FC0009E403290011012160E12188DD3EF9430FD
:100FD000EE9475400C9002CD7475F0A37430F080DF
:100FE0000D1216051217A49002CDF0A3EFF0E490B5
:100FF000019E02106612160BFFAEF0900110121641
:101000000EFDACF0C39FFFEC9EFED3EF9410EE9468
:1010100027400C9002CD7427F0A37410F0801212B8
:10102000160BFFC3ED9FFEEC95F09002CDF0A3CE22
:10103000F09002CDE0FFA3E090019ECFF0A3EFF08F
:10104000300018D3E0942C90019EE094014013905E
:1010500001A07427F0A37410F08007E49001A0F0C1
:10106000A3F0E49002CDF0A3F0900134E0605012C0
:1010700016A3D39400EE64809480401A900104E09B
:10108000FCA3E0FDD3EF9DEE9C400B90021FE4F02B
:10109000A37464F0801BD3900220E0940090021FA0
:1010A000E09400400C90010D12160E9002CD121724
:1010B0008BD20B900225740FF0A374A0F0801190D6
:1010C00002237403F0A374E8F07A00794A121642FE
:1010D000D39002CEE094009002CDE06480948050E2
:1010E000030212E7E0F9A3E0FF90010D12162612A9
:1010F000168E1216A31218A1E47BB87A88F9F8C3E9
:10110000120B22500A9002CD7488F0A374B8F0D369
:10111000900222E09400900221E094005007900099
:101120001BE0B4201D1216A3C39496EE6480948035
:101130005010EF9400EE64809480402F7C007D0A74
:10114000801E300026900134E070209001A5E0FC64
:10115000A3E0FD1216A3C39DEE9C500F7C007D649E
:101160001209869002CDEEF0A3EFF0900134E0700A
:10117000030212C1900223E07002A3E06003021296
:10118000C11216A31218A1E54D2FF54DE54C3EF501
:101190004CE54B3DF54BE54A3CF54A054FE54F70B4
:1011A00002054EC3E55394D0E55294075003021252
:1011B00063AE4EAF4FCBEFCB1216D0AF4DAE4CADB2
:1011C0004BAC4A120A909002CFEEF0A3EFF0C3E5C9
:1011D000519FFFE5509EFE12308E9002D1EEF0A39B
:1011E000EFF0121772506BE55145506065D39002D5
:1011F000D0E095519002CFE09550402812176A40F8
:101200000474148018D3EF943CEE94004004740AE4
:10121000800BD3EF9428EE9400403774052551F5E8
:1012200051E4802A12176A400774EC1218A8801E35
:10123000D3EF943CEE9400400774F61218A8800E89
:10124000D3EF9428EE9400400974FB1218A835508F
:10125000F550E4F54DF54CF54BF54AF54EF54FF5E7
:1012600052F553D3E5519400E5509400402A900282
:10127000CEE09551FF9002CDE09550FE12308E12D7
:1012800018975008121831E4F554800CE554C394B3
:101290000750051218310554E5DB20E23D90011698
:1012A00012160E7D0F1217C99002CD12165B12187E
:1012B000A1EB7B101216AC900116121626F9EE80E7
:1012C00014E5DB20E2149002CDE0F9A3E0FF9001E9
:1012D00016121626C98FF0120A3590011612160E34
:1012E00024A8FFE5F0801D90010D12162612178428
:1012F0009001161216261217849002CEE024A8FF41
:101300009002CDE03461F990011312162612168E68
:1013100022121738121868F053997FF50BF50CF567
:101320000DF50EF50A12307C121679121742902E26
:10133000C0E030E2F9902EC0E4F043890212167F3B
:10134000438002902E02E0FEA3E0250CF50CEE3562
:101350000BF50B12173F902EC0E030E2F912188304
:10136000FEA3E0250EF50EEE350DF50D050AE50A96
:10137000C3940140B0439980902EC5E4F0E5272442
:101380000CFFE52634FEFED3EF950CEE950B4015D1
:10139000900171E07002A3E0701290017104F0A35B
:1013A00074F4F08007E4900171F0A3F090016312EF
:1013B00016FF40337C007D03121724250EFFEA350B
:1013C0000D12169B7802120B498E0D8F0EA3E0FEB4
:1013D000A3E0FBCAEECAEB250CFFEA350B12187925
:1013E000120B498E0B8F0CE50C2527FFE50B3526DC
:1013F000FEC3EF950EF510EE950DF50F1217F7E5FC
:10140000109FE50F9E40048E0F8F10900161E50F35
:10141000F0A3E510F0A3E50DF0A3E50EF0A3E50BB6
:10142000F0A3E50CF0D390016EE0940090016DE024
:1014300094004074900134E0600F90010D12160E7C
:10144000C394A0E5F0940F5009E490016BF0A3F071
:101450008056D390016CE0940090016BE0940040C2
:101460003390016DE0FEA3E0FF1215EACAEECACB8D
:10147000EFCB90016BE0FEA3E0FF7C007D0312093F
:1014800074EB2FFFEA3EFEEF7802CEC313CE13D8E3
:10149000F9FF800C90016DE0FEA3E0FFC31215EA96
:1014A00090016BEEF0A3EFF0D390016CE0940A9002
:1014B000016BE0940090016F40097428F0A374461A
:1014C000F080077407F0A3740FF0900161E0FFA3B0
:1014D000E090016DCFF0A3EFF0AF10AE0F1225AA90
:1014E000900167EEF0A3EFF090001BE0B420031230
:1014F000163E900167E0FEA3E0FFE4FCFDE5612FEE
:10150000F561E5603EF560ED355FF55FEC355EF564
:101510005E0563E56370020562C3E56794E8E5660E
:101520009403402AAE62AF63CBEFCB1216D0AF610B
:10153000AE60AD5FAC5E120A908E648F65E4F561BB
:10154000F560F55FF55EF562F563F566F567D3E581
:10155000659400E56494004074900168E09565FF2F
:10156000900167E09564FE9002D1F0A3EFF0900146
:101570006FE0FDFBC3E49BFBE49400FAD3EF9BEA2E
:101580006480F8EE648098401BEDFF9002D2E09FEB
:101590007480F89002D1E0648098500812181BE41F
:1015A000F56880299002D1E0FEA3E0FF12308E9012
:1015B0000170E0FDD3EF9D7480F86E98400375686C
:1015C00003E568C39403500512181B056890016772
:1015D000E0F548A3E0F54978287C007D007B007A9F
:1015E00000792A7E007F2002094E900162E09FFF71
:1015F000900161E09EFE12308E22900110E0FBA36C
:10160000E0FAA3E0F91209D2FFAEF090010AE0FB84
:10161000A3E0FAA3E0F90209D2900136A3A3E0F90E
:10162000A3E0FF900110E0FBA3E0FAA3E022F07E2C
:10163000007F057D007B007A007959120BC67A0085
:10164000795E7E007F0B7D007B00020BC6E4FCFD13
:10165000E0F8A3E0F9A3E0FAA3E022C8ECC8C9EDE2
:10166000C9CAEECACBEFCBE0FEA3E0FF22FFC390D6
:101670000189E09F900188E02243AB025389FD532A
:1016800095FD5396FD22A3F0A37401F0A322C98F08
:10169000F0020A35F9EB2FFFEA35F0FEED39FDECEB
:1016A00038FC229002CDE0FEA3E0FF222FFFEA3EAD
:1016B000FEE93DFDE83CFCE4FAF9F8020A90E50A8F
:1016C00025E02428F8E6FE08E622A3E0FEA3E0FBDE
:1016D000CAEECAE4F9F82290021B7402F0A374580F
:1016E000F022902E427D14E0FEA3E0FF7C00020970
:1016F00074900186E4F0A3F0A3F0A322900188E0A7
:10170000FEA3E0FFD39400EE9400229001A5E4F044
:10171000A374C8F0227F087A0179367E007D007BB1
:1017200001020BC6120B99C8ECC8C9EDC9CAEECAB2
:10173000CBEFCBE4FCFDEB22902EC07402F0221222
:101740000866902EC07419F022E50D25E02475F589
:1017500082E43401F583E0FEA3E0FF229002CBA3F4
:10176000A3E0F9A3E0FF90010A229002D1E0FEA3DA
:10177000E0FFD39450EE940022E0FCA3E0FDA3E050
:10178000FEA3E022F9E4F5F0020A35FFE5F0F0A34C
:10179000EFF022F9EE8FF0020A35E4F50EF50DF5C3
:1017A0000CF50B22C39FFFE5F09E2290001BE06426
:1017B0002022902EC2F0902EC77401F0902ECA22E3
:1017C000900108E0FCA3E0FD22FFAEF07C00020BDC
:1017D00099AB0EAA0DA90CA80BD3020B389002CE20
:1017E000E0940A9002CDE09400229002D0E0940AA6
:1017F0009002CFE0940022E5272488FFE5263413E9
:10180000FED322900108E0FFA3E090017BCF22D31A
:101810009001A6E09F9001A5E09E22900167E564FB
:10182000F0A3E565F02225E02428F8A60F08A6100D
:10183000229002CDE550F0A3E551F022E490022180
:10184000F0A3F022900104E4F0A37496F022F9745E
:101850006175F0A8020A3590003A7410F022F0A3E6
:10186000F0900227F0A3F022902EC4E4F0A322FE11
:10187000EF2401FFE43EC31322FEE433FDE433FC16
:10188000780122902EC0E4F0902E1EE022FFC3EDDE
:101890009FFFEC95F0FE22C3EF9464EE6480948089
:1018A00022EE3395E0FDFC222551F55174FF22F91B
:1018B00074FF75F0FB0209FDC3E558956EE5579579
:1018C0006D229002CB020B5C90018C121650FBE94A
:1018D000C0E0EAC0E0EBC0E090012512160EFFE484
:1018E000FCFDD0E0FBD0E0FAD0E012169490018C21
:1018F000120B5C900191E004F07006900190E004FE
:10190000F0900192E07002A3E06003021B1F9001BF
:101910008C121779FFEEC0E0EFC0E01216CAD0E0DB
:10192000FFD0E0FE120A9090018C120B5C90018CAB
:10193000A3A3E0FFA3E090018ACFF0A3EFF0A312EE
:101940000B6800000000E49001901216F574C8F0D6
:10195000900219E07002A3E06003021B1F90019443
:10196000E07002A3E06003021B1F900134E07003EB
:10197000021A22900186E0FEA3E0FF4E7022900141
:101980008AE0FDA3E0900186CDF0A3EDF090010D7B
:1019900012160EFD900188E5F0F0A3EDF0021A2A70
:1019A00090018AE0FCA3E0FDC3EF9DFFEE9CFE12D8
:1019B000308E900196121626121793900184E070D3
:1019C0002690019612160EC3940FE5F09400500F66
:1019D00090010D12160EFF90018812178C801F9037
:1019E00001847401F0801790019612160EC39402C0
:1019F000E5F0940050081216F1F0900184F0900187
:101A00008AE0FEA3E0FFD3900187E09F900186E08B
:101A10009E4007E4900185F080109001857401F0EC
:101A200080081216F1F0900184F0900184E07003B8
:101A3000021B1F1216FC5003021B1F90010D1216F1
:101A40000E1217A4FE12308E9002CDEEF0A3EFF02E
:101A5000A3E4F0A37464F090010D12160ED39494D5
:101A6000E5F09411400A9002CF7403F0A37420F0C3
:101A70009002CDA3E090019DF090010D12160EFF93
:101A8000AEF0D312166F9E40159002CFE0FCA3E09B
:101A9000FDD39002CEE09D9002CDE09C501A12162C
:101AA0006E9E50439002CFE0FEA3E0FF9002CEE096
:101AB0009F9002CDE09E402FE4900184F09001863B
:101AC000F0A3F090010D12160E12166D95F0900114
:101AD0009474015007F0A3742CF08005F0A3749067
:101AE000F0E4900185F02290010D12160EFFD31242
:101AF000166F95F0400CD31217DD40061216231214
:101B000018AF90010D12160E12166D95F0501012AE
:101B100017DD400B121623F9E475F0051209FD22BA
:101B200090017DE0FEA3E0FFC39404EE9400502AF0
:101B30001217C0EF25E0FFEE33FE74752FF58274A7
:101B4000013EF583ECF0A3EDF090017EE004F0702F
:101B50000690017DE004F0021C94750D01121749F6
:101B6000E50D25E02473F582E43401F583EEF0A35E
:101B7000EFF0050DE50DB404E4900134E0700302CC
:101B80001C3A90011012160EFFAEF01217C0D39F30
:101B9000EC9E5003021C8DED9FFFEC9EFED3EF9454
:101BA000F4EE94015003021C8DA312160E12188D30
:101BB0009002D0F0A3EFF012308E1218975063E429
:101BC0009002D2F0A3F09002D0E0FEA3E0FF12302A
:101BD0008ED3EF9428EE648094804025D39002D178
:101BE000E094009002D0E0648094809002D240089B
:101BF000E4F0A37405F0801074FFF0A374FBF08090
:101C000007E49002D2F0A3F012160BFF9002D3E08B
:101C10002FFE9002D2E035F090017BF0A3CEF002CF
:101C20001C94121803F0A3EFF09001A3E004F070ED
:101C3000069001A2E004F0021C9412160BFF12178A
:101C4000C0C3EF9DFFE5F09CFE12308EC3EF9428D9
:101C5000EE64809480503690011012160EFFC390EF
:101C60000109E09FFF900108E095F0FE12308EC35D
:101C7000EF9414EE648094805005900110800390DE
:101C8000010A12160EFF90017BE5F0800312180383
:101C9000F0A3EFF0E4F50CF50BF50AF509F50DD31B
:101CA00090017EE0950D90017DE09400401E12179A
:101CB00049E4FCFDE50C2FF50CE50B3EF50BED358D
:101CC0000AF50AEC3509F509050D80D3AF0CAE0B0A
:101CD000AD0AAC09EEC0E0EFC0E090017D1216CB7A
:101CE000D0E0FFD0E0FE120A908F0C8E0B8D0A8C94
:101CF0000922C0E0C083C082C0D0D2AF90022CE0E5
:101D000004F0D390021AE09400900219E09400408D
:101D10000CA3E024FFF0900219E034FFF0D390020E
:101D20001CE0940090021BE09400400CA3E024FF10
:101D3000F090021BE034FFF0D390021EE09400907C
:101D4000021DE09400400CA3E024FFF090021DE08F
:101D500034FFF0D3900220E0940090021FE0940042
:101D6000400CA3E024FFF090021FE034FFF0D3907A
:101D70000222E09400900221E09400400CA3E024B1
:101D8000FFF0900221E034FFF0D390022AE09400AB
:101D9000900229E09400400CA3E024FFF090022977
:101DA000E034FFF0D3900228E09400900227E09402
:101DB00000400CA3E024FFF0900227E034FFF0D3B2
:101DC000900224E09400900223E09400400CA3E0F1
:101DD00024FFF0900223E034FFF0C3E56794E8E5C8
:101DE00066940350080567E56770020566C3E5530E
:101DF00094D0E552940750080553E55370020552FC
:101E0000D3900193E09400900192E09400400CA3E1
:101E1000E024FFF0900192E034FFF0D3900195E0D0
:101E20009400900194E09400400CA3E024FFF09013
:101E30000194E034FFF0D3900172E09401900171BD
:101E4000E09400400CA3E024FFF0900171E034FF27
:101E5000F0D3900226E09400900225E09400400C1C
:101E6000A3E024FFF0900225E034FFF0D39001A11D
:101E7000E094009001A0E09400400CA3E024FFF067
:101E80009001A0E034FFF0D0D0D082D083D0E032F7
:101E90007E007FFF7D007B017A007904120BC690E3
:101EA00002DF7400F0A37404F09001CC7401F0A37D
:101EB0007400F0A374B8F09001D27401F0A3740020
:101EC000F074AC122EB97400F0A37494F09001CFAA
:101ED0007401F0A37400F0A374C6F09001D87401EB
:101EE000F0A37400F074D2122EB97400F0A3741F22
:101EF000122EBA7401F0A37402F0902DE0E493FF67
:101F00009002DFE0FCA3E0FDF5828C83A3EFF0906C
:101F10000002E0FFED2404122E93900001E0FFED9B
:101F20002405122E93900003E0FFED2406122E9359
:101F3000902DE2E493FFED2412122E93902DE3E412
:101F400093FFED2414122E939001E17401F0A37419
:101F500000F0A3743CF0E4FF75F002EFA42401F557
:101F600082E5F0342EF583E493FE74542FF582E479
:101F70003400F583EEF0EF25E0242DF582E4342ED5
:101F8000F583E493FE122EC1EEF0122EC1E0FEEFB7
:101F900025E0242CF582E4342EF583E49324C0F567
:101FA00082E4342EF583EEF00FEFB416AB902F568B
:101FB000E0900058F0902F56E090006EF0902F5671
:101FC000E0900059F0902F56E090006FF09000FFE5
:101FD0007401F09000FEF090003A7410F090001B35
:101FE000F0900028F0A37420F09002197413F0A36D
:101FF0007488F02212179AF515F51685281185298F
:1020000012852813852914F50A1216BEFFD3E5148C
:102010009FE5139E40078E138F14850A16C3E512A1
:102020009FE5119E50078E118F12850A15050AE54E
:102030000AB410D5E4F50FF510F50AE516650A6047
:102040002EE515650A6028E510450F7010E50A2594
:10205000E02428F8E6F50F08E6F51080121216BE07
:102060002510FFE50F3E12186FF50FEF13F5100561
:102070000AE50AB410C5900181E50FF0A3E510F060
:10208000E516C3940D5005E516121826E515C39400
:102090000D5005E51512182612179AF50A1216BEEC
:1020A000FFC3E5109FFFE50F9EFE12308ED3EF9425
:1020B00019EE64809480400FE4FCFDE50E2510F5D8
:1020C0000EE50D350F800F1216BEFFE4FCFDE50E88
:1020D0002FF50EE50D3EF50DED350CF50CEC350B41
:1020E000F50B050AE50AC3941040B2AF6CAE6BADB8
:1020F0006AAC691217D1401AE50E956CF50EE50D24
:10210000956BF50DE50C956AF50CE50B9569F50BEE
:10211000800312179AE47F607EEAFDFC1217D1401B
:102120000BE4750E60750DEAF50CF50BAE0DAF0EF8
:1021300022C0E0C083C082C0D0ECC0E0EDC0E0EEC1
:10214000C0E0EFC0E0D2AFE5DB30E419D20CC2084A
:10215000E5DB30E102802E9002DEE5DFF09002E167
:10216000E4F002222FE5DB30E50FD206300805C28D
:102170000802222FC20C02222FC208E5DB30E13A0E
:10218000E5DB30E0109002E2E0FF04F0123066E0A0
:10219000F5DF02222F9002E2E0FFB40813208A103C
:1021A000D28A9002DFE0FCA3E0240712306CE4F056
:1021B000EF641A707AD20702222F9002E1E0700ECB
:1021C000A3E5DFF09002E17401F0D2088061900293
:1021D000E2E0902ECC93FFB4FF089002DEE5DFF042
:1021E0008047EF640F70299002E2E0FFA3E0FCA3B8
:1021F000E0FD12306BE0540FF09002E2E0FF04F0DB
:10220000ED12306BE0FFE5DF54F0FEEF4EF0801F83
:102210009002E2E0FF123066E5DFF0EFB4240A90AE
:10222000021B7401F0A374F4F09002E2E004F07574
:10223000DBFFD0E0FFD0E0FED0E0FDD0E0FCD0D06E
:10224000D082D083D0E0329002D1EFF09002D6E479
:10225000F0A374FFF0E4A3F0A3F0A304F0A374FFD1
:10226000F0902EC07402F0902EC37408F0E4900237
:10227000D2F0A3F09002D2E0FEA3E0FFC39409EEF7
:1022800094004003022336EF9407EE940040067E4C
:10229000007F0180199002D2A3E004FFE47E01C810
:1022A000EFC8088006CEA2E713CE13D8F8FF90023D
:1022B000D4EEF0A3EFF0902EC07419F0902EC0E091
:1022C00030E2F99002D1E0FF75F002A42400122E52
:1022D000A8E0FCA3E0FD902EC07402F0D3ED94FFC3
:1022E000EC940F40179002D4E0FCA3E0FD75F002DF
:1022F000EF122EA5EC8DF01209BC80299002D1E0DE
:1023000075F002122EA5C083C082E0FEA3E0FF900C
:1023100002D4E0FCA3E0FDC3EF9DFFEE9CD082D091
:1023200083F0A3EFF09002D3E004F070069002D2A5
:10233000E004F00222747F0022900134E060061273
:10234000171502241A900136121650FBE9C0E0EA74
:10235000C0E0EBC0E012160BFFE4FCFDD0E0FBD0C8
:10236000E0FAD0E0121694900136120B5C90013B1B
:10237000E004F0700690013AE004F090021DE07075
:1023800002A3E06003022424900136121779FFEEC5
:10239000C0E0EFC0E01216CAD0E0FFD0E0FE120AA3
:1023A00090900136120B5C90011012160E2432FF31
:1023B000E435F0FE90013612164DFBD3120B384077
:1023C00039900219E07002A3E0702F200B2C9001CD
:1023D0003DE004F0700690013CE004F0D390013D34
:1023E000E0940590013CE09400401E12161912166C
:1023F0008EE490013CF0A3F0800F12161912168E95
:10240000E490013CF0A3F0C20B900136120B68007F
:10241000000000E490013AF0A3F090021D7402F075
:10242000A374BCF0227F9C7A01790812171B9001DB
:102430000A7401F0A37400F074441216867400F05C
:1024400074461216867400F0A3744812168774003E
:10245000F0A374321216877400F0A3742E1216873C
:102460007400F0A3742CF09001257401F0A37400A3
:10247000F0A37426F09001967401F0A37400F0A309
:1024800074841216877400F0A37486F09001287487
:1024900001F0A37400F0A3741C1216877400F0A35B
:1024A0007422F090011C7401F0A37400F0A3743640
:1024B0001216877400F0A3742A1216877400F0A312
:1024C0007438F012170B90011C121626F9E475F0FF
:1024D000C8120A3590011F121626F9E475F064122D
:1024E0000A35121844900122121626F9E475F09666
:1024F000020A359002CDEEF0A3EF12162E9002CD17
:10250000E07002A3E0600312270B122A2AE4900174
:102510007DF0A3F07F10122DAE1216D7A37402F037
:10252000A374BCF0900108E0F9A3E0FFA312162603
:1025300012168E90010D1216261217849001131296
:10254000162612184E9001161216261217849001A4
:102550001912162612184E121857E4900134F090F2
:102560000136120B680000000090013A1216F4F0D8
:1025700090010812161E12168EE4900135F090029A
:102580002912185E900225F0A3F0FE7F12FD7B0158
:102590007A017984120BC690012512160E90018AD9
:1025A00012178B90019212170E229002D3EEF0A315
:1025B000EFF0E55C455B700C9002D3E0F55BA3E0C7
:1025C000F55C80169002D4E0255CFF9002D3E035E4
:1025D0005B12186FF55BEF13F55C055DE55DD39459
:1025E0000A400D855B59855C5AE4F55BF55CF55D49
:1025F000D3E55A9400E5599400405D9002D4E095EB
:102600005AFF9002D3E09559FE12308EC3EF940A20
:10261000EE64809480AE59AF5A501C7C007D03124A
:102620000B999002D312165BE4FCFDEB2FFFEA3E00
:1026300012169B78028016CBEFCBCAEECA9002D35B
:10264000E0FEA3E0FFEB2FFFEA3E121879120B49E0
:102650009002D3EEF0A3EFF09002D3E0FEA3E0FFF0
:1026600022D390021AE09400900219E094004003F3
:1026700002270A3000259001A0E07002A3E090013B
:10268000A560097405F0A374DCF080077401F0A361
:1026900074F4F090010412170E800612170B121832
:1026A0004490010D12160EFFAEF012180F40139059
:1026B0000134E0601ED3900105E09F900104E09E8C
:1026C0005011900221E07002A3E0702790013404C1
:1026D000F0802090001BE0B4200512183C8006908A
:1026E000022112170EE4900134F090021FF0A3F0C3
:1026F000121857900134E06011900028E090003AE1
:10270000B410047410F0227420F0227F01122B8C7C
:10271000902E42E0FEA3E024B1FFEE34FE9002CF03
:10272000F0A3EFF012167953997F122F0212307C2A
:10273000121738902EC314F0121742902EC0E030BA
:10274000E2F9902EC0E4F0902E027D031216E78E7F
:10275000268F277D10120B99EF24E0F56CEE34B133
:10276000F56BED34FFF56AEC34FFF569438902122D
:10277000167F438002439980902EC5E4F0900107B4
:10278000E0900021F01216E2EF2408FFEE3420F969
:10279000900128121626C98FF0020A35022F65E42F
:1027A00093A3F8E493A34003F68001F208DFF480DA
:1027B00029E493A3F85407240CC8C333C4540F442A
:1027C00020C8834004F456800146F6DFE4800B0104
:1027D0000204081020408090290CE47E019360BC24
:1027E000A3FF543F30E509541FFEE493A360010E9C
:1027F000CF54C025E060A840B8E493A3FAE493A3C3
:10280000F8E493A3C8C582C8CAC583CAF0A3C8C5E3
:1028100082C8CAC583CADFE9DEE780BE900236E01F
:1028200014601B1460432402705D900240E0B40108
:102830000A900236122888D205D200C203227F02F3
:10284000122D2CEF60077F0212309AC205900240D1
:10285000E070349002367402F0D203C205C2007FE9
:102860000312309A7F03022B3B7F03122D2CEF6063
:10287000167F0312309A900240E09002367003F007
:102880008003122888C203227401F07F0212309A5A
:102890007F02122B3B22CDEFCD43AD105399EF4376
:1028A0009A10539BEF902EC07402F0147E00C8ED76
:1028B000C8088005C333CE33CED8F9FF902EC4EEBE
:1028C000F0A3EFF0902EC8EEF0A3EFF074101230EA
:1028D0003C902EC0E030E2F9902EC0E4F07402F09B
:1028E000742012303C902EC0E030E2F9902E00E0CF
:1028F000FEA3E0FF902EC4E4F0A3F0902EC0F043BE
:102900009910539AEF539BEF5390EF22C10C410261
:102910003A0041023B004102370041023F00C10240
:10292000C101C1044102400041023600C103C1009F
:10293000C1054102E1004102E2004202DC0000C1A7
:1029400006C108C1074102DE104101030041010731
:1029500010C10BC10A4101A4000226000004690055
:102960000000004101061041024100009002CB74BA
:1029700008F0A3E4F0A3743FF0A374DFF0E4FDFCDF
:10298000F9758A10538AEF009002CBE0FEA3E02D88
:10299000F582EE3CF583E493FF69F90DBD00010C6F
:1029A000BC37E5BDDFE29002CD123073E49369904D
:1029B00002DF7009123073A37410F08006123073B6
:1029C000A3E4F0758A50538AEF0022200A06200300
:1029D00003300509E4FFFE1224F3C20A2290022705
:1029E000E07002A3E060051217AB703A20000312FA
:1029F0002CA7122A2A7F01122DAE121B209002CB87
:102A0000EEF0A3EFF07B017A0279CB122C1D90023D
:102A1000CB12176112162612168E120FB7122661EC
:102A20001218C8122339122E58224389025395FDD9
:102A30005396FD4380021230057F0C122896CAEE91
:102A4000CACBEFCB7F0C122896EF2BFFEE3A900209
:102A5000D0F0A3EFF0900125E0FBA3E0FAA3E0F9AA
:102A60001209D245F0700512302880151209D2FDE6
:102A7000123028FEEF2DFFEE35F0C313FEEF13FFEB
:102A8000EE8FF0120A3522900218E024FE60131433
:102A90006023146027240370499002187402F01216
:102AA0002DDC7F017E001224F39002187403F0E401
:102AB000900237F0229002187404F02212281C129F
:102AC0002BD512281C900171E07004A3E064017002
:102AD0000C900171F0A3F09002187402F0E49002DF
:102AE0002CF022122EB1F5828E83A3E0B4AA031239
:102AF000296C122EB1FF122E9CE0B41008EF122E9A
:102B00009CE4F0D20A122EB1FF241B122E9EE0701C
:102B10000DEF241C122E9EE0B41003122C64122E12
:102B2000B12413122E9EE0FFB410069002407401EF
:102B3000F0EFB42005E4900240F0229002CBEFF0D9
:102B4000E024C2122FE5E060037F01229002CBE077
:102B5000FF24C2122FE57401F0EF122FEDE493FE73
:102B6000740193FFE4FCFD902F60E0F8A3E0F9A36B
:102B7000E0FAA3E02FFFEA3EFEED39EC389002CBFD
:102B8000E0122FF9EEF0A3EFF07F0022CDEFCD128F
:102B90001679122F02ED601C53997F120866902E51
:102BA0005EE4F0A374FFF07F0F122247902EC4E47E
:102BB000F043998053997F902E42E4F0A374FFF084
:102BC00012307C7F0112224743890212167F438014
:102BD00002439980221217AB70299001A4E0700380
:102BE0001216D79001A47401F0900029E0B42008D7
:102BF0001229CB120C478003122F3890022B74013C
:102C0000F08017E49001A4F0900029E0B4200312B2
:102C100029CB90022BE06002E4F00230489002CD14
:102C2000EBF0A3EAF0A3E9F090021BE07002A3E04E
:102C30007031900135E0602BE4900135F0122A2AC2
:102C40001216D77508017F01122DAE121B209002BB
:102C5000CD1216261217930508E508C3941040E616
:102C600012183C2212082EE4F5F275F30875EEFFF7
:102C700075EF3F75EA81F5F675EB0700E5EC30E797
:102C8000FBE4F5EC9002DFE0FEA3E0FF241BF582FD
:102C9000E43EF583E5F3F0EF241CF582E43EF58392
:102CA000E5F2F075EB302230073FC207902E42E08C
:102CB000FFA3E09002CDCFF0A3EFF0E4FF122B8C46
:102CC0001216E2EF2408FFEE3420FE9001281216BF
:102CD000261217931217389002CDE0FFA3E0902E32
:102CE00042CFF0A3EFF01216D722758B11902F640C
:102CF0007440F0E4FEE4FFEF75F003A42454F58281
:102D0000E43402F583E5822EF582E43583F583E42D
:102D1000F00FEFB40AE10EEEB403DA7F099002C2BD
:102D2000E4F0A3DFFC902F647480F022CBEFCB1291
:102D30002FE2E06036902F60A3A3E0FEA3E0FFEB5C
:102D4000122FF9E0FCA3E0FDD39FEC9E501DC3EFD2
:102D50009DFFEE9CFEEB122FEDC37401939FE49355
:102D60009E4008122FE2E4F07F01227F0022758A44
:102D700050538AEF9000027411F09000017422F019
:102D80009000037433F0E4F5AB75AC1DF5ADF5AF11
:102D90007589FF75913F7599FFF59675931CF59BA5
:102DA000F595F592F59A5388FCD28AD20D229002BD
:102DB000D0EFF0122F02E4F5099002D0E0FFE50910
:102DC000C39F5007121311050980EE902EC0E4F046
:102DD000121FF4900108EEF0A3EFF0221218572210
:102DE0001002AB6BE4FF3006169002DFE0FCA3E0BC
:102DF000F5828C83E0FE54F0FFEE540FF0C2062201
:102E0000029103030A180DA00EA60FFF0C020BFF80
:102E100023F724062504070127062A0628042B0485
:102E200029032C032D042E042F042604021103066B
:102E30000A100D400E800FFF0C020BFF23F4240438
:102E40002504070127102A1028042B0429032C032A
:102E50002D202E202F10262090003AE0FC90010615
:102E6000E06C602E90003AE0FE900106F090000BBE
:102E7000E090023FF0540FF0EEB42005E0442080D3
:102E80000AECB4100B90023FE04410F090000BF0FD
:102E9000C28A22F582E43CF583EFF022241AF582FF
:102EA000E43EF58322A42440F582E5F0342EF58338
:102EB000229002DFE0FEA3E022A3F0A37401F0A3BE
:102EC00022746A2FF582E43400F5832200000000AA
:102ED000FFFFFFFF0000FFFFFFFFFFFFFFFFFF00FF
:102EE000FF000000FFFF000000FFFFFFFFFFFFFFEC
:102EF00000000000FFFFFFFFFFFFFFFFFFFF0000DC
:102F00000000121738121868F0FF74542FF582E48D
:102F10003400F583E0FE75F002EFA42400F582E5AD
:102F2000F0342EF583E49324C0F582E4342EF58347
:102F3000EEF00FEFB416D322E4F5B2F5BA758D209A
:102F4000438D20538D7F53AAF7F58BE5DB20E211EB
:102F5000200C0EE4F58A758703000000758A50D2B4
:102F60000A758B112212084E53A87F122D6E12087B
:102F70001E122F9143A8801230A39000FFE060063C
:102F80009002187401F0122DE4122AE3122A8780AD
:102F9000F59002DFE0FFA3E09002E3CFF0A3EFF0B3
:102FA000E4F5DA75DA4043DA2075D74075DA5875FA
:102FB000D90143A90875B80875F8082201F400285A
:102FC000002801F4009603E801F403E81770006498
:102FD00003E8003202580258012C01F403E82710DC
:102FE00000C874C22BF582E43402F5832225E02464
:102FF000D0F582E4342FF5832225E02442F582E4E3
:103000003402F58322902EC07402F0902EC774749F
:10301000F0902ECD74C0F0A374FFF0A3F0902EC3F7
:103020007401F0902ECAF0229002D1E0C4F8540F3F
:10303000C868FF9002D0E0C454F04822902EC2F03D
:10304000902EC0E04419F022E5B230E005E5AA2058
:10305000E013E490022DF075B28E75B6F9F5B74322
:10306000B20143AA0122A3E0FCA3E02FF582E43CD5
:10307000F58322E0FEA3E0F5828E832212173874D6
:10308000911217B27418F01218687402F022EE3020
:10309000E707C3E49FFFE49EFE2274C22F122FE5D0
:1030A000E4F0221230AF022CEAD2AF32D2AF3202B9
:1030B0003048000000000000000000000000000098
:1030C0000000000000000000000000000000000000
:1030D00000000000000000000000000000000000F0
:1030E00000000000000000000000000000000000E0
:1030F00000000000000000000000000000000000D0
:103FD0000000000000000000000000000000006180
:103FE00000000000000000000000000000000000D1
:103FF00000000000000000000000000000000000C1
:00000001FF
