:10000000006A000000080000AA4C00000000000088
:1000100000000000000000000000000000000000E0
:1000200078FFE4B8200118F6D8F99000007F007E30
:1000300007E4F0A3DFFCDEFA7581700227FD121ED3
:10004000B21224479002187401F0220230D274AA2E
:100050007583F5758255A574557583FA7582AAA5C1
:1000600074A57583F5758255A52200022153904031
:100070007FE493FF64326003EF7002002253A87F95
:100080000080FD021D141217667412121734740AD0
:10009000F0902EC47480F0A3E4F0220230CFE70980
:1000A000F608DFFA8046E709F208DFFA803E888228
:1000B0008C83E709F0A3DFFA8032E309F608DFFA60
:1000C0008078E309F208DFFA807088828C83E30984
:1000D000F0A3DFFA806489828A83E0A3F608DFFA5E
:1000E000805889828A83E0A3F208DFFA804C80D2AC
:1000F00080FA80C680D4806980F28033801080A628
:1001000080EA809A80A880DA80E280CA803389827F
:100110008A83ECFAE493A3C8C582C8CCC583CCF02B
:10012000A3C8C582C8CCC583CCDFE9DEE7800D89D2
:10013000828A83E493A3F608DFF9ECFAA9F0EDFBD9
:100140002289828A83ECFAE0A3C8C582C8CCC58321
:10015000CCF0A3C8C582C8CCC583CCDFEADEE8807A
:10016000DB89828A83E493A3F208DFF980CC88F0EC
:10017000EF60010E4E60C388F0ED2402B40400501D
:10018000B9F582EB2402B4040050AF232345822347
:100190009008CE73EF8DF0A4A8F0CF8CF0A428CEF9
:1001A0008DF0A42EFE22C2D5EC30E709B2D5E4C30F
:1001B0009DFDE49CFCEE30E715B2D5E4C39FFFE45F
:1001C0009EFE120BF2C3E49DFDE49CFC8003120B27
:1001D000F230D507C3E49FFFE49EFE22C5F0F8A3EA
:1001E000E028F0C5F0F8E582158270021583E0384A
:1001F000F022BB010A89828A83E0F5F0A3E0225055
:100200000687F009E71922BBFE07E3F5F009E319B9
:100210002289828A83E493F5F074019322BB01075B
:1002200089828A830209BC500B09C5F027F7C5F003
:100230001937F722BBFE0D09F8E325F0F3C5F019D5
:10024000E338F322F889828A8374019325F0C5F09C
:10025000F8E4933822BB010A89828A83F0E5F0A38F
:10026000F0225006F709A7F01922BBFE06F3E5F0CD
:1002700009F3192275F008758200EF2FFFEE33FEA7
:10028000CD33CDCC33CCC58233C5829BED9AEC996E
:10029000E58298400CF582EE9BFEED9AFDEC99FC10
:1002A0000FD5F0D6E4CEFBE4CDFAE4CCF9A8822257
:1002B000B800C1B90059BA002DEC8BF084CFCECD77
:1002C000FCE5F0CBF97818EF2FFFEE33FEED33FDB0
:1002D000EC33FCEB33FB10D703994004EB99FB0F95
:1002E000D8E5E4F9FA227818EF2FFFEE33FEED336C
:1002F000FDEC33FCC933C910D7059BE99A4007ECE4
:100300009BFCE99AF90FD8E0E4C9FAE4CCFB22752A
:10031000F010EF2FFFEE33FEED33FDCC33CCC833BE
:10032000C810D7079BEC9AE899400AED9BFDEC9A20
:10033000FCE899F80FD5F0DAE4CDFBE4CCFAE4C898
:10034000F922EB9FF5F0EA9E42F0E99D42F0EC6461
:1003500080C864809845F022EB9FF5F0EA9E42F059
:10036000E99D42F0E89C45F022E8600FECC313FCE5
:10037000ED13FDEE13FEEF13FFD8F122ECF0A3ED29
:10038000F0A3EEF0A3EFF022A8828583F0D083D013
:1003900082120B7F120B7F120B7F120B7FE473E430
:1003A00093A3C583C5F0C583C8C582C8F0A3C58320
:1003B000C5F0C583C8C582C822EC8EF0A4CCC5F0B8
:1003C000CCCDF8EFA4CEC5F02DFDE43CFCE8A42E86
:1003D000C8C5F03DFDE43CFCEFA4FFE5F028FEE4D9
:1003E0003DFDE43CFC22EF4E6012EF60010EEDBBE0
:1003F000010B89828A83F0A3DFFCDEFA2289F050A8
:1004000007F709DFFCA9F022BBFEFCF309DFFCA91A
:10041000F022BC000BBE0029EF8DF084FFADF0226E
:10042000E4CCF875F008EF2FFFEE33FEEC33FCEE72
:100430009DEC984005FCEE9DFE0FD5F0E9E4CEFD65
:1004400022EDF8F5F0EE8420D21CFEADF075F00838
:10045000EF2FFFED33FD4007985006D5F0F222C391
:1004600098FD0FD5F0EA22208A03020FCC90021BE0
:10047000E07002A3E06003020FCC900219E070026A
:10048000A3E06003020FCC900171E07002A3E06072
:1004900003020FCC1217D96003020FCC900134E095
:1004A000703090011F121628FFAEF090010D121649
:1004B00028D39FE5F09E4003020FCC121725E4904D
:1004C000017DF0A3F012184390021F121864F56D1D
:1004D0008003756D00756E17E4F5B2F5BA90018171
:1004E000E0F555A3E0F556C209758D20438D2075C2
:1004F0008D8043AA08D2AF758B02758EAF2006247B
:100500001217D9701F200C1CE5DB20E217758AC476
:10051000200C0DE5DB20E208758703000000800653
:10052000D2098002D209758B11758A5053AAF7D36C
:1005300090021AE09490900219E09401400EA3E01A
:100540002470F0900219E034FEF08007E490021964
:10055000F0A3F0D3900226E09490900225E094015D
:10056000400EA3E02470F0900225E034FEF08007F6
:10057000E4900225F0A3F0122F02900055E075F0F0
:1005800006A4902EC3F0A3E4F0A3F012169353999F
:100590007F1230AA121770902EC0E030E2F9902E30
:1005A000C0E4F0902E02E0F56FA3E0F570438902FD
:1005B00012169943800212176D902EC0E030E2F9B6
:1005C000121889F522A3E0F523E5702527FFE56FD2
:1005D0003526FEC3EF9523F525EE9522F524121757
:1005E000FDE5259FE5249E40048E248F25902EC492
:1005F000E4F0439980900167E524F0A3E525F0C37A
:10060000E5569525FFE5559524FE122DD48E578F7E
:10061000581218C84003020FA1AE24AF257C007DFC
:1006200010120B991218D2AF6CAE6BAD6AAC699018
:1006300002CB12166AFBD3120B389002CB40171272
:1006400017A7956CFFEE956BFEED956AFDEC95692D
:10065000FC1218D28007120B6800000000E47F60D3
:100660007EEAFDFC9002CB12166AFBD3120B3840D7
:100670000A9002CB120B680000EA601216257D0971
:100680001217E99002CB12166A7B0A1216C61218CC
:10069000D2900134E07032AE55AF56FC7D0912178E
:1006A000482525FFEA35241216B5E47B0A1216D236
:1006B0008E558F569002CB1216361216A812178A34
:1006C0001216401216A8020FA112178A1216401213
:1006D00016A8900110121628FFAEF09002CB121649
:1006E00067FBD3120B385003020FB1121614121706
:1006F000D2FE1218154003020FB190010D121628F8
:10070000FFAEF07C007D02120B99C8ECC8EDC0E092
:10071000EEC0E0EFC0E01216141217D2FEE4FCFDAA
:10072000D0E0FBD0E0FAD0E0F9EB2FFFEA3E121662
:10073000B5E47B031216D290010D1216401217C1B8
:1007400090010D121628D39430E5F094754008748A
:100750007575F030120A35900184E0606412171646
:10076000405F90010D1216281217D2FE122DD49060
:1007700002CFEEF0A3EFF090010D121628121687AB
:1007800095F050199002D0E0940F9002CFE09400C1
:10079000400B12163DF9E475F0051209FD90010DAC
:1007A000121628FFD312168995F04015D39002D067
:1007B000E094109002CFE09400400612163D12180B
:1007C000BF20090D1218C850081217D97003020C67
:1007D000C9900183E004121648E490016312170FD8
:1007E000F090013504F090021D12175F22121614CA
:1007F000FDACF0D39FEC9E403290011012162812EF
:10080000189DD3EF9430EE9475400C9002CD747522
:10081000F0A37430F0800D12161F1217D29002CD83
:10082000F0A3EFF0E490019E02107C121625FFAEBB
:10083000F0900110121628FDACF0C39FFFEC9EFE55
:10084000D3EF9410EE9427400C9002CD7427F0A3C0
:100850007410F08012121625FFC3ED9FFEEC95F088
:100860009002CDF0A3CEF09002CDE0FFA3E0900186
:100870009ECFF0A3EFF0300018D3E0942C90019EAF
:10088000E0940140139001A07427F0A37410F0804D
:1008900007E49001A0F0A3F0E49002CDF0A3F09063
:1008A0000134E060501216BDD39400EE6480948051
:1008B000401A900104E0FCA3E0FDD3EF9DEE9C40C4
:1008C0000B90021FE4F0A37464F0801BD39002200D
:1008D000E0940090021FE09400400C90010D12166D
:1008E000289002CD1217B9D20B900225740FF0A3F5
:1008F00074A0F080119002237403F0A374E8F07ADE
:1009000000794A12165CD39002CEE094009002CD9A
:10091000E064809480500302130AE0F9A3E0FF90A2
:10092000010D1216401216A81216BD1218B1E47B62
:10093000B87A88F9F8C3120B22500A9002CD748855
:10094000F0A374B8F0D3900222E09400900221E06A
:100950009400500790001BE0B4201D1216BDC394F4
:1009600096EE648094805010EF9400EE6480948042
:10097000402F7C007D0A801E300026900134E070FC
:10098000209001A5E0FCA3E0FD1216BDC39DEE9CE6
:10099000500F7C007D141209869002CDEEF0A3EF7B
:1009A000F0900134E070030212E4900223E0700240
:1009B000A3E060030212E41216BD1218B1E54D2F38
:1009C000F54DE54C3EF54CE54B3DF54BE54A3CF528
:1009D0004A054FE54F7002054EC3E55394E8E552D2
:1009E00094035003021286AE4EAF4FCBEFCB1216DC
:1009F000EAAF4DAE4CAD4BAC4A120A909002CFEE2E
:100A0000F0A3EFF0C3E5519FFFE5509EFE122DD4F9
:100A10009002D1EEF0A3EFF01217A05006E5514579
:100A200050700D9002CFE0F550A3E0F55102127521
:100A3000D39002D0E095519002CFE095504028121B
:100A40001798400474148018D3EF943CEE9400403F
:100A500004740A800BD3EF9428EE94004037740599
:100A60002551F551E4802A121798400774EC1218AA
:100A7000B8801ED3EF943CEE9400400774F6121831
:100A8000B8800ED3EF9428EE9400400974FB12183E
:100A9000B83550F550E4F54DF54CF54BF54AF54EAB
:100AA000F54FF552F553D3E5519400E550940040CD
:100AB0002A9002CEE09551FF9002CDE09550FE12B3
:100AC0002DD41218A75008121837E4F554800CE5FD
:100AD00054C3940750051218370554E5DB20E23D56
:100AE0009001161216287D0F1217E99002CD1216EA
:100AF000751218B1EB7B101216C690011612164033
:100B0000F9EE8014E5DB20E2149002CDE0F9A3E0D9
:100B1000FF900116121640C98FF0120A3590011687
:100B200012162824A8FFE5F0801D90010D12164032
:100B30001217B29001161216401217B29002CEE0B0
:100B400024A8FF9002CDE03461F990011312164001
:100B50001216A82212176612186EF053997FF50B21
:100B6000F50CF50DF50EF50A1230AA1216931217B0
:100B700070902EC0E030E2F9902EC0E4F04389027C
:100B8000121699438002902E02E0FEA3E0250CF598
:100B90000CEE350BF50B12176D902EC0E030E2F91C
:100BA000121889FEA3E0250EF50EEE350DF50D05A4
:100BB0000AE50AC3940640B0439980902EC5E4F03C
:100BC000E527240CFFE52634FEFED3EF950CEE95C9
:100BD0000B4015900171E07002A3E070129001715A
:100BE00004F0A374F4F08007E4900171F0A3F09096
:100BF00001631217194030CBEFCBCAEECAEB250EBA
:100C0000FFEA350D12187F120B498E0D8F0EA312BD
:100C10001893121748250CFFEA350B1216B5780207
:100C2000120B498E0B8F0CE50C2527FFE50B3526A3
:100C3000FEC3EF950EF510EE950DF50F1217FDE5BD
:100C4000109FE50F9E40048E0F8F10900161E50FFD
:100C5000F0A3E510F0A3E50DF0A3E50EF0A3E50B7E
:100C6000F0A3E50CF0D390016EE0940090016DE0EC
:100C70009400406E900134E0600F90010D12162830
:100C8000C394A0E5F0940F5009E490016BF0A3F039
:100C90008050D390016CE0940090016BE094004090
:100CA0002D90016DE0FEA3E0FF121604CAEECACB40
:100CB000EFCB90016B121893120974EB2FFFEA3EF1
:100CC000FEEF7802CEC313CE13D8F9FF800C90014B
:100CD0006DE0FEA3E0FFC312160490016BEEF0A3DB
:100CE000EFF0D390016CE0940A90016BE0940090D7
:100CF000016F40097428F0A37446F080077407F070
:100D0000A3740FF0900161E0FFA3E090016DCFF0BC
:100D1000A3EFF0AF10AE0F1225CC900167EEF0A359
:100D2000EFF090001BE0B42003121658900167E02A
:100D3000FEA3E0FFE4FCFDE5612FF561E5603EF513
:100D400060ED355FF55FEC355EF55E0563E563707C
:100D5000020562C3E56794E8E5669403402AAE6243
:100D6000AF63CBEFCB1216EAAF61AE60AD5FAC5EA6
:100D7000120A908E648F65E4F561F560F55FF55EAB
:100D8000F562F563F566F567D3E5659400E564946F
:100D9000004074900168E09565FF900167E09564FC
:100DA000FE9002D1F0A3EFF090016FE0FDFBC3E4F1
:100DB0009BFBE49400FAD3EF9BEA6480F8EE648036
:100DC00098401BEDFF9002D2E09F7480F89002D112
:100DD000E06480985008121821E4F5688029900298
:100DE000D1E0FEA3E0FF122DD4900170E0FDD3EF1F
:100DF0009D7480F86E984003756803E568C394039A
:100E000050051218210568900167E0F548A3E0F548
:100E10004978287C007D007B007A00792A7E007F5B
:100E20002002094E900162E09FFF900161E09EFE6A
:100E3000122DD422900110E0FBA3E0FAA3E0F912F6
:100E400009D2FFAEF090010AE0FBA3E0FAA3E0F9BB
:100E50000209D2900136A3A3E0F9A3E0FF900110AC
:100E6000E0FBA3E0FAA3E022F07E007F057D007B9B
:100E7000007A007959120BC67A00795E7E007F0BEA
:100E80007D007B00020BC6E4FCFDE0F8A3E0F9A3C3
:100E9000E0FAA3E022C8ECC8C9EDC9CAEECACBEF9C
:100EA000CBE0FEA3E0FF22FFC3900189E09F900109
:100EB00088E02243AB025389FD5395FD5396FD22F2
:100EC000A3F0A37401F0A322C98FF0020A35F9EB55
:100ED0002FFFEA35F0FEED39FDEC38FC229002CD13
:100EE000E0FEA3E0FF222FFFEA3EFEE93DFDE83CE5
:100EF000FCE4FAF9F8020A90E50A25E02428F8E66D
:100F0000FE08E622A3E0FEA3E0FBCAEECAE4F9F87D
:100F10002290021B7402F0A37458F022902E427D9E
:100F200014E0FEA3E0FF7C00020974900186E4F067
:100F3000A3F0A3F0A322900188E0FEA3E0FFD394E6
:100F400000EE9400227F087A0179367E007D007BD6
:100F500001020BC6902EC2F0902EC77401F0902EA5
:100F6000E57404F0902ECA22120B99C8ECC8C9EDA2
:100F7000C9CAEECACBEFCBE4FCFDEB229001A5E49D
:100F8000F0A374C8F022902EC07402F022120866FA
:100F9000902EC07419F022E50D25E02475F582E449
:100FA0003401F583E0FEA3E0FF229002CBA3A3E08F
:100FB000F9A3E0FF90010A229002D1E0FEA3E0FF36
:100FC000D39450EE940022E0FCA3E0FDA3E0FEA346
:100FD000E022F9E4F5F0020A35FFE5F0F0A3EFF0C6
:100FE00022F9EE8FF0020A35E4F50EF50DF50CF559
:100FF0000B22C39FFFE5F09E2290001BE06420229D
:10100000900108E0FCA3E0FD22FFAEF07C00020BA3
:1010100099AB0EAA0DA90CA80BD3020B38E5272417
:1010200088FFE5263413FED322900108E0FFA3E0F9
:1010300090017BCF22D39001A6E09F9001A5E09E76
:1010400022900167E564F0A3E565F02225E02428FD
:10105000F8A60F08A610229002CDE550F0A3E551A6
:10106000F022E4900221F0A3F022900104E4F0A326
:101070007496F022F9746175F0A8020A3590003A6E
:101080007410F022F0A3F0900227F0A3F022902E2B
:10109000C4E4F0A322FEEF2401FFE43EC31322FECA
:1010A000E433FDE433FC780122902EC0E4F0902E6E
:1010B0001EE022E0FEA3E0FF7C007D0322FFC3EDE3
:1010C0009FFFEC95F0FE22C3EF9464EE6480948061
:1010D00022EE3395E0FDFC222551F55174FF22F9F3
:1010E00074FF75F0FB0209FDC3E558956EE5579551
:1010F0006D229002CB020B5C90018C12166AFBE908
:10110000C0E0EAC0E0EBC0E0900125121628FFE441
:10111000FCFDD0E0FBD0E0FAD0E01216AE90018CDE
:10112000120B5C900191E004F07006900190E004D5
:10113000F0900192E07002A3E06003021B41900175
:101140008C1217A7FFEEC0E0EFC0E01216E4D0E06B
:10115000FFD0E0FE120A9090018C120B5C90018C83
:10116000A3A3E0FFA3E090018ACFF0A3EFF0A312C6
:101170000B6800000000E490019012170F74C8F093
:10118000900219E07002A3E06003021B41900194F9
:10119000E07002A3E06003021B41900134E07003A1
:1011A000021A32900186E0FEA3E0FF4E7022900109
:1011B0008AE0FDA3E0900186CDF0A3EDF090010D53
:1011C000121628FD900188E5F0F0A3EDF0021A3A1E
:1011D00090018AE0FCA3E0FDC3EF9DFFEE9CFE12B0
:1011E0002DD49001961216401217C1900184E07020
:1011F00026900196121628C3940FE5F09400500F24
:1012000090010D121628FF9001881217BA801F90C6
:1012100001847401F08017900196121628C394027D
:10122000E5F09400500812170BF0900184F0900143
:101230008AE0FEA3E0FFD3900187E09F900186E063
:101240009E4007E4900185F080109001857401F0C4
:10125000800812170BF0900184F0900184E0700375
:10126000021B411217165003021B4190010D12166A
:10127000281217D2FE122DD49002CDEEF0A3EFF07B
:10128000A3E4F0A37464F090010D121628D3949493
:10129000E5F09411400A9002CF7403F0A37420F09B
:1012A0009002CDA3E090019DF090010D121628FF51
:1012B000AEF0D31216899E40159002CFE0FCA3E059
:1012C000FDD39002CEE09D9002CDE09C501A121604
:1012D000889E50439002CFE0FEA3E0FF9002CEE054
:1012E0009F9002CDE09E402FE4900184F090018613
:1012F000F0A3F090010D12162812168795F09001B8
:101300009474015007F0A3742CF08005F0A374903E
:10131000F0E4900185F02290010D121628FFD312FF
:10132000168995F04015D39002CEE094109002CD2E
:10133000E09400400612163D1218BF90010D1216DF
:101340002812168795F050199002CEE0940F900263
:10135000CDE09400400B12163DF9E475F00512093A
:10136000FD2290017DE0FEA3E0FFC39404EE940013
:10137000502A1217E0EF25E0FFEE33FE74752FF5CB
:101380008274013EF583ECF0A3EDF090017EE00461
:10139000F0700690017DE004F0021CB6750D01129C
:1013A0001777E50D25E02473F582E43401F583EE2B
:1013B000F0A3EFF0050DE50DB404E4900134E07006
:1013C00003021C5C900110121628FFAEF01217E009
:1013D000D39FEC9E5003021CAFED9FFFEC9EFED30B
:1013E000EF94F4EE94015003021CAFA312162812DE
:1013F000189D9002D0F0A3EFF0122DD41218A75030
:1014000063E49002D2F0A3F09002D0E0FEA3E0FFEC
:10141000122DD4D3EF9428EE648094804025D3908D
:1014200002D1E094009002D0E0648094809002D2D7
:101430004008E4F0A37405F0801074FFF0A374FB7F
:10144000F08007E49002D2F0A3F0121625FF90027C
:10145000D3E02FFE9002D2E035F090017BF0A3CED6
:10146000F0021CB6121809F0A3EFF09001A3E004FB
:10147000F070069001A2E004F0021CB6121625FFDF
:101480001217E0C3EF9DFFE5F09CFE122DD4C3EFD1
:101490009428EE648094805036900110121628FF34
:1014A000C3900109E09FFF900108E095F0FE122D26
:1014B000D4C3EF9414EE64809480500590011080A2
:1014C0000390010A121628FF90017BE5F0800312B9
:1014D0001809F0A3EFF0E4F50CF50BF50AF509F5A2
:1014E0000DD390017EE0950D90017DE09400401EAB
:1014F000121777E4FCFDE50C2FF50CE50B3EF50B20
:10150000ED350AF50AEC3509F509050D80D3AF0C68
:10151000AE0BAD0AAC09EEC0E0EFC0E090017D1269
:1015200016E5D0E0FFD0E0FE120A908F0C8E0B8DF6
:101530000A8C0922C0E0C083C082C0D0D2AF900222
:101540002CE004F0D390021AE09400900219E09489
:1015500000400CA3E024FFF0900219E034FFF0D328
:1015600090021CE0940090021BE09400400CA3E069
:1015700024FFF090021BE034FFF0D390021EE094B1
:101580000090021DE09400400CA3E024FFF09002C4
:101590001DE034FFF0D3900220E0940090021FE0A1
:1015A0009400400CA3E024FFF090021FE034FFF011
:1015B000D3900222E09400900221E09400400CA31A
:1015C000E024FFF0900221E034FFF0D390022AE003
:1015D0009400900229E09400400CA3E024FFF090D6
:1015E0000229E034FFF0D3900228E0940090022713
:1015F000E09400400CA3E024FFF0900227E034FFC9
:10160000F0D3900224E09400900223E09400400C78
:10161000A3E024FFF0900223E034FFF0C3E56794D9
:10162000E8E566940350080567E56770020566C340
:10163000E55394E8E552940350080553E5537002CE
:101640000552D3900193E09400900192E094004001
:101650000CA3E024FFF0900192E034FFF0D390015E
:1016600095E09400900194E09400400CA3E024FFE6
:10167000F0900194E034FFF0D3900172E094019077
:101680000171E09400400CA3E024FFF0900171E0B0
:1016900034FFF0D3900226E09400900225E09400FD
:1016A000400CA3E024FFF0900225E034FFF0D3903B
:1016B00001A1E094009001A0E09400400CA3E0247C
:1016C000FFF09001A0E034FFF0D0D0D082D083D0E2
:1016D000E0327E007FFF7D007B017A007904120BEF
:1016E000C69002DF7400F0A37404F09001CC740182
:1016F000F0A37400F0A374B8F09001D27401F0A3C9
:101700007400F074AC122EB97400F0A37494F090CD
:1017100001CF7401F0A37400F0A374C6F09001D857
:101720007401F0A37400F074D2122EB97400F0A307
:10173000741F122EBA7401F0A37402F0902DE0E42D
:1017400093FF9002DFE0FCA3E0FDF5828C83A3EF22
:10175000F0900002E0FFED2404122E93900001E0CF
:10176000FFED2405122E93900003E0FFED240612F6
:101770002E93902DE2E493FFED2412122E93902DE0
:10178000E3E493FFED2414122E939001E17401F031
:10179000A37400F0A3743CF0E4FF75F002EFA424FE
:1017A00001F582E5F0342EF583E493FE74542FF5B1
:1017B00082E43400F583EEF0EF25E0242DF582E499
:1017C000342EF583E493FE122EC1EEF0122EC1E00A
:1017D000FEEF25E0242CF582E4342EF583E49324F7
:1017E000C0F582E4342EF583EEF00FEFB416AB9023
:1017F0002F56E0900058F0902F56E090006EF09039
:101800002F56E0900059F0902F56E090006FF09026
:1018100000FF7401F09000FEF090003A7410F09018
:10182000001BF0900028F0A37420F09002197413AC
:10183000F0A37488F0221217C8F515F51685281143
:10184000852912852813852914F50A1216D8FFD385
:10185000E5149FE5139E40078E138F14850A16C367
:10186000E5129FE5119E50078E118F12850A15050E
:101870000AE50AB410D5E4F50FF510F50AE516658A
:101880000A602EE515650A6028E510450F7010E521
:101890000A25E02428F8E6F50F08E6F51080121274
:1018A00016D82510FFE50F3E121875F50FEF13F54A
:1018B00010050AE50AB410C5900181E50FF0A3E513
:1018C00010F0E516C3940D5005E51612182CE51519
:1018D000C3940D5005E51512182C1217C8F50A12FD
:1018E00016D8FFC3E5109FFFE50F9EFE122DD4D33F
:1018F000EF941EEE64809480400FE4FCFDE50E251D
:1019000010F50EE50D350F800F1216D8FFE4FCFD23
:10191000E50E2FF50EE50D3EF50DED350CF50CEC55
:10192000350BF50B050AE50AC3941040B2AF6CAE57
:101930006BAD6AAC691217F1401AE50E956CF50EA5
:10194000E50D956BF50DE50C956AF50CE50B9569C4
:10195000F50B80031217C8E47F607EEAFDFC1217C6
:10196000F1400BE4750E60750DEAF50CF50BAE0D4C
:10197000AF0E22C0E0C083C082C0D0ECC0E0EDC09A
:10198000E0EEC0E0EFC0E0D2AFE5DB30E419D20C0E
:10199000C208E5DB30E102802E9002DEE5DFF09048
:1019A00002E1E4F0022251E5DB30E50FD206300817
:1019B00005C208022251C20C022251C208E5DB30E6
:1019C000E13AE5DB30E0109002E2E0FF04F0123093
:1019D00094E0F5DF0222519002E2E0FFB408132008
:1019E0008A10D28A9002DFE0FCA3E0240712309A2A
:1019F000E4F0EF641A707AD2070222519002E1E01B
:101A0000700EA3E5DFF09002E17401F0D20880616E
:101A10009002E2E0902ECC93FFB4FF089002DEE546
:101A2000DFF08047EF640F70299002E2E0FFA3E04F
:101A3000FCA3E0FD123099E0540FF09002E2E0FFC9
:101A400004F0ED123099E0FFE5DF54F0FEEF4EF0C8
:101A5000801F9002E2E0FF123094E5DFF0EFB42443
:101A60000A90021B7401F0A374F4F09002E2E00407
:101A7000F075DBFFD0E0FFD0E0FED0E0FDD0E0FC71
:101A8000D0D0D082D083D0E0329002D1EFF090025B
:101A9000D6E4F0A374FFF0E4A3F0A3F0A304F0A352
:101AA00074FFF0902EC07402F0902EC37408F0E41E
:101AB0009002D2F0A3F09002D2E0FEA3E0FFC39424
:101AC00009EE94004003022358EF9407EE9400407F
:101AD000067E007F0180199002D2A3E004FFE47E1D
:101AE00001C8EFC8088006CEA2E713CE13D8F8FFCE
:101AF0009002D4EEF0A3EFF0902EC07419F0902E67
:101B0000C0E030E2F99002D1E0FF75F002A42400B9
:101B1000122EA8E0FCA3E0FD902EC07402F0D3EDDD
:101B200094FFEC940F40179002D4E0FCA3E0FD7505
:101B3000F002EF122EA5EC8DF01209BC8029900264
:101B4000D1E075F002122EA5C083C082E0FEA3E0B2
:101B5000FF9002D4E0FCA3E0FDC3EF9DFFEE9CD01C
:101B600082D083F0A3EFF09002D3E004F0700690EF
:101B700002D2E004F00222967F0022900134E0605D
:101B80000612172502243C90013612166AFBE9C0A2
:101B9000E0EAC0E0EBC0E0121625FFE4FCFDD0E077
:101BA000FBD0E0FAD0E01216AE900136120B5C903A
:101BB000013BE004F0700690013AE004F090021D51
:101BC000E07002A3E060030224469001361217A7DA
:101BD000FFEEC0E0EFC0E01216E4D0E0FFD0E0FE80
:101BE000120A90900136120B5C90011012162824F4
:101BF00032FFE435F0FE900136121667FBD3120B6C
:101C0000384039900219E07002A3E0702F200B2CAD
:101C100090013DE004F0700690013CE004F0D390A8
:101C2000013DE0940590013CE09400401E12163303
:101C30001216A8E490013CF0A3F0800F12163312A4
:101C400016A8E490013CF0A3F0C20B900136120BF1
:101C50006800000000E490013AF0A3F090021D74C7
:101C600002F0A374BCF0227F9C7A01790812172B32
:101C700090010A7401F0A37400F074441216A07469
:101C800000F074461216A07400F0A374481216A156
:101C90007400F0A374321216A17400F0A3742E1213
:101CA00016A17400F0A3742CF09001257401F0A328
:101CB0007400F0A37426F09001967401F0A37400F0
:101CC000F0A374841216A17400F0A37486F090013E
:101CD000287401F0A37400F0A3741C1216A1740000
:101CE000F0A37422F090011C7401F0A37400F0A31F
:101CF00074361216A17400F0A3742A1216A174008F
:101D0000F0A37438F012175C90011C121640F9E42D
:101D100075F0C8120A3590011F121640F9E475F0EB
:101D200064120A3512184A900122121640F9E4751D
:101D3000F096020A359002CDEEF0A3EF121648900D
:101D400002CDE07002A3E06003122731122A50E4B2
:101D500090017DF0A3F07F10122F381216F1A374BA
:101D600002F0A374BCF0900108E0F9A3E0FFA31215
:101D700016401216A890010D1216401217B29001CB
:101D8000131216401218549001161216401217B270
:101D900090011912164012185412185DE490013483
:101DA000F0900136120B680000000090013A121703
:101DB0000EF09001081216381216A8E4900135F0C2
:101DC000900229121864900225F0A3F0FE7F12FD04
:101DD0007B017A017984120BC69001251216289096
:101DE000018A1217B990019212175F229002D3EE66
:101DF000F0A3EFF0E55C455B700C9002D3E0F55B7F
:101E0000A3E0F55C80169002D4E0255CFF9002D33D
:101E1000E0355B121875F55BEF13F55C055DE55D6C
:101E2000D3940A400D855B59855C5AE4F55BF55CFB
:101E3000F55DD3E55A9400E5599400405D9002D4D5
:101E4000E0955AFF9002D3E09559FE122DD4C3EFCE
:101E5000940AEE64809480AE59AF5A501C7C007D89
:101E600003120B999002D3121675E4FCFDEB2FFFC1
:101E7000EA3E1216B578028016CBEFCBCAEECA90B6
:101E800002D3E0FEA3E0FFEB2FFFEA3E12187F1221
:101E90000B499002D3EEF0A3EFF09002D3E0FEA343
:101EA000E0FF22D390021AE09400900219E094001F
:101EB00040030227303000299001A0E07002A3E027
:101EC0009001A560097403F0A374E8F08007740121
:101ED000F0A37490F09001047401F0A3745EF0809C
:101EE0000612175C12184A90010D121628FFAEF068
:101EF0001218154013900134E0601ED3900105E0E4
:101F00009F900104E09E5011900221E07002A3E036
:101F1000702790013404F0802090001BE0B420056D
:101F2000121842800690022112175FE4900134F0EB
:101F300090021FF0A3F012185D900134E060119040
:101F40000028E090003AB410047410F0227420F0DD
:101F5000227F01122BB2902E42E0FEA3E024B1FFBB
:101F6000EE34FE9002CFF0A3EFF012169353997F58
:101F7000122F021230AA121766902EC314F01217F5
:101F800070902EC0E030E2F9902EC0E4F0902E0266
:101F90007D121217018E268F277D10120B99EF24C8
:101FA000E0F56CEE34B1F56BED34FFF56AEC34FF1F
:101FB000F569438902121699438002439980902E55
:101FC000C5E4F0900107E0900021F01216FCEF2428
:101FD00008FFEE3420F9900128121640C98FF00254
:101FE0000A35022F93E493A3F8E493A34003F68009
:101FF00001F208DFF48029E493A3F85407240CC805
:10200000C333C4540F4420C8834004F456800146AF
:10201000F6DFE4800B010204081020408090293292
:10202000E47E019360BCA3FF543F30E509541FFEDA
:10203000E493A360010ECF54C025E060A840B8E44B
:1020400093A3FAE493A3F8E493A3C8C582C8CAC5CE
:1020500083CAF0A3C8C582C8CAC583CADFE9DEE760
:1020600080BE900236E014601B1460432402705D51
:10207000900240E0B4010A9002361228AED205D296
:1020800000C203227F02122D52EF60077F0212303E
:10209000BCC205900240E070349002367402F0D267
:1020A00003C205C2007F031230BC7F03022B617F95
:1020B00003122D52EF60167F031230BC900240E0F5
:1020C0009002367003F080031228AEC2032274011E
:1020D000F07F021230BC7F02122B6122CDEFCD4384
:1020E000AD105399EF439A10539BEF902EC074029A
:1020F000F0147E00C8EDC8088005C333CE33CED8B7
:10210000F9FF902EC4EEF0A3EFF0902EC8EEF0A3EE
:10211000EFF0741012306A902EC0E030E2F9902E89
:10212000C0E4F07402F0742012306A902EC0E030E7
:10213000E2F9902E00E0FEA3E0FF902EC4E4F0A3AD
:10214000F0902EC0F0439910539AEF539BEF5390A9
:10215000EF22C10C41023A0041023B00410237002C
:1021600041023F00C102C101C104410240004102DD
:102170003600C103C100C1054102E1004102E20095
:102180004202DC0000C106C108C1074102DE104165
:1021900001030041010710C10BC10A4101A4000263
:1021A00026000004690000000041010610410241C0
:1021B00000009002CB7408F0A3E4F0A3743FF0A3F6
:1021C00074DFF0E4FDFCF9758A10538AEF00900289
:1021D000CBE0FEA3E02DF582EE3CF583E493FF69AE
:1021E000F90DBD00010CBC37E5BDDFE29002CD1258
:1021F00030A1E493699002DF70091230A1A3740842
:10220000F080061230A1A3E4F0758A50538AEF00E3
:1022100022200A06200303300509E4FFFE122515DB
:10222000C20A22900227E07002A3E060051217D9CB
:10223000703A200003122CCD122A507F01122F3841
:10224000121B429002CBEEF0A3EFF07B017A0279F1
:10225000CB122C439002CB12178F1216401216A8E5
:10226000120FCD1226831218D812235B122E582279
:102270004389025395FD5396FD4380021230337F0C
:102280000C1228BCCAEECACBEFCB7F0C1228BCEFD5
:102290002BFFEE3A9002D0F0A3EFF0900125E0FB87
:1022A000A3E0FAA3E0F91209D245F0700512305606
:1022B00080151209D2FD123056FEEF2DFFEE35F0DB
:1022C000C313FEEF13FFEE8FF0120A3522900218AF
:1022D000E024FE60131460231460272403704990E7
:1022E00002187402F01230CB7F017E001225159087
:1022F00002187403F0E4900237F02290021874047C
:10230000F022122842122BFB122842900171E07039
:1023100004A3E06401700C900171F0A3F090021826
:102320007402F0E490022CF022122EB1F5828E831A
:10233000A3E0B4AA03122992122EB1FF122E9CE040
:10234000B41008EF122E9CE4F0D20A122EB1FF2432
:102350001B122E9EE0700DEF241C122E9EE0B41076
:1023600003122C8A122EB12413122E9EE0FFB410F9
:10237000069002407401F0EFB42005E4900240F0B2
:10238000229002CBEFF0E024C2123013E060037F12
:1023900001229002CBE0FF24C21230137401F0EF4F
:1023A00012301BE493FE740193FFE4FCFD902F6058
:1023B000E0F8A3E0F9A3E0FAA3E02FFFEA3EFEED88
:1023C00039EC389002CBE0123027EEF0A3EFF07F2B
:1023D0000022CDEFCD121693122F02ED601C5399FF
:1023E0007F120866902E5EE4F0A374FFF07F0F1258
:1023F0002269902EC4E4F043998053997F902E4235
:10240000E4F0A374FFF01230AA7F0112226943891D
:1024100002121699438002439980221217D970291B
:102420009001A4E070031216F19001A47401F090E1
:102430000029E0B420081229F1120C478003122F62
:102440006690022B7401F08017E49001A4F09000D4
:1024500029E0B420031229F190022BE06002E4F09D
:102460000230769002CDEBF0A3EAF0A3E9F09002FF
:102470001BE07002A3E07031900135E0602BE49026
:102480000135F0122A501216F17508017F01122F42
:1024900038121B429002CD1216401217C10508E5F2
:1024A00008C3941040E61218422212082EE4F5F2F6
:1024B00075F30875EEFF75EF3F75EA81F5F675EB7C
:1024C0000700E5EC30E7FBE4F5EC9002DFE0FEA36B
:1024D000E0FF241BF582E43EF583E5F3F0EF241CD6
:1024E000F582E43EF583E5F2F075EB302230073FEC
:1024F000C207902E42E0FFA3E09002CDCFF0A3EF01
:10250000F0E4FF122BB21216FCEF2408FFEE342089
:10251000FE9001281216401217C11217669002CDC4
:10252000E0FFA3E0902E42CFF0A3EFF01216F122CD
:10253000758B11902F647440F0E4FEE4FFEF75F0AA
:1025400003A42454F582E43402F583E5822EF58257
:10255000E43583F583E4F00FEFB40AE10EEEB40343
:10256000DA7F099002C2E4F0A3DFFC902F6474804C
:10257000F022CBEFCB123010E06036902F60A3A397
:10258000E0FEA3E0FFEB123027E0FCA3E0FDD39FC9
:10259000EC9E501DC3EF9DFFEE9CFEEB12301BC363
:1025A0007401939FE4939E4008123010E4F07F0181
:1025B000227F0022758A50538AEF9000027411F036
:1025C0009000017422F09000037433F0E4F5AB75D1
:1025D000AC1DF5ADF5AF7589FF75913F7599FFF5A8
:1025E0009675931CF59BF595F592F59A5388FCD258
:1025F0008AD20D22EE30E707C3E49FFFE49EFE225D
:102600000802AB6AE4FF3006169002DFE0FCA3E0AC
:10261000F5828C83E0FE54F0FFEE540FF0C20622E8
:10262000029103030A130DA00EA60FFF0C020BFF6D
:1026300023F724062504070127082A0828082B0861
:1026400029032C032D042E042F0426040211030653
:102650000A100D400E800FFF0C020BFF23F4240420
:102660002504070127102A1028042B0429032C0312
:102670002D202E202F10262090003AE0FC900106FD
:10268000E06C602E90003AE0FE900106F090000BA6
:10269000E090023FF0540FF0EEB42005E0442080BB
:1026A0000AECB4100B90023FE04410F090000BF0E5
:1026B000C28A22F582E43CF583EFF022241AF582E7
:1026C000E43EF58322A42440F582E5F0342EF58320
:1026D000229002DFE0FEA3E022A3F0A37401F0A3A6
:1026E00022746A2FF582E43400F583220000000092
:1026F000FFFFFFFF0000FFFFFFFFFFFFFFFFFF00E7
:10270000FF000000FFFF000000FFFFFFFFFFFFFFD3
:1027100000000000FFFFFFFFFFFFFFFFFFFF0000C3
:10272000000012176612186EF0FF74542FF582E441
:102730003400F583E0FE75F002EFA42400F582E595
:10274000F0342EF583E49324C0F582E4342EF5832F
:10275000EEF00FEFB416D3229002D0EFF0122F025A
:10276000E4F5099002D0E0FFE509C39F500712137A
:1027700034050980EE902EC0E4F012201690010876
:10278000EEF0A3EFF022E4F5B2F5BA758D20438D9B
:1027900020538D7F53AAF7F58BE5DB20E211200C47
:1027A0000EE4F58A758703000000758A50D20A7519
:1027B0008B112212084E53A87F122D9412081E125C
:1027C0002FBF43A8801230C59000FFE06006900242
:1027D000187401F0122DE4122B09122AAD80F59025
:1027E00002DFE0FFA3E09002E3CFF0A3EFF0E4F517
:1027F000DA75DA4043DA2075D74075DA5875D901B1
:1028000043A90875B80875F8082201F400280028C3
:1028100001F4009603E801F403E81770006403E88C
:10282000003202580258012C01F403E8271000C8B6
:1028300074C22BF582E43402F5832225E024FEF5F0
:1028400082E4342FF5832225E02442F582E4340229
:10285000F58322902EC07402F0902EC77474F0900D
:102860002ECD74C0F0A374FFF0A3F0902EC37401BA
:10287000F0902ECAF0229002D1E0C4F8540FC8683C
:10288000FF9002D0E0C454F04822902EC2F0902E67
:10289000C0E04419F022E5B230E005E5AA20E013DB
:1028A000E490022DF075B28E75B6F9F5B743B2011A
:1028B00043AA0122A3E0FCA3E02FF582E43CF583C8
:1028C00022E0FEA3E0F5828E832212176674911235
:1028D00017347413F012186E7402F02274C22F129F
:1028E0003013E4F0221230D5022D1012185D22D2DE
:1028F000AF32D2AF3202307600000000000000009C
:1029000000000000000000000000000000000000C7
:1029100000000000000000000000000000000000B7
:1029200000000000000000000000000000000000A7
:102930000000000000000000000000000000000097
:1037F000000000000000000000000000000000D8F1
:1038000000000000000000000000000000000000B8
:1038100000000000000000000000000000000000A8
:00000001FF
