:10000000006A000000090000BC4A00000000000077
:1000100000000000000000000000000000000000E0
:1000200078FFE4B8200118F6D8F99000007F007E30
:1000300007E4F0A3DFFCDEFA7581740227F4121ED8
:10004000AB12244090021C7401F0220230CE74AA3C
:100050007583F5758255A574557583FA7582AAA5C1
:1000600074A57583F5758255A5220002214C904038
:100070007FE493FF64326003EF7002002253A87F95
:100080000080FD021D0D121769741212174B7413B4
:10009000F0902EC47480F0A3E4F0220230CBE70984
:1000A000F608DFFA8046E709F208DFFA803E888228
:1000B0008C83E709F0A3DFFA8032E309F608DFFA60
:1000C0008078E309F208DFFA807088828C83E30984
:1000D000F0A3DFFA806489828A83E0A3F608DFFA5E
:1000E000805889828A83E0A3F208DFFA804C80D2AC
:1000F00080FA80C680D4806980F28033801080A628
:1001000080EA809A80A880DA80E280CA803389827F
:100110008A83ECFAE493A3C8C582C8CCC583CCF02B
:10012000A3C8C582C8CCC583CCDFE9DEE7800D89D2
:10013000828A83E493A3F608DFF9ECFAA9F0EDFBD9
:100140002289828A83ECFAE0A3C8C582C8CCC58321
:10015000CCF0A3C8C582C8CCC583CCDFEADEE8807A
:10016000DB89828A83E493A3F208DFF980CC88F0EC
:10017000EF60010E4E60C388F0ED2402B40400501D
:10018000B9F582EB2402B4040050AF232345822347
:100190009008CE73EF8DF0A4A8F0CF8CF0A428CEF9
:1001A0008DF0A42EFE22C2D5EC30E709B2D5E4C30F
:1001B0009DFDE49CFCEE30E715B2D5E4C39FFFE45F
:1001C0009EFE120BF2C3E49DFDE49CFC8003120B27
:1001D000F230D507C3E49FFFE49EFE22C5F0F8A3EA
:1001E000E028F0C5F0F8E582158270021583E0384A
:1001F000F022BB010A89828A83E0F5F0A3E0225055
:100200000687F009E71922BBFE07E3F5F009E319B9
:100210002289828A83E493F5F074019322BB01075B
:1002200089828A830209BC500B09C5F027F7C5F003
:100230001937F722BBFE0D09F8E325F0F3C5F019D5
:10024000E338F322F889828A8374019325F0C5F09C
:10025000F8E4933822BB010A89828A83F0E5F0A38F
:10026000F0225006F709A7F01922BBFE06F3E5F0CD
:1002700009F3192275F008758200EF2FFFEE33FEA7
:10028000CD33CDCC33CCC58233C5829BED9AEC996E
:10029000E58298400CF582EE9BFEED9AFDEC99FC10
:1002A0000FD5F0D6E4CEFBE4CDFAE4CCF9A8822257
:1002B000B800C1B90059BA002DEC8BF084CFCECD77
:1002C000FCE5F0CBF97818EF2FFFEE33FEED33FDB0
:1002D000EC33FCEB33FB10D703994004EB99FB0F95
:1002E000D8E5E4F9FA227818EF2FFFEE33FEED336C
:1002F000FDEC33FCC933C910D7059BE99A4007ECE4
:100300009BFCE99AF90FD8E0E4C9FAE4CCFB22752A
:10031000F010EF2FFFEE33FEED33FDCC33CCC833BE
:10032000C810D7079BEC9AE899400AED9BFDEC9A20
:10033000FCE899F80FD5F0DAE4CDFBE4CCFAE4C898
:10034000F922EB9FF5F0EA9E42F0E99D42F0EC6461
:1003500080C864809845F022EB9FF5F0EA9E42F059
:10036000E99D42F0E89C45F022E8600FECC313FCE5
:10037000ED13FDEE13FEEF13FFD8F122ECF0A3ED29
:10038000F0A3EEF0A3EFF022A8828583F0D083D013
:1003900082120B7F120B7F120B7F120B7FE473E430
:1003A00093A3C583C5F0C583C8C582C8F0A3C58320
:1003B000C5F0C583C8C582C822EC8EF0A4CCC5F0B8
:1003C000CCCDF8EFA4CEC5F02DFDE43CFCE8A42E86
:1003D000C8C5F03DFDE43CFCEFA4FFE5F028FEE4D9
:1003E0003DFDE43CFC22EF4E6012EF60010EEDBBE0
:1003F000010B89828A83F0A3DFFCDEFA2289F050A8
:1004000007F709DFFCA9F022BBFEFCF309DFFCA91A
:10041000F022BC000BBE0029EF8DF084FFADF0226E
:10042000E4CCF875F008EF2FFFEE33FEEC33FCEE72
:100430009DEC984005FCEE9DFE0FD5F0E9E4CEFD65
:1004400022EDF8F5F0EE8420D21CFEADF075F00838
:10045000EF2FFFED33FD4007985006D5F0F222C391
:1004600098FD0FD5F0EA22208A03020FDC90021FCC
:10047000E07002A3E06003020FDC90021DE0700256
:10048000A3E06003020FDC900175E07002A3E0605E
:1004900003020FDC1217E66003020FDC900134E068
:1004A000703090011F12163FFFAEF090010D121632
:1004B0003FD39FE5F09E4003020FDC12173CE4900F
:1004C0000181F0A3F0121850900223121871F571F7
:1004D0008003757100757217E4F5B2F5BA90018565
:1004E000E0F559A3E0F55AC209758D20438D2075BA
:1004F0008D8043AA08D2AF758B02758EAF2006247B
:100500001217E6701F200C1CE5DB20E217758AC469
:10051000200C0DE5DB20E208758703000000800653
:10052000D2098002D209758B11758A5053AAF7D36C
:1005300090021EE0949090021DE09401400EA3E012
:100540002470F090021DE034FEF08007E490021D5C
:10055000F0A3F0D390022AE09490900229E0940155
:10056000400EA3E02470F0900229E034FEF08007F2
:10057000E4900229F0A3F0122F02900055E075F0EC
:1005800005A4902EC3F0A3E4F0A3F01216AA539989
:100590007F12309A121773902EC0E030E2F9902E3D
:1005A000C0E4F0902E02E0F573A3E0F574438902F5
:1005B0001216B0438002121770902EC0E030E2F99C
:1005C00012188CF522A3E0F523E5742527FFE573C7
:1005D0003526FEC3EF9523F525EE9522F524121856
:1005E0000AE5259FE5249E40048E248F25902EC485
:1005F000E4F043998090016BE524F0A3E525F0C376
:10060000E55A9525FFE5599524FE1230AC8E5B8F97
:100610005C1218C14003020FB1AE24AF257C007DEF
:1006200012120B991218CBAF70AE6FAD6EAC6D900D
:1006300002CF121681FBD3120B389002CF40171253
:1006400017AA9570FFEE956FFEED956EFDEC956D1A
:10065000FC1218CB8007120B6800000000E47F60DA
:100660007EEAFDFC9002CF121681FBD3120B3840BC
:100670000A9002CF120B680000EA6012163C7D0956
:100680001217F69002CF1216817B0A1216C51218A5
:10069000CB900134E07042AE59AF5AFC7D09120B89
:1006A00099C8ECC8C9EDC9CAEECACBEFCBE4FCFDD2
:1006B000EB2525FFEA35241216F3E47B0A1216D146
:1006C0008E598F5A9002CF12164D1216BF12178DE7
:1006D0001216571216BF020FB112178D12165712AB
:1006E00016BF90011012163FFFAEF09002CF121607
:1006F0007EFBD3120B385003020FC112162B1217B8
:10070000DFFE1218224003020FC190010D12163FA6
:10071000FFAEF07C007D02120B99C8ECC8EDC0E082
:10072000EEC0E0EFC0E012162B1217DFFEE4FCFD76
:10073000D0E0FBD0E0FAD0E0F9EB2FFFEA3E121652
:10074000F3E47B031216D190010D1216571217C451
:1007500090010D12163FD39430E5F0947540087463
:100760007575F030120A35900188E0606412172D1B
:10077000405F90010D12163F1217DFFE1230AC9051
:1007800002D3EEF0A3EFF090010D12163F12169E69
:1007900095F050199002D4E0940F9002D3E09400A9
:1007A000400B121654F9E475F0051209FD90010D85
:1007B00012163FFFD31216A095F04015D39002D425
:1007C000E094109002D3E0940040061216541218E0
:1007D000B820090D1218C150081217E67003020C58
:1007E000C9900187E00412165FE490016712172692
:1007F000F090013504F09002211217622212162B9C
:10080000FDACF0D39FEC9E403290011012163F12C7
:100810001896D3EF9430EE9475400C9002D1747515
:10082000F0A37430F0800D1216361217DF9002D14B
:10083000F0A3EFF0E49001A202108C12163CFFAE80
:10084000F090011012163FFDACF0C39FFFEC9EFE2E
:10085000D3EF9410EE9427400C9002D17427F0A3AC
:100860007410F0801212163CFFC3ED9FFEEC95F061
:100870009002D1F0A3CEF09002D1E0FFA3E090016E
:10088000A2CFF0A3EFF0300018D3E0942C9001A297
:10089000E0940140139001A47427F0A37410F08039
:1008A00007E49001A4F0A3F0E49002D1F0A3F0904B
:1008B0000134E060501216D7D39400EE6480948027
:1008C000401A900104E0FCA3E0FDD3EF9DEE9C40B4
:1008D0000B900223E4F0A37464F0801BD3900224F5
:1008E000E09400900223E09400400C90010D121659
:1008F0003F9002D11217BCD20B900229740FF0A3C3
:1009000074A0F080119002277403F0A374E8F07AC9
:1009100000794E121673D39002D2E094009002D167
:10092000E064809480500302131AE0F9A3E0FF9082
:10093000010D1216571216BF1216D71218AAE47B11
:10094000B87A88F9F8C3120B22500A9002D1748841
:10095000F0A374B8F0D3900226E09400900225E052
:100960009400500790001BE0B4201D1216D7C394CA
:1009700096EE648094805010EF9400EE6480948032
:10098000402F7C007D0A801E300026900134E070EC
:10099000209001A9E0FCA3E0FD1216D7C39DEE9CB8
:1009A000500F7C007D141209869002D1EEF0A3EF67
:1009B000F0900134E070030212F4900227E070021C
:1009C000A3E060030212F41216D71218AAE5512F01
:1009D000F551E5503EF550E54F3DF54FE54E3CF500
:1009E0004E0553E55370020552C3E55794E8E556AA
:1009F00094035003021296AE52AF53CBEFCB1217B3
:100A000001AF51AE50AD4FAC4E120A909002D3EEF2
:100A1000F0A3EFF0C3E5559FFFE5549EFE1230AC06
:100A20009002D5EEF0A3EFF01217A35006E555455E
:100A300054700D9002D3E0F554A3E0F555021285F1
:100A4000D39002D4E095559002D3E09554402812FB
:100A5000179B400474148018D3EF943CEE9400402C
:100A600004740A800BD3EF9428EE94004037740589
:100A70002555F555E4802A12179B400774EC12188F
:100A8000B1801ED3EF943CEE9400400774F6121828
:100A9000B1800ED3EF9428EE9400400974FB121835
:100AA000B13554F554E4F551F550F54FF54EF55286
:100AB000F553F556F557D3E5559400E554940040A9
:100AC0002A9002D2E09555FF9002D1E09554FE1293
:100AD00030AC1218A05008121844E4F558800CE508
:100AE00058C3940750051218440558E5DB20E23D31
:100AF00090011612163F7D0F1217F69002D11216B2
:100B00008C1218AAEB7B101216C5900116121657FC
:100B1000F9EE8014E5DB20E2149002D1E0F9A3E0C5
:100B2000FF900116121657C98FF0120A3590011660
:100B300012163F24A8FFE5F0801D90010D121657F4
:100B40001217B59001161216571217B59002D2E07F
:100B500024A8FF9002D1E03461F9900113121657D6
:100B60001216BF2212176912187BF053997FF50BEA
:100B7000F50CF50DF50EF50A12309A1216AA121799
:100B800073902EC0E030E2F9902EC0E4F043890269
:100B90001216B0438002902E02E0FEA3E0250CF571
:100BA0000CEE350BF50B121770902EC0E030E2F909
:100BB00012188CFEA3E0250EF50EEE350DF50D0591
:100BC0000AE50AC3940540B0439980902EC5E4F02D
:100BD000E527240CFFE52634FEFED3EF950CEE95B9
:100BE0000B4015900175E07002A3E0701290017542
:100BF00004F0A374F4F08007E4900175F0A3F09082
:100C000001671217304031CBEFCBCAEECAEB250E8D
:100C1000FFEA350D1217CB120B498E0D8F0EA3E094
:100C2000FEA3E0FBCAEECAEB250CFFEA350B121758
:100C3000CB120B498E0B8F0CE50C2527FFE50B35EE
:100C400026FEC3EF950EF510EE950DF50F12180A5E
:100C5000E5109FE50F9E40048E0F8F10900165E513
:100C60000FF0A3E510F0A3E50DF0A3E50EF0A3E56A
:100C70000BF0A3E50CF0D3900172E09400900171A9
:100C8000E094004074900134E0600F90010D121662
:100C90003FC394A0E5F0940F5009E490016FF0A3D6
:100CA000F08056D3900170E0940090016FE09400C2
:100CB0004033900171E0FEA3E0FF12161BCAEECA9A
:100CC000CBEFCB90016FE0FEA3E0FF7C007D031231
:100CD0000974EB2FFFEA3EFEEF7802CEC313CE136A
:100CE000D8F9FF800C900171E0FEA3E0FFC312165B
:100CF0001B90016FEEF0A3EFF0D3900170E0940A27
:100D000090016FE0940090017340097428F0A3747F
:100D100046F080077407F0A3740FF0900165E0FFC0
:100D2000A3E0900171CFF0A3EFF0AF10AE0F12254A
:100D3000C590016BEEF0A3EFF090001BE0B4200330
:100D400012166F90016BE0FEA3E0FFE4FCFDE56589
:100D50002FF565E5643EF564ED3563F563EC3562CA
:100D6000F5620567E56770020566C3E56B94E8E523
:100D70006A9403402AAE66AF67CBEFCB121701AF80
:100D800065AE64AD63AC62120A908E688F69E4F55B
:100D900065F564F563F562F566F567F56AF56BD39D
:100DA000E5699400E5689400407490016CE09569F1
:100DB000FF90016BE09568FE9002D5F0A3EFF090F4
:100DC0000173E0FDFBC3E49BFBE49400FAD3EF9BCB
:100DD000EA6480F8EE648098401BEDFF9002D6E054
:100DE0009F7480F89002D5E0648098500812182E05
:100DF000E4F56C80299002D5E0FEA3E0FF1230AC50
:100E0000900174E0FDD3EF9D7480F86E98400375F7
:100E10006C03E56CC39403500512182E056C900109
:100E20006BE0F54CA3E0F54D78287C007D007B005D
:100E30007A00792A7E007F2402094E900166E09FA5
:100E4000FF900165E09EFE1230AC22900110E0FBA5
:100E5000A3E0FAA3E0F91209D2FFAEF090010AE094
:100E6000FBA3E0FAA3E0F90209D2900136A3A3E0C4
:100E7000F9A3E0FF900110E0FBA3E0FAA3E022F069
:100E80007E007F057D007B007A00795D120BC67ABB
:100E90000079627E007F0B7D007B00020BC6E4FCC4
:100EA000FDE0F8A3E0F9A3E0FAA3E022C8ECC8C98A
:100EB000EDC9CAEECACBEFCBE0FEA3E0FF22FFC331
:100EC00090018DE09F90018CE02243AB025389FD9D
:100ED0005395FD5396FD22A3F0A37401F0A322C9FC
:100EE0008FF0020A352FFFEA3EFEE93DFDE83CFCAB
:100EF000E4FAF9F8020A909002D1E0FEA3E0FF22A2
:100F0000E50A25E02428F8E6FE08E622F9EB2FFFA3
:100F1000EA35F0FEED39FDEC38FC22A3E0FEA3E05B
:100F2000FBCAEECAE4F9F82290021F7402F0A3741F
:100F300058F022902E42E0FEA3E0FF7C007D1402D8
:100F4000097490018AE4F0A3F0A3F0A32290018C2D
:100F5000E0FEA3E0FFD39400EE9400227F087A0124
:100F600079367E007D007B01020BC6902EC2F09088
:100F70002EC77401F0902EE57404F0902ECA2290D2
:100F800001A9E4F0A374C8F022902EC07402F022EC
:100F9000120866902EC07419F022E50D25E0247920
:100FA000F582E43401F583E0FEA3E0FF229002CF56
:100FB000A3A3E0F9A3E0FF90010A229002D5E0FE8E
:100FC000A3E0FFD39450EE940022E0FCA3E0FDA345
:100FD000E0FEA3E022F9E4F5F0020A35FFE5F0F0C7
:100FE000A3EFF022F9EE8FF0020A35FEE433FDE4C0
:100FF00033FC780122E4F50EF50DF50CF50B22C358
:101000009FFFE5F09E2290001BE0642022900108E3
:10101000E0FCA3E0FD22FFAEF07C00020B99AB0EDA
:10102000AA0DA90CA80BD3020B38E5272488FFE5ED
:10103000263413FED322900108E0FFA3E090017F45
:10104000CF22D39001AAE09F9001A9E09E229001B7
:101050006BE568F0A3E569F02225E02428F8A60FE7
:1010600008A610229002D1E554F0A3E555F022E441
:10107000900225F0A3F022900104E4F0A37496F00E
:1010800022F9746175F0A8020A3590003A7410F0E4
:1010900022F0A3F090022BF0A3F022902EC4E4F0F3
:1010A000A322FEEF2401FFE43EC31322902EC0E4EE
:1010B000F0902E1EE022FFC3ED9FFFEC95F0FE2284
:1010C000C3EF9464EE6480948022EE3395E0FDFCDF
:1010D000222555F55574FF22F974FF75F0FB0209BE
:1010E000FDC3E55C9572E55B9571229002CF020B22
:1010F0005C900190121681FBE9C0E0EAC0E0EBC011
:10110000E090012512163FFFE4FCFDD0E0FBD0E0AB
:10111000FAD0E01216EC900190120B5C900195E071
:1011200004F07006900194E004F0900196E07002E3
:10113000A3E06003021B3A9001901217AAFFEEC0D1
:10114000E0EFC0E01216FBD0E0FFD0E0FE120A9004
:10115000900190120B5C900190A3A3E0FFA3E0909C
:10116000018ECFF0A3EFF0A3120B6800000000E4A3
:1011700090019412172674C8F090021DE07002A32B
:10118000E06003021B3A900198E07002A3E0600364
:10119000021B3A900134E07003021A2B90018AE09E
:1011A000FEA3E0FF4E702290018EE0FDA3E09001CF
:1011B0008ACDF0A3EDF090010D12163FFD90018C49
:1011C000E5F0F0A3EDF0021A3390018EE0FCA3E00D
:1011D000FDC3EF9DFFEE9CFE1230AC90019A1216FB
:1011E000571217C4900188E0702690019A12163F9A
:1011F000C3940FE5F09400500F90010D12163FFFBD
:1012000090018C1217BD801F9001887401F0801727
:1012100090019A12163FC39402E5F0940050081210
:101220001722F0900188F090018EE0FEA3E0FFD33A
:1012300090018BE09F90018AE09E4007E490018935
:10124000F080109001897401F08008121722F0904C
:101250000188F0900188E07003021B3A12172D50AC
:1012600003021B3A90010D12163F1217DFFE1230D7
:10127000AC9002D1EEF0A3EFF0A3E4F0A37464F01D
:1012800090010D12163FD39494E5F09411400A900A
:1012900002D37403F0A37420F09002D1A3E0900174
:1012A000A1F090010D12163FFFAEF0D31216A09ED2
:1012B00040159002D3E0FCA3E0FDD39002D2E09D64
:1012C0009002D1E09C501A12169F9E50439002D378
:1012D000E0FEA3E0FF9002D2E09F9002D1E09E40AA
:1012E0002FE4900188F090018AF0A3F090010D1294
:1012F000163F12169E95F090019874015007F0A3C6
:10130000742CF08005F0A37490F0E4900189F02231
:1013100090010D12163FFFD31216A095F04015D381
:101320009002D2E094109002D1E094004006121690
:10133000541218B890010D12163F12169E95F050D7
:10134000199002D2E0940F9002D1E09400400B1269
:101350001654F9E475F0051209FD22900181E0FEB2
:10136000A3E0FFC39404EE9400502A1217EDEF257A
:10137000E0FFEE33FE74792FF58274013EF583ECC5
:10138000F0A3EDF0900182E004F07006900181E09E
:1013900004F0021CAF750D0112177AE50D25E0244B
:1013A00077F582E43401F583EEF0A3EFF0050DE567
:1013B0000DB404E4900134E07003021C5590011058
:1013C00012163FFFAEF01217EDD39FEC9E500302B2
:1013D0001CA8ED9FFFEC9EFED3EF94F4EE94015019
:1013E00003021CA8A312163F1218969002D4F0A371
:1013F000EFF01230AC1218A05063E49002D6F0A3C4
:10140000F09002D4E0FEA3E0FF1230ACD3EF9428BA
:10141000EE648094804025D39002D5E09400900241
:10142000D4E0648094809002D64008E4F0A3740570
:10143000F0801074FFF0A374FBF08007E49002D6F4
:10144000F0A3F012163CFF9002D7E02FFE9002D6D8
:10145000E035F090017FF0A3CEF0021CAF12181619
:10146000F0A3EFF09001A7E004F070069001A6E071
:1014700004F0021CAF12163CFF1217EDC3EF9DFFE4
:10148000E5F09CFE1230ACC3EF9428EE64809480AB
:10149000503690011012163FFFC3900109E09FFFE4
:1014A000900108E095F0FE1230ACC3EF9414EE64A6
:1014B0008094805005900110800390010A12163F1D
:1014C000FF90017FE5F08003121816F0A3EFF0E41F
:1014D000F50CF50BF50AF509F50DD3900182E095B1
:1014E0000D900181E09400401E12177AE4FCFDE5A6
:1014F0000C2FF50CE50B3EF50BED350AF50AEC3536
:1015000009F509050D80D3AF0CAE0BAD0AAC09EEA1
:10151000C0E0EFC0E09001811216FCD0E0FFD0E007
:10152000FE120A908F0C8E0B8D0A8C0922C0E0C02F
:1015300083C082C0D0D2AF900230E004F0D39002DA
:101540001EE0940090021DE09400400CA3E024FFF4
:10155000F090021DE034FFF0D3900220E094009060
:10156000021FE09400400CA3E024FFF090021FE073
:1015700034FFF0D3900222E09400900221E0940026
:10158000400CA3E024FFF0900221E034FFF0D39060
:101590000224E09400900223E09400400CA3E02495
:1015A000FFF0900223E034FFF0D3900226E0940095
:1015B000900225E09400400CA3E024FFF090022567
:1015C000E034FFF0D390022EE0940090022DE094DE
:1015D00000400CA3E024FFF090022DE034FFF0D394
:1015E00090022CE0940090022BE09400400CA3E0C9
:1015F00024FFF090022BE034FFF0D3900228E09417
:1016000000900227E09400400CA3E024FFF0900239
:1016100027E034FFF0C3E56B94E8E56A94035008D3
:10162000056BE56B7002056AC3E55794E8E55694CF
:101630000350080557E55770020556D3900197E00F
:101640009400900196E09400400CA3E024FFF090F9
:101650000196E034FFF0D3900199E0940090019856
:10166000E09400400CA3E024FFF0900198E034FFE8
:10167000F0D3900176E09401900175E09400400C65
:10168000A3E024FFF0900175E034FFF0D390022A2C
:10169000E09400900229E09400400CA3E024FFF0C5
:1016A000900229E034FFF0D39001A5E0940090016E
:1016B000A4E09400400CA3E024FFF09001A4E034E7
:1016C000FFF0D0D0D082D083D0E0327E007FFF7D8B
:1016D000007B017A007904120BC69002E37400F0DB
:1016E000A37404F09001D07401F0A37400F0A3740B
:1016F000B8F09001D67401F0A37400F074AC122E0F
:10170000B97400F0A37494F09001D37401F0A37441
:1017100000F0A374C6F09001DC7401F0A37400F033
:1017200074D2122EB97400F0A3741F122EBA740171
:10173000F0A37402F0902DE0E493FF9002E3E0FC4C
:10174000A3E0FDF5828C83A3EFF0900002E0FFEDB3
:101750002404122E93900001E0FFED2405122E9335
:10176000900003E0FFED2406122E93902DE2E49307
:10177000FFED2412122E93902DE3E493FFED241439
:10178000122E939001E57401F0A37400F0A3743C51
:10179000F0E4FF75F002EFA42401F582E5F0342EA9
:1017A000F583E493FE74542FF582E43400F583EE60
:1017B000F0EF25E0242DF582E4342EF583E493FE4A
:1017C000122EC1EEF0122EC1E0FEEF25E0242CF522
:1017D00082E4342EF583E49324C0F582E4342EF5BC
:1017E00083EEF00FEFB416AB902F56E0900058F058
:1017F000902F56E090006EF0902F56E0900059F038
:10180000902F56E090006FF09000FF7401F0900070
:10181000FEF090003A7410F090001BF0900028F059
:10182000A37420F090021D7413F0A37488F02212A8
:1018300017D5F515F51685281185291285281385E4
:101840002914F50A1216E0FFD3E5149FE5139E4014
:10185000078E138F14850A16C3E5129FE5119E505B
:10186000078E118F12850A15050AE50AB412D5E410
:10187000F50FF510F50AE516650A602EE515650AFF
:101880006028E510450F7010E50A25E02428F8E6E9
:10189000F50F08E6F51080121216E02510FFE50F8F
:1018A0003E121882F50FEF13F510050AE50AB4127F
:1018B000C5900185E50FF0A3E510F0E516C3940F80
:1018C0005005E516121839E515C3940F5005E515B6
:1018D0001218391217D5F50A1216E0FFC3E5109F4A
:1018E000FFE50F9EFE1230ACD3EF941EEE648094A1
:1018F00080400FE4FCFDE50E2510F50EE50D350FDB
:10190000800F1216E0FFE4FCFDE50E2FF50EE50D4D
:101910003EF50DED350CF50CEC350BF50B050AE538
:101920000AC3941240B2AF70AE6FAD6EAC6D1217B9
:10193000FE401AE50E9570F50EE50D956FF50DE577
:101940000C956EF50CE50B956DF50B80031217D514
:10195000E47F607EEAFDFC1217FE400BE4750E602A
:10196000750DEAF50CF50BAE0DAF0E22C0E0C0838D
:10197000C082C0D0ECC0E0EDC0E0EEC0E0EFC0E05F
:10198000D2AFE5DB30E419D20CC208E5DB30E1026E
:10199000802E9002E2E5DFF09002E5E4F002224AB8
:1019A000E5DB30E50FD206300805C20802224AC244
:1019B0000C02224AC208E5DB30E13AE5DB30E010F8
:1019C0009002E6E0FF04F0122DC8E0F5DF02224AA3
:1019D0009002E6E0FFB40813208A10D28A9002E356
:1019E000E0FCA3E02407122DCEE4F0EF641A707A35
:1019F000D20702224A9002E5E0700EA3E5DFF090E4
:101A000002E57401F0D20880619002E6E0902ECCED
:101A100093FFB4FF089002E2E5DFF08047EF640F28
:101A200070299002E6E0FFA3E0FCA3E0FD122DCDBB
:101A3000E0540FF09002E6E0FF04F0ED122DCDE04F
:101A4000FFE5DF54F0FEEF4EF0801F9002E6E0FF6E
:101A5000122DC8E5DFF0EFB4240A90021F7401F0E4
:101A6000A374F4F09002E6E004F075DBFFD0E0FF31
:101A7000D0E0FED0E0FDD0E0FCD0D0D082D083D04A
:101A8000E0329002D5EFF09002DAE4F0A374FFF0B8
:101A9000E4A3F0A3F0A304F0A374FFF0902EC074AD
:101AA00002F0902EC37408F0E49002D6F0A3F090F8
:101AB00002D6E0FEA3E0FFC39409EE9400400302C7
:101AC0002351EF9407EE940040067E007F018019B9
:101AD0009002D6A3E004FFE47E01C8EFC8088006A8
:101AE000CEA2E713CE13D8F8FF9002D8EEF0A3EF02
:101AF000F0902EC07419F0902EC0E030E2F9900200
:101B0000D5E0FF75F002A42400122EA8E0FCA3E0AB
:101B1000FD902EC07402F0D3ED94FFEC940F4017AB
:101B20009002D8E0FCA3E0FD75F002EF122EA5ECC8
:101B30008DF01209BC80299002D5E075F002122EBA
:101B4000A5C083C082E0FEA3E0FF9002D8E0FCA322
:101B5000E0FDC3EF9DFFEE9CD082D083F0A3EFF0B9
:101B60009002D7E004F070069002D6E004F0022262
:101B70008F7F0022900134E0600612173C0224356A
:101B8000900136121681FBE9C0E0EAC0E0EBC0E04C
:101B900012163CFFE4FCFDD0E0FBD0E0FAD0E012EE
:101BA00016EC900136120B5C90013BE004F07006DD
:101BB00090013AE004F0900221E07002A3E060039B
:101BC00002243F9001361217AAFFEEC0E0EFC0E0FA
:101BD0001216FBD0E0FFD0E0FE120A909001361200
:101BE0000B5C90011012163F2432FFE435F0FE909A
:101BF000013612167EFBD3120B38403990021DE0DD
:101C00007002A3E0702F200B2C90013DE004F070D7
:101C10000690013CE004F0D390013DE09405900172
:101C20003CE09400401E12164A1216BFE490013C9C
:101C3000F0A3F0800F12164A1216BFE490013CF098
:101C4000A3F0C20B900136120B6800000000E49074
:101C5000013AF0A3F09002217402F0A374BCF022C8
:101C60007FA07A01790812174290010A7401F0A34B
:101C70007400F074441216B77400F074461216B76C
:101C80007400F0A374481216B87400F0A3743212F2
:101C900016B87400F0A3742E1216B87400F0A37472
:101CA0002CF09001257401F0A37400F0A37426F0C9
:101CB00090019A7401F0A37400F0A374841216B812
:101CC0007400F0A37486F09001287401F0A37400EE
:101CD000F0A3741C1216B87400F0A37422F09001E3
:101CE0001C7401F0A37400F0A374361216B87400CB
:101CF000F0A3742A1216B87400F0A37438F0121707
:101D00005F90011C121657F9E475F0C8120A35905D
:101D1000011F121657F9E475F064120A35121857AC
:101D2000900122121657F9E475F096020A359002D6
:101D3000D1EEF0A3EF12165F9002D1E07002A3E0A3
:101D4000600312272A122AA3E4900181F0A3F07FF6
:101D500012122F38121708A37402F0A374BCF0906B
:101D60000108E0F9A3E0FFA31216571216BF900175
:101D70000D1216571217B59001131216571218614B
:101D80009001161216571217B59001191216571214
:101D9000186112186AE4900134F0900136120B6851
:101DA0000000000090013A121725F0900108121669
:101DB0004F1216BFE4900135F090022D1218719069
:101DC0000229F0A3F0FE7F12FD7B017A01798812CF
:101DD0000BC690012512163F90018E1217BC900180
:101DE00096121762229002D7EEF0A3EFF0E560455D
:101DF0005F700C9002D7E0F55FA3E0F5608016906D
:101E000002D8E02560FF9002D7E0355F121882F516
:101E10005FEF13F5600561E561D3940A400D855FBE
:101E20005D85605EE4F55FF560F561D3E55E940085
:101E3000E55D9400405D9002D8E0955EFF9002D78A
:101E4000E0955DFE1230ACC3EF940AEE648094809E
:101E5000AE5DAF5E501C7C007D03120B999002D7E3
:101E600012168CE4FCFDEB2FFFEA3E1216F378020B
:101E70008016CBEFCBCAEECA9002D7E0FEA3E0FFFC
:101E8000EB2FFFEA3E1217CB120B499002D7EEF070
:101E9000A3EFF09002D7E0FEA3E0FF22D390021E52
:101EA000E0940090021DE0940040030227293000D6
:101EB000299001A4E07002A3E09001A96009740BCD
:101EC000F0A374B8F080077405F0A374DCF09001FF
:101ED000047405F0A37414F0800612175F121857EB
:101EE00090010D12163FFFAEF01218224013900120
:101EF00034E0601ED3900105E09F900104E09E5005
:101F000011900225E07002A3E0702790013404F0E4
:101F1000802090001BE0B4200512184F800690022C
:101F200025121762E4900134F0900223F0A3F0121E
:101F3000186A900134E06011900028E090003AB4F3
:101F400010047410F0227420F0227F01122BA6904E
:101F50002E42E0FEA3E024B1FFEE34FE9002D3F067
:101F6000A3EFF01216AA53997F122F0212309A1281
:101F70001769902EC314F0121773902EC0E030E250
:101F8000F9902EC0E4F0902E021217168E268F279D
:101F90007D12120B99EF24E0F570EE34B1F56FED80
:101FA00034FFF56EEC34FFF56D4389021216B04331
:101FB0008002439980902EC5E4F0900107E09000E4
:101FC00021F0121713EF2408FFEE3420F9900128B6
:101FD000121657C98FF0020A35022F93E493A3F823
:101FE000E493A34003F68001F208DFF48029E49330
:101FF000A3F85407240CC8C333C4540F4420C88327
:102000004004F456800146F6DFE4800B0102040828
:1020100010204080902929E47E019360BCA3FF54E6
:102020003F30E509541FFEE493A360010ECF54C076
:1020300025E060A840B8E493A3FAE493A3F8E493FE
:10204000A3C8C582C8CAC583CAF0A3C8C582C8CA06
:10205000C583CADFE9DEE780BE90023AE014601B68
:102060001460432402705D900244E0B4010A9002BF
:102070003A1228A5D205D200C203227F02122D46B1
:10208000EF60077F021230B8C205900244E070345E
:1020900090023A7402F0D203C205C2007F031230EC
:1020A000B87F03022B557F03122D46EF60167F0386
:1020B0001230B8900244E090023A7003F0800312AC
:1020C00028A5C203227401F07F021230B87F0212E9
:1020D0002B5522CDEFCD43AD105399EF439A1053BA
:1020E0009BEF902EC07402F0147E00C8EDC80880EB
:1020F00005C333CE33CED8F9FF902EC4EEF0A3EF54
:10210000F0902EC8EEF0A3EFF0741012301F902E56
:10211000C0E030E2F9902EC0E4F07402F0742012B6
:10212000301F902EC0E030E2F9902E00E0FEA3E0D8
:10213000FF902EC4E4F0A3F0902EC0F0439910530A
:102140009AEF539BEF5390EF22C10C41023E0041A6
:10215000023F0041023B0041024300C102C101C1F4
:10216000044102440041023A00C103C100C10541DB
:1021700002E5004102E6004202E00000C106C1089B
:10218000C1074102E2104101030041010710C10BE8
:10219000C10A4101A80002260000046D00000000F1
:1021A0004101061041024500009002CF7408F0A3DF
:1021B000E4F0A3743FF0A374DFF0E4FDFCF9758A4A
:1021C00010538AEF009002CFE0FEA3E02DF582EEDF
:1021D0003CF583E493FF69F90DBD00010CBC37E5C4
:1021E000BDDFE29002D1122DD5E493699002E37035
:1021F00009122DD5A37409F08006122DD5A3E4F0A1
:10220000758A50538AEF0022200A06200303300506
:1022100009E4FFFE12250EC20A2290022BE0700292
:10222000A3E060051217E6703A200003122CC112D9
:102230002AA37F01122F38121B3B9002CFEEF0A38E
:10224000EFF07B017A0279CF122C379002CF121770
:10225000921216571216BF120FDD12267C1218D1D9
:10226000122354122E582290021CE024FE601314F4
:1022700060231460272403704990021C7402F0123A
:1022800030C77F017E0012250E90021C7403F0E41B
:1022900090023BF02290021C7404F02212283912A2
:1022A0002BEF122839900175E07004A3E0640170EF
:1022B0000C900175F0A3F090021C7402F0E49002FF
:1022C00030F0224389025395FD5396FD438002125C
:1022D00030597F0C1228B3CAEECACBEFCB7F0C1259
:1022E00028B3EF2BFFEE3A9002D4F0A3EFF01230B8
:1022F0002BF91209D245F07006123010EE80181238
:1023000009D2FBAAF0123010EF2BFFEE3AC313F9FB
:10231000EF13FF12302BC98FF0120A3522122EB1A3
:10232000F5828E83A3E0B4AA03122989122EB1FF8D
:10233000122E9CE0B41008EF122E9CE4F0D20A1288
:102340002EB1FF241B122E9EE0700DEF241C122EC6
:102350009EE0B41003122C7E122EB12413122E9E76
:10236000E0FFB410069002447401F0EFB42005E4DD
:10237000900244F0229002CFEFF0E024C6123039F0
:10238000E060037F01229002CFE0FF24C6123039C3
:102390007401F0EF123041E493FE740193FFE4FC0A
:1023A000FD902F60E0F8A3E0F9A3E0FAA3E02FFF8F
:1023B000EA3EFEED39EC389002CFE012304DEEF0FF
:1023C000A3EFF07F0022CDEFCD1216AA122F02ED5F
:1023D000601C53997F120866902E5EE4F0A374FF90
:1023E000F07F0F122262902EC4E4F043998053993B
:1023F0007F902E42E4F0A374FFF012309A7F011216
:1024000022624389021216B043800243998022124D
:1024100017E670299001A8E070031217089001A830
:102420007401F0900029E0B420081229E8120C474A
:102430008003122F6690022F7401F08017E4900140
:10244000A8F0900029E0B420031229E890022FE0C0
:102450006002E4F002307C9002D1EBF0A3EAF0A33A
:10246000E9F090021FE07002A3E07031900135E0C6
:10247000602BE4900135F0122AA3121708750801A9
:102480007F01122F38121B3B9002D11216571217E0
:10249000C40508E508C3941240E612184F2212083A
:1024A0002EE4F5F275F30875EEFF75EF3F75EA81DE
:1024B000F5F675EB0700E5EC30E7FBE4F5EC900290
:1024C000E3E0FEA3E0FF241BF582E43EF583E5F3A1
:1024D000F0EF241CF582E43EF583E5F2F075EB3075
:1024E0002230073FC207902E42E0FFA3E09002D1C6
:1024F000CFF0A3EFF0E4FF122BA6121713EF24087E
:10250000FFEE3420FE9001281216571217C412173E
:10251000699002D1E0FFA3E0902E42CFF0A3EFF04C
:1025200012170822758B11902F647440F0E4FEE4BA
:10253000FFEF75F003A42458F582E43402F583E537
:10254000822EF582E43583F583E4F00FEFB40AE1DF
:102550000EEEB403DA7F099002C6E4F0A3DFFC902C
:102560002F647480F022CBEFCB123036E0603690CF
:102570002F60A3A3E0FEA3E0FFEB12304DE0FCA32D
:10258000E0FDD39FEC9E501DC3EF9DFFEE9CFEEB44
:10259000123041C37401939FE4939E400812303679
:1025A000E4F07F01227F0022758A50538AEF900069
:1025B000027411F09000017422F09000037433F063
:1025C000E4F5AB75AC1DF5ADF5AF7589FF75913FC1
:1025D0007599FFF59675931CF59BF595F592F59A0F
:1025E0005388FCD28AD20D22A3E0FCA3E02FF5820F
:1025F000E43CF58322E0FEA3E0F5828E8322000016
:102600000902AB6AE4FF3006169002E3E0FCA3E0A7
:10261000F5828C83E0FE54F0FFEE540FF0C20622E8
:10262000029103040A180DA00EA60FFF0C020BFF67
:1026300023F724062504070127082A0828082B0861
:1026400029032C032D042E042F0426040211030653
:102650000A100D400E800FFF0C020BFF23F4240420
:102660002504070127102A1028042B0429032C0312
:102670002D202E202F10262090003AE0FC900106FD
:10268000E06C602E90003AE0FE900106F090000BA6
:10269000E0900243F0540FF0EEB42005E0442080B7
:1026A0000AECB4100B900243E04410F090000BF0E1
:1026B000C28A22F582E43CF583EFF022241AF582E7
:1026C000E43EF58322A42440F582E5F0342EF58320
:1026D000229002E3E0FEA3E022A3F0A37401F0A3A2
:1026E00022746A2FF582E43400F583220000000092
:1026F000FFFFFFFF0000FFFFFFFFFFFFFFFFFF00E7
:10270000FF000000FFFF000000FFFFFFFFFFFFFFD3
:1027100000000000FFFFFFFFFFFFFFFFFFFF0000C3
:10272000000012176912187BF0FF74542FF582E431
:102730003400F583E0FE75F002EFA42400F582E595
:10274000F0342EF583E49324C0F582E4342EF5832F
:10275000EEF00FEFB416D3229002D4EFF0122F0256
:10276000E4F5099002D4E0FFE509C39F5007121376
:1027700044050980EE902EC0E4F012200F9001086D
:10278000EEF0A3EFF022E4F5B2F5BA758D20438D9B
:1027900020538D7F53AAF7F58BE5DB20E211200C47
:1027A0000EE4F58A758703000000758A50D20A7519
:1027B0008B112212084E53A87F122D8812081E1268
:1027C0002FBF43A8801230C19000FFE06006900246
:1027D0001C7401F0122DE4122AFD122A4780F59094
:1027E00002E3E0FFA3E09002E7CFF0A3EFF0E4F50F
:1027F000DA75DA4043DA2075D74075DA5875D901B1
:1028000043A90875B80875F8082201F400280028C3
:1028100001F4009603E801F403E81770006403E88C
:10282000003202580258012C01F403E8271000C8B6
:102830009002D4E0FEA3E0FF7C007D1202097490B8
:102840002EC2F0902EC0E04419F022900125E0FB4A
:10285000A3E0FAA3E02274C62BF582E43402F583E8
:102860002225E024FEF582E4342FF5832225E0249E
:1028700046F582E43402F58322902EC07402F09073
:102880002EC77474F0902ECD74C0F0A374FFF0A323
:10289000F0902EC37401F0902ECAF022E5B230E021
:1028A00005E5AA20E013E4900231F075B28E75B60A
:1028B000F9F5B743B20143AA0122121769749112C4
:1028C000174B7418F012187B7402F022EE30E707F1
:1028D000C3E49FFFE49EFE2274C62F123039E4F059
:1028E000221230D1022D0412186A22D2AF32D2AF96
:1028F0003202307C000000000000000000000000F8
:1029000000000000000000000000000000000000C7
:1029100000000000000000000000000000000000B7
:1029200000000000000000000000000000000000A7
:102930000000000000000000000000000000000097
:1037F0000000000000000000000000000000006861
:1038000000000000000000000000000000000000B8
:1038100000000000000000000000000000000000A8
:00000001FF
