:10000000544649531228011900000800000000005E
:10001000000000800100000058919D1300001000B6
:100020000000000000000000400000000000000090
:1000300000000000010000000000000000000000BF
:10004000544643530000100000D50100AC263FB6D3
:10005000000001200101100007011000090110003B
:100060000B0110000D0110000F0110001F01100006
:100070001F0110001F0110001F01100011011000CE
:10008000130110001F011000150110004F36100061
:100090004B37100019011000190110004D6B1100B1
:1000A00019011000F1121000F712100019011000D0
:1000B00019011000BF32100019011000FD121000CC
:1000C0006338100011031000491F100019011000BF
:1000D0000000000000000000000000000000000020
:1000E0000000000000000000000000000000000010
:1000F0000000000000000000000000000000000000
:1001000000000000000000000000000000000000EF
:1001100000000000000000000000000000000000DF
:1001200000000000000000000000000000000000CF
:1001300000000000000000000000000000000000BF
:1001400000000000000000000000000000000000AF
:1001500000F010F8FEE7FEE7FEE7FEE7FEE7FEE749
:10016000FEE7FEE7FEE7FEE701480047FEE7FEE7A1
:100170001F01100000F002F800F04AF80AA090E811
:10018000000C82448344AAF10107DA4501D100F052
:100190003FF8AFF2090EBAE80F0013F0010F18BFD5
:1001A000FB1A43F001031847788601009886010086
:1001B0000A4410F8014B14F00F0508BF10F8015B5A
:1001C000240908BF10F8014B6D1E05D010F8013B43
:1001D0006D1E01F8013BF9D1641E03D0641E01F8C5
:1001E000015BFBD19142E4D370470000002300245F
:1001F00000250026103A28BF78C1FBD8520728BF37
:1002000030C148BF0B6070471FB51FBD10B510BD92
:10021000DFF80CD0FFF7F8FF04F0E3FA16F0B1FCBA
:100220000000012003B4FFF7F1FF03BC16F0B0FC9F
:1002300000210028D8BF704700BF491C8842FBDC62
:1002400070477047704770474FF47A71B0FBF1F018
:10025000704742F21071B0FBF1F14FF47A71B0FBCC
:10026000F1F0704770470178002908BF704710F817
:10027000011F0029FBD1704782B0010F8DF80010DB
:10028000C0F303618DF80110C0F303518DF8021023
:10029000C0F303418DF80310C0F303318DF804104F
:1002A000C0F303218DF80510C0F303118DF806107B
:1002B00000F00F008DF8070000206A46115C0A2943
:1002C00034BF303137311154401CC0B2082828BF28
:1002D0000020F3D3401CC0B20828FBD302B0704703
:1002E00082B001098DF8001000F00F008DF80100B8
:1002F00000206A46115C0A2934BF3031373111546D
:10030000401CC0B2022828BF0020F3D3401CC0B25A
:100310000228FBD302B0704782B0010B8DF80010A9
:10032000C0F303218DF80110C0F303118DF8021002
:1003300000F00F008DF8030000206A46115C0A29C6
:1003400034BF303137311154401CC0B2042828BFAB
:100350000020F3D3401CC0B20428FBD302B0704786
:1003600012484FF6FF71016070471048104A002193
:1003700001601268102050610E48012203685A6023
:1003800003684022DA6003684FF40C621A61026865
:100390005161026840F6FF7111620068EA21016351
:1003A00005A010F8011F0029FBD170470070002044
:1003B0004C8011003C80110055415254204F504553
:1003C0004E21210D0D0000000B0ACAB2F849D1F8E8
:1003D00000C0CCF81C0043F4FE400B68586108686C
:1003E000006840F00103086803600868C06810F006
:1003F000010FFAD0086880680B6840F0010098602F
:1004000002F07F024FF4004040EA02220868426195
:10041000086800680B6840F0010018600868C06850
:1004200010F0010FFAD0086880680B6840F00100F6
:10043000986008684261086800680A6840F0010036
:1004400010600868C06810F0010FFAD00868806872
:100450000A6840F00100906008688069C0B2704787
:1004600000F07F0041EA0021D14802685161016833
:100470000968026841F0010111600168C96811F062
:10048000010FFAD001688968006841F001018160BC
:10049000704700F07F014FF4004040EA0122C44859
:1004A00001684A6101680968036841F00101196047
:1004B0000168C96811F0010FFAD001688968036802
:1004C00041F00101996001684A61016809680268A8
:1004D00041F0010111600168C96811F0010FFAD003
:1004E00001688968026841F00101916000688069D3
:1004F000C0B2704710B58C460446FFF7CAFF20EA29
:100500000C01E0B2BDE81040AAE7704770B5A848FA
:10051000002401210268C2F8141302686FF0FE2162
:10052000C2F8201302689921C2F830130068032131
:10053000C161A048A04DA14E00684FF0010390F8A2
:10054000800190B935F82300C0F307217F20FFF721
:1005500087FFF01890F8C01615F82300FFF780FF0A
:100560005B1CB3F5A67FEDDB70BD35F82300C0F34F
:10057000072C644505D064460CF00F017F20FFF77F
:100580006FFFF01890F8C01615F82300FFF768FF0A
:100590005B1CB3F5A67FE8DB70BD10B504F028F94D
:1005A000834B84464FF004301968086219680014C0
:1005B00048621968012008611968886019684860F4
:1005C00000217F20FFF74CFF40210120FFF748FF6B
:1005D000BCF1050F18BF10BD00201968C1F8100349
:1005E00010BD734A00B512680321D16100284FF095
:1005F00000014FF07F0006D0FFF732FF03210020FB
:100600005DF804EB2CE7FFF72BFF012100205DF8DC
:1006100004EB25E7664A00B512680321D161002882
:100620004FF000014FF07F0006D0FFF719FF0121C6
:1006300000205DF804EB13E7FFF712FF0321002011
:10064000FFF70EFF002108465DF804EB08E7584964
:1006500000B509680320C86100217F20FFF700FF73
:1006600000205DF804EB14E7514900B50968032048
:10067000C86100217F20FFF7F3FE082102205DF80A
:1006800004EBEDE64A490A68926C0123096803FA13
:1006900000F0104388647047704745490968896DC8
:1006A00080F001000122801C02FA00F0084070472F
:1006B0003F480168496C026841F400615164016877
:1006C000496C006821F4006141647047384A012395
:1006D00003FA00F000291168096C03D0084311687F
:1006E0000864704721EA00001168086470473049C7
:1006F00000280868C06D0AD00A6840F00200D06582
:100700000868C06D096840F01000C86570470A6845
:1007100040F00100D0650868C06D096840F008002D
:10072000C86570472DE9F043DFF8849080462025A6
:10073000D9F8001009270220C861002404217F2075
:10074000FFF78EFEA44611E0BCF1030F03D0BCF10D
:10075000060F0BD105E005217F20FFF781FE002465
:1007600004E006217F20FFF77BFE00240023002DFC
:1007700088BF08EB4C1608D9F15C2046FFF770FEE5
:10078000601C5B1CC4B29D42F6D80CF1010C67459D
:10079000DAD8D9F800100120C861002404217F2094
:1007A000FFF75EFEA446002F1CD8BDE8F0830000D2
:1007B00050801100E80600200000002004590020AD
:1007C000BCF1030F03D0BCF1060F0BD105E00521EE
:1007D0007F20FFF745FE002404E006217F20FFF77D
:1007E0003FFE00240023002D88BF08EB4C160AD9D9
:1007F000F01890F820112046FFF732FE601C5B1CB9
:10080000C4B29D42F4D80CF1010C6745D8D8CCE7AE
:1008100070B5D449044603200968C8610425E9B2CB
:100820007F20FFF71DFE0023E1B2D8B2FFF718FECC
:1008300003F12000E1B2C0B2FFF712FE03F1400065
:10084000E1B2C0B2FFF70CFE5B1C202BECDB0BF01F
:10085000B0FF002808BF00246D1C072DDFDB70BD32
:10086000C04803210268D16102681121C2F8301327
:1008700000684FF00111C0F8201300217F20EFE540
:10088000B84B00B519680320C86101467F20FFF707
:10089000E7FD09210320FFF7E3FD01210F20FFF70A
:1008A000DFFD19680120C1F8140319689920C1F807
:1008B000300319686FF0FE20C1F8200303217F2068
:1008C000FFF7CEFDFF210020FFF7CAFD0321012025
:1008D000FFF7C6FD21210520FFF7C2FD01217F2082
:1008E000FFF7BEFD00217520FFF7BAFD012176203C
:1008F0005DF804EBB4E59B4B00B519680320C861B3
:1009000000217F20FFF7ACFD40210120FFF7A8FD6B
:1009100000210320FFF7A4FD02217F20FFF7A0FDA7
:1009200015210220FFF79CFD89210420FFF798FD87
:100930000F217F20FFF794FD01210320FFF790FD99
:1009400019680120C1F8140319681120C1F8300397
:1009500019684FF00110C1F8200303217F20FFF731
:100960007FFD01210020FFF77BFD00210120FFF723
:1009700077FD21210520FFF773FD04216D20FFF78E
:100980006FFD08216E20FFF76BFD10216F20FFF730
:1009900067FD01217F20FFF763FD08210020FFF79D
:1009A0005FFD04210120FFF75BFD1868406C1968AA
:1009B00040F4006048641868406C196820F40060D6
:1009C000486400BD2DE9F047664E054601273068B2
:1009D0000024C0F8147303F00BFF6FF0FE294FF0F2
:1009E000990A4FF00308022804D003F001FF0528FC
:1009F0001DD028E00BF0DDFE38B130685A4CC0F84D
:100A000020933068C0F830A31DE03068574CC0F820
:100A10001C8031681120C1F8300331684FF001109B
:100A2000C1F8200300217F20FFF71AFD0BE009F039
:100A300062F878B330684C4CC0F820933068C0F846
:100A400030A3FFF71DFF3068406C316840F4006050
:100A500048643068406C316820F40060486403F0FA
:100A6000C7FE034630684FF0043101620814316854
:100A700048623068076130688760306847600021ED
:100A80007F20FFF7EDFC40210120FFF7E9FC052B5B
:100A900009D104E0FFE7354CFFF72DFFD3E73168BC
:100AA0000020C1F810033068C0F81C80DFF8C0C017
:100AB00001233CF82300C0F307217F20FFF7D0FC7F
:100AC000E95C1CF82300FFF7CBFC1CB1E118E85CE3
:100AD00081F8C0065B1CB3F5A67FEADBBDE8F087B2
:100AE0007047244B00211A46E0FB03214809C0EB64
:100AF00000108000704700207047002070470020E1
:100B000070470020704708467047002070477047C4
:100B1000002070477047704700207047704770474B
:100B20000020704700207047002070470020704769
:100B3000704770470020704770477047704700202B
:100B4000704700207047704770477047002070471B
:100B5000002070477047002070477047704770470B
:100B6000704700005080110004590020E207002067
:100B7000000000205BB0055BFF4910B50968032049
:100B8000C86100217F20FFF76BFC02210020FFF7E6
:100B900067FC01210220FFF763FC0121BDE8104042
:100BA0000020FFF75DBCF44910B509680320C86157
:100BB00000217F20FFF754FC02210020FFF750FCAA
:100BC00001210220FFF74CFC0121BDE8104000206C
:100BD000FFF746BCE94808B501684969C1F3072138
:100BE000009101684969009AC1F307219142F8D048
:100BF000E1480168D1F82C13006841F00401C0F805
:100C00002C13FFF724FD002808BF08BD0020BDE815
:100C10000840FFF7FFBCD94808B501684969C1F32E
:100C20000721009101684969009AC1F307219142A7
:100C3000F8D0D1480168D1F82C13006841F00401C4
:100C4000C0F82C13FFF703FD002808BF08BD0020E3
:100C5000BDE80840FFF7DEBC10B503F0C9FD05286C
:100C600009D0C5480068D0F82C0310F0040F0CBF61
:100C70000120002010BDC2480068006810BD70B59A
:100C80000546FFF7E9FF012818BF70BD03F0B0FD6E
:100C9000B94C0326052827D0FFF7BDFF012D18BF4B
:100CA00070BD2068406C216840F40060486400BF5B
:100CB00000BF00BF2068406C216820F400604864D9
:100CC0002068C66100217F20FFF7CAFB02210020B7
:100CD000FFF7C6FB01210220FFF7C2FBBDE8704011
:100CE00001210020FFF7BCBB0020FFF793FCD8E7F1
:100CF00010B5FFF752FC0120FFF7C1FF102004F0F0
:100D0000DEF80121052002F0FCF90121062002F0A5
:100D1000F8F99C490120887010BD10B5602002F0E0
:100D200046FA602002F036FA934903200968C86445
:100D300010BD944A01465079002818BF01200029AF
:100D400018BF0121517170478E4A11691061084620
:100D500070478C4800210171C17001898A4815F0E3
:100D600072BE884800210171C1700189864815F062
:100D70006ABE00B583B000208DF80000ADF8040015
:100D800003F036FD02281CBF03B000BD0BF011FDBF
:100D900002281CBF03B000BD012077490968C86163
:100DA00003217F20FFF75CFB89210520FFF758FB1B
:100DB00067210620FFF754FB45210720FFF750FB72
:100DC00023210820FFF74CFB03B0F12109205DF837
:100DD00004EBFFF745BB2DE9F14F88B00020044636
:100DE0004FF0100B0290009003F002FD022806D095
:100DF00003F0FEFC052808BF08F07DFE01E00BF0C3
:100E0000D8FC03F0F5FC614905280BD0086890B1C7
:100E1000012808BF01240ED002280BD0032808BFE8
:100E2000032408E00868022814BF4FF0360B4FF087
:100E3000000BEBD10224564856494FF020090068B8
:100E40000969406BFF3100F5E03021F0FF015030BF
:100E500004FB010512200026069001E0032E01D2BA
:100E600014271AE0F01E032838BF152715D3B01F2A
:100E7000032838BF162710D3A6F10900032838BF6E
:100E800024270AD3A6F10C00032838BF252704D352
:100E9000A6F10F00032838BF26270298B84209D0D0
:100EA0003548029739090068C16107F00F017F20BA
:100EB000FFF7D6FA0BF07DFC00280CBF4FF07F083F
:100EC0004FF048080024B9F1000F35D938090590D2
:100ED0003148A0FB06104008A0EB800000EB060A9A
:100EE0002E48A0FB06104008404200EBC0008119CC
:100EF000089800EB41100490089800EB461003900E
:100F00000598012820D0C4F11F0000EB4A1080B2E0
:100F1000019001226946284601F0D0F86D1C03F0CB
:100F200067FC02284BD050E0202C45F10005E7D3A8
:100F3000601CC4B24C45F7D3701CC6B206988642FA
:100F40008CD309B0BDE8F08F04EB4A1080B2019059
:100F500001226946284601F0B1F86D1C03F048FCF7
:100F6000022805D10098804502D880384F281BD22E
:100F700003F03EFC052813E0508011006C80110046
:100F80005480110030050020D0100020C80500203A
:100F9000A4060020A8060020ABAAAAAA398EE3382E
:100FA00004BF0098FF2801D1CDF800B00098C1B26D
:100FB000039801550198C0B2FFF752FAB8E70098BC
:100FC000804502D880384F2806D203F011FC05284E
:100FD00004BF0098FF2801D1CDF800B00498009913
:100FE0002044C9B280F820110198C0B2FFF738FA46
:100FF0009EE7F749C860704710B503F0F9FB052874
:1010000002D0BDE8104006E6FFF726FE012818BF13
:1010100010BD0020BDE81040FFF7FCBA70472DE975
:10102000F041064682B00C460120FFF728FE03F08F
:10103000DFFBE84FE64D4FF00008A4B103F0D8FB0A
:10104000052819D0FFF7E7FD606800281CBF21685C
:10105000002908D0FFF7B6FC3868C0F82883EE6096
:10106000A068FFF7B8FE8DF80080ADF8048003F0AB
:10107000BFFB022827D107E0FFF7EEFD012804BFE0
:101080000020FFF7C7FADFE70BF093FB02281AD125
:1010900039680120C86103217F20FFF7E1F9892128
:1010A0000520FFF7DDF967210620FFF7D9F9452173
:1010B0000720FFF7D5F923210820FFF7D1F9F12107
:1010C0000920FFF7CDF985F8048085F80380298988
:1010D000C14815F0B8FCC5F8108068790020687127
:1010E000602002F064F8602002F054F839680320B0
:1010F000C86402B0BDE8F081602002F04FB810B5BE
:10110000602002F04BF8BDE810400120B7E5B04880
:10111000C0687047AE480078002818BF01207047AB
:1011200038B500240094FFF797FD002818BF38BD9C
:10113000A7480471C4700189A74815F084FCDFF842
:1011400094C2DCF80000406CDCF8001040F4006051
:10115000486400BFDCF80000406CDCF8001020F4AC
:10116000006048649D4D9E482978002901684969BE
:1011700014BFC9B2C1F30721009120D001684969A9
:10118000009AC9B29142F9D000680221C161DCF82D
:101190000000D0F82C03DCF8001020F00400C1F8A7
:1011A0002C03DCF80000C0F81043FFF750FA0028C9
:1011B00018BF38BD0120BDE83840FFF72BBA0168E1
:1011C0004969009AC1F307219142F8D000230168D0
:1011D0004969C9B2009101684969009AC9B291424E
:1011E000F9D0591CCBB2042BF1D301212970CBE7E4
:1011F00070B503F0FDFA0025754C052803D0257065
:10120000BDE870408CE7FFF727FD002818BF70BDD0
:101210002571E5702189704815F015FC25706D4821
:101220000168D1F82C13006821F00401C0F82C13D8
:10123000BDE870400120FFF7EDB965490120087055
:10124000704770B503F0D4FA614C0125052808D029
:10125000FFF702FD002818BF70BD2570BDE8704083
:101260005EE7FFF7F9FC002818BF70BD0020207171
:10127000E0702189584815F0E6FB2570BDE8704004
:101280000120FFF7C7B90120F9E470B5504C0025E3
:10129000E57003F0ADFA052803D02570BDE8704075
:1012A0003EE7FFF7D9FC002818BF70BD2571E57037
:1012B0002189494815F0C7FB257046480168D1F8D7
:1012C0002C13006821F00401C0F82C13BDE8704015
:1012D0000120FFF79FB93E4A5169506108467047A7
:1012E0003B49886170473A48806970473848407880
:1012F0007047374948707047012888BF704739499F
:1013000000280868406E04D0096840F00200486672
:101310007047096840F0010048667047012888BF9F
:101320007047304900280868406E04D0096820F0F2
:10133000020048667047096820F00100486670475F
:10134000002000F0F1BB012000F0EEBB10B5204CF6
:10135000E069401CE0611F480168096D006841F0C8
:1013600004010165FFF7A4F9FFF77EF92078002852
:101370001CBF0120FFF783FC6069002818BF80476D
:101380001948016841F40061016010BD10B50120E9
:10139000FFF775FCBDE8104000F00DBC1348704726
:1013A000134870470A48006A70470948406A704706
:1013B0000748806A704706490020086248628862D0
:1013C0007047054900EBC00001EBC01070470000FA
:1013D0003005002050801100D0100020AA05002008
:1013E0006C8011004C80110064050020A4100020C6
:1013F000AD10002048434FF6FF7101EA4000FB4961
:1014000008817047FA4A107051707047F849085CBB
:101410007047F0B50746A1B0202401210220FFF754
:1014200055F9F44D00216E46286830F8110026F871
:101430001100491CA142F7D300210220FFF746F911
:1014400001210020FFF742F90021002C09D928686A
:1014500006EB410230F81100491CA2F840008C4212
:10146000F5D800210846FFF731F9A2006946384651
:1014700015F048FA21B0F0BD70B50E46DB49050005
:10148000E0B04FF0800008814FF020044FF00101E0
:101490000CBF05200420FFF719F9D64900206B4640
:1014A000096801EB053101EB800202F58052D2F8A8
:1014B00000C043F820C003EB800CD2F88020401C11
:1014C000CCF88020A042EED3002D4FF0000114BFD5
:1014D00004200520FFF7FAF8E2006946304615F0CF
:1014E00011FA60B070BD70B50400C0480E464FF0F0
:1014F000010105890CBF05200420FFF7E7F8BD486E
:101500002A46006800EB043000F58051304615F0A3
:10151000F9F94FF0000124B1BDE870400420FFF755
:10152000D5B8BDE870400520FFF7D0B810B590B031
:1015300020220021009101910291039104910591D3
:1015400006910791089109910A910B910C910D91C7
:101550000E91EC460F9100EB410430F81130B4F8D5
:10156000404223442CF81130491CC9B29142F2D3B5
:101570005200614615F0C6F910B010BDF0B59B4F92
:101580009C4EADF2844D00243D89002C4FF00101AA
:101590000CBF05200420FFF799F830682A4600EBBD
:1015A000043000F58051684615F0F1F9002C4FF039
:1015B00000010CBF05200420FFF788F8641C022CF2
:1015C000E2DB0020FFF7AAFE0120FFF7A7FE0DF2E5
:1015D000844DF0BD884A89490020136803EB8003DD
:1015E000D3F8C03021F81030401C0728F5D310681C
:1015F000D0F8E400488270477F4A814B002818BF2A
:1016000000201DD0116801EB8001D1F88011090480
:10161000090C18BF23F81010401C2028F2D300201A
:10162000116801EB8001D1F880120904090C1CBF7C
:1016300003EB400CACF84010401C2028F0D370475E
:10164000116801EB8001D1F800110904090C18BFE1
:1016500023F81010401C2028F2D30020116801EB61
:101660008001D1F800120904090C1CBF03EB400CE7
:10167000ACF84010401C2028F0D370472DE9F84307
:1016800004460020009003F0B3F80127574EDFF81E
:1016900068815A4D052809D00BF08BF800282046A8
:1016A00050D0FEF7FAFF002859D061E008F023FA85
:1016B0000228204603D0FEF7F0FF68B335E0FEF7BE
:1016C000ECFF40B984F001042046FEF7E6FF002855
:1016D00008BFBDE8F8834B492046FFF704FF002010
:1016E000D8F8001001EB8001D1F8C01025F81010D7
:1016F000401C0728F4D3D8F80000D0F8E400688232
:101700002046FFF779FF2046FFF708FE377184F087
:101710000100F070BDE8F88384F001042046FEF774
:10172000BCFF002808BFBDE8F88336492046FFF714
:10173000DAFE2046FFF7F2FD377184F00100F07009
:10174000BDE8F883FEF7A9FF0028EED184F001047C
:101750002046FEF7A2FF0028E7D1BDE8F88384F019
:1017600001042046FEF799FF002808BFBDE8F88372
:1017700024492046FFF7B7FE0020D8F8001001EBFF
:101780008001D1F8C01025F81010401C0728F4D3B0
:10179000B1E770B5154D04466879002804BFE878B4
:1017A000FFF76CFF2879002808BF70BD154AAB69A8
:1017B00002F5A060A0F18001A0610020C4E9021040
:1017C00020616061C4E90032012070BD074900203A
:1017D000087170472DE9F14F82B00020009012206F
:1017E0004FF020080025019010E000003005002097
:1017F000360500207480110050801100D0150020A3
:1018000050150020D0100020032D01D214261AE01C
:10181000E81E032838BF152615D3A81F032838BF94
:10182000162610D3A5F10900032838BF24260AD3B1
:10183000A5F10C00032838BF252604D3A5F10F001D
:10184000032838BF26260098B04209D0CC4800961D
:1018500031090068C16106F00F017F20FEF700FE2C
:101860000024B8F1000F28D902984FEA161B00EBAC
:10187000451AC448A0FB05104008A0EB800047199A
:10188000C148A0FB05104008404200EBC00002998F
:10189000284401EB4019BBF1010F16D0C4F11F0021
:1018A00000EB471080B2FEF7F4FD09EB040181F86C
:1018B0002001601CC4B24445EDD3681CC5B2019838
:1018C0008542A1D303B0BDE8F08F04EB471080B28E
:1018D000FEF7DFFD0AF80400EBE7012070477047D0
:1018E000002070472DE970431C4616460D46804681
:1018F000FFF7B2F95FEA00091CBF0120FFF7BFF94B
:101900002819A84288BF01210FD900234446B342B9
:1019100038BF202C06D201FA04F23A4218BF5B1CF1
:10192000641CF4E76D1C8542EFD3B9F1000F08BFCA
:10193000BDE87083BDE87043A7E42DE9F047994600
:1019400014460E460746089DFFF786F95FEA000831
:101950001CBF0120FFF793F903F0AAF8DFF82CC2AF
:1019600006EB0903B342CCF8000088BF381913D93D
:101970003C460AE0DCF80010097825F8021BDCF888
:101980000010491C641CCCF80010844238BF202C85
:10199000F0D3761C9E42EBD3B8F1000F08BFBDE830
:1019A000F087BDE8F04770E4704710B5FFF7B0F876
:1019B0007749488110BD764AC1B200F470635289FC
:1019C000914288BF11464FF0640C01FB0CF1B1FB52
:1019D000F2F11A0A02FB0C1189B210F4805F12BFF7
:1019E00008B2484200B270470028B8BF404280B2F7
:1019F000B4BF00214FF4805100F470621143644A77
:101A0000C0B25289504341EA1020704708B50921FD
:101A1000732000F027F9BDF8001000F01F0021F03E
:101A2000FF010843ADF800000D21732000F01AF902
:101A3000BDF8001000F01F0021F47F4141EA0020B2
:101A4000ADF80000BDF8000008BD7047FFF776B89C
:101A500050484FF41071006800F5405014F0F3BF87
:101A60002DE9F84F1220DFF824B100904A484FF0DA
:101A700020080024CBF8000001E0032C01DA142632
:101A80001AE0E01E032838BF152615D3A01F03282F
:101A900038BF162610D3A4F10900032838BF242626
:101AA0000AD3A4F10C00032838BF252604D3A4F1DF
:101AB0000F00032838BF2626B24509D03048310927
:101AC000B2460068C16106F00F017F20FEF7C8FC36
:101AD0000025B8F1000F1EDD30484FEA161980FBD3
:101AE0000410A0EBE070A0EB80000719B9F1010F22
:101AF0000EBF05EB4710C5F11F0000EB4710DBF8E8
:101B00000020C0B212F8011BCBF80020FEF7A8FCA1
:101B10006D1C4545EADB0098641C8442ADDBBDE8E2
:101B2000F88F0020FEF7E9BF70B5044601280AD8F7
:101B30001B48002C0168496E14BF41F0020141F0BE
:101B4000010100684166124DA869401CA86129691D
:101B500000291CBF20468847287800281CBF012088
:101B6000FFF78DF80648002C0CBF02210121006808
:101B700001650C48016841F02001016070BD000062
:101B800050801100ABAAAAAA398EE338DC050020E8
:101B90003005002074801100845D00205655555595
:101BA0004C801100640500200549002814BF002066
:101BB00001200870704770477047704770470000F9
:101BC0005C050020704710B501F0D7FD234B244978
:101BD00000224C6824B14A6001F0D4FD204610BDBB
:101BE0001878002818BF0A80F3D10888B0F57A7FEA
:101BF00087BF30BF0A80401C0880EAE710B501F0BB
:101C0000BCFD17484468002C08BF30BFFAD0002143
:101C1000416001F0B7FD204610BD70B501F0ADFD8B
:101C20000F4D6C682CB10020686001F0ABFD2046C0
:101C300070BD30BF01F0E0FA0028F2D001F0E0FA08
:101C4000A860EEE70020704730BF704772B662B6FA
:101C500070477047704772B662B670473006002012
:101C600060050020EE4BC2081B681A6401F0FC01FD
:101C700041EA002040F4704040F080400068704726
:101C8000E74BC2081B681A6401F0FC0242EA00201C
:101C900040F4704040F0804089070068C90EC84099
:101CA000C0B27047DF4900200870DD490E20096886
:101CB0000864DD48007810F0800018BF01207047EC
:101CC00010B44FEAD00CD64B1C68C4F840C001F0E9
:101CD000FC0141EA002040F4704040F08040026086
:101CE0001868006C10F4007F04BF10BC704700BF80
:101CF0001868006C10F4007FF9D110BC7047DFF851
:101D000020C310B4DCF800C0C308CCF8403001F0A8
:101D1000FC0343EA002343F4704343F08043FF2471
:101D2000D3F800C08B07DB0E9C402CEA040C9A40D1
:101D300010BC42EA0C02C3E7BC484FF4F4610268ED
:101D4000116101684968026841F002015160006850
:101D5000032181617047B54810B5026810211160F8
:101D600002684FF4F461116101684968026841F04A
:101D7000020151600068032181610722082171205E
:101D8000FFF7BDFF0E2001F0EBF9BDE810400E207B
:101D900001F0F3B9A24910B50968A5480862072205
:101DA00001217020FFF7ABFFA048102102681160ED
:101DB00002684FF4F461116101684968026841F0FA
:101DC000020151600068032181610722082171200E
:101DD000FFF795FF0E2001F0C3F9BDE810400E207B
:101DE00001F0CBB9914800210268116002684FF4FC
:101DF000E061116100680121816170478B49002019
:101E00000A6810600A68106109688861704787482D
:101E10000621026811600268022151600068816138
:101E20007047824800210268116000688161704734
:101E30007E49002009680860704710B57B4C082077
:101E4000216808602168022088610722082171202A
:101E5000FFF755FF2068C06810F0080FFAD021681E
:101E60000F20886010BD10B5044602460021F02006
:101E7000FFF726FF22460121F020FFF721FF22462F
:101E80000021F120FFF71CFF22460121F120FFF77E
:101E900017FF22460021FC20FFF712FF22460121F6
:101EA000BDE81040FC200BE74FF4807141EAD002FE
:101EB0005B490B681A645F4A42EA002210600868B6
:101EC000006C10F4007F08BF704700BF0868006C0A
:101ED00010F4007FF9D17047514A4FF4807141EA04
:101EE000D00112681164534941EA0020006870472C
:101EF00008227020002102E7002270201146FEE631
:101F000047480168496E026821F400715166016812
:101F1000496E026841F4807151660168496E026839
:101F200041F4806151660168496E006821F4806166
:101F30004166002270201146E1E639480168496E89
:101F4000026841F4806151660168496E026821F4BB
:101F5000806151660168496E026821F480715166A2
:101F60000168496E006841F40071416670472C4871
:101F70000168496E026841F4806151660168496EEA
:101F8000006821F480614166704725481B21026882
:101F9000116400680164704710B5244C2068C06863
:101FA0002549086025484FF6FF71006801602068E8
:101FB000C06810F0100F0BD019491B200A6810647C
:101FC0000968086420688068216840F01000886013
:101FD0002068C06810F0080F05D02068806821686C
:101FE00040F0080088602068C06810F0040F0AD034
:101FF00020688068216840F004008860FF2200218A
:102000007020FFF77CFE2068C06810F0010F08BF49
:1020100010BD20688068216840F00100886010BD14
:102020004C8011006C05002000F200406C80110013
:102030002222A26000F00040EC0600203480110053
:10204000704770B5FF4D0446C0F30741286801F0A2
:102050008EFAC4F30721286801F089FAE1B22868F2
:10206000BDE8704001F083BA2DE9F041F64F044617
:10207000164638680D46806A396840F00300886269
:10208000DFF8C0830321D8F8000001F070FA204681
:10209000FFF7D7FF0024002E07D9D8F8000001F081
:1020A00094FA2855641CA642F7D83868806A3968C3
:1020B00020F0030088620120BDE8F08170B514466D
:1020C0000D46064601F063FB224629463046BDE830
:1020D0007040C9E72DE9F0410024DC4E042501F0F1
:1020E00056FB2A4631462046FFF7BEFF3446261DE2
:1020F0002F4601F04CFB3A4631462846FFF7B4FF25
:102100000825361D042401F042FB224631462846AC
:10211000FFF7AAFF4FF4FC34CD4D042601F037FB46
:10212000324629462046FFF79FFF271D2C46251DD6
:1021300001F02DFB324629463846FFF795FFC54F83
:102140002D1D01F024FB324629463846FFF78CFF4F
:102150003F1D2D1D01F01BFB324629463846FFF777
:1021600083FF2E1D3F1D042501F011FB2A46314639
:102170003846FFF779FF3F1D361D01F008FB2A4660
:1021800031463846FFF770FF3E1D183401F0FFFA64
:102190002A4621463046FFF767FFAF4EAF4C012578
:1021A00001F0F5FA2A4621463046BDE8F0415BE7EA
:1021B0007047F8B50E0005464FF0000417D0042212
:1021C00069462846FFF750FF9DF800009DF8011072
:1021D0009DF8032008409DF8021011400840FF2898
:1021E00001D00020F8BD641C2D1DB442E7D30120AE
:1021F000F8BD2DE9F84391460D468046002401F0D4
:10220000C6FA0027B9F1000F88BF6E4619D904221B
:1022100069464046FFF728FF0023F05CE95C8842EE
:102220001CBF601C84B25B1C042BF6D32D1D7F1CCD
:1022300008F104084F45EAD3002C1CBF0020BDE87C
:10224000F8830120BDE8F8830120704770B57E4C0B
:1022500006462068806A216840F003008862794D54
:102260000521286801F083F9286801F0AEF921689A
:10227000896A226821F0030191623070012070BDEB
:1022800038B5714C2068806A40F003012068816293
:102290006C4D0521286801F06AF9286801F095F96C
:1022A0002168896A226821F0030191628DF800009B
:1022B00010F0010018BF012038BD10B5624C206835
:1022C000806A216840F0030088625E480621006849
:1022D00001F04DF92068806A216820F003008862CF
:1022E000012010BD70B50546FFF7CAFF00281CBFCE
:1022F000022070BDFFF7E1FF534C2068806A21681F
:1023000040F0030088624F482021006801F02FF957
:102310002846FFF796FE2068806A216820F00300B7
:102320008862FFF7ADFF28B100BF00BFFFF7A8FF2D
:102330000028F9D1012070BD2DE9F84F8046032710
:1023400001F025FADFF80091DFF8F8A0FFF798FF19
:1023500010BBFFF7B2FFD9F80000806AD9F800106F
:1023600040F0030088622021DAF8000001F0FFF855
:102370004046FFF766FED9F80000806AD9F80010E1
:1023800020F003008862FFF77BFF28B100BF00BF89
:10239000FFF776FF0028F9D145464FF48066002408
:1023A000042269462846FFF75FFE9DF800009DF86D
:1023B00001109DF8032008409DF8021011400840CC
:1023C000FF2806D0381EA7F10107BFDC0220BDE8B8
:1023D000F88F641C2D1DB442E2D30120BDE8F88FB4
:1023E0002DE9F04117460E460446FFF749FF002845
:1023F0001CBF0220BDE8F081FFF75FFFDFF84880D7
:10240000D8F80000806AD8F8001040F00300886215
:102410000C4D0221286801F0AAF82046FFF711FEB2
:102420000024002F06D9315D286801F0A0F8641C53
:10243000A742F8D8D8F80000806AD8F8001020F039
:1024400003000DE0688011004C801100F0150020A1
:10245000FC15002010F80100043003007005002076
:102460008862FFF70DFF28B100BF00BFFFF708FF2C
:102470000028F9D10120BDE8F0812DE9F043C1B079
:102480008846814603276E4601F081F94FF4807239
:1024900041464846FFF7A4FF002445464FF48072AA
:1024A00069464846FFF7E0FD305D295D884205D06A
:1024B0007F1EE9D241B00220BDE8F083641CB4F570
:1024C000807FF1D341B00120BDE8F0832DE9F041D8
:1024D000FF4C0646FF4FDFF800846068C0B00D4631
:1024E00050B1D8F8000001F042F86268FF2AB8BF86
:1024F000501C1BDA606035E001F049F9FFF7DDFEA2
:102500003868806A396840F0030088620221D8F890
:10251000000001F02CF83046FFF793FD2946D8F86B
:10252000000001F024F86068401CE3E700206060D0
:102530003868806A396820F00300886200244FF40C
:10254000807269463046FFF78FFD68462A5D015D5F
:10255000914203D040B00220BDE8F081641CB4F584
:10256000807FF3D340B00120BDE8F08170B50C4608
:10257000054601F00CF9B4F5807F88BF70BDD549E0
:102580000A68926A096842F003028A62D24803210B
:10259000006800F0ECFF2846BDE8704051E5CE48E9
:1025A000006801F012B8CB480168896A006821F020
:1025B00003018162704770B50C46054601F0E7F8EB
:1025C00021462846BDE870404FF480724CE570B556
:1025D000C04D04462868806A296840F0030088627C
:1025E000BD4E9F21306800F0C2FF306800F0EDFF63
:1025F0002070306800F0E9FF6070306800F0E5FF9F
:10260000A0702868806A296820F003008862012091
:1026100070BD70B5044601F0BAF8AE4D2868806A06
:10262000296840F003008862AB4E9F21306800F0BB
:102630009EFF306800F0C9FF2070306800F0C5FFD1
:102640006070306800F0C1FFA0702868806A296857
:1026500020F003008862012070BD2DE9F047DFF80B
:10266000749204461746D9F800008846806AD9F863
:10267000001040F003008862974D0321286800F0A5
:1026800076FF2046FFF7DDFC0024B4EB970F18D24D
:10269000286800F09AFF0646286800F096FF46EA90
:1026A0000026286800F091FF46EA0046286800F0FE
:1026B0008CFF46EA006048F82400641CB4EB970FD6
:1026C000E6D3D9F80000806AD9F8001020F00300A2
:1026D00088620120BDE8F08770B514460D460646B5
:1026E00001F055F8224629463046BDE87040B4E76F
:1026F00010B5FFF7C5FD00281CBF022010BDFFF775
:10270000DCFD744C2068806A216840F00300886218
:1027100071486021006800F02AFF2068806A216803
:1027200020F003008862FFF7ABFD28B100BF00BFB7
:10273000FFF7A6FD0028F9D1012010BD10B501F06A
:1027400026F8FFF79DFD00281CBF022010BDFFF7F3
:10275000B4FD604C2068806A216840F00300886204
:102760005D486021006800F002FF2068806A2168EF
:1027700020F003008862FFF783FD28B100BF00BF8F
:10278000FFF77EFD0028F9D1012010BD70B50C4681
:10279000054600F0FCFF002600F0F9FF4FF48072C0
:1027A00021462846FFF760FC761C04F5807405F589
:1027B0008075102EF0D3012070BD2DE9F047C0B018
:1027C0008846814600F0E3FF4FF0000A46460327A3
:1027D0006D4600F0DCFF4FF4807231464846FFF74B
:1027E000FFFD00244FF4807269464846FFF73CFC29
:1027F000295D305D814205D07F1EEAD240B00220C3
:10280000BDE8F087641CB4F5807FF1D30AF1010ABA
:1028100008F5807809F58079BAF1100FD6D340B069
:102820000120BDE8F0872DE9F04F81B00546ADF5F8
:10283000804D000514468846000DEB4633D02F46E8
:102840006FF30B07BA465E4600F0A1FF4FF0000998
:1028500000F09DFF4FF4807231463846FFF704FCCC
:1028600009F1010906F5807607F58077B9F1100FB7
:10287000EED3C5F30B00C0F58056A64288BF2646AE
:1028800058443246414614F03DF85046FFF754FD97
:10289000022857D059465046FFF78FFF022853D0E1
:1028A0003544B044A41BB4F5805F20D34FF480526C
:1028B0004146584614F026F82846FFF73DFD022809
:1028C00040D059462846FFF778FF02283CD005E063
:1028D000700500204C80110068801100A4F5805420
:1028E00005F5805508F58058B4F5805FDED21CB33D
:1028F000D9462E4600F04BFF002700F048FF4FF46A
:10290000807259463046FFF7AFFB7F1C06F5807694
:102910000BF5807B102FF0D322464146484613F03A
:10292000F1FF2846FFF708FD02280BD0494628464C
:10293000FFF743FF022807D0012001B00DF5804DBD
:10294000BDE8F08F0A20F8E70B20F6E710B5ADF5EB
:10295000806D0446AAB1684613F0D4FF2046FFF705
:10296000EBFC022802BF0A200DF5806D10BD694600
:102970002046FFF782FD022802BF0B200DF5806D77
:1029800010BD01200DF5806D10BD70B50646FFF736
:1029900077FC00281CBF022070BDFFF78EFCB44CF2
:1029A0002068806A216840F003008862B14D0121EF
:1029B000286800F0DCFD3146286800F0D8FD20686A
:1029C000806A216820F003008862FFF759FC28B173
:1029D00000BF00BFFFF754FC0028F9D1012070BDF3
:1029E000F8B500F0D4FEA24D2868806A296840F04E
:1029F000030088629F4E0521306800F0B8FD306802
:102A000000F0E3FD2968896A2A6821F003019162D8
:102A100040F040048DF80040FFF732FC002818BF5A
:102A2000F8BDFFF74AFC2868806A296840F0030077
:102A300088620121306800F09AFD2146306800F07C
:102A400096FD2868806A296820F003008862FFF7F5
:102A500017FC002808BFF8BD00BF00BFFFF710FC3F
:102A60000028F9D1F8BD70B505460024FFF708FC31
:102A700040B1AC4201D9002070BD641CFFF700FCDE
:102A80000028F6D1012070BD70B5794C064620684B
:102A9000806A216840F003008862764D0921286829
:102AA00000F065FD286800F090FD2168896A2268C1
:102AB00021F0030191623070012070BD38B5FFF73D
:102AC000DFFB002836D1FFF7F8FB694C2068806AED
:102AD00040F0030120688162664D2F21286800F0D4
:102AE00046FD2068806A216820F003008862FFF7B5
:102AF000C7FB28B100BF00BFFFF7C2FB0028F9D118
:102B00002068806A216840F00300886209212868F3
:102B100000F02DFD286800F058FD2168896A2268C0
:102B200021F0030191628DF8000010F0020F1CBF2C
:102B3000012038BD022038BD4E4810B50421006880
:102B400000F015FD012010BD70B5FFF799FB0028BE
:102B50001CBF022070BD464C2068806A216840F08E
:102B600003008862434D0521286800F000FD2868B5
:102B700000F02BFD06462068806A216820F00300E3
:102B800088622068806A216840F003008862FFF74D
:102B900094FB0121286800F0EAFC26F04001286837
:102BA00000F0E5FC2068806A216820F0030088625C
:102BB000012070BD70B50546FFF762FB00281CBF01
:102BC000022070BDFFF779FB294C2068806A2168DC
:102BD00040F00300886227485221006800F0C7FCDB
:102BE0002846FFF72EFA2068806A216820F003004B
:102BF0008862FFF745FB28B100BF00BFFFF740FB2D
:102C00000028F9D1012070BD10B50446FFF738FB4C
:102C100000281CBF022010BDFFF74FFB1548D8212C
:102C2000006800F0A4FC2046FFF70BFA104801688A
:102C3000896A006821F003018162FFF721FB28B156
:102C400000BF00BFFFF71CFB0028F9D1012010BD19
:102C5000084810B5B921006800F089FC012010BDBA
:102C6000044810B5AB21006800F081FC012010BDC4
:102C70004C80110068801100012101FA00F04149E7
:102C80000A681043086040490968086070470121DC
:102C900001FA00F03B490A6822EA000008603A495C
:102CA0000968086070473749096821FA00F000F0A8
:102CB00001007047334A116821FA00F313F0010F45
:102CC0004FF0010303FA00F02F4B05D021EA00007A
:102CD0001060196808607047084310601968086040
:102CE000704729490968096821FA00F000F00100DD
:102CF000704725490A6852680123096803FA00F001
:102D000010434860704720490A68526801230968E7
:102D100003FA00F022EA0000486070471A490A6886
:102D2000126A0123096803FA00F010430862704731
:102D300015490A68126A0123096803FA00F022EAB9
:102D40000000086270471049086840680A6840F04F
:102D500001005060086840680A6840F00200506056
:102D6000084A106840F0010010600B681860106895
:102D700040F00200106009680860044900200968FA
:102D8000C860704778050020448011004C80110015
:102D900070477047B24810B502683F21D1600268A1
:102DA000002191640068C0F8B41003210A2000F0EB
:102DB000A8F9BDE810400A2000F0C7B9A84A136876
:102DC0001860136859604843116888607047A44AC6
:102DD0001368186013685960484310F0010F18BF5A
:102DE000401C1168886070479D490968C1F8B400AB
:102DF00070479B4918B109680120886470470968C9
:102E000000208864704796480168C968006841F0EE
:102E10000201C1607047DFF848C210B4DCF800401E
:102E20002062DCF800004162DCF800008262DCF81D
:102E30000000C362DCF8001001200863DCF8000029
:102E4000406B10F0010F09D000BF00BF00BF00BFF2
:102E5000DCF80000406B10F0010FF5D110F002001B
:102E600018BF4FF0FF3010BC70477D480168C9683B
:102E7000006821F00201C160704779480168C968A3
:102E8000006841F00101C1607047754BD3F800C084
:102E9000CCF8200018684162186882621968012025
:102EA00008641868406C10F0010F08D000BF00BF24
:102EB00000BF00BF1868406C10F0010FF6D110F091
:102EC000060018BF4FF0FF30704765480168C968B9
:102ED000006821F00101C160704761480168C9685C
:102EE000006841F00401C1607047027C017B02F080
:102EF0003F0241EA02415A4A136899651368016822
:102F0000596213684168996213688168D9621368CD
:102F1000012119651168496D11F0010F08D000BF3A
:102F200000BF00BF00BF1168496D11F0010FF6D15D
:102F30001368DB6D83821368DB6D1B0CC38213681F
:102F40001B6E038313681B6E1B0C438313685B6E3D
:102F500083831268526EC2F30E42C28311F00200E4
:102F600018BF4FF0FF3070473D480168C9680068DE
:102F700021F00401C160704701684FEA31423849CD
:102F80000B68C3F89C200A684068C2F8A000086873
:102F9000C068096840F02000C8607047304A136874
:102FA00018621068416211680120C1F89000106831
:102FB000D0F8980010F0010F09D000BF00BF00BF8B
:102FC00000BF1068D0F8980010F0010FF5D110F094
:102FD000060018BF4FF0FF30704721480168C968EC
:102FE000006821F02001C16070471D480168C96870
:102FF000006841F01001C1607047A3F1050C184B47
:1030000010B41C68C4F888C0D3F800C0CCF8200005
:10301000186842621868816219680120C1F880004E
:103020001868D0F8840010F0010F09D000BF00BF6D
:1030300000BF00BF1868D0F8840010F0010FF5D170
:1030400010F0060018BF4FF0FF3010BC7047044866
:103050000168C968006821F01001C1607047000074
:1030600058801100234810B50268012111660268DA
:1030700010215167026841F2060151660268002181
:10308000916602680A21C2F8881002689021C2F88D
:1030900084100168D1F88410026841F00101C2F87F
:1030A000841002684FF48171116600680166032084
:1030B00000F04BF80021032000F023F80E49022015
:1030C00009688862002010BD10B5032000F048F8A0
:1030D00008484FF480710268116602680021116689
:1030E000006810218167002010BD0449002008708D
:1030F0007047000048801100548011007C050020BA
:10310000704700F00303DA004FF0FF0C0CFA02F2F4
:103110004FF0050C0CEBC303994000F00C030028A2
:1031200008DA304800681844436911409343194352
:10313000416170472C4800681844D0F800331140B2
:1031400093431943C0F80013704700F01F01012298
:1031500002FA01F1244A4009126842F8201070472F
:1031600000F01F01012202FA01F11F4A4009126812
:1031700002EB8000C0F88010704700F01F010122B0
:1031800002FA01F1184A4009126802EB8000C0F807
:10319000801170471449096808607047124909682E
:1031A000C1F88000704710480068006870470E49F9
:1031B0000968C1F8800170470A4800688068704754
:1031C00008490A6892680968886010467047054A8D
:1031D0001268926800F1100352F8230042F823109D
:1031E000704700003880110034801100704770472C
:1031F0007047704770477047002070470020704745
:1032000000207047704770471B4A116810600846DD
:103210007047704718484068704710B500F0ACF828
:10322000164804210268C2F8881002684FF6FF7140
:10323000C2F88C1072B600684FF40071016662B675
:1032400010BD72B60D484FF400310268116662B6C7
:103250000068D0F8040268B14FF6FF71081A0649F9
:10326000074A8860A0F50840B93890423CBF4FF04B
:103270000110C86000F085B8800500205C80110056
:10328000372B1A001A4801684969026841F4007135
:10329000516101680969026821F006011161016844
:1032A0000969006841F01001016170471048016828
:1032B0000969026821F00601116101680969026863
:1032C00041F00401116101680969006841F01001D1
:1032D000016170470649096888607047BFF34F8FE6
:1032E000034904480968C860BFF34F8FFEE7000038
:1032F000388011000400FA05022824BF002070471E
:10330000874B53F8202043F820101046704770B5C3
:10331000844C2068006F824D10F0010F06D02168A8
:103320000120C8662868002818BF80472068006F01
:1033300010F0020F08BF70BD02202168C8666868DF
:10334000002808BF70BDBDE870400047754810B543
:10335000026802211165036801221A6603680322CC
:10336000DA66006841650920FFF7EFFE0221BDE83B
:1033700010400920FFF7C5BE6A49022009680865A8
:103380007047684902200968486570470020704707
:1033900064480168096F11F4007F04D000684FF49D
:1033A00040710166704700684FF480710166704794
:1033B00010B55C4C2068C06F10F0020F4FF0010098
:1033C00018BF0320226850670520B1FBF0F0226887
:1033D0004FF405710009C2F8801013F0FDFF524A46
:1033E000524B14F049F813F0B3FF2168C1F8840080
:1033F0002068006F10F4007F04D021684FF4407003
:10340000086610BD21684FF48070086610BD4548FD
:103410000168096F11F4807F04D000684FF4407197
:103420000166704700684FF40071016670473D4BBC
:1034300030B41A68D26F12F0010F1DBF0322D3F807
:1034400000C0CCF874204FF0020C04BF1A68C2F818
:1034500074C04FF0020C00EB4005C5EBC0104FF4F8
:103460009674C1EBC0004C4300EB8000304904EB84
:103470004010A1FB0010C0080521B0FBF1F00022B4
:10348000B0F5803F05D3511C4008CAB2B0F5803F6B
:10349000F9D242EA0C211A6841F01001C2F88810F2
:1034A0001968C1F88C001868006F10F4807F05D08F
:1034B00019684FF44070086630BC704719684FF4C3
:1034C0000070086630BC704716480168096F11F437
:1034D000003F04D000684FF4403101667047006837
:1034E0004FF48031016670470E480168096F11F48E
:1034F000803F04D000684FF4403101667047006897
:103500004FF400310166704706480068006FC0F351
:103510000020704703480068006FC0F340207047E8
:10352000940500205C8011007B14AE47E17A843F53
:10353000CDCCCCCC30B40025DDE9024C056001F0E7
:103540000F0141EA8C1101600168D2B241EA022107
:10355000016023F47F41016110214160416804F062
:10356000040211436FF3CF11416030BC7047C26851
:1035700012F0010F18BF8160C16811F0100FFBD16C
:10358000C16811F0040F08BF70478168C16811F06D
:10359000040FFAD170470023002A0BDD11F803C095
:1035A000C0F808C0D0F80CC01CF0100FFAD15B1C9A
:1035B0009342F3DBC16811F0040F08BF70478168C4
:1035C000C16811F0040FFAD17047FF22C16811F0F1
:1035D000100FFBD18260C16811F0100FFBD1C168E0
:1035E00011F0040FFBD08068C0B270470023002A9E
:1035F000D8BF704710B4FF24D0F80CC01CF0100FD7
:10360000FAD18460D0F80CC01CF0100FFAD1D0F8B9
:103610000CC01CF0040FFAD0D0F808C001F803C0A9
:103620005B1C9A42E7DC10BC7047416841F0020124
:103630006FF3CF1141607047416821F4C17121F4EB
:103640007E41416070470000704702480068406852
:10365000704770474C801100264900200A6890602E
:103660000968086024494860704710B5214C2168FA
:1036700048602168002088600221401EFFF741FD5C
:1036800021680720086010BD1A49002009680860F9
:1036900070471949087070471748007870471649F5
:1036A0000120087070471448806870472DE9F04188
:1036B000114C002705466780A0684FF47A71B0FB73
:1036C000F1F00C4E401E316848603068876002217E
:1036D000C81EFFF716FD3168072008606188A942FF
:1036E000FCD330680760BDE8F081044948430249D3
:1036F00088607047308011009C05002040420F0018
:10370000704770B52C4C05464FF40D502168886603
:1037100021680320C86621682848486621684CF261
:103720007100086621682648C1F88000216842F2CD
:103730004630886602210020FFF7E3FC0020FFF7F7
:1037400004FD002D08BF70BD2068806E42F241313B
:1037500008432168886670BD174810B502680121CA
:10376000916700684FF40D5181660020FFF7F8FC67
:10377000BDE810400020FFF700BD0F490120096897
:10378000486770470C4901200968886770470A49F3
:103790004CF27100096808667047074881B04CF226
:1037A0007101026811660168096F0268D1660068DC
:1037B000006F009001B07047408011000738393722
:1037C000009C1C9110B500210A20FEF785FB8B4957
:1037D000887110BD024670200121FEF790BA0246A2
:1037E00070200021FEF78BBA2DE9F0410024254618
:1037F00072201421FEF736FA064610F0010F18BFAA
:10380000012416F0020F18BF44F0020416F0040F52
:1038100018BF44F0040416F0080F0DD0784844F0A7
:1038200008040168D1F82C13006841F00401C0F8C5
:103830002C130020FCF7EEFE16F0100F18BF44F01A
:10384000100416F0200F6D4F06D044F02004002124
:103850000A20FEF741FBB87124B1702001212246F5
:10386000FEF74DFA300A10F0010F18BF1025040AB8
:1038700014F0010F4FF0010607D045F020053E700F
:1038800000210A20FEF728FBB871200A10F0010F72
:103890001CBF45F040057E7025B1702000212A46EE
:1038A000FEF72DFAB8799C281CBF0020B870BDE83F
:1038B000F08199E710B500210A20FEF70DFBC0B298
:1038C00000224E499C2804BFCA700A7008D0C878EC
:1038D000401CC0B2C870032882BFCA70012010BD4E
:1038E000002010BD10B5454C6079401CC0B260711D
:1038F000142818D900210A20FEF7EEFAA279C0B2E6
:103900000021824204BF217161710CD06079401E98
:1039100060712079401CC0B22071032803D9217145
:103920006171012010BD002010BD10B5C92000211B
:10393000FEF798F9002010BD70B5742400213322E1
:103940002046FEF7DCF901210D462A462046FEF707
:10395000D6F902212A462046FEF7D1F903212A464C
:103960002046FEF7CCF9702001217722FEF7C7F937
:103970000C20FFF7EAFB00210C20FFF7C2FBC82058
:1039800000211422FEF7BBF91C4C00200146A07058
:103990000A20FEF7A1FAA07170BD70B5FFF7A2FF73
:1039A00020B10020FFF773F9FEF7C7FA134C00258A
:1039B0002078B0B100210A20FEF78EFAC0B29C2810
:1039C00004BFE57025700CD0E078401CC0B2E070F8
:1039D000032806D9E57025700020FFF758F9FEF797
:1039E000ACFA6078002808BF70BD65700020FFF752
:1039F0004EF9BDE87040FEF7A0BA0000A80500200F
:103A00005080110070B5FE4C00254FF49061257078
:103A10006570FC4813F017F84FF49061FA4813F002
:103A200012F84FF49061F94813F00DF86560A57035
:103A30008021F74813F007F8BDE870408021F54871
:103A400013F001B8EE488078002818BF01207047B5
:103A5000EB484078002818BF0120704770B5054634
:103A6000ED48EE490078097800FB01F4FFF7A6F96C
:103A7000E64A2B46A2F510610846FFF7CCF9620032
:103A80002946E24812F03EFFDD490120487070BD32
:103A90002DE9F0411D4616460F468046069C00F073
:103AA000A7FE022802D108F084FE30B100F0A0FE8B
:103AB000052803D106F01FF800B90224FFF768F9C2
:103AC00021462846FFF783F93A4631464046FFF73C
:103AD000DCF9BDE8F041FFF75CB9C94840687047C0
:103AE000CF4A10B5127801469200C94812F00AFF79
:103AF000C3490120887010BD2DE9F04FDFF800A305
:103B0000002689B09AF801809AF80270B346FDF752
:103B100035FDC4480168496C026841F40061516494
:103B200000BF0168496C006821F400614164BE492E
:103B30000220096808660020FDF7FBF8FDF758FB36
:103B400005F0CDF901280BD06846FDF722FE0028CC
:103B5000F6D0684605F0EDFD029870B11FB10CE09B
:103B60004FF0010B69E00146AD4800788200A8489B
:103B700012F0C8FE01208AF802000198002854D0F3
:103B8000B8F1000F51D104469AF80000A8BBDAF84A
:103B9000045095B3A04800780790A04890F8009092
:103BA00000F026FE022802D108F003FE30B100F03A
:103BB0001FFE052804D105F09EFF08B94FF0020949
:103BC000FFF7E6F849460798FFF701F921462A462C
:103BD0000846FFF75AF9FFF7DCF8DFF8509299F83A
:103BE0000000022804BF284605F03AFC99F80000BE
:103BF000092804BF204605F033FC2546864887493E
:103C00000078097800FB01F4FFF7D8F87F4A2B46CB
:103C1000A2F510610846FFF7FEF8620029467B48CE
:103C200012F070FE01208AF80100FDF7CFFD761C2E
:103C3000042E85D3BBF1000F03D08AF801808AF8E7
:103C400002700120FDF71BF8774802210068016629
:103C500009B05846BDE8F08F6948002101704BE774
:103C600038B50F2100F090FE654C012806D10020E8
:103C70002070FFF741FF009000F00BFF60780028F4
:103C80001BBFA07800280020012038BD0F2138B5C7
:103C900000F07AFE5A4C012806D100202070FFF770
:103CA0002BFF009000F0F5FE607800281BBFA07885
:103CB00000280020012038BD00215148417081704A
:103CC0007047504870475048704770B505464FF4EC
:103CD00090614C4812F0B7FE4FF490614B4812F0DF
:103CE000B2FE474C29464748227800F025FB22784F
:103CF0002946BDE87040454800F01EBBF0B4464A76
:103D0000404B002114788C4603F510650022002CEE
:103D100013D933F9116030F91170BE4253F81160B4
:103D2000B4BFB61CB61E43F8116033F9116045F8F4
:103D30001160491C521CA242EBD30CF1010CBCF1E6
:103D4000020FE3D3F0BC7047002818BF01202C49B4
:103D5000487070472DE9F047DFF8A49082B05FEA21
:103D600000087BD000254FF4107A2C4600F040FD6F
:103D7000052808BF012505D008F01BFD00280CBF51
:103D80002B4C2C4C2C482D4F00687969806BFF31EF
:103D900000F5E03021F0FF01503005FB010600F096
:103DA00027FD022807D108F004FD20B97869FF300B
:103DB00020F0FF00064400F01BFD022802D108F0AD
:103DC000F8FCE8B300F014FD052802D105F093FEDD
:103DD000B0B30025771C304601226946FEF76EF924
:103DE0007E1C012201A93846FEF768F90198C1B28C
:103DF000009861F31F2000B2414628F8150021E029
:103E0000B00500201C1600209C1A00201C1F00205A
:103E10009C2C00201C2D0020BA050020BB05002092
:103E2000C1050020508011004C8011002D0600209B
:103E3000E207002004590020A4060020A806002064
:103E400011E00BE0002C18BF24F815006D1C55453F
:103E5000C0D30122FD4800F06FFAFC48C9F8040005
:103E600002B0BDE8F087402300208446614628F870
:103E700010C0002C18BF24F81010401C9842F5D335
:103E800001224146F24800F057FAF148E6E710B542
:103E90000122F049ED4800F04FFAEF49EB48486045
:103EA00010BD10B5EC4C002804BF606010BD0122AD
:103EB0000146E64800F040FAE448606010BDE7487B
:103EC0007047002818BF0120E34988707047E24915
:103ED000002200284A708A7018BF012008700BE683
:103EE00010B54FF44C301422DD49FEF7E7F8DC48FA
:103EF00010BD10B54FF44C301422D949FEF7DEF84E
:103F0000D748006810BD10B54FF44C301422D44986
:103F1000FEF7D4F8D24810BD0268B2F1FF3F15D0C9
:103F2000052904BFC07A704728DC012904BF007945
:103F30007047022904BF007A7047032904BF407A02
:103F40007047042904BF807A704727E0052913D001
:103F500007DC012922D002291CBF032904290BD028
:103F60001CE0142912BF15292D207047162904BF03
:103F700028207047172911D100207047142904BF49
:103F8000007B7047152904BF407B7047162904BF8A
:103F9000807B7047172904BFC07B7047FF207047A4
:103FA00070B5C0B000244FF48071684612F04BFD2C
:103FB000FF224FF44C36511C684612F01AFDFF21C7
:103FC000254661F307052D22214662F3070162F3BE
:103FD0000F2128224BF6BB3062F3174164F31F61B7
:103FE000CDE90005CDE9024104943046FEF72CF9F5
:103FF00069463046FEF741FA40B070BD2DE9F04FFA
:10400000C1B00446DDE94A9896489A4693460D4663
:1040100001602068B0F1FF3F08BFFFF7C1FFD4E99E
:1040200001106BF307006AF30F20266869F317404D
:10403000D4E9037465F3070168F31F600D468046F9
:10404000FF22511C684612F0D4FCCDF80880CDE95F
:104050000374CDE900654FF44C342046FEF76CF94B
:1040600069462046FEF709FA012818BF002041B032
:10407000BDE8F08F2DE9F04F174688468146C1B064
:1040800000244FF44C3014227549FEF717F8744B96
:104090001D68B5F1FF3F02BF204641B0BDE8F08F7B
:1040A000FF22D3E902A4511C6846D3F810B05E6821
:1040B00012F09FFC69F3070468F30F2467F31744B9
:1040C000012060F31F64CDE902A4CDE900564FF44E
:1040D0004C34CDF810B02046FEF72EF96946204644
:1040E000FEF7CBF941B0BDE8F08F2DE9F04F5E4F00
:1040F0000024C1B07E42A1464FF44C3014225849EE
:10410000FDF7DCFF564D172128462B68FFF704FF0B
:10411000844614212846FFF7FFFE40B2B3F1FF3F6B
:1041200004D0BCF1000F09D12D2807D0FFF738FFCC
:104130004FF44C3014224A49FDF7C0FF14212846A1
:10414000FFF7EAFE40B2039015212846FFF7E4FE90
:1041500040B2029016212846FFF7DEFE40B20190E1
:1041600016212846FFF7D8FE404240B20090FCF7E7
:10417000CEFF10F0020F68D03C483E4A4FF00008D6
:1041800090F800C03A4800780028C8BFACF1010A96
:104190001EDD0021BAF1000F16DD01F1010B01FB5C
:1041A00000830BFB008B32F8133032F81BB0A3EB0B
:1041B0000B031BB2002BB8BF5B421BB24B45C8BF01
:1041C0009946491C5145E8DB08F101088045E0DBD0
:1041D00002994945B8BF44F002044FF00008C246B6
:1041E000BCF1000FC8BFA0F1010B1BDD0021BBF12A
:1041F000000F13DD0AFB001332F813E002EB430358
:104200005B88AEEB03031BB2002BB8BF5B421BB253
:104210004345C8BF9846491C5945EBDB0AF1010AE2
:10422000E245E3DB03994145B8BF44F004044FF095
:10423000000ABCF1000F2BDD0023002824DD0AFB5F
:10424000003132F91110B94216E029E09C23002018
:104250001C28002004590020B00500209C2C0020C0
:104260009C2D002070050020F1D8FFFFBB05002029
:10427000BA0500201C160020C8BF0F46B142B8BFC7
:104280000E465B1C8342DADB0AF1010AE245D3DB0E
:104290000198B84202DB0098B04201DD44F0080406
:1042A00009F0FF0040907042C6B2344808F0FF08A1
:1042B000FFB204602868B0F1FF3F08BFFFF770FE4F
:1042C000D5E9020A409968F3070061F30F20D5E9A8
:1042D000009B67F3174066F31F600646FF222D69B7
:1042E00064F3070B511C684612F083FBCDF8009075
:1042F000CDE903A5CDE901B64FF44C352846FEF7CC
:104300001BF869462846FEF7B8F81D208DF8000016
:1043100041208DF8010000208DF802408DF8040046
:104320008DF803008DF8050006226946072007F086
:1043300077FE41B0BDE8F08F2DE9F0410746104807
:104340000E4604780F48057800F052FA022802D190
:1043500008F02FFA78B100F04BFA052802D105F0E9
:10436000CAFB40B104FB05F0420031463846BDE8C7
:10437000F04112F0C7BA6000F6E7000070050020B7
:10438000BA050020BB0500202DE9FF4F87B0074686
:1043900032200590002080460390FF4814464FF0DD
:1043A000FF3A0678FD48007804900020009081468E
:1043B000019000F01DFA05280CBF1E251425FFF7FB
:1043C00080FC029004984FF0000C0028C8BF4FF00A
:1043D000020E7DDD0020002E46DD0CFB060189B2B9
:1043E00037F911B0AB4503DD039A521C12B20392A8
:1043F00034F91120AA420EDD08F101030FFA83F807
:104400005245C4BF059B9A4205DD1FFA8CF3019308
:1044100083B292460093029B33F911309A1A12B27A
:10442000BBF1000F18DA002AB8BF5242002BB8BF08
:104430005B42934210DA1BF11E0FBCBF0A9BA3F82C
:1044400000E037F81130089A22F8113037F91110CE
:104450004945C8BF894603E0089A002322F8113075
:10446000401C00B2B042B8DB0CF101000FFA80FC36
:1044700004988445AEDB05988245C8BFD1454CDC25
:104480000398002845DDB8F1000F00F0E280A6F1A6
:1044900001094FF000081FFA89F7BAF1000F40F345
:1044A000DD80DDE9000101FB060E34F91E3003EB6F
:1044B000D370B3F1FF3F4FEA6000B8BF404202B291
:1044C00001FB06F01FFA80FC009800B2834600E072
:1044D00023E0012841DB0CEB000189B2002B20DD39
:1044E00034F911A004EB410131F9021CBAEB010AC5
:1044F00006D50029B4BFC1F1000A8A46924504DB03
:104500000029B8BF4942A94223DA401E1FFA80F8A9
:1045100023E018BFB8F1000FB9D10BB00020BDE8FF
:10452000F08F16DA34F911A004EB410131F9021CC5
:10453000AAEB010ABAF1000F06DD0029B4BFC1F1F0
:10454000000A8A469245E0DB0029B8BF4942A942E9
:10455000DBDB401E00B20128BDDACB4536DA0CEBBE
:104560000B0080B2002B16DD34F9101004EB400074
:10457000B0F90200091A05D50028B4BF414201462E
:10458000914204DB0028B8BF4042A84218DA0BF180
:10459000010087B21AE013DA34F9101004EB40007E
:1045A000B0F90200091A002905DD0028B4BF414214
:1045B00001469142EBDB0028B8BF4042A842E6DB4F
:1045C0000BF101000FFA80FBCB45C8DB0198029B81
:1045D00000FB068082B2019833F9123000FB0670AE
:1045E00085B2029834F812201FFA8EF19A1A30F927
:1045F00011000FFA82FC34F81110029A34F81540B9
:10460000411A32F9152009B2141B24B2B1EB0C0582
:1046100048BFACEB01050E1B48BF661A35442FB2EC
:10462000C51A48BF1D1A861A48BF161A3544614478
:1046300018442DB22144104409B200B2BD4208DC36
:104640000029B8BF494264310028B8BF40428142C6
:1046500004DA0BB04FF0FF30BDE8F08F0BB0012053
:10466000BDE8F08F2DE9F05FDFF834A18046002629
:10467000DAF80000374690F8241100291CBFB0F882
:10468000300100286CD0FCF72EFEDAF8001091F80B
:104690002411B0FBF1F201FB1200002860D101F0FF
:1046A0006FFC5FEA00095BD03E480078102804BF29
:1046B000484604F0D5FE38484FF0000C444690F8C8
:1046C00000B03648634690F800E0BEF1000F19DDF7
:1046D00034F9020B0125BBF1010F10DD34F9022B77
:1046E000101A01B20029B8BF494208B2604502DD84
:1046F00084461E462F466D1C10465D45EEDB5B1C56
:104700007345E5DBDAF80020B2F83001844527DB99
:1047100006FB0B7008EB400338F8101033F8023C2E
:10472000C91A39F8103009EB400009B230F8020C10
:10473000181A081A00B20028B4BF434203460029E1
:10474000B8BF49428B420BDA0028B8BF4042B2F8EA
:104750003211884204DA01F01DFC0020BDE8F09F10
:104760000120BDE8F09F70B515460E46044608F0DE
:1047700020F8002C18BF70BD042818BF052806D0EB
:104780000748006890F82400A84288BF70BD3046F2
:10479000BDE8704008E00000BA050020BB0500201D
:1047A000E80600202D060020FFF79AB970B51546DF
:1047B000044607F0FEFFB4F1FF3F0AD0002C18BFFB
:1047C00070BD002D08BF70BD2846BDE87040FFF7E2
:1047D00045B9002D08BF70BD2846BDE87040FFF701
:1047E00074BA10B506F066FA06F0F9FA002010BDAA
:1047F000AC4800787047AB480078022805D00528FF
:104800001CBF0020704705F076B907F0D2BFA5495C
:104810000870704710B50446072C28BF10BDDFE8AC
:1048200004F013040810130C0800084600F042F9C5
:104830000AE0084607F0B2FF06E0084605F050F926
:1048400002E0084607F05CFC9648047010BD9649EB
:1048500000200968B1F8641011F4807F08BF704728
:10486000FDF7B1B9904900200968B1F8641011F45E
:10487000807F08BF7047FDF7C1B98B4900200968E8
:10488000B1F8641011F4806F08BF7047FDF7DAB912
:104890008449487800281CBF401E4870704710B5F6
:1048A00072B6FEF759FFBDE81040FEF717BD10B510
:1048B0007E48FDF7C9FC72B6FEF74EFFBDE810401A
:1048C000FEF70CBD7748006970477648C0687047AE
:1048D00074494861704773484069704710B5FCF7E8
:1048E0008BFBFBF713FEFCF718FAFFF7D0FABDE8D5
:1048F0001040FDF7B5B810B5FCF77EFBFBF706FEE0
:10490000FBF7BEFFFCF709FABDE81040FDF7A8B8B9
:1049100030B5ADF2844D05464FF49061684612F013
:1049200092F8604C2846256106F0E0F8E060F0B1AE
:104930000278A2704178E17083782371531C03F0F0
:10494000FE0363710023E37123724FF0120C84F8AD
:1049500006C004F10A0C8CF800308CF801300078A5
:1049600060721046FCF746FD0DF2844D30BD4E4896
:104970000068B0F8640010F4807F18BFFDF73EF9BE
:1049800000200DF2844D30BDF0B5ADF2CC4D0F4698
:1049900004464FF49061684612F055F8414D2046A8
:1049A0002C6106F0A3F8E860002851D00278AA70C4
:1049B00041780446E97080782871501C00F0FE00B0
:1049C00068710020E87128721223AB7105F10A03A7
:1049D00018705870207868721046FCF70BFD0DF5C2
:1049E0009061204606F09FF8608A6E6900281CBF1F
:1049F0007043060B002017F0040F18BF062017F0B5
:104A0000080F18BF40F00200616A0840DDF880140A
:104A1000CDF8C014DDF89C14CDF8C414DDF8901462
:104A2000CDF8C8140DF59861FCF7F9FADDF88C049F
:104A300020B13346EA78A97805F04CFB6421304672
:104A400005F0FBFB287802280FD0052810D016E0CF
:104A500015480068B0F8640010F4807F18BFFDF7B7
:104A6000CDF800200DF2CC4DF0BD07F0A2FE01E024
:104A700005F041F8022808BFDDF8940400D068462C
:104A8000FFF768F9002001F07AFA0DF2CC4D012011
:104A9000F0BD10B5FCF733FB02490020C8600120CF
:104AA00010BD0000B8050020E806002000FE11003F
:104AB000F9487047F94948707047F848407870479E
:104AC000F74810B4F74A0168914218D14168B1F52E
:104AD000887F14D80022D0F808C003461146B2EBF4
:104AE0009C0F24BF10BC704753F82140491C22443E
:104AF000B1EB9C0FF8D3002A04BF10BC7047002014
:104B000010BC70474FF4FC30FDF716BC2DE9F041A6
:104B10000446E3480E46E34F0168B94213D14168A9
:104B2000B1F5887F0FD80023D0F808C001461A4697
:104B3000B3EB9C0F08D251F82250521C2B44B2EB1D
:104B40009C0FF8D303B10020002558B1B0E80E1037
:104B5000A4E80E10B0E80E10A4E80E100FC884E808
:104B60000F0016E0FF223021204611F042FF4FF4E3
:104B70008870C4E900703020C4E902055020C4E9FF
:104B800004054FF0FF30E062A062A5616062C4E9F5
:104B9000075066B94FF4FC30FDF7CEFBC248056004
:104BA00045608560C560056145618561C56101201D
:104BB000BDE8F081B949012048707047B74900202D
:104BC0000870704770B5ADF5107D0446FFF77DFEA7
:104BD000054614F0020F04BF0DF5107D70BD0426CC
:104BE000FFF709FE002818BFB04C08D095F92C102B
:104BF0002246304605F0BCFF0DF5107D70BD6C46B9
:104C00002046FCF7E7FDF1E770B50D460646102497
:104C1000FFF75BFE16F0020F18BF05242A46102C82
:104C200028BF70BD002A08BF70BD204490F928102D
:104C30002046BDE8704005F09BBF2DE9F04F87B0DE
:104C40008146122000244FF0200A27460090FFF7EB
:104C5000CFFD022802D107F0ACFD30B1FFF7C8FD4F
:104C6000052804D104F047FF08B9022000900098FD
:104C7000002500289CBF07B0BDE8F08F0026BAF1E0
:104C8000000F7CD98A4A681EA2FB00314908A1EBBB
:104C9000810108440590E81E0490A81F0390C01EDF
:104CA0000290C01E0190A2FB05104008A0EB8000FE
:104CB000A5F10F0B00EB0508FFF79AFD022803D1C1
:104CC00007F077FD00283AD0FFF792FD052803D1C1
:104CD00004F011FF002832D0032D38BF142417D35D
:104CE0000498032838BF152412D30398032838BF2B
:104CF00016240DD30298032838BF242408D3019822
:104D0000032838BF252403D3BBF1030F38BF262463
:104D1000A7420AD06748C4F3031127460068C1615F
:104D200004F00F017F20FBF79BFBC4F30310012865
:104D30001CBFC6F11F0000EB481018D127E0002D62
:104D40000CBF14242424A74209D05A48210927461D
:104D50000068C16104F00F017F20FBF781FB20098F
:104D6000012814D00598C6F11F0101EB401019F875
:104D7000011BC0B2FBF774FB761C56459CD3009810
:104D80006D1C8542FFF47AAF07B0BDE8F08F06EBEB
:104D90004810ECE72DE9F84F834640484FF0000AF1
:104DA0000C46B0F904804FF01209202750460091BC
:104DB000FCF707FB0546CBF10706FFF719FD0228B4
:104DC00002D107F0F6FC30B1FFF712FD052804D13F
:104DD00004F091FE08B94FF00209BBF1000F1CD09E
:104DE000002E55DB4FF0000CB9F1000F49D901211D
:104DF00001FA06F3701E01FA00FB0021002F3CD9D6
:104E000035F8020B2278A0EB080000B25FEAD21E50
:104E100023D0002827DA2EBB1BE00023B9F1000FB6
:104E20002FD90021002F10D935F8022B2078A2EBC2
:104E3000080212B2502AC8BF40F0800040F0400083
:104E4000491C04F8010BB942EED35B1C4B45E8D377
:104E500017E010F1280F05DB0AE0002803DD0EB98A
:104E6000282805DD9A43002EC4BF4BEA0200C2B2D7
:104E700004F8012B491CB942C2D30CF1010CCC45FA
:104E8000BBD30098FFF7D9FE002E08BF4FF0010AF0
:104E90005046BDE8F88F00009C2E0020D005002071
:104EA00000F8110054435246FC150020DC3000206D
:104EB000ABAAAAAA50801100FD498880704770B53E
:104EC000FB4EFC49F08009680320C8610425E9B263
:104ED0007F20FBF7C5FA0024B179E0B2FBF7C0FAF6
:104EE00004F12000B179C0B2FBF7BAFA04F1400036
:104EF000B179C0B2FBF7B4FA641C202CECDB6D1C5A
:104F0000072DE4DB70BD2DE9F04F89B00026FCF7DA
:104F100073F8E849072009680865E748016841F027
:104F2000200101600020FFF7CAFFE1494FF4006053
:104F300088804FF41071E14811F085FD0020FBF7E7
:104F4000F8FEFCF77EF900252C460795FFF753FC89
:104F500003F0C5FF01281DD06846FCF71AFCB8B164
:104F60000120FBF7E6FE684604F0E3FB6D1C012D13
:104F70000ED00025D1492046FFF70CFF072C1ED08C
:104F80000020FBF7D6FEFCF721FCFCF75AF9641C65
:104F9000002EDDD0FFF72FFCC54AC948C74BD060B3
:104FA0000020D16813F800C0401C01F801CBD1608B
:104FB000B0F5107FF5D3079800283CD135E01220DA
:104FC0000890BB4800274FF0200BB0F9046038462A
:104FD000FCF7F7F90546BA460024BBF1000F18D9D3
:104FE000304612F0E2F9B74AB74B12F045FA89465B
:104FF000804635F9022B901B48BFB01A12F0D5F944
:1050000042464B4612F036FB38BF7F1C641C5C45A1
:10501000EFD308980AF1010A8245DDD3002F4FF043
:1050200001061CBF01200790B4E7002E1EBF002020
:1050300009B0BDE8F08F012009B0BDE8F08FF0B5F0
:1050400087B000260120FBF71AFE9B48016841F05B
:10505000200101600020FFF732FF95494FF4006006
:1050600088809A490020C1F88000C1F88400C1F806
:105070008800C1F88C00C1F89000C1F89400C1F814
:105080009800C1F89C00C1F8A000C1F8A400C1F8C4
:10509000A800C1F8AC00C1F8B000C1F8B400C1F874
:1050A000B800C1F8BC00FBF744FEFCF7CAF80025C5
:1050B0002C462F4603F013FF012835D06846FCF735
:1050C00068FB78B30120FBF734FE6D1C012D24D062
:1050D00000257F492046FFF75DFE072C06D0002003
:1050E000FBF727FEFCF7ADF8641C1BE0002420252D
:1050F0002046FCF766F9002130F9022BA2F2666225
:10510000B2F54D7F88BF641C491CB1EB450FF3D34A
:10511000002C08BF01260DD106E00020FBF709FE98
:10512000FCF78FF8002EC5D027B9002E1EBF002037
:1051300007B0F0BD012007B0F0BD2DE9F04F824669
:105140000021ADF5137D634890910C4600780F4621
:105150000D46022808BF022703D0052804BF0224F9
:105160000427DFF85091DFF870B100F098B92046BD
:1051700005F0BCFC002800F09181008900EA0A06D5
:1051800026F0CC0030F47C4000F08881DFF84C81C0
:10519000D8F800004069D8F8001040F40070486169
:1051A000D8F800000069D8F8001020F00600086167
:1051B000D8F800000069D8F8001040F0100008612D
:1051C0003CB1012C35D0022C71D0032C55D000F00D
:1051D000FBB802210846FFF71DFB0120FBF74FFD3E
:1051E00005F0E9FA0F212046FFF7CEFB002800F07A
:1051F0005581D9F80000406CD9F8001040F40060E7
:10520000486400BF00BF00BFD9F80000406CD9F867
:10521000001020F400604864FBF7C5FC05F0B2FA0A
:10522000012007F078FB0020FBF783FDFCF7CEFAA6
:10523000CAE000210220FFF7EDFA0120FBF71FFD75
:105240000F212046FFF7A0FB002800F02781D9F8A6
:105250000000406CD9F8001040F40060486400BFC2
:1052600000BF00BFD9F80000406CD9F8001020F44E
:1052700000604864FBF797FCA6E000210520FFF7DB
:10528000C9FAFBF7B9FED8F800000069D8F8001099
:1052900020F006000861D8F800000069D8F8001076
:1052A00040F004000861D8F80000006918E03EE012
:1052B000D00500205080110064050020DC30002063
:1052C0009C2E00209A9999999999B93F9C32002077
:1052D0001C33002025060020548011003880110066
:1052E000D8F8001040F01000086109F0FDF90F2116
:1052F0000220FFF749FB00287ED0DBF800100720D2
:105300008860DBF800100420486002212020FCF7B0
:1053100071F80020FBF70DFDFBF76AFFDBF80000DA
:105320000068DBF8001040F0010008604CE002214A
:105330000520FFF76FFAFBF75FFED8F80000006961
:10534000D8F8001020F006000861D8F800000069C5
:10535000D8F8001040F004000861D8F80000006997
:10536000D8F8001040F01000086109F0BDF905F010
:1053700009FA0F210320FFF707FB00283CD0DBF8D8
:1053800000107F208860DBF8001002204860D9F808
:105390000000406CD9F8001040F40060486401201F
:1053A00007F0BAF8D9F80000406CD9F8001020F4E2
:1053B00000604864FBF71CFFDBF800000068DBF8C6
:1053C000001040F0010008609098002862D116F0AB
:1053D000010F23D00120FBF752FCFFF70CFA88B134
:1053E000FCF7CCF8FF210F20FFF78DFD012121EA0A
:1053F00000000543002000E050E0FBF79AFC909885
:1054000090BB0BE0FCF7BAF8FF210F20FFF717FE67
:10541000012121EA000045EA4005EBE716F0060FFE
:1054200022D0FFF7E8F902281ED1FEF7EBFA0020A0
:10543000FEF74DFD0120FBF722FCFEF742FC06467D
:10544000FFF743FA0523320004D090F92D101846D7
:1054500005F08EFBFEF735FCFEF723FDFEF731FC71
:105460004FF4906111F0CDFAFFF72FFA8046042037
:105470009190FFF7C0F9002818BFFE4E1DD098F993
:105480002C103246919805F073FBFB490020087000
:10549000FBF7AEFEFFF7ACF9FFF7FBFA641CBC426A
:1054A00003D2909800283FF462AEF44900200870BF
:1054B0000DF5137D2846BDE8F08F6E463046FCF7AB
:1054C00089F9DCE770B5ED48CCB04578FFF790F985
:1054D00001287DD1EA480068B0F93610B0F93400EF
:1054E00004F01EFF15F0020F73D0002140A8FFF753
:1054F0000DFB4598401C459040F27770FFF71DFE6C
:10550000C0B2032810D0002804BF45F250004490D8
:1055100012D0012808BF4AF250100CD0022808BF50
:1055200045F2A10007D007E04AF2A1104490469846
:10553000401C469008E0449047980022401C479049
:105540002121072006F043FD40AC05F0C0FA40B130
:1055500081694891C169499141694A91C0684B90FC
:1055600005E04FF0FF304B904A9049904890C54875
:1055700040904FF48870419030204290002043903A
:10558000A3682246014652F820C0401C6144B0EB9B
:10559000930FF8D34E42FF22511C6846E66011F08B
:1055A00028FAA268F4E804018DE847000FCC04AEA5
:1055B00086E80F0094E80F0008AE203C86E80F0054
:1055C0004FF4FC306946FCF758FFAF49226801E010
:1055D00022E00DE00A6062684A6022698A606269BE
:1055E000CA60A2690A61E2694A61226A8A610CE0C2
:1055F00015F0010F09D040F22220FFF79EFD20B9DF
:1056000000222121072006F0E2FCFEF755FB2A4686
:105610004021072006F0DBFC4CB0BDE8704003F0F1
:105620005ABC70B50C469949054603200968C86103
:1056300001217F20FAF714FF00217520FAF710FFEF
:1056400001217620FAF70CFF60210820FAF708FF05
:1056500000210920FAF704FF30210A20FAF700FFA1
:1056600000210B20FAF7FCFE06210E20FAF7F8FEC7
:10567000E1B22620FAF7F4FEE1B22720FAF7F0FEB5
:10568000E1B22820FAF7ECFEE1B22920FAF7E8FEB1
:10569000E1B22A20FAF7E4FEE1B23020FAF7E0FEA8
:1056A000E1B23120FAF7DCFEE1B23220FAF7D8FE9F
:1056B000E1B23320FAF7D4FEE1B23420FAF7D0FE9B
:1056C000E1B23620FAF7CCFEE1B23720FAF7C8FE95
:1056D000E1B23820FAF7C4FEE1B23920FAF7C0FE91
:1056E000E1B23A20FAF7BCFEE1B24020FAF7B8FE88
:1056F000E1B24120FAF7B4FEE1B24220FAF7B0FE7F
:10570000E1B24320FAF7ACFEE1B24420FAF7A8FE7A
:10571000E1B24620FAF7A4FEE1B24720FAF7A0FE74
:10572000E1B24820FAF79CFEE1B24920FAF798FE70
:10573000E1B24A20FAF794FEE1B25020FAF790FE67
:10574000E1B25120FAF78CFEE1B25220FAF788FE5E
:10575000E1B25320FAF784FEE1B25420FAF780FE5A
:10576000E1B25620FAF77CFEE1B25720FAF778FE54
:10577000E1B25820FAF774FEE1B25920FAF770FE50
:10578000E1B25A20FAF76CFEE1B26020FAF768FE47
:10579000E1B26120FAF764FEE1B26220FAF760FE3E
:1057A000E1B26320FAF75CFEE1B26420FAF758FE3A
:1057B000E1B26620FAF754FEE1B26720FAF750FE34
:1057C000E1B26820FAF74CFEE1B26920FAF748FE30
:1057D000E1B26A20FAF744FE02217F20FAF740FE88
:1057E0006A210220FAF73CFE8E210420FAF738FEE7
:1057F000F1210720FAF734FE15B1012D05D008E09C
:1058000004210620FAF72CFE03E008210620FAF70F
:1058100027FE03217F20FAF723FE21211020FAF72B
:105820001FFE00211120FAF71BFE00211220FAF7BB
:1058300017FE00211320FAF713FE00211420FAF7B7
:105840000FFE00211520FAF70BFE01211620FAF7B2
:1058500007FE02211720FAF703FE00211820FAF7AD
:10586000FFFD00211920FAF7FBFD00211A20FAF7AD
:10587000F7FD0DE0DC30002015070020D0050020EA
:10588000E806002054435246FC15002050801100C9
:1058900000211B20FAF7E4FD01212020FAF7E0FDAA
:1058A00020212120FAF7DCFD00212220FAF7D8FD83
:1058B00000212320FAF7D4FD00212420FAF7D0FD9F
:1058C00000212520FAF7CCFD01212620FAF7C8FD9A
:1058D00000212720FAF7C4FD02212820FAF7C0FD95
:1058E00000212920FAF7BCFD00212A20FAF7B8FD93
:1058F00000212B20FAF7B4FD01213020FAF7B0FD8A
:1059000000213120FAF7ACFD20213220FAF7A8FD62
:1059100000213320FAF7A4FD00213420FAF7A0FD7E
:1059200000213520FAF79CFD01213620FAF798FD79
:1059300000213720FAF794FD00213820FAF790FD76
:1059400002213920FAF78CFD00213A20FAF788FD70
:1059500000213B20FAF784FD01214020FAF780FD69
:1059600000214120FAF77CFD00214220FAF778FD62
:1059700020214320FAF774FD00214420FAF770FD3E
:1059800000214520FAF76CFD01214620FAF768FD59
:1059900000214720FAF764FD00214820FAF760FD56
:1059A00000214920FAF75CFD02214A20FAF758FD50
:1059B00000214B20FAF754FD01215020FAF750FD49
:1059C00000215120FAF74CFD00215220FAF748FD42
:1059D00000215320FAF744FD20215420FAF740FD1E
:1059E000BDE8704000215520FAF73ABD10B50322FA
:1059F000FD49062828BF10BDDFE800F00327FDFCA5
:105A0000FBFA0868C26101217F20FAF729FDAF2166
:105A10000820FAF725FD73210A20FAF721FD0A2153
:105A20000E20FAF71DFD02217F20FAF719FD002153
:105A30000720FAF715FD1F210120FAF711FD1021AB
:105A4000BDE810400620FAF70BBD0868C2610121CD
:105A50007F20FAF705FD0F210E20FAF701FD8721BF
:105A60000820FAF7FDFC6E210A20FAF7F9FC022162
:105A70007F20FAF7F5FC71210720FAF7F1FC6A2183
:105A80000220FAF7EDFC8E210420FAF7E9FC03214D
:105A90007F20FAF7E5FC61211020FAF7E1FC0021F4
:105AA0001120FAF7DDFC00211220FAF7D9FC0021C1
:105AB0001320FAF7D5FC00211420FAF7D1FC0021BD
:105AC0001520FAF7CDFC01211620FAF7C9FC0621B2
:105AD0001720FAF7C5FC00211820FAF7C1FC0021B5
