:10000000544649530001000038F7010097BE07E746
:1000100010450110180410114441474610450102D3
:1000200018041011444147461045010218041011EC
:1000300044414746030000000000000000000000AB
:100040005446435300200000E8D90100000000009E
:10005000008001100121000025210000272100005F
:10006000292100002B2100002D2100003D2100004E
:100070003D2100003D2100003D2100002F21000016
:10008000312100003D210000332100001D570000F8
:1000900003580000372100003D210000D53E00102C
:1000A00037210000153B00001B3B00003D210000F4
:1000B0003D21000057530000B54A0000213B0000DD
:1000C000DD500000372100003D2100003D210000EF
:1000D0000000000000000000000000000000000020
:1000E0000000000000000000000000000000000010
:1000F0000000000000000000000000000000000000
:1001000000000000000000000000000000000000EF
:1001100000000000000000000000000000000000DF
:1001200000000000000000000000000000000000CF
:1001300000000000000000000000000000000000BF
:1001400000000000000000000000000000000000AF
:1001500000F003F800F020F8FEE70D480168890878
:100160008900002001C101C101C101C17047000027
:10017000F0440010FEE7FEE7FEE7FEE7FEE7FEE7DD
:10018000FEE7FEE7FEE703480047FEE7FEE7000064
:10019000202100003D21000000F002F800F068F886
:1001A0000AA090E8000C82448344AAF10107DA45D2
:1001B00001D100F05DF8AFF2090EBAE80F0013F0BC
:1001C000010F18BFFB1A43F001031847F491010017
:1001D000449201000A444FF0000C10F8013B13F068
:1001E000070408BF10F8014B1D1108BF10F8015B90
:1001F000641E05D010F8016B641E01F8016BF9D183
:1002000013F0080F1EBF10F8014BAD1C0C1B09D1D9
:100210006D1E58BF01F801CBFAD505E014F8016B4B
:1002200001F8016B6D1EF9D59142D6D370470000DD
:10023000103A24BF78C878C1FAD8520724BF30C812
:1002400030C144BF04680C607047000000230024E4
:1002500000250026103A28BF78C1FBD8520728BFD6
:1002600030C148BF0B6070471FB51FBD10B510BD32
:10027000DFF80CD0FFF7F8FF04F08AFD15F0F5FD6C
:100280000080011003B4FFF7F1FF03BC15F0F4FD8B
:100290007047FE48D0F8500300F00100704770B579
:1002A000FA4D04000AD001F0CBFB38B9D5F8500361
:1002B00010F0010F1CBF0020A86005D10120A8602C
:1002C000002C08BF002000D00120286270BDEF483C
:1002D000006A002818BF01207047C00000F180406C
:1002E00000F5A04041637047C00000F1804000F578
:1002F000A040006B00F4807070471021C00000F136
:10030000804000F5A04041637047E049D1F84021AA
:1003100060F30D22C1F840217047DC48D0F840015D
:10032000C0F30520704700F00F0202EB4202920179
:10033000C0F3031002EB801000F1804000F5A040F4
:100340000029D0F8401114BF41F0010121F0010152
:10035000C0F84011704700F00F0101EB4101890125
:10036000C0F3031001EB801000F1804000F5A040C5
:10037000D0F8400100F00100704700F00F0202EBDE
:1003800042029201C0F3031002EB801000F18040A2
:1003900000F5A0400029D0F8401114BF41F002013F
:1003A00021F00201C0F84011704700F00F0101EB8D
:1003B00041018901C0F3031001EB801000F180407E
:1003C00000F5A040D0F84001C0F340007047AF49AD
:1003D00000230B6202680A6042684A6082688A6091
:1003E000C268CA60426A0A64826A4A6402698A61AF
:1003F0004269CA61826B0A66826C0A67C26C4A678C
:10040000026D8A67426DCA67826DC1F88020C26D35
:10041000C1F88420026EC1F88820426EC1F88C2099
:10042000426FC1F8B020C26FC1F8B820C26EC1F8E7
:10043000A820D0F89422C1F85023D0F89822C1F80F
:100440005423D0F89C22C1F85823D0F8A022C1F838
:100450005C23D0F88420C1F8F020D0F88820C1F8BF
:10046000F420D0F88C20C1F8F820D0F89020C1F802
:10047000FC2021224A63CA63C2694A62C26A8A6452
:10048000026BCA64026FC1F8AC20026ACA62426B96
:100490000A65C26B4A66026C8A66426CCA66826FE3
:1004A000C1F8B420D0F88020C1F8BC20D0F8A42234
:1004B000C1F86023D0F8A822C1F86423D0F8AC2298
:1004C000C1F86823D0F8B022C1F86C23D0F8B42268
:1004D000C1F87023D0F8B822C1F87423D0F8BC2238
:1004E000C1F87823D0F8C022C1F87C23D0F88C2240
:1004F00022F48032C1F84023D0F89022C1F84C2376
:10050000D0F89420C1F80021D0F89820C1F8042137
:10051000D0F89C20C1F80821D0F8A020C1F80C2107
:10052000D0F8A420C1F81021D0F8A820C1F81421D7
:10053000D0F8C820C1F83421D0F8AC20C1F8182177
:10054000D0F8B020C1F81C21D0F8B420C1F8202187
:10055000D0F8B820C1F82421D0F8BC20C1F8282157
:10056000D0F8C020C1F82C21D0F8C420C1F8302127
:10057000D0F8CC20C1F84021D0F8D020C1F84421D7
:10058000D0F8D820C1F84C21D0F8E420C1F860217F
:10059000D0F8E820C1F86421D0F8EC20C1F8682137
:1005A000D0F8F020C1F86C21D0F8D420C1F848214F
:1005B000D0F8DC20C1F85021D0F8E020C1F8542157
:1005C000D0F8F420C1F87021D0F8F820C1F87421D7
:1005D000D0F8FC20C1F87821D0F80021C1F87C21A6
:1005E000D0F83C21C1F8C021D0F84021C1F8C42185
:1005F000D0F84421C1F8C821D0F84821C1F8CC2155
:10060000D0F84C21C1F8D021D0F85021C1F8D42124
:10061000D0F87021C1F8F421D0F85421C1F8D821C4
:10062000D0F85821C1F8DC21D0F85C21C1F8E021D4
:10063000D0F86021C1F8E421D0F86421C1F8E821A4
:10064000D0F86821C1F8EC21D0F86C21C1F8F02174
:10065000D0F87421C1F80022D0F87821C1F8042222
:10066000D0F88021C1F80C22D0F88C21C1F82022CA
:10067000D0F89021C1F82422D0F89421C1F8282282
:10068000D0F89821C1F82C2202E000000050004070
:10069000D0F8AC21C1F84022D0F8B021C1F84422F2
:1006A000D0F8B821C1F84C22D0F8C421C1F860229A
:1006B000D0F8C821C1F86422D0F8CC21C1F8682252
:1006C000D0F8D021C1F86C22D0F87C21C1F80822E2
:1006D000D0F88421C1F81022D0F88821C1F8142262
:1006E000D0F89C21C1F83022D0F8A021C1F83422E2
:1006F000D0F8A421C1F83822D0F8A821C1F83C22B2
:10070000D0F8B421C1F84822D0F8BC21C1F8502259
:10071000D0F8C021C1F85422D0F8D421C1F87022F9
:10072000D0F8D821C1F87422D0F8DC21C1F87822A1
:10073000D0F8E021C1F87C22D0F8E421C1F8802271
:10074000D0F8E821C1F88422D0F8EC21C1F8882241
:10075000D0F8F021C1F88C22D0F8F421C1F8902211
:10076000D0F8F821C1F89422D0F81822C1F8B422A8
:10077000D0F8FC21C1F89822D0F80022C1F89C22C0
:10078000D0F80422C1F8A022D0F80822C1F8A4228F
:10079000D0F80C22C1F8A822D0F81022C1F8AC225F
:1007A000D0F81422C1F8B022D0F81C22C1F8C0221F
:1007B000D0F82022C1F8C422D0F82822C1F8CC22D7
:1007C000D0F83422C1F8E022D0F83822C1F8E4226F
:1007D000D0F83C22C1F8E822D0F84022C1F8EC223F
:1007E000D0F85422C1F80023D0F85822C1F80423CD
:1007F000D0F86022C1F80C23D0F86C22C1F8202375
:10080000D0F87022C1F82423D0F87422C1F828232C
:10081000D0F87822C1F82C23D0F82422C1F8C822BD
:10082000D0F82C22C1F8D022D0F83022C1F8D4223E
:10083000D0F84422C1F8F022D0F84822C1F8F422BE
:10084000D0F84C22C1F8F822D0F85022C1F8FC228E
:10085000D0F85C22C1F80823D0F86422C1F8102334
:10086000D0F86822C1F81423D0F87C22C1F83023D4
:10087000D0F88022C1F83423D0F88422C1F838237C
:10088000D0F88822C1F83C23FD4A126832F0FF0CF0
:1008900005D1D1F890C062F3030CC1F890C0F94AB9
:1008A0005370D0F8943213F0010F1CBF0123537022
:1008B000D1F8503323F00103C1F85033D0F8A432FB
:1008C00013F0010F03D0537843F002035370D1F8B3
:1008D000603323F00103C1F86033D0F8B43213F071
:1008E000010F03D0537843F004035370D1F87033F1
:1008F00023F00103C1F87033D0F8AC0210F0010FFF
:1009000003D0507840F008005070D1F8680320F010
:100910000100C1F868037047DA4800787047D94889
:1009200080787047D749C8707047D648C0787047FC
:10093000D549D1F8542360F30902C1F85423704714
:10094000D148D0F85403C0F309007047CD4948603E
:100950007047CD48C06870472DE9F047DFF8249311
:10096000054615F4003F99F8010099F8031000EAD4
:10097000010418BF24F0010415F4802F18BF24F0DF
:10098000020415F4002F18BF24F0040415F4801F8E
:1009900018BF24F00804DFF8F082D8F8400320F4F0
:1009A0008030C8F8400314F00F0F65D0D9F8046008
:1009B000D8F84803002740F00100C8F84803D8F8E9
:1009C000480320F00100C8F84803D8F8400340F479
:1009D0008030C8F840034FF0630A0DE002F02FFFAB
:1009E0005046D8F8481311F0010F01D0012703E059
:1009F000011EA0F10100F4DC301EA6F1010601DDAC
:100A0000002FEBD0BFB3D8F8500314F0010F0CBF88
:100A100020F0010040F00100C8F85003D8F860034E
:100A200014F0020F14BF40F0010020F00100C8F8DC
:100A30006003D8F8700314F0040F14BF40F00100F5
:100A400020F00100C8F87003D8F8680314F0080F0C
:100A500014BF40F0010020F00100C8F8680389F8D5
:100A60000240012089F80000D8F8400340F48030AB
:100A7000C8F840033AE0FFE7D8F8500320F001003F
:100A8000C8F85003D8F8600320F00100C8F86003EC
:100A9000D8F8700320F00100C8F87003D8F8680394
:100AA00020F00100C8F86803002089F80200ACB10A
:100AB000022089F80000D8F8400340F48030C8F8DC
:100AC0004003D8F8480340F00100C8F84803D8F8BC
:100AD000480320F00100C8F8480307E0D8F84013A5
:100AE00021F48031C8F8401389F80000D8F840019B
:100AF00015F0020F20F00D0018BF40F0010015F0B6
:100B0000080F18BF40F0040015F0040F18BF40F0A4
:100B10000800C8F8400115F0010F21D001F0C7F915
:100B2000044601F0C7F90146D8F80C0000280EBFB2
:100B30002046084621460028D8F8000214BF40F09D
:100B4000010020F00100C8F80002D8F84002002996
:100B500014BF40F0010020F00100C8F840020BE093
:100B6000D8F8000220F00100C8F80002D8F84002CE
:100B700020F00100C8F8400215F0200F18BF002433
:100B800017D0204601F09DF900284FEA841000F1AB
:100B9000804000F5A040D0F8C01214BF41F0010120
:100BA00021F00101C0F8C012641C022CE9D3BDE899
:100BB000F087D8F8C00220F00100C8F8C002D8F8C9
:100BC000000320F00100C8F80003BDE8F0872DE91C
:100BD000F003024602F00F01002001EB41018C01FD
:100BE000C2F3031104EB811101F1804101F5A04131
:100BF000D1F8401111F0010F11D142F01001C1F3F1
:100C0000031104EB811101F1804101F5A041D1F8FC
:100C1000401111F0010F04BFBDE8F003704702EB73
:100C200042018E0106F1804101F5A041D1F8243145
:100C3000C3F30809144BDB69D1F8001103F008076E
:100C40001FFA81F8002142EA0113C3F3031304EBF6
:100C5000831303F1804303F5A043D3F8403113F02D
:100C6000010F20D006EB811303F1804303F5A0436D
:100C7000D3F844C1CCF3080517F1000C06E00000DE
:100C8000E0FE030000800010005000401CBFD3F8BD
:100C900044C1CCF3023CD3F8403105FA0CFCC3F359
:100CA000054360441844491C0229CCD309EBC9010F
:100CB00000FB08F001EB0911BDE8F00300EB410077
:100CC000704710B50120FFF782FF04460220FFF7AE
:100CD0007EFF044400F097FC20444FF47A714843AF
:100CE0004CF25031B0FBF1F010BD2DE9F041FE4E59
:100CF0000546306810F01F0408BF01240120FFF7EB
:100D000066FF07460220FFF762FF074400F07BFC06
:100D10003918F64F002D18BF002959D0D6F85003C6
:100D2000002210F0010FF248A0FB05C04FEA50105E
:100D300033D07823B3EB151F08D9D6F85C0320F025
:100D40000F0040F00100C6F85C0334E0D6F85433DD
:100D5000DFF8A0C3C3F3090363436FF018056B43C7
:100D60000CEB43034FEA101CB3FBF1F0102828BF33
:100D70000F20844598BF6046002808BF012005D099
:100D8000012884BF00FB1132B2FBF0F2D6F85C33CD
:100D900060F30303C6F85C330DE0D6F85C33C0F3B0
:100DA000031023F00F031843C6F85C03B7FBF5F0FC
:100DB000884288BF421A32206043B2FBF0F0B0F59F
:100DC000005F28BF41F6FF70726860F30C0272602A
:100DD0007068C0F30C00604300EBC00202EB00102F
:100DE00001EB4000B7FBF0F0BDE8F081BE48D0F861
:100DF000501311F0010F07D0D0F85C0300F00F0082
:100E0000C0EB00108001704770B50168406801F0C8
:100E10001F05C0F30C060120FFF7D9FE044602208F
:100E2000FFF7D5FE044400F0EEFB06FB05F132228D
:100E300001FB02410844AD49B1FBF0F070BDAA4886
:100E4000D0F85C0300F00F007047A7494A684B6870
:100E5000C2F30C0260F30C034B6010467047A248CB
:100E60004068C0F30C00704700EB4000800100F1C7
:100E7000804000F5A040D0F800019F4980B2B1FB4E
:100E8000F0F0401C4008704730B49B4B31B1B3FBCD
:100E9000F1F1491C4A08B2F5804F01D343F6FF72C5
:100EA000B3FBF2F1491C4D088F494FEA520C51F83F
:100EB000803F096803F00704C1F3031300EB40010E
:100EC000890101F1804101F5A04118B3D1F8040175
:100ED000DB1C634380B2A2EB4303D1F8004123F053
:100EE000010362F30F04C1F80041D1F800216CF353
:100EF0001F42C1F80021D1F8042160F30F02C1F8AC
:100F00000421D1F8180163F30F00C1F81801284635
:100F100030BC7047DB1CACF106006343A0EB43031D
:100F2000DBE700EB4000800100F1804000F5A040CD
:100F3000D0F80001000C704700EB4002920102F172
:100F4000804202F5A042D2F8003161F31F43C2F89B
:100F50000031002818BF7047634A52F8800F00F034
:100F6000070C52F81C0BC0F30313881FD91C01FB9C
:100F70000CF1A0EB4101936E21F0010160F30F032E
:100F80009366D06F61F30F00D067704700F00F01D8
:100F900001EB41018901C0F3031001EB801000F166
:100FA000804000F5A040D0F84401C0F3080070472D
:100FB00000F00F0202EB42029201C0F303104F4B0C
:100FC00002EB801000F1804000F5A0409B58D0F863
:100FD0004421CB1A61F30802C0F84421D0F844112F
:100FE0009B1E63F31841C0F8441170473E49C9691C
:100FF000434A11F0100F00F00F0101EB41014FEADD
:101000008111C0F3031001EB801000F1804000F566
:10101000A0405258D0F84401D2B2C0F3080008BF33
:101020000022801A0004000C08BF01207047030949
:101030001B0203EB810101F1405101F54041000722
:10104000C00E0B6802FA00F01843086070470209EE
:10105000120202EB810101F1405101F5404100070C
:101060000968C00E21FA00F000F00300704700F09C
:101070000F0303EB43039B01C0F3031003EB80104A
:1010800000EB810000F1804000F5A040C0F8502145
:10109000704700F00F0202EB42029201C0F303100E
:1010A00002EB801000EB810000F1804000F5A040D1
:1010B000D0F8500170470C4A0021D26912F0080F95
:1010C00010D000F00F0101EB41018901C0F30310C2
:1010D00001EB801000F1804000F5A040D0F8440101
:1010E000C0F3023108467047005000400008AF2F9F
:1010F00089888888D8810C00A08601001C51004096
:1011000028510040F94AD36943F00803D36100F045
:101110000F0202EB42029201C0F3031002EB8010B7
:1011200000F1804000F5A040D0F8442161F30E3278
:10113000C0F844217047ED4A0021D26912F0080F2F
:1011400010D000F00F0101EB41018901C0F3031041
:1011500001EB801000F1804000F5A040D0F848017C
:10116000C0F302410846704700F00F0202EB420252
:101170009201C0F3031002EB801000F1804000F5F3
:10118000A040D0F8482161F31242C0F848217047CE
:10119000042988BF704710B40023D44CE26912F0D0
:1011A000080F00F00F0202EB42024FEA8212C0F376
:1011B000031002EB801000EB04021CBFD2F84401C4
:1011C000C0F302330020D4F81CC01CF0080F1CBF71
:1011D000D2F84801C0F30240C91A0844042803DDCC
:1011E000081A011D042003E00028BCBF01440020B0
:1011F0001944E36943F00803E361D2F8443161F331
:101200000E33C2F84431D2F8481160F31241C2F8EB
:10121000481110BC7047B5490028886914BF40F0D8
:10122000080020F0080088617047B0488069C0F36A
:10123000C0007047AD490028886914BF40F0020023
:1012400020F0020088617047A8488069C0F3400020
:10125000704700F00F0202EB42029201C0F303104C
:1012600002EB801000F1804000F5A040C0F84C1166
:10127000704700F00F0101EB41018901C0F3031039
:1012800001EB801000F1804000F5A040D0F84C0147
:101290007047964AD2F85C13022903D110F0010F6F
:1012A00018BF7047D2F8400110F0010F0BD0D2F8F0
:1012B0004C01D2F844110028C1F302311EBF0029AD
:1012C000C043C2F84C01012101EB410100204FEA6B
:1012D000811C0CEB801101F1804101F5A041D1F896
:1012E000402112F0010F0BD0D1F84C21D1F844313C
:1012F000002AC3F302331EBF002BD243C1F84C2196
:10130000401C0228E5D37047784A0021D26912F0C8
:10131000080F10D000F00F0101EB41018901C0F36B
:10132000031001EB801000F1804000F5A040D0F8E0
:101330004801C0F300510846704701207047F0B4DF
:10134000022ADDE9044C069E26BF921E52080022A6
:10135000022B26BF9B1E5B080023654DA5FB045492
:101360002709BCF1020F0CBF0124002400F00F0577
:1013700005EB4505AD01C0F3031005EB801000F14E
:10138000804505F5A045D5F86401002E61F31B608A
:1013900062F3144063F30C2067F307006CF38F30A3
:1013A00014BF40F4005020F40050002C14BF40F44F
:1013B000001020F40010C5F86401F0BC70472DE95E
:1013C000F00700F00F0606EB4606B601C0F3031067
:1013D00006EB801000F1804000F5A040DDE90754E5
:1013E000DDF824C0D0F864010029C0F3036AC0F31B
:1013F0000449C0F38137C0F34036C0F30428C0B2BB
:1014000018BFC1F800A01AB14FEA4901891C116048
:101410001BB14FEA4801891C19601DB100EB800027
:1014200080002860002C18BF2760BCF1000F18BF97
:10143000CCF80060BDE8F00770472C490028C86967
:1014400014BF40F0200020F02000C86170472748FA
:10145000C069C0F34010704770B491B000224FF4DF
:1014600080456C10EC4601E0082A05D2531C03EBC2
:101470008303B5FBF3F304E0D31F03EB8303B4FB57
:10148000F3F35B1A48BF5B424CF82230521C102A1F
:10149000EAD30026009B01215CF821209A42BCBFC0
:1014A00013460E46491C1029F6D300F00F0101EB3C
:1014B00041018901C0F3031001EB801000F180416C
:1014C00001F5A041D1F86801D1F8682100F00F00C2
:1014D00066F30302C1F8682108280BD2401C00EB18
:1014E0008000B5FBF0F011B070BC704700500040B8
:1014F000CDCCCCCCC01F00EB8000B4FBF0F0F2E709
:1015000000F00F0101EB41018901C0F3031001EB71
:10151000801000F1804000F5A040D0F8680100F094
:101520000F00082834BF401CC01F00EB800034BFF0
:101530004FF480414FF40051B1FBF0F0704710F0D0
:101540000F0F08BF704700F00F0000EB4000800154
:1015500000F1804000F5A0400029D0F82C110CBF0C
:1015600021F4803141F48031C0F82C117047002102
:1015700010F00F0F0ED000F00F0000EB40008001C4
:1015800000F1804000F5A040D0F82C0110F4803F1D
:1015900018BF01210846704700F00F0000EB400023
:1015A000800100F1804202F5A042D2F83401C2F875
:1015B000341170472F4B58679967DA6770472D4988
:1015C0000028D1F8AC0014BF40F0020020F0020067
:1015D000C1F8AC00704727490028D1F8AC0014BF0F
:1015E00040F0010020F00100C1F8AC007047214834
:1015F000D0F8E00070471F49C1F8E40070471D486B
:10160000D0F89800704770B41A4E0020D6F84011F8
:1016100011F0010F04BF70BC704711F0040FD6F831
:10162000242101F00805D6F800C1C2F308021FFA10
:101630008CF4D6F844C1CCF3080C18BFC1F30740B2
:10164000F369C1F3052113F008031CBFD6F8443138
:10165000C3F30233002D18BF491C0CFA03F301FB3E
:101660000300604302EBC20170BC01EB021100EB0E
:101670004100704700500040FEF729BE10B5FEF74C
:1016800026FE012818BF10BD0020FEF708FE21210C
:101690000020FEF722FE2121BDE810400120FEF7C8
:1016A0001CBE10B5FEF7F4FDFEF711FE01280AD1AD
:1016B0000020FEF7F4FD21210020FEF70EFE21217F
:1016C0000120FEF70AFE0121052001F002FC0121A4
:1016D000052001F0FEFBFA490020C87110BD10B5CD
:1016E0004FF4066001F04BFCBDE810404FF406607B
:1016F00001F036BCF24A01465079002818BF01209B
:10170000002918BF01215171002191717047EC4AE5
:10171000516A506208467047E94900200871887094
:1017200048707047E649002008718870487070471B
:1017300070B50007C00E0D46801E00EB400101EBA6
:101740000014E0484FF4987200EBC400294614F0EE
:1017500099FBDD4805F5987100EBC400BDE87040C9
:101760004FF4987214F08EBB2DE9F0410546FEF758
:10177000D4FDD64FDFF858830446EDB14C2004FB6E
:1017800000F216462946384614F07CFB324605F531
:101790000061404614F076FB04EB440000EB0414B7
:1017A00007EB84004C2114F072FB08EB8400BDE8C9
:1017B000F0414C2114F06BBB4C21401C41430C46C2
:1017C000384614F064FB21464046BDE8F04114F071
:1017D0005EBB10B5BA4CE061FFF7BEF8FFF79CF8AE
:1017E000A1696FF30F01A161A269C1B242EA0121AF
:1017F000A161022818BF10BDA06940F00100A061DE
:1018000010BDB4488168B44A114381600168521C1C
:101810001143016000F051BE2DE9F041AD4A05468B
:101820000C469068AC4B184390601068591C0843F4
:10183000106000F042FE0026002C7DD00020FEF754
:101840002EFD206820B1FEF7C2FD0020FEF727FD27
:101850002846FFF7BEFF0020FEF77DFD002835D0AB
:101860006068FFF781FF9D48E36853B1A1694FF4B9
:10187000407C4A420CEB820203EB810114F002FB34
:101880001DE0974D4FF4407114F001FB002001233F
:101890002956002910DB0A09120202EB800202F12C
:1018A000405202F540420907C90ED2F800C003FABF
:1018B00001F14CEA01011160401C2628E8D3894857
:1018C000616959B14FF4007214F0DCFA0120FEF79F
:1018D00042FDDFF8F0817C4F48B904E04FF400711D
:1018E00014F0D5FAF2E71120FEF735FD70B1A568C6
:1018F00065B140464FF49872294614F0C3FA384651
:101900004FF4987205F5987114F0BCFA0220FEF7B6
:1019100022FD18B91220FEF71EFD68B124695CB1E2
:1019200071484FF49872214614F0ACFA6F484FF4A6
:10193000987204F5987100E001E014F0A3FA604891
:101940000671867046704662417900214171867148
:101950004FF4066001F013FBBDE8F0414FF4066060
:1019600001F0FEBA10B50020FEF799FC00F092FDE0
:101970005348C078002808BF10BD5648016821F0C0
:10198000030141F00D7141F080510160816821F047
:10199000020141F00D7141F08051816010BD4FF4A2
:1019A000066001F0E2BA10B54FF4066001F0DDFA0E
:1019B000FEF78DFC01280AD10020FEF770FC2121E2
:1019C0000020FEF78AFC21210120FEF786FC484812
:1019D000D0F8401321F48031C0F840130020FEF706
:1019E0005EFC00F057FD3648C078002808BF10BDE7
:1019F0003848016821F0030141F00D7141F0805138
:101A00000160816821F0020141F00D7141F08051C7
:101A1000816010BD10B501F0ADFA10F0600018BF84
:101A2000012010BD2648C06970472548806970476D
:101A300072B623498A6922EA0000886162B670475B
:101A40001F480078002818BF0120704770B5FEF7C6
:101A50003EFC002818BF70BD0024194D2C71AC70DD
:101A60006C7021212046FEF738FC21210120FEF771
:101A700034FC2C70BDE870400120FEF710BC70B53E
:101A80000446FEF724FC002818BF70BD00210C4D51
:101A90002971A970697021210020FEF71EFC212107
:101AA0000120FEF71AFC022C3CBF0120FEF725FCAA
:101AB000012028702C62BDE87040FEF7F0BB0000EA
:101AC00008800010189D003018BD003000800030E4
:101AD00000A00030008000400200341200C000303E
:101AE0006083001000D00030489E003048BE0030B7
:101AF0000050004010B5FEF7EAFB002818BF10BDEB
:101B00000020FE4C2071A07060702121FEF7E5FBE3
:101B100021210120FEF7E1FB0120FEF7EEFB012071
:101B200020702062BDE81040FEF7B9BB0020FEF730
:101B3000B6BBF2490020887048700120FEF7AFBBA9
:101B4000EE4988627047ED48806A7047002818BFE8
:101B50000120EA49C8627047E848C06A002818BFF7
:101B600001207047002000F0D3BB012000F0D0BB63
:101B700010B5FFF73CFD0446FFF73DFDE048044289
:101B800008BF10BDDD48816941F0040181610E216B
:101B900001EAD43104F001020A43816962F31F4172
:101BA0008161D848016841F02001016010BD002822
:101BB00018BF0120D149C8707047D3487047D34837
:101BC0007047CE48006B7047CC48017A827A9142C8
:101BD00014BF406B806B7047C848806B70472DE91D
:101BE000F04FC94F4FF0000C8DB007F14C04E646A2
:101BF0004FF0FF3807F80C8004F80CE00CF1010CF2
:101C0000BCF1260FF6DB4FF0000C002807DD12F8C0
:101C10000C5007F80C500CF1010C6045F7DC002269
:101C20000126CDF804E06D46CDF800E0002816DD71
:101C300017F902C0BCF1000F0EDBBCF1260F0BD26E
:101C40004FEA5C190CF01F0C55F829A006FA0CFCA1
:101C50004AEA0C0C45F829C0521C8242E8DB0022FB
:101C600094460DF108094FEA521A02F01F0B55F87D
:101C70002AA006FA0BFB1AEA0B0F1ABF09F802C0DA
:101C80000CF1010C09F80280521C262AEBDB002221
:101C9000002810DD17F902C0BCF1000F08DBBCF111
:101CA000260F3ABF19F80CC004F802C004F80280ED
:101CB000521C8242EEDBDFF844A200220028CAF860
:101CC00030E009DD14F902C0944502D0CAF8304072
:101CD00002E0521C8242F5DBDFF834B20020ABF1A7
:101CE000720404F14C0704F8008007F800E00BF8D8
:101CF00000E0401C2628F6DB0020002904DD1A5CE9
:101D00002254401C8142FADC0020CDF804E0CDF8DA
:101D100000E0002912DD2256002A0CDB262A0AD216
:101D2000530902F01F0255F823C006FA02F24CEAEA
:101D3000020245F82320401C8842ECDB00200246CA
:101D4000430900F01F0C55F8233006FA0CFC13EA87
:101D50000C0F1ABF09F80020521C09F80080401C23
:101D60002628EDDB002000290BDD2256002A05DBAA
:101D7000262A3CBF19F802200BF80020401C88429C
:101D8000F3DB0020CAF838E0002909DD1BF9002048
:101D9000824202D0CAF838B002E0401C8842F5DB2B
:101DA00011F0010F18BF252015D0420900F01F03C4
:101DB00055F8222006FA03F31A420AD1420900F02C
:101DC0001F0055F8223006FA00F0184345F82200AB
:101DD00001E0401EE9D500200246430900F01F0C37
:101DE00055F8233006FA0CFC13EA0C0F1ABF09F859
:101DF0000020521C09F80080401C2628EDDB002042
:101E000000290ADD2256002A04DB262A3CBF19F8E5
:101E100002203A54401C8842F4DB0020CAF834E027
:101E20000029DCBF0DB0BDE8F08F3A56824204D0E5
:101E3000CAF834700DB0BDE8F08F401C8842F4DB66
:101E40000DB0BDE8F08F40F2DB114843314901EBA2
:101E5000800070473049C0EB001001EBC0007047B4
:101E6000DFF898C0012B8CF808008CF8091003D912
:101E7000401C20F0010011468CF80A008CF80B1071
:101E800000FB01F24FF6FF7101EA4202ACF81220AA
:101E900001EA4000ACF8140070471848C07A704757
:101EA0001648807A7047154A10735173704713486B
:101EB000407B70471148007B7047184A1070517082
:101EC00070471649085C70472DE9F047DFF82C9001
:101ED000044699F80500002804BF99F8010013F0A2
:101EE000DBFF99F80400002808BFBDE8F0874FF039
:101EF000000847464646454612E0000008800010AC
:101F000001000700488000106083001086830010E5
:101F1000F8830010D01301103C1B01101680001034
:101F2000D9F81C0010F0020F1CBFDFF80C8410F071
:101F3000040F05D0B9F81210FF4A21F001018F18E3
:101F400010F0010F18BFFD4E10F0200F18BFFC4D10
:101F5000D9F828002060FEF7E2FC10F0010F06D04F
:101F6000FEF76DFF022828BF99F8020000D200207A
:101F7000E760C4E90108C4E904650120BDE8F08711
:101F8000F048002101718171704770B50546FEF778
:101F9000C4F94C2100FB01F21446EB49284613F02A
:101FA00071FF224605F50060BDE87040E74913F077
:101FB00069BFF0B583B0FEF7B0F9044600210846CA
:101FC000FFF767F8009001210020FFF762F8002278
:101FD0000190002C2AD96E464FF0010C4FF6F07597
:101FE00002EB4200002100EB02104B0901F01F0739
:101FF00056F823300CFA07F73B4211D0CB079B0C65
:1020000003EB80034F0803EB870303F1405303F511
:1020100000431B889BB2AB4202D903B00020F0BD45
:10202000491C2629E1D3521CA242D9D303B0012076
:10203000F0BD70B50D460107C80E811E01EB4100D1
:1020400000EB0114C2484FF4987200EBC40128461B
:1020500013F018FFBF484FF4987200EBC40105F568
:102060009870BDE8704013F00DBF2DE9F04F00F0FF
:102070000F07780083B0A0F1020B0025E9464FF06E
:1020800001084FF6F07647EA051A5046FEF763F965
:10209000002843D05046FFF70EF808FA00F4022C4F
:1020A00088BF022400215046FEF7F3FF0090012173
:1020B0005046FEF7EEFF00210190002C2ED90BEBCD
:1020C0000500982200FB02FA01EB4102002002EB1E
:1020D000011C420900F01F0359F8222008FA03F3FB
:1020E0001A4215D000F001020AEB423202EB8C02D8
:1020F000430802EB830202F1405202F51042B2F8AB
:10210000182D92B2B24203D903B00020BDE8F08F7F
:10211000401C2628DDD3491CA142D5D36D1C022DBD
:10212000B1D303B00120BDE8F08F2DE9F0410026C6
:10213000844D00280C4640D000F00F01C0F303107E
:1021400001290EBF00210229BDE8F081022828BF25
:10215000BDE8F0810F18FEF7BAF85FEA00081CBF6F
:102160000020FEF79CF80023982007FB00FC03EBFF
:102170004300002200EB031702F001000CEB40309B
:10218000510800EB870000EB810000F1405000F5A2
:102190001040521CC0F8184D262AEDD35B1C022BB0
:1021A000E5D3B8F1000F08BFBDE8F081AE706E70E6
:1021B000BDE8F0410120FEF772B8FEF788F85FEA4B
:1021C00000081CBF0020FEF76AF8002303EB430061
:1021D000002200EB031CD007800C510800EB8C00A0
:1021E00000EB810707F1405707F50047521C3C60A0
:1021F000262AF0D35B1C312BE8D3B8F1000FD5D1E0
:10220000BDE8F08110B5FEF7F1FE4E49088210BD21
:102210004C4AC1B200F47F43128A914288BF1146F2
:102220004FF0640C01FB0CF1B1FBF2F11A0A02FB56
:102230000C1110F4803F12BF08B2484200B2704740
:1022400010B54FF44071444C444813F020FE002078
:1022500001232156002910DB0A09120202EB800239
:1022600002F1405202F540420907C90ED2F800C0FF
:1022700003FA01F14CEA01011160401C2628E8D361
:1022800010BD10B5344C4FF44071344813F0FFFDCD
:10229000002001232156002910DB0A09120202EB5B
:1022A000800202F1405202F540420907C90ED2F8FD
:1022B00000C003FA01F14CEA01011160401C26281C
:1022C000E8D341F67871204813F0E1FDBDE81040F5
:1022D00041F678711D4813F0DABD1A4810B5808BAD
:1022E00000F48170FFF775FA4FF440711B4813F04A
:1022F000CEFD41F61851144813F0C9FD41F61851AE
:10230000124813F0C4FDBDE810400020FEF79DBD4B
:1023100070B50C4C0546A06A401CA062207850B1F4
:10232000206A10B1206A401E2062206A002804BF83
:102330000020FDF7B4FF13E0D01301103C1B011087
:102340002C1C0110088000100080003000A000301C
:10235000189D003018BD00306083001000C00030B0
:1023600020212846FDF7B9FF616A00291CBF2846D5
:102370008847FEF7D1FA022815D10E48D0F8481345
:1023800011F0010F0FD0D0F8481341F00101C0F84F
:102390004813D0F8481321F00101C0F84813A06990
:1023A00040F00200A0610448016841F02001016092
:1023B00070BD000000500040488000102DE9F04141
:1023C0000027644D0126002808BF2E701FD0012869
:1023D0002F7018BF6F701AD0DFF87C81D8F800001A
:1023E0005E490843C8F8000029785D4C002914BFF5
:1023F00049F608305B48E06014BF5B484FF0BB70A3
:10240000A0605A48006830F0FF0206D101E06E700B
:10241000E2E7E26860F30302E26051B1A06840F0D5
:102420001800A060012000F073F8A06840F480500C
:10243000A060012000F06CF8687818B1E06840F006
:102440003000E060D4F8B00040F00100C4F8B00003
:10245000012000F05DF8E6674FF4E0602061C4F809
:1024600088702878002818BFC4F89460E06820F0CD
:102470003000E060A06820F48050A060D8F8000030
:1024800020F0040040F00D7040F08050C8F80000CB
:10249000BDE8F0813248C16821F03001C160816837
:1024A00021F4805181602C48016821F0040141F041
:1024B0000D7141F08051016070472748026827493B
:1024C00011430160234926480A783AB1826842F0F4
:1024D00018028260826842F480528260497819B1A1
:1024E000C16841F03001C160D0F8B01041F0010185
:1024F000C0F8B01070471E49C0F3080041EA002040
:1025000017490864704716494FF020400864704727
:1025100082B040F24C42009013E000BF00BF00BF09
:1025200000BF00BF00BF00BF00BF00BF00BF00BFB3
:1025300000BF00BF00BF00BF00BF0198411E019156
:10254000EBD20098411E009128BF0192F5D202B053
:1025500070470000448000100080004004003412E6
:102560000060004005F4010020009B00D0FE030045
:10257000130000A0424841498161891CC1614A1E83
:102580004263036823F0030343F00D7343F0805369
:102590000360436923F0010343F00D7343F080535C
:1025A000436103691A430261364A8260364AC26057
:1025B000C2681143C160354900200860704710B5FA
:1025C00001F035F931480468002C08BF30BFFAD05B
:1025D0000021016001F02FF9204610BD10B501F077
:1025E00026F92648294B2649421C1C682CB100209C
:1025F000186001F020F9204610BD72B648638A6168
:1026000020BF88614A6362B6BFF36F8FBFF34F8FFD
:10261000EBE71B48016821F0030141F00D7141F027
:10262000805101601A49816001691A4A11430161B0
:1026300030BF704772B6114911484163C91CC1616E
:10264000891E816162B670470D480168124A1143C4
:10265000016070470A48016821F0030141F00D71E3
:1026600041F080510160704772B6044904488161AD
:10267000891CC161491E416362B670470000341273
:10268000008000403C0034122800341248800010C2
:1026900008003412010034120300341270477047EE
:1026A0000022B2EBD10F26D20368B3F1FF3F04BF83
:1026B0004368B3F1FF3F17D18368B3F1FF3F04BF15
:1026C000C368B3F1FF3F0FD10369B3F1FF3F04BF0C
:1026D0004369B3F1FF3F07D18369B3F1FF3F04BF03
:1026E000C369B3F1FF3F01D0002070472030521C76
:1026F000B2EBD10FD8D30120704710B40023B3EB55
:10270000D20F30D2D0F800C00C68A44522D1D0F846
:1027100004C04C68A4451DD1D0F808C08C68A445FD
:1027200018D1D0F80CC0CC68A44513D1D0F810C093
:102730000C69A4450ED1D0F814C04C69A44509D148
:10274000D0F818C08C69A44504D1D0F81CC0CC695D
:10275000A44502D010BC00207047203020315B1C03
:10276000B3EBD20FCED310BC012070472DE9F0415E
:10277000054601F064F8002021264FF48257844674
:102780004FF4E0221660C5F800C0116841F0040162
:102790001160116811F0040FFBD1176080232C46E3
:1027A0000021D4F80080B8F1FF3F04BFD4F80480C2
:1027B000B8F1FF3F1DD1D4F80880B8F1FF3F04BF46
:1027C000D4F80C80B8F1FF3F13D1D4F81080B8F1E1
:1027D000FF3F04BFD4F81480B8F1FF3F09D1D4F80B
:1027E0001880B8F1FF3F04BFD4F81C80B8F1FF3F58
:1027F00008D0C2F800C0401CC0B20828C2D30220D2
:10280000BDE8F081491C2034B1EBD30FC9D3C2F825
:1028100000C00120BDE8F0812DE9F041054601F03E
:102820000EF80020092684464FF4E0231E60C5F808
:1028300000C0196841F004011960196811F0040F13
:10284000FBD12C464FF4806200212768B7F1FF3F8F
:1028500004BF6768B7F1FF3F17D1A768B7F1FF3F23
:1028600004BFE768B7F1FF3F0FD12769B7F1FF3F1A
:1028700004BF6769B7F1FF3F07D1A769B7F1FF3F11
:1028800004BFE769B7F1FF3F08D0C3F800C0401CA0
:10289000C0B20328CAD30220BDE8F081491C20340D
:1028A000B1EBD20FD1D3C3F800C00120BDE8F08155
:1028B0002DE9F05F8846814604274FF07F0A4FF0EC
:1028C000020B4FF4E02600F0BAFF49464246534659
:1028D0004FF0060CC6F800B052F8040B41F8040B98
:1028E000C6F800C0306810F0040FFBD15B1EF1D2B7
:1028F000002030604C4645461F20D4E900C3D4E98F
:102900000221D5F800E0E64504BFD5F804C09C4597
:1029100005D1AB68934204BFEA688A4208D07F1EA3
:1029200003D34846FFF722FFCDE70220BDE8F09F22
:1029300010341035401EE0D20120BDE8F09F70B584
:102940000D46044600F07BFF4FF4007221462846F6
:1029500013F098FA012070BD2DE9F0410546C0053D
:10296000ADF5007D14460E46C00D25D0A8466FF388
:1029700008086F4600F063FF4FF400724146384686
:1029800013F080FAC5F30800C0F50077A74288BFAE
:10299000274668443A46314613F083FA4046FFF72B
:1029A000E5FE022844D069464046FFF781FF022831
:1029B00043D03D443E44E41BB4F5007F19D34FF4AB
:1029C00000723146684613F06CFA2846FFF7CEFED7
:1029D00002282DD069462846FFF76AFF02282CD02E
:1029E000A4F5007405F5007506F50076B4F5007FD2
:1029F000E5D2C4B16F4600F022FF4FF400722946C1
:102A0000384613F03FFA22463146684613F049FA39
:102A10002846FFF7ABFE02280AD069462846FFF792
:102A200047FF022809D00DF5007D0120BDE8F081A7
:102A30000DF5007D0A20BDE8F0810DF5007D0B202D
:102A4000BDE8F0812E490860086100F010B82C49FB
:102A50000860486100F00BB8294948677047284969
:102A600088677047264801210166016570474FF06D
:102A70004022116B10F0010F18BF21F4404110F0FB
:102A8000020F1CBF21F4405141F4805110F0040F9B
:102A900018BF21F4406110F0080F18BF41F44071D5
:102AA00010F0100F18BF41F0C00110F0200F18BF38
:102AB00041F0300110F0400F18BF41F00C0110F050
:102AC000800F18BF41F0030141F4BE0141F02041E5
:102AD0001163D2F8901010F4807F1CBF21F0030125
:102AE00041F0020110F4007F1CBF21F00C0040F007
:102AF000080141F4BE0040F02040C2F89000704749
:102B0000001000407047D0488268D0490A43826074
:102B1000C2681143C1604169CD4A114341617047A8
:102B2000C948416921F0010141F00D7141F0805126
:102B30004161C16821F0400141F00D7141F08051C7
:102B4000C160816821F0400141F00D7141F0805178
:102B50008160704710B5BC4CA168BC480143A160BE
:102B6000E1680843E0606069B94908436061B948B9
:102B700043F63F71C160002181638164C0F8B010E9
:102B800003210A2000F0A5F90A2000F0C5F96069C8
:102B900020F0010040F00D7040F080506061E0686E
:102BA00020F0400040F00D7040F08050E060A068E0
:102BB00020F0400040F00D7040F08050A06010BD4B
:102BC000A44A10605160484390607047A14A106069
:102BD0005160484310F0010F18BF401C90607047CF
:102BE0009C49C1F8B00070479A49002818BF0120DD
:102BF0008864704797498863C86840F00200C860DD
:102C00007047DFF850C2CCF82000CCF82410CCF884
:102C10002820CCF82C300120CCF83000DCF834002F
:102C200010F0010F05D020BFDCF8340010F0010FC8
:102C3000F9D110F0020018BF4FF0FF3070478548FF
:102C4000C16821F00201C16070478248C16841F04B
:102C50000101C16070477F4B186259629A6201207E
:102C60001864586C10F0010F04D020BF586C10F09D
:102C7000010FFAD110F0060018BF4FF0FF30704777
:102C80007448C16821F00101C16070477148C16892
:102C900041F00401C1607047027C017B02F03F02F9
:102CA00041EA02416B4A9165016851624168916253
:102CB0008168D16201211165516D11F0010F04D0BD
:102CC00020BF516D11F0010FFAD1D36D8382D36D06
:102CD0001B0CC382136E0383136E1B0C4383536E52
:102CE0008383526EC2F30E42C28311F0020018BFFA
:102CF0004FF0FF3070475748C16821F00401C160B0
:102D000070475448C16841F00801C1607047DFF85E
:102D100044C1CCF87820CCF82000CCF82430CCF892
:102D200028100120CCF87000DCF8740010F0010FBE
:102D300005D020BFDCF8740010F0010FF9D110F0BD
:102D4000060018BF4FF0FF3070474248C16821F0BD
:102D50000801C160704701684FEA31423D49C1F83E
:102D60009C204068C1F8A000C86840F02000C860FE
:102D7000704701684FEA31423649C1F89C2080888B
:102D8000C1F8A000C86840F02000C8607047314B0F
:102D900018625A6299620120C3F89400D3F898002F
:102DA00010F0010F05D020BFD3F8980010F0010FEC
:102DB000F9D110F0060018BF4FF0FF307047254AD8
:102DC000106251620120C2F89000D2F8980010F011
:102DD000010F05D020BFD2F8980010F0010FF9D1F3
:102DE00010F0060018BF4FF0FF3070471948C16857
:102DF00021F02001C16070471648C16841F0100100
:102E0000C1607047A3F1050C124BC3F888C018626B
:102E10005A6299620120C3F88000D3F8840010F050
:102E2000010F05D020BFD3F8840010F0010FF9D1B5
:102E300010F0060018BF4FF0FF3070470548C1681A
:102E400021F01001C1607047008000404000341242
:102E500001003412009000401B4810B5022140F8D8
:102E6000501F012101611021416241F206014161BF
:102E7000002181610421816390214163416B41F014
:102E8000010141634FF4817101610161032000F090
:102E900043F80021032000F01CF8002010BD10B5FD
:102EA000032000F045F808484FF4807101660021C6
:102EB00001661021816702214165002010BD034990
:102EC0000020087070470000003000404C80001067
:102ED000704700F00303DA004FF0FF0C0CFA02F227
:102EE0004FF0050C0CEBC30301FA03F300F00C01E7
:102EF00001F1E021002807DAD1F8140D90431A40BF
:102F00001043C1F8140D7047D1F8000490431A40E3
:102F10001043C1F80004704700F01F01012202FABB
:102F200001F14009800000F1E020C0F80011704775
:102F300000F01F01012202FA01F14009800000F1B6
:102F4000E020C0F88011704700F01F01012202FA52
:102F500001F14009800000F1E020C0F880127047C4
:102F60004FF0E021C1F8000170474FF0E021C1F8B7
:102F7000800170474FF0E020D0F8000170474FF01B
:102F8000E021C1F880027047084800687047074A8E
:102F90001168106008467047044A126800F1100377
:102FA00052F8230042F823107047000008ED00E0BB
:102FB00002210C20FFF78DBFB8488268B8490A4348
:102FC0008260C2681143C1607047B448816821F4CF
:102FD000805141F00D7141F080518160C16821F450
:102FE000805141F00D7141F08051C1607047AD4892
:102FF00081B0016F11F4007FFBD1816E11F0010FE0
:103000001CBFD0F88410009104D0D0F88410009A2E
:103010009142FAD0016F11F4007F04BF4CF27101AC
:10302000016642F24131816601B070479D4981B02D
:103030004FF40D528A660A6FCA66012898BF0120B4
:1030400005D9401EB0F5803F28BF4FF6FF7082B211
:103050004FF05C5040EA022048664FF01140C1F842
:103060008000086F10F4007FFBD1886E10F0010F14
:103070001CBFD1F88400009004D0D1F88400009ADD
:103080009042FAD0086F10F4007F04BF4CF2710038
:10309000086642F24130886601B07047814881B0CD
:1030A000016F11F4007FFBD1816E11F0010F1CBF85
:1030B000D0F88410009104D0D0F88410009A914286
:1030C000FAD04FF40D51816601B0704773488068A3
:1030D00010F4805008BF70477248806E00F0010005
:1030E00070477048406EC0F30F2070476D48D0F8AD
:1030F0008400704710B50C20FFF726FF0C20FFF767
:103100000BFF68490220486710BD664910B50320CF
:1031100088670C20FFF70CFFBDE810400C20FFF77C
:1031200013BF614A11681060084670475D4810B5CA
:10313000016FC1665C480068002818BF80475B4883
:10314000016841F48051016010BD574840687047E4
:10315000524810B5826852490A438260C2681143DE
:10316000C1605049032088670C20FFF7E1FE0C2066
:10317000FFF7EAFE00F05CF94D4B0420C3F888002D
:103180004FF6FF70C3F88C0072B66033FFF74EFF46
:103190004FF40070186062B610BDF8B572B64148C1
:1031A000016F11F4007FFBD1816E11F0010F1CBF84
:1031B000D0F88410009104D0D0F88410009A914285
:1031C000FAD04FF40D51816639494FF400320A6646
:1031D00062B6D1F80412314D002946D0324C4FF678
:1031E000FF73591AA160AA69D5F81CC002F00F023A
:1031F0000CF00F0C6244121D01FA02F2A2F54341D9
:10320000DFF8B0C0513961452FD2D0F88400191AC7
:10321000E160B1F5803F28D2274B4FF0000CA1FBB5
:1032200003070CFB037301FB0C31634612F03EFEF7
:10323000401C40082061B0F57A7F38BF4FF47A70A7
:103240001E4B9968002908BF98605A681A609968EF
:10325000C3E901108A421BD9824205D9814201D9B2
:10326000616002E0606000E0626000F0EDF8A86874
:1032700020F4805040F00D7040F08050A860E86865
:1032800020F4805040F00D7040F08050E860F8BDB0
:103290008242E9D88142E5D8E2E7000000800040A0
:1032A0000010341200C00040508000104880001010
:1032B00000A000404F62250000E1F50520840010C9
:1032C0000F4881680F4A114381600F48016841F43B
:1032D00004710160001F016841F004010160016890
:1032E00041F0100101607047084908607047BFF362
:1032F0004F8F084906480860BFF34F8FFEE7000074
:10330000008000400400341214ED00E008ED00E0FD
:103310000400FA050CED00E015488168154A1143D8
:1033200081601003416941F001014161016A21F0AE
:103330000F0211490A430262104B8A1EC3F8C420CF
:10334000016570474FF04020006900F07000704741
:103350004FF040200A4940F8301F0A4941600A49AD
:1033600001660A49416670474FF040204068704747
:10337000008000400400341203005FA000600040A1
:10338000C0845FA090995FA00A005FA000005FA0CA
:10339000022824BF00207047DE4B53F8202043F85A
:1033A00020101046704770B5DB4C206FD94D10F0DF
:1033B000010F05D00120E0662868002818BF80476B
:1033C000206F10F0020F08BF70BD0220E066686831
:1033D000002808BF70BDBDE870400047CF4810B559
:1033E0008268CF490A438260C2681143C160CA49FA
:1033F00002220A6501230B660323CB664A658168B6
:1034000021F0800141F00D7141F080518160C1686F
:1034100021F0800141F00D7141F08051C16009201F
:10342000FFF77AFD0221BDE810400920FFF751BDEA
:10343000BA488268BA490A438260C2681143C160CF
:10344000B549022008657047B34902204865B34872
:10345000816821F0800141F00D7141F0805181605F
:10346000C16821F0800141F00D7141F08051C160CF
:103470007047AA488068C0F3C0107047A648016F23
:1034800011F4007F14BF4FF440714FF48071016656
:10349000704710B5A04CE06F10F0020F4FF0010024
:1034A00018BF0320606700F066F99C498A69C96902
:1034B00002F00F02D04001F00F01C8400521B0FB1F
:1034C000F1F04FF405710009C4F880109549A1FB93
:1034D00000104009C4F88400206F10F4007F14BF6E
:1034E0004FF440704FF48070206610BD8A48016F21
:1034F00011F4807F14BF4FF440714FF400710166E6
:103500007047854B30B4DA6F12F0010F14BF0322FD
:1035100002225A6700EB4005C5EBC010C1EBC000AA
:103520004FF4FA744C43C0EB001000EB40007E49AE
:1035300004EBC000A1FB0010784900224FF0020C00
:103540008C69C008C96904F00F0401F00F0121441F
:10355000C8400521B0FBF1F0B0F5803F05D3511C08
:103560004008CAB2B0F5803FF9D242EA0C2141F0DE
:103570001001C3F88810C3F88C00186F10F4807F16
:1035800014BF4FF440704FF40070186630BC7047A1
:103590006148016F11F4003F14BF4FF440314FF404
:1035A0008031016670475C48016F11F4803F14BFA1
:1035B0004FF440314FF40031016670475648006FB8
:1035C000C0F3002070475448006FC0F3402070479C
:1035D00052498968C1F3C011002904BF0020704717
:1035E0004D4900280CBFD1F80002D1F80402704701
:1035F0004A4B9A68C2F3C012002A04BF00207047E9
:10360000454A00280CBFD2F88000D2F88800C0F3E9
:103610000A200CBFD2F88020D2F8882002F00F02D6
:10362000D3F818C0DB690CF00F0C03F00F036344F0
:103630001A449140012202EB400048433949A1FB62
:10364000001000097047394901200870704770B4B4
:10365000324B322251439A69D3F81CC002F00F0258
:103660000CF00F0C6244121DD14008BF012104D0A0
:10367000B1F5803F28BF4FF6FF719A68C2F3C012C0
:10368000002A1CBF70BC7047D3F808C0244A4CEA1B
:10369000020CC3F808C0D3F80CC04CEA0202DA608E
:1036A0001D4A4FF0020CC2F850C04FF400341466AB
:1036B0000425C2F88850C2F88C101D4DD566C2F89A
:1036C00074C01C4902283CBF124E46F8201000214D
:1036D000164801704FF400711166017819B920BFC6
:1036E00001780029FBD014669567D566C2F854C0EE
:1036F000986820F0800040F00D7040F08050986095
:10370000D86820F0800040F00D7040F08050D86004
:1037100070BC70476880001000A00040008000402E
:10372000800034121F85EB51CDCCCCCC64800010CE
:1037300002000202F75500004FF0E02100208861EE
:1037400008611F494860704710B54FF0E024606180
:103750000020A0610221401EFFF7BBFB0720206173
:1037600010BD4FF0E0210020086170471448018827
:10377000491C018070471248806870472DE9F0416C
:103780000F4C002705462780A0684FF47A71B0FBE4
:10379000F1F04FF0E026401E7061B7610221C81EB3
:1037A000FFF797FB072030612188A942FCD33761DE
:1037B000BDE8F08103494843014988607047000033
:1037C0007080001040420F00704770B505464FF4FE
:1037D0000D500406A0660320E066264860664CF2A1
:1037E000710020662448C4F8800042F24630A0668A
:1037F00002210020FFF76DFB0020FFF78DFB002D5D
:1038000008BF70BDA06E42F241310843A06670BD92
:10381000012110B5880781674FF40D5181660020A2
:10382000FFF786FBBDE810400020FFF78DBB0120AD
:1038300081074867704701208107886770474CF20D
:1038400071008107086670470C4A116810600846CD
:1038500070470A4808B5006818B18047002818BFAB
:1038600008BD4CF2710188070166016FC166006FE7
:10387000009008BD075E5F3700AF2F917C8000107D
:1038800070B5FA4D00244FF4E4612C706C70EC704C
:10389000F74812F0FCFA4FF4E461F64812F0F7FA38
:1038A000AC606C714C21F44812F0F1FA4C21F348F1
:1038B00012F0EDFAAC717421F14812F0E8FA7421BB
:1038C000F04812F0E4FAEC602C71AC61EC612C620F
:1038D0006C6270BDE549002048707047E34840784D
:1038E0007047E2480079002818BF01207047DF4880
:1038F0004079002818BF01207047DC4880790028F3
:1039000018BF01207047D948C078002818BF01208F
:103910007047D648407800EB4001C1EB4010D849D1
:1039200001EB800070472DE9F041D04D0446D449A9
:103930006A78D54F02EB4200C0EB4210D34E01EB48
:1039400080033A783078214610444200184612F03D
:10395000A8FA6A78CB4902EB4200C0EB421001EBB7
:1039600080033A783078214610444200184612F01D
:1039700098FA0120A871BDE8F081BC48C068704782
:103980002DE9F0410746C2480478FFF7BCF8012151
:103990002046FFF715F9BF4E3B46A6F1200505F17D
:1039A0001801687806EBC00201EBC0000146FFF782
:1039B00028F9FFF7B5F86878620006EBC0003946D1
:1039C00012F06FFA01202871BDE8F08170B504464D
:1039D000B148AF4EA0F11805697800EBC10330780B
:1039E00021464200184612F05CFA697805F1200081
:1039F00000EBC103307821464200184612F051FA1C
:103A00000120287170BD2DE9F041984E07463078AD
:103A1000002814BFA148A248047814BFA148A248B6
:103A2000057804FB05F8FFF76EF829462046FFF7F6
:103A3000C7F870788F4CC0EBC001C1EB80108C4987
:103A400004EB401201EB40103B460146FFF7D9F86A
:103A5000FFF766F870784FEA4802C0EBC001C1EB8F
:103A6000801004EB4010394612F01BFA0120F07070
:103A7000BDE8F08170B57D4C054660782278C0EBDA
:103A8000C001C1EB80107A4901EB4010294600F0DB
:103A900038FF60782278C0EBC001C1EB8010754917
:103AA00001EB4010294600F02CFF0120E07070BDB2
:103AB0006E488068704770B57C4C05460146227898
:103AC0006D48520012F0EDF92278294652006B48F9
:103AD00012F0E7F965490120487170BD2DE9F04FFA
:103AE000ADF2647DDFF884A10120CDF850079AF88B
:103AF0000300CDF84C079AF80500CDF848079AF86E
:103B00000600CDF8440701F057F90446FDF7B4FD6F
:103B1000CDF85C07FDF794FFCDF85807FDF79FF946
:103B2000CDF85407FCF7FBFE0646FCF7F5FE07460A
:103B3000FDF7A4FD9AF8020000254FF01E080028AA
:103B400004BF0420CAF8140007D0022C18BF0A20B2
:103B50000CD0CAF814008AF80250FDF747F9083073
:103B600000094FF00109022F0AD01CE00FF06BFA98
:103B700010F4817F14BF0F20CAF81480E9D1EAE75E
:103B8000022C05D0052C08BFCAF8148009D00AE021
:103B90004FF47A7141434FF47A7091FBF0F0CAF818
:103BA00014008AF80290DAF814000428BCBF04203C
:103BB000CAF814009AF80200BAF81410000240EA99
:103BC000014040F001020023912107200AF05EF835
:103BD00016F0010F05D0FDF739FF0020CDF8500792
:103BE00004E00020FDF731F9FDF784FF2E464FF089
:103BF000000B05F0ADF901281CD00DF5E460FEF7CF
:103C000063F9002800F036820DF5E46006F0E2F872
:103C100000208AF80100DAF81400C01E8542CABFED
:103C2000864201240024DDF82C07F0B1DDF84807B6
:103C300020B156E04FF0010B00F006BA6846DDF8FF
:103C40002C1712F038F9804694B3184F4146387853
:103C50004200094812F025F93878414642000748E9
:103C600012F01FF98AF805903BE03AE080800010DE
:103C7000A41C01102C8400108C990010D8990010FD
:103C8000C4230110249A0010C8800010C9800010BD
:103C9000CA800010A080001098800010C68000101C
:103CA000C3800010C7800010C4800010CB800010BB
:103CB000FFE7FEF728FFFF4F01213878FEF780FF6E
:103CC000FD4A4346A2F14C010846FEF79AFFFEF773
:103CD00027FF387841464200F74812F0E2F88AF8A8
:103CE0000590DDF82807002800F00281DDF84C0778
:103CF000002840F0FD809AF80000DDF82877E0BB4E
:103D0000DAF80880B8F1000F24D0EC480078CDF83C
:103D10004007EB480078CDF83C07FEF7F4FEDDF8ED
:103D20003C17DDF84007FEF751FF3946424608468A
:103D3000FEF791FFFEF7F4FEE2480078022804BF88
:103D4000404605F0B5FCDF480078092804BF384636
:103D500005F0AEFCDC480078012816D9DFF8648352
:103D600098F80000042804BF384605F0A1FC394645
:103D7000684612F0A5F8074600E006E098F8000053
:103D8000052804BF384605F093FC384612F09DF82C
:103D90008046E4B19AF801009AF80020C0EBC00117
:103DA000C1EB8011C94800EB4110414600F0A9FD6C
:103DB0009AF801009AF80020C0EBC001C1EB801115
:103DC000C34800EB4110414600F09BFD3DE09AF8EE
:103DD0000000002814BFB948BE480078CDF840075D
:103DE00014BFB748BC480078DDF84017CDF83C0751
:103DF00001FB00F0CDF86007FEF785FEDDF83C170B
:103E0000DDF84007FEF7DCFE9AF801004346C0EB00
:103E1000C001C1EB8010AE4901EB4012AB4901EB90
:103E200040110846FEF7EDFEFEF77AFEDDF860076A
:103E300042009AF80100C0EBC001C1EB8011A44818
:103E400000EB4110414612F02CF89E488AF803908E
:103E50000078032804BF404605F02AFC384612F0DB
:103E600039F80746D4B1DFF878829C489AF80110F7
:103E700098F8002000EBC1005200394612F011F80A
:103E800098489AF8011098F8002000EBC100520001
:103E9000394612F006F88AF8049022E0904890F82B
:103EA0000080FEF730FE01214046FEF789FE8D4975
:103EB0009AF801003B4601EBC002083901EBC00152
:103EC0000846FEF79EFEFEF72BFE86489AF8011084
:103ED0004FEA480200EBC100394611F0E2FF8AF8D0
:103EE000049081480078032804BF384605F0B8FEE6
:103EF000DDF8300700287DD0DDF84407002879D1AF
:103F00009AF80000DDF8307748BBDAF80C80B8F199
:103F1000000F24D075487649007809780844401C81
:103F20004008019002200090FEF7EDFDDDE9001051
:103F3000FEF74CFE394642460846FEF78CFEFEF779
:103F4000EFFD6C480078022804BF404605F071FD83
:103F500068480078092804BF384605F06AFD44B374
:103F60009AF80100614C00EB4001C1EB401062493E
:103F7000DFF87C8101EB8003227898F80000394655
:103F800010444200184611F08CFF9AF80100227884
:103F900000EB4001C1EB4010584998F8003001EBAC
:103FA00080001A443946520011F07BFF8AF80690CF
:103FB0002EE04E48B84601784D4800780C18FEF7C0
:103FC000A2FD601C40080221FEF7FAFD9AF80100EC
:103FD0004A4F00EB4001C1EB4010474907EB80021C
:103FE00001EB800108464346FEF70BFEFEF798FD05
:103FF000620000E01BE09AF8010000EB4001C1EB19
:10400000401007EB8000414611F04BFF8AF8069004
:104010003848007803280AD19AF8010000EB4001E3
:10402000C1EB4010344901EB800005F002FDFDF7C3
:10403000A7FFDAF814006D1C761C8542A8BF8642E3
:1040400011DBDAF8100070B1FDF718FBDDF854074A
:10405000FCF7FBFEDDF85C0788B1DDF8580760B1BE
:10406000FDF748FD0BE0DDF85007002818BFFDF70D
:1040700041FDBEE500F0EDFEBBE5FDF7E7FCBBF161
:10408000000F04BF0420CAF814000BD0DDF84C0761
:104090008AF80300DDF848078AF80500DDF84407D0
:1040A0008AF80600BAF814104FEA0B2040EA0142E1
:1040B000002325E0CB800010D8990010C6800010A6
:1040C000C78000103D810010C5800010A41C0110A5
:1040D0002C840010C3800010C48000109880001051
:1040E000CA800010A080001047810010C880001016
:1040F000C980001042810010C4230110249A0010CE
:104100009121072009F0C2FD0DF2647D5846BDE8FB
:10411000F08F10B50024FDF785FCFB4910F0020F6D
:104120000AD0CA78002A08BF012410F0040F03D077
:104130004A79002A08BF012410F0010F03D08879C2
:10414000002808BF01240020002C08BF10BD00205B
:104150000870BDE81040C1E408B50F2100F088FFE9
:10416000012804D1FFF7D5FF009001F0C5F8E6481B
:10417000C17800291CBF8179002906D04179002926
:104180001FBF00790028012008BD002008BDE3E71B
:104190007047DD490020C870487188710AF03CBC46
:1041A000002818BF0120D849C8717047D648C07987
:1041B000704710B54FF4E461D44811F068FEBDE8D3
:1041C00010404FF4E461D24811F061BECE4840780F
:1041D000C0EBC001C1EB8010CC4901EB401070472F
:1041E000CC487047CC480178CC480078484341001F
:1041F000C84811F04CBE70B50646C7480478C74899
:104200000578FEF780FC29462046FEF7DFFCBE4815
:104210004078C0EBC001C1EB8010BC4901EB4012FB
:104220003146BC48FEF717FDFEF77AFCBC48007823
:10423000152818BF70BDB748BDE8704005F038BA02
:10424000002818BF0120B049C870704710B5AE4CA7
:10425000002804BFA06010BD01220146B14800F053
:1042600050FBB048A06010BDAF48A0F118014978DC
:1042700000EBC100704710B54C21AC4811F007FEAF
:10428000BDE810404C21AA4811F001BEA748704774
:10429000002818BF01209C494871704710B574214F
:1042A000A44811F0F4FDBDE810407421A24811F0BB
:1042B000EEBD002818BF012093498871704710B5E2
:1042C000914C002804BFE06010BD742201469B4859
:1042D00011F0E7FD9948E06010BD70B58A4C0021EF
:1042E0000546E1706171A1710AF096FB002D14BFC3
:1042F000012000202070BDE87040FFF7EFBB2DE9E2
:10430000F04F8BB04FF4E461864811F0C0FD74218A
:104310008A4811F0BCFDFDF785FB0446FDF7ACF9BA
:104320000990FDF78DFB0890FCF799FD0790FDF7CC
:10433000A5F90020FCF789FDFDF7DCFB00252E46E2
:1043400004F006FE012856D06846FDF7BDFD0028A2
:104350005ED0684605F03EFD14F0020F1FD078488D
:10436000DFF8C0B1DDF8089001787648DA460078C9
:1043700001EB000874480778FEF7C5FB0120FEF743
:1043800033FC39464046FEF721FC52464946584622
:10439000FEF761FC0020FEF727FCFEF7C1FB14F0DE
:1043A000010F20D06948DFF894B14FF0020801787E
:1043B0006748DA46DDF8109000780844401C47084A
:1043C000FEF7A1FB0120FEF70FFC41463846FEF741
:1043D000FDFB524649465846FEF73DFC0020FEF7DD
:1043E00003FCFEF79DFBFDF7CBFD6D1C102D03D2EA
:1043F000FDF780FBA4E70126FDF740F90798FCF7DD
:1044000024FD099848B1089828B1FDF773FB04E032
:1044100000F01FFD94E7FDF719FB002E3FD13A4F46
:1044200014F0020F1ED04648DFF8F8C00178454866
:104430006346007801444448007801FB00F21020F4
:104440000021002A88BF80460AD933F9115005EBB4
:104450005005B5FBF8F52CF81150491C8A42F4D8E8
:104460003048B86014F0010F19D03848DFF8CCC0DC
:1044700001783748634600780A184FF010014FF072
:1044800000000AD033F9105005EB5105B5FBF1F4EB
:104490002CF81040401C8242F4D82848F8600BB039
:1044A0003046BDE8F08F012070474FF43F30704731
:1044B0004FF43F30006870474FF43F310A68B2F163
:1044C000FF3F15D0052804BFC87A70474FDC01288C
:1044D00004BF08797047022804BF087A7047032890
:1044E00004BF487A7047042804BF887A70474EE0BA
:1044F00005283AD02EDC012849D002281CBF032809
:10450000042832D043E0000080800010A41C011079
:104510002C8400104C8B0010C3800010C48000104D
:104520003D8100106C920010988000108C99001052
:10453000D8990010C4230110249A0010989A0010F2
:10454000C6800010CA800010C7800010C88000100C
:10455000C9800010142812BF15282D207047162876
:1045600004BF28207047172811D100207047142855
:1045700004BF087B7047152804BF487B7047162886
:1045800004BF887B7047172804BFC87B7047FF2093
:10459000704770B5ADF5007D00244FF4007168469A
:1045A00011F075FC4FF43F36FF224FF4007168465E
:1045B00011F095FCFF21254661F307052D222146C8
:1045C00062F3070162F30F2128224BF6BB3062F33E
:1045D000174164F31F61CDE90005CDE90241049460
:1045E0003046FEF7C3F869463046FEF761F90DF52F
:1045F000007D70BD2DE9F04F4FF43F34ADF5017DE6
:10460000834620688A9F984691468A46B0F1FF3FCC
:1046100008BFFFF7BEFFD4E901106AF3070069F392
:104620000F20256868F31740D4E903646BF3070192
:1046300067F31F608B460746FF224FF40071684600
:1046400011F04DFC0297CDE90364CDE9005B4FF416
:104650003F342046FEF78AF869462046FEF728F9DF
:10466000012818BF00200DF5017DBDE8F08F2DE970
:10467000F04F4FF43F3389461D680021ADF5017DB1
:1046800090468246B5F1FF3F02BF08460DF5017D19
:10469000BDE8F08FFF22D3E902744FF40071684641
:1046A000D3F810B05E6811F01AFC6AF3070469F3DE
:1046B0000F2468F31744012060F31F64CDE90274EE
:1046C000CDE900564FF43F34CDF810B02046FEF748
:1046D0004DF869462046FEF7EBF80DF5017DBDE883
:1046E000F08F2DE9F04F4FF43F30944E00250368D2
:1046F000ADF5017D74422F461720FFF7DDFE84469D
:104700001420FFF7D9FE40B2B3F1FF3F04D0BCF153
:10471000000F03D12D2801D0FFF73BFF1420FFF736
:10472000CBFE40B202901520FFF7C6FE4FFA80F98B
:104730001620FFF7C1FE40B201901620FFF7BCFE25
:10474000404240B20090FDF76DF9DFF8F4A18346D6
:1047500000208AF803008AF805008AF806000AF0AB
:104760005BF900208AF80000FFF7B8F91BF0010F91
:1047700004D011F0B9FB012808BF01251BF0020F7E
:104780007ED070489AF801104FF0000890F800C0F1
:104790006D48C1EBC102C2EB811100786B4A002861
:1047A00002EB4112C8BFACF1010A1EDD0021BAF1D3
:1047B000000F16DD01F1010B01FB00830BFB008BE9
:1047C00032F8133032F81BB0A3EB0B031BB2002BF3
:1047D000B8BF5B421BB2BB42C8BF1F46491C514514
:1047E000E8DB08F101088045E0DBB945B8BF45F0DA
:1047F00002054FF00008C146BCF1000FC8BFA0F190
:10480000010A1BDD0021BAF1000F13DD09FB0013C3
:1048100032F813B002EB43035B88ABEB03031BB22C
:10482000002BB8BF5B421BB24345C8BF9846491C2A
:104830005145EBDB09F10109E145E3DB0299414513
:10484000B8BF45F004054FF00009BCF1000F13DDBF
:10485000002300280CDD09FB003132F91110B142B0
:10486000C8BF0E46A142B8BF0C465B1C8342F2DBB8
:1048700009F10109E145EBDB0198B04204DB00E0FE
:1048800004E00098A04201DD45F00805604208F010
:10489000FF0B4FF43F3400F0FF08206807F0FF0AD9
:1048A00006F0FF09B0F1FF3F08BFFFF772FED4E941
:1048B00001106BF307006AF30F20266869F31740B5
:1048C000D4E9037465F3070168F31F600D46804661
:1048D000FF224FF40071684611F001FBCDF808800B
:1048E000CDE90374CDE900654FF43F342046FDF770
:1048F0003DFF69462046FDF7DBFF0DF5017DBDE874
:10490000F08F30B4DFF84CC00F4B114C9CF800C056
:104910001B78A04204D132B10F4B1B78634402E0F4
:10492000002A18BF6346002A14BF0C4A054A1278B1
:1049300030BC5A43520011F0B4BA0000F1D8FFFF66
:1049400080800010C4800010C3800010A41C0110DF
:104950006C920010C6800010CA800010C780001042
:10496000FF4920F07E4008617047FD4800697047AC
:10497000FB4840897047FA4880897047084318BF50
:104980007047F748006910F0807F1CBF002010704E
:1049900070472DE9FF5FF3480027DDF83CA005785C
:1049A0000E98119E8B46B9463C4650452CD006FBCE
:1049B000050E10983BF91EC006FB05093BF91900CE
:1049C000BCEB000148BFA0EB0C0106FB05A83BF9BE
:1049D0001840B4EB000C48BFA0EB040C01EB0C003A
:1049E00004B232F91EC032F91900BCEB000148BF15
:1049F000A0EB0C0132F918C0BCEB000248BFA0EBE1
:104A00000C0288180FFA80F9012B37D04FF00108FB
:104A100011F06FFAD449002C0A7807DD109906FBD3
:104A200005113BF911101431282909D80099B1F961
:104A300014103C2904DC0099B1F916103C2926DD3C
:104A40000E9902EB0A0C11448C4520D9129B139D40
:104A500013442A448B421CBF8D1A15F1020F30F902
:104A6000115000EB4106B6F90260A5EB060508D02F
:104A70001E353C2D08D94FF0000808E0A1450CDD9B
:104A80000AE00A35142DF6D8491C8C45E2D8A14518
:104A900003DDB8F1000F00D0012704B03846BDE8AF
:104AA000F09FB24A0280428000218280C180018151
:104AB000534243818181C181018241828182C182CD
:104AC0000283C0F81A10C0F81E107047A44800787E
:104AD000002818BF0120704710B54FF4E461A448C6
:104AE00011F0D5F99E490020087010BD2DE9FF4F47
:104AF00087B09A46DDE916588B46044611F0FEF958
:104B0000074611F000FAFFF7AFFB09F096FF002609
:104B1000DFF84C9200287DD100F04EF9052879D0BD
:104B2000CDF814B0149804901598CDE900050A202A
:104B3000029090481E2590F800B08B4800780390B2
:104B4000B9F80A0018B999F8010001281CD109F038
:104B5000AFFFC8B90098012816D00498012803D1E6
:104B6000B9F80C00C8280FD809F053FF01280ED05F
:104B70000020BBF1000F16D90399059A014489B2B0
:104B800032F91110A9420ADD89F8086020E00520F9
:104B900002900198012814BF3C254125E8E7401CFC
:104BA00080B25845E8D3D9F8100010F4803F0FD0F8
:104BB00099F80800401CC0B289F8080002998842A0
:104BC00006D9012089F805004FF0FF3489F8086004
:104BD00009F01FFF01285DD1DDE91410002963DC15
:104BE000012861D0D9F8100010F4003F0ED099F8D8
:104BF0000700401CC0B289F807000A2806D9012026
:104C000089F805004FF0FF3489F807600A20029008
:104C1000584800E03EE0007801905348002590F8A5
:104C200000B01E20009011F073F90146019858441D
:104C3000421E5A4513DD01EB4B00B0F90230002B48
:104C4000BCBF31F91B00002803DAC01AA842C8BF54
:104C500005B20BF101001FFA80FB5A45EBDCD9F8D5
:104C6000100010F4002F15D000988542D8BF89F8A5
:104C700009600FDD99F80900401CC0B289F80900ED
:104C80000299884206D9012089F805004FF0FF34C7
:104C900089F80960B4F1FF3F09D0002C04BF99F8EE
:104CA0000300012826D041E089F80760AEE799F8B3
:104CB000050001283AD10998FFF79DFA89F80560A7
:104CC0004FF4E4612A4811F0E2F889F8006009988D
:104CD000002818BFFEF7CEFEBAF1000F1CBF5046E9
:104CE000FEF721FE17B3B8F1000F1FDC3846FEF7C0
:104CF00047FE1BE089F803604FF4E4611C4811F0A3
:104D0000C6F889F8006000F05DF80428099821D001
:104D1000002818BFFEF7AEFEBAF1000F1CBF5046C8
:104D2000FEF701FE17B1B8F1000FDFDD99F80600BC
:104D300001281CBF0BB0BDE8F08F89F80660002F7A
:104D400004BF0BB0BDE8F08F38460BB0BDE8F04FA4
:104D5000FEF73CBE002818BFFEF755FE0CE0000031
:104D6000A8800010C3800010C9800010F1D8FFFF98
:104D70000C9B0010C8800010BAF1000F1CBF5046F9
:104D800011F0CBF8002FD1D0B8F1000FAEDDCDE798
:104D900010B506F025FA06F0CEFA002010BD00008E
:104DA000FE4988707047FD4880787047FB49C8709D
:104DB0007047FA48C0787047F84800787047F7485D
:104DC00040787047F5480078022805D005281CBFB8
:104DD0000020704705F00DBB09F0FEBDEF490870DB
:104DE000704770B5ED4E04460D463078A04212D0A3
:104DF00002281AD0052814BF002005F0FAFA44EA68
:104E000005213278002341EA024141EA0062612132
:104E1000072008F03BFF7570072C28BF70BDDFE846
:104E200004F016070B13160F160009F0D5FDE6E780
:104E3000284600F06FFA0AE0284609F06EFE06E008
:104E4000284605F0CBFA02E0284608F0D7FF347078
:104E500070BDD34900200968B1F8641011F4807F57
:104E600008BF7047FDF7ABBBCD4900200968B1F81A
:104E7000641011F4807F08BF7047FDF7AFBBC849CD
:104E800000200968B1F8641011F4007F08BF704772
:104E900011F048B8C24900200968B1F8641011F453
:104EA000806F08BF704711F042B8BC4908790028EC
:104EB0001CBF401E0871704770B5BA49D1F8CC00CC
:104EC000B64C10F0030F0AD040F4BE0040F0204072
:104ED000C1F8C8002079002804BF01202071B24821
:104EE0008068AF4D10F0020F296807D14FF04020C5
:104EF000406910F0010F01D0207940B1B1F8641081
:104F0000002011F4807F18BFFDF768FB07E0B1F8BF
:104F10006410002011F4806F18BF11F008F8A34945
:104F2000084208BF70BD2968496E090C217170BD27
:104F300010B572B6FEF76CFCBDE81040FEF7D7B9AD
:104F400010B5012802D0022805D008E04FF4433004
:104F5000FDF70CFC03E04FF040219548086772B65E
:104F6000FEF756FCBDE81040FEF7C1B98B4900289A
:104F70004A7918BF01204871C0B2824208BF704709
:104F80000022002818BF012200230121022008F07E
:104F90007DBE82484079002818BF012070477F48B5
:104FA000807970472DE9F0417C4E00281CBF00201D
:104FB000B07104D1B079002818BFBDE8F0814FF07E
:104FC00040273D6B0120FDF742FD0420FDF73FFD2A
:104FD000784C0520E066FEF732FC40F2CF70216F7E
:104FE00011F0010F04D0B07940F00E00B07103E071
:104FF000011EA0F10100F2DCB07978B1FEF71FFCD0
:105000006D48216F11F0040F04D0B07940F0010019
:10501000B07103E0011EA0F10100F2DC45F4BE0016
:1050200040F020403863BDE8F0815C48406970473B
:105030005A480069704759480069002818BFC07A6B
:105040007047564988617047544880697047534992
:10505000C86170475148C06970475148026802F5FD
:10506000C073108A811C508A02F5A072FCF7B7BD8C
:105070002DE9F04FDFF8248197B08A46C8F8140074
:1050800005F0CFFFC8F8100000287DD0017888F81F
:105090000710457888F8085083780446481C88F83B
:1050A000093000F0FE0088F80A00E27888F80B204A
:1050B000207988F80C00607988F80D0094F828C0F1
:1050C00088F80EC0207888F80F0001EB0C00294604
:1050D000FCF7C6FE98F80D1098F80C00FCF7E3FEFC
:1050E0006946204605F0C6FF608AD8F818500028A7
:1050F0001CBF6843050B678BD8F81C60002F08BFE6
:105100004FF480574FF4805900201AF0040F18BF55
:105110004FF485701AF0080F18BF40F004001AF021
:10512000020F1CBF40F2012108431AF0010F18BF03
:1051300040F48460616A6FF30F0A08406FF30F0157
:1051400008434AEA000A00981090049811900898C1
:1051500012900020149001981390A07A169007984E
:10516000159010A95046FCF757FB1AF0020F77D0A4
:1051700005F0D9FA5FEA000B43D005F0EBFA68437B
:10518000050B5946002000E02EE0FBF77DFE218A4A
:1051900000291CBF0020FBF70BFF0FE0BC800010B4
:1051A00008820010006000400080004008000300FA
:1051B000AD2007B0001000403F0D030005F0EAFAF3
:1051C0007043000B4030C1090A20012202FA00F3AB
:1051D0000B4201D1401EF9D5461FA07B002818BF05
:1051E000A0F1010B17D112E048480068B0F8640044
:1051F00010F4807F18BFFDF7F1F9002017B0BDE86B
:10520000F08FB4F80CB0BBF1000FBAD1BFE70020AB
:10521000FBF751FF8346E07B002814BF401EFBF7DD
:105220008AFF0BEB0601052903DD711A4E1D0521CE
:1052300003E00029BCBF761A00210644052E03DDD9
:10524000701FC540052604E0002E02DA704285403A
:1052500000260020FBF756FF31460020FBF784FFB5
:105260001AF0010F23D0A18A00291CBF0120FBF7EF
:105270000BFE268B3EB131460120FBF799FE3146ED
:105280001120FBF795FEA67D3EB1711E0120FBF7B4
:1052900039FF711E1120FBF735FFE67D3EB1711E0F
:1052A0000120FBF761FF711E1120FBF75DFFE07A23
:1052B00000281CBF0001FBF718FD029805F00FFA4B
:1052C000039850B198F8070098F80E102B46014447
:1052D00098F80820039810F02FFE4A4639462846D1
:1052E00010F02FFE0598FEF7B1FF0998FEF7E7FFD3
:1052F00017B00120BDE8F08F10B5FCF754FB05F0A6
:10530000F6F9034900200861012010BD0882001051
:10531000BC800010F84908707047F7480078704763
:10532000F64810B4F64A0168914218D14168B1F5C7
:10533000987F14D80022D0F808C003461146B2EB7B
:105340009C0F24BF10BC704753F82140491C2244D5
:10535000B1EB9C0FF8D3002A04BF10BC70470020AB
:1053600010BC7047E44880687047E3498860704724
:10537000E248E34A0168914205D14168B1F5987F5E
:105380009CBF806B704700207047DC48FDF7EEB98A
:10539000D94901200870704770B50E4605461024A3
:1053A000FFF746FE15F0020F18BF052403D115F0D4
:1053B000010F18BF09243246102C28BF70BD002AE7
:1053C00008BF70BD204490F92C102046BDE8704005
:1053D00005F083BEF0B581B0ADF5805D0446FFF702
:1053E00027FE054614F0020F0AD068460427064639
:1053F000FCF7CBFD95F930103246384605F06DFECE
:1054000014F0010F02BF01B00DF5805DF0BD08265C
:1054100069460C460120FCF70CFE95F93410224633
:10542000304605F05AFE01B00DF5805DF0BD2DE966
:10543000F34F8BB0002005900868029048680390F5
:10544000087A0190487A0090887AB1F90C90B1F905
:105450000EA0CA690792D1E908840A8A4969C0F591
:10546000807602EA000706910B9810F0010F16D023
:1054700000984FF0000E002840F2F68001210698B7
:1054800001FA0EF2104018BF012004900EEB4E01FD
:10549000002001EB0E1183460A9100F0DCB80020D9
:1054A000FBF74BFF0546DDE900014843032101EB13
:1054B000400020F003024146204610F0F2FC28464E
:1054C000FBF73BFF00980025002840F2CD80012229
:1054D000069802FA05F1084018BF01200021049047
:1054E00005EB450000EB05108C4609904BE04A099E
:1054F00002A801F01F0350F8222001209840024228
:105500003ED038F9020B049AA0EB0A000CF1010C12
:10551000002A0CBFA9EB000409EB000401F0010212
:1055200007984FEA510B00EB4232099802EB8000DA
:10553000089050F82B20C2F30720D3B212F4803F1A
:1055400002D0002C02DB03E0002C01DD9C1B00E0FC
:105550009C19BC4205DDFF283ABF0024401C3C4694
:1055600006E0002C04DA0028C6BF3C46401E00249A
:1055700002F4803242EA0020089A204342F82B00CD
:10558000491C262902D201988445B0D300986D1C8D
:1055900085429CD368E0420902A900F01F0351F83C
:1055A0002220012199400A4252D034F9021B049A68
:1055B000A1EB0A010BF1010B002A0CBFA9EB0101C1
:1055C000494438F9022BA2EB0A0214BF4A44A9EB62
:1055D00002020029B4BF4B420B46002AB8BF524218
:1055E0009A4235D9079A00F0010302EB43330A9A35
:1055F00003EB82024308CDE9083252F82330C3F3AB
:10560000072203F0FF0C13F4803F02D0002902DBD5
:1056100004E0002902DD0CEB060501E0ACEB060519
:10562000BD4205DDFF2A3ABF0025521C3D4606E07B
:10563000002D04DA002AC6BF3D46521E002503F4A1
:10564000803141EA0221DDE90823294343F8221091
:10565000401C262802D201998B459CD300980EF15C
:10566000010E8645FFF40AAF0B98032826BF0120E0
:10567000059005980DB0BDE8F08F2DE9F04F8BB087
:10568000002204920A6800924A6801920B7A4D7ACD
:105690008E7A0396B1F90C40B1F90E200592D1E94A
:1056A00007C24E690696098A039EC0F1080801EAFE
:1056B000060700B3B8F1000F7EDB4FF0000A002DA3
:1056C0007BD9012000FA08FBA8F10100012101FAB1
:1056D00000F00A904FF00109069809FA0AF1084013
:1056E00018BF0120002102900AEB4A0000EB0A10CB
:1056F0000E460990ADE005E0E080001000FE0200DB
:10570000544352464FF0000A002D56D94FF001097C
:10571000069809FA0AF1084018BF012000210290FA
:105720000AEB4A0000EB0A100E46089048E04FEAE8
:10573000511901F01F0B5DF82990012000FA0BF0C0
:1057400019EA000F36D032F9029B0598761CA9EBB6
:105750000000DDF80890B9F1000F0CBFA4EB0009C0
:1057600004EB000901F001000CEB403B08980BEB47
:1057700080004FEA510B079050F82B0010F4803F47
:105780000AD0B9F1000F0FDA10F47F4018BFA0F56E
:10579000807040F4803007E0B9F1000F04DD10F4B0
:1057A0007F4018BFA0F5807040F08000DDF81C90AD
:1057B00049F82B00491C01E059E051E0262901D2AB
:1057C0009E42B4D30AF1010AAA459FD348E04FEAAA
:1057D000511901F01F0E5DF82990012000FA0EF01A
:1057E00019EA000F32D032F9029B0598761CA9EB1A
:1057F0000000DDF80890B9F1000F0CBFA4EB000920
:1058000004EB000901F001000CEB403E09980EEB9F
:1058100080004FEA510ECDE907E050F82E0010F459
:10582000803F03D0B9F1000F05DA02E0B9F1000FB3
:1058300001DD20EA0B00B8F1000FC4BFDDF82890AD
:1058400049EA0000DDE9079E4EF82900491C262997
:1058500001D29E42BBD30AF1010AAA45FFF43AAF36
:10586000B8F1000FC2BF04980BB0BDE8F08F00265E
:10587000002D35D90398C0F5807A40F4807E002051
:1058800006EB4601024601EB061B24E0440900F04A
:105890001F085DF82440012101FA08F10C4217D0DD
:1058A00000F001010CEB413101EB8B094FEA50088C
:1058B000521C59F82840E1B201EB5A0101EA0E01ED
:1058C000B94288BF394624F0FF04214349F8281023
:1058D000401C262801D29A42D8D3761CAE42CED3A1
:1058E000012004900BB0BDE8F08F2DE9F04F89B096
:1058F000002204920A6800924A6801920E7A4A7A5B
:105900000292D1E90772B1F90C30B1F90E50496930
:105910000591FE49C968A0EB010CCCF10808814251
:1059200045D845D102984FF0000900283FD9012100
:10593000059801FA09FC1CEA000018BF0120039039
:10594000002009EB4901844601EB091B28E04409CA
:1059500000F01F0A5DF82440012101FA0AF10C420F
:105960001BD032F9021B039C491B0CF1010C002CCB
:105970000CBF5C1A5C1800F0010107EB413101EB30
:105980008B0E4FEA500A002C5EF82A10C8BF41F473
:10599000803141F400414EF82A10401C262801D2E3
:1059A000B445D4D3029809F101098145BFD35CE025
:1059B000B8F1000F5EDB02984FF00009002854D9BF
:1059C00008F10800012101FA00FA401E01FA00F076
:1059D00008900124059804FA09F1084018BF012035
:1059E0000021039009EB490000EB09108C46079059
:1059F00034E04C0901F01F0B5DF82440012000FA4F
:105A00000BF0044227D032F9020B039C401B0CF12F
:105A1000010C002C0CBF1C1A1C1801F0010007EB34
:105A2000403B07980BEB80004FEA510B069050F873
:105A30002B0010F4803F02D0002C04DA01E0002C8F
:105A400001DD20EA0A00B8F1000FC4BF089C204322
:105A5000069C44F82B00491C262901D2B445C8D322
:105A6000029809F101098145B3D3B8F1000F04BFD1
:105A700001200490049809B0BDE8F08F2DE9F34FA0
:105A8000ADF5757D00208846E890E19072B6FBF791
:105A9000C9FF0746FDF7EDFC48B1FDF78FFDE89023
:105AA000FDF776FDFDF78FFDE190FDF77CFDFBF73F
:105AB000A8FEFBF7E1FDED90FBF7C2FFEC90FBF7D2
:105AC000DDFD0120FBF7D5FBF0901120FBF7D1FBAA
:105AD000F190FDF7FBFAEB90FDF7E0FA4FF49350ED
