:1000000000800060C1002000E3022000E502200023
:1000100000000000000000000000000000000000E0
:10002000000000000000000000000000E7022000C7
:100030000000000000000000E9022000EB022000A8
:10004000130A2000ED022000090B2000090B2000FC
:100050008D022000A302200091052000F904200059
:10006000090B2000090B2000090B2000090B2000C0
:10007000090B2000D90A20000B032000090B2000E7
:10008000090B2000090B2000090B2000090B2000A0
:10009000090B2000670A2000090B2000090B200033
:1000A000090B2000B10A2000890A2000090B20005A
:1000B000090B2000C9032000090B2000090B2000B8
:1000C00000F002F800F078F80CA030C808382418C6
:1000D0002D18A246671EAB4654465D46AC4201D180
:1000E00000F06AF87E460F3E0FCCB646012633423A
:1000F00000D0FB1AA246AB4633431847C0050100A7
:10010000E0050100103A02D378C878C1FAD8520746
:1001100001D330C830C101D504680C6070470000BD
:100120000023002400250026103A01D378C1FBD813
:10013000520700D330C100D50B60704710B5692954
:1001400002D10BF0F9FF10BD642902D10BF0F4FFCE
:1001500010BD752902D10BF0EFFF10BD6F2902D140
:100160000CF07EF810BD782902D10CF0A1F810BD7A
:100170000368DB0901D380231943632902D10CF002
:1001800031FB10BDE32902D10CF043FB10BD002070
:1001900010BD1FB5C046C0460CF091F90CF084FBB1
:1001A0000400002000210CF0EDFB401C60600CF00E
:1001B00065FA1FBD10B510BD03488546FFF7E9FF7E
:1001C00002F0A9FE0CF074FB0080006003B4FFF79E
:1001D000F1FF03BC0CF0B6FBEFF30980704780F32E
:1001E00009887047EFF30880704780F308887047EC
:1001F00040BA7047C0BA704700BF00BF00BF00BF21
:1002000000BF00BF00BF00BF05460E46024F0FCD26
:100210000FC6BD42FBD1F7461000036030B40C4955
:100220000C684A6823681068C0181060241D121DED
:100230008C4207D28A4208D20C604A6030BC40002F
:10024000400870470C00DC3CF6E70A00DC3AF3E7B4
:100250004403006070B505460C46164602E00FCC1C
:100260000FC5103E102EFAD2082E02D303CC03C5C0
:10027000083E042E07D301CC01C5361F03E02178C8
:100280002970641C6D1C761EF9D270BD10B572B653
:10029000E9A1F1480BF0DAFEEF480AF0EEFF62B692
:1002A00010BD10B572B6EDA1EB480BF0CFFEEA48D9
:1002B0000AF0E3FF62B610BD10B572B6EFA1E648D2
:1002C0000BF0C4FEE4480AF0D8FFF549C02088636B
:1002D00010BD016070470068704710B5FFF7F0FE71
:1002E00010BD7047704770477047704710B572B6C1
:1002F000EC480168491C0160EBA1D7480BF0A6FE51
:10030000D5480AF0BAFF62B610BD70B572B60120CA
:10031000E34C4003A063EF4EED4D3560E121002238
:100320004902ED480AF07BFFECA1CB480BF08EFEB2
:10033000C9480AF0A2FFF1A00AF09FFF0120E06285
:100340000020FF21F531401C8842FCD3FB48784453
:100350000AF093FFDF48803801684906FCD5002089
:10036000E062F74CA06A8028FCD1F44878442E3033
:100370000AF083FFA26AF3A1FE480BF067FEFD4876
:100380000AF07BFFED48784470300AF076FF256272
:10039000402030604004A060E8487844B8300AF05B
:1003A0006CFF62B670BD10B50520F34900070BF075
:1003B00006FD401C04D0F14878440AF05EFF10BDF1
:1003C000EE4878445238F8E7F8B572B60022E121D9
:1003D0004902C1480AF023FFB2484168491C416004
:1003E000E7A19D480BF032FE9B480AF046FFAC4C5B
:1003F0003020A063B74DE0022860ED4E3068EE4932
:100400008207EC4812D4F26882420FD072689206DA
:100410000CD47268520509D4F368E84A934205D0B7
:100420008A69002A02D17268520463D5F268824256
:1004300005D07068800602D4886901283BD9AFA036
:100440000AF01BFF0120E0620020FF21F531401C73
:100450008842FCD3DA4878440AF00FFF9D48803880
:1004600001684906FCD50020E062B54FB86A8028D3
:10047000FCD1D34878442E300AF0FFFEBA6AB1A10D
:10048000BC480BF0E3FDBB480AF0F7FECC487844CB
:1004900070300AF0F2FE8E48386240202860400436
:1004A000B860A648784452380AF0E7FEC5A00AF0C2
:1004B000E4FEFFF778FFF168C04881421AD120209E
:1004C000E0624820E062CCA00AF0D7FE00200121C3
:1004D0000903401C8842FCD34020E06297487844DE
:1004E0004C300AF0CAFE28684001FCD58020A06389
:1004F000C004286062B6F8BD70B572B60022E12172
:10050000490275480AF08BFEC8A153480BF09EFDC6
:1005100051480AF0B2FE07242407A269CDA19548EC
:100520000BF094FD93480AF0A8FE6269D5A19148AA
:100530000BF08CFD8F480AF0A0FE0020C043206223
:10054000644E802535609A48C0689C49544C884266
:1005500011D12020E062D7A00AF08FFEE5A00AF0BA
:100560008CFE4820E062A4A00AF087FE0020E10C87
:10057000401C8842FCD34020E062704878445238E6
:100580000AF07BFEA56301208006306062B670BD74
:10059000F8B572B60022E12149024F480AF03FFE49
:1005A000E4A12D480BF052FD2B480AF066FE3C4DAD
:1005B000474EAE634748EF170760614CE26AE7A118
:1005C0006C480BF043FD6B480AF057FEA26AEFA19E
:1005D00068480BF03BFD67480AF04FFE2762A26AAD
:1005E00056497944703963480BF030FD61480AF090
:1005F00044FE6F480168890710D4C1686D4A914272
:100600000CD04168890609D44168490506D4C168FF
:100610006A4A914202D0406840040BD537A00AF0E4
:100620002CFE0120E862E54878440AF026FE2948BD
:100630008038C5E1EBE10000200A20496E205458C3
:100640005F49525148616E646C65722E2E2E2E2EBB
:100650002E2E2E2E2E000000A2010060200A20491E
:100660006E2052585F49525148616E646C65722E1B
:100670002E2E2E2E2E2E2E2E2E000000200A204949
:100680006E204F4E5F4F46465F49525148616E643F
:100690006C65722E2E2E2E2E2E2E2E2E2E0000004B
:1006A0000000048000000060200A20496E202047DE
:1006B0004E53532054696D65722049525120486150
:1006C0006E646C65722E2E2E2E2E2E2E2E2E2E0049
:1006D000FFFF000080E200E080BA8C01200A204980
:1006E0006E20454954204952512048616E646C6522
:1006F000722E2E2E2E2E2E2E2E2E2E00200A20432F
:100700004D302B20726571756573742041502077D0
:10071000616B6575702076696120444255535F5363
:10072000575F57414B455F494E545F524551206ECC
:100730006F772E2E2E2E2E2E2E200000BEC60000ED
:1007400000005740200A204150206D61696C626FA3
:10075000782072656720494E5453523128307834DE
:100760003035375F3030323829203D203078253021
:10077000387800000C010060FF0F0050E8C700004F
:10078000200A202E2E2E2E2E2E2E2E496E20525432
:100790004320616C61726D31204952512048616E75
:1007A000646C65722E2E2E2E2E2E2E2E2E2E0000D6
:1007B00000300480CDAB0000000104803412000042
:1007C000B6C50000200A20434D302B2063686563C6
:1007D0006B204150204452414D2D344B2066726FA6
:1007E0006D2062617365203078353030305F303095
:1007F0003030202000000000200A20434D302B2004
:1008000077616B65207570204350205062757320AE
:100810006E6F772E2E2E2E2E2E2E2E2E2E2E2E2E2E
:100820002E2E2E2E2E2E2E2E2E200000200A204977
:100830006E204350206D61696C626F78204952517F
:100840002048616E646C65722E2E2E2E2E2E2E2E5A
:100850002E2E0000200A2043502F474E5353206D68
:1008600061696C626F7820494E544D535230283084
:1008700078373030303030313829203D20307825FD
:1008800030387800200A2043502F474E5353206DB4
:1008900061696C626F7820494E5453523028307829
:1008A000373030303030313429203D203078253019
:1008B00038780000200A20434D302B2067656E6594
:1008C0007261746520474E53533243505F53575FF4
:1008D000524553455420746F20435020636F6D6D13
:1008E0006F6E20626C6F636B2E2E2E2E2E2E2E2E90
:1008F00020000000200A20434D302B2061776169E1
:10090000742030786162636420736574206279209A
:10091000415020696E204953535228307834303585
:10092000375F30313763292E2E2E2E2E2E2E2E207D
:1009300000000000200A20496E204150206D6169AE
:100940006C626F78204952512048616E646C657208
:100950002E2E2E2E2E2E2E2E2E2E0000200A204140
:10096000502F474E5353206D61696C626F78204958
:100970004E544D5352312830783430353730303280
:100980006329203D2030782530387800200A204126
:10099000502F474E5353206D61696C626F78204928
:1009A0004E54535231283078343035373030323865
:1009B00029203D203078253038780000E4C300003D
:1009C0000168490600D434E60027EF62A06A802857
:1009D000FCD1F34878440AF050FCA26AF1A1FD482A
:1009E0000BF034FBFB480AF048FCED4878444430F7
:1009F0000AF043FC2662EF620120C005A060F648C1
:100A000040210160E648784486300AF036FC62B640
:100A1000F8BD10B572B6F14CF1A12068401C206001
:100A2000F8480BF013FBF7480AF027FCF6A1F5484D
:100A300022680BF00BFBF3480AF01FFCF848F7495B
:100A4000C1602268142A0CD3F64A42600022026078
:100A5000C1600268F4A1EB480BF0F8FAE9480AF02B
:100A60000CFC62B610BD10B572B60022E12149023D
:100A7000F4480AF0D4FBF4A1E2480BF0E7FAE148AD
:100A80000AF0FBFB62B610BD10B572B60022E12180
:100A90004902EC480AF0C3FBF3A1DA480BF0D6FA9E
:100AA000D8480AF0EAFBF8498020886362B610BD96
:100AB00010B5E12100224902E2480AF0B0FB72B60B
:100AC000F2A1D0480BF0C2FACE480AF0D6FBEE49AC
:100AD0004020886362B610BD10B5E12100224902B2
:100AE000D8480AF09CFB72B6BC480168491C0160FA
:100AF000EEA1C4480BF0AAFAC2480AF0BEFBF349C3
:100B00000120086062B610BD10B5E1210022490243
:100B1000CC480AF084FB72B6EDA1BA480BF096FA05
:100B2000B8480AF0AAFB62B610BDD74988682130E0
:100B30008A688242FCD37047D348EE498163A64A53
:100B4000C1171160092189028161816803221204A1
:100B500089180160C1684160816805221204891802
:100B60000161C1684161E44941631B21C90281619E
:100B7000704770B505460E4600242A46DFA1954809
:100B80000BF064FA93480AF078FBB608A00040190D
:100B900003684268E0A18F480BF058FA8D480AF0CC
:100BA0006CFBA41CA642F1D270BD7D4810B5784400
:100BB0008A300AF062FB7A48784438300AF05DFBEC
:100BC000D9A00AF05AFB10BD10B5D7A00AF055FB0A
:100BD000734878441E300AF050FB71487844A430C2
:100BE0000AF04BFB6E487844E2300AF046FB6C4852
:100BF00078440AF042FB10BD10B5FFF7E5FFCBA02B
:100C00000AF03BFB6648784416380AF036FBD148B8
:100C100078440AF032FBCF48784440300AF02DFB8C
:100C2000CC4878447E300AF028FBCA487844BC306F
:100C30000AF023FBC7487844FA300AF01EFBC64886
:100C400078440AF01AFBC448784440300AF015FB97
:100C5000C14878447E300AF010FBBF487844BC306D
:100C60000AF00BFBBDA00AF008FBBB487844F43047
:100C70000AF003FBC84878440AF0FFFAFFF795FF33
:100C800010BD10B580489B498163534AC11711605C
:100C90000921890281618168032292028918016019
:100CA000C168416081680522920289180161C168AA
:100CB000416191494163B949816172B646498039C0
:100CC0000A689200FCD503221202826301204007C9
:100CD00008600A68B04979440C393E480BF0B6F90F
:100CE0003C480AF0CAFA62B6ADA00AF0C6FA10BDD6
:100CF00010B5B4A00AF0C1FAC0A00AF0BEFACD49FE
:100D0000CD480BF05CF8401C02D1CCA00AF0B5FA3B
:100D1000D1A00AF0B2FAD84988070BF050F8401C6D
:100D200002D1D6A00AF0A9FAA6A00AF0A6FADAA083
:100D30000AF0A3FA09F004FDA2A00AF09EFAE2A0CC
:100D40000AF09BFA09F0A8FF9EA00AF096FAEAA022
:100D50000AF093FA0AF068F89AA00AF08EFA8E4820
:100D600078444E380AF089FAFFF78BFF10BD10B5B2
:100D7000FFF72AFF8848784414380AF07EFA86483C
:100D800078442A300AF079FA8348784464300AF0CB
:100D900074FA814878449E300AF06FFAC4E100008A
:100DA00084C00000200A204150206D61696C626F90
:100DB000782072656720494E545352312830783478
:100DC0003035375F3030323829203D2030782530BB
:100DD000387800000C01006080E200E00000006054
:100DE000200A20496E2050545F54494D45525F49B6
:100DF000525148616E646C65722E2E2E2E2E2E2E50
:100E00002E2E2E00A2010060200A2070745F636EF7
:100E100074203D202530386420000000FF020000CF
:100E200000000680FF030000200A2050544D4F446C
:100E30005F43544C5F52455120307825303878203C
:100E400020200A0080BA8C01200A20496E205752C7
:100E500054545F49525148616E646C65722E2E2E57
:100E60002E2E2E2E2E2E2E00200A20496E2050428D
:100E700055535F49525148616E646C65722E2E2E37
:100E80002E2E2E2E2E2E2E0000000480200A204909
:100E90006E20444255535F49525148616E646C65FF
:100EA000722E2E2E2E2E2E2E2E2E2E00200A204971
:100EB0006E20444D415F49525148616E646C6572C9
:100EC0002E2E2E2E2E2E2E2E2E2E000000020080D4
:100ED000200A20496E2044656661756C745F495232
:100EE0005148616E646C65722E2E2E2E2E2E2E2E83
:100EF0002E2E0000FFFF0000FC070000200A204DFE
:100F0000656D656F72792062617365203D20307870
:100F100025303878202000000A202530387820201D
:100F20002530387820200A000A0000000A2A2020F4
:100F3000204A6F736875612F4B65706C657220472E
:100F40004E5353207368656C6C2074657374202055
:100F500020202A0084C10000BCC200000A2A2061AF
:100F6000292052756E205339323520524620616E49
:100F700064204242205343472074657374732020D9
:100F80002020202020202020202020202020202061
:100F90002020202020202A00EEC30000031800009B
:100FA000200A202052544320616C61726D312074FC
:100FB0006573742E2E2E2E2E70617373656420203F
:100FC000200A00000A202D2D2D2D2D2D2D2D2D2D0B
:100FD0002D2D2D2D2D2D2D2D2D2D2D2D2D2D2D2D41
:100FE0002D2D2D2D2D2D2D2D2D2D2D2D2D2D2D2D31
:100FF0002D2D2D2D2D2D2D0A000000000A206368B7
:1010000065636B696E6720696E7465726E616C20D2
:10101000636F646552414D2E2E203078323032316C
:10102000383030302D307832303233316666660AEF
:1010300000000000FF1F2320008021200A202063E1
:101040006F646552414D20746573742070617373D1
:1010500065642E2E200A0000200A20636865636BF9
:10106000696E6720616C6C204453502052414D2EB4
:101070002E2E3434384B2000FFFF06C0200A2044B7
:1010800053502052414D2074657374207061737306
:101090006564200A000000000A2052756E20444D4D
:1010A0004120646174612072616D20746F206461FD
:1010B00074612072616D2074657374202E2E2E2E43
:1010C0002E2E2E20200000000A2052756E20505433
:1010D0002074696D657220696D6D65646961746500
:1010E0002073796E63302074657374202E2E2E2E3B
:1010F0002E2E2E20200000000A2052756E20505403
:101100002074696D657220696D6D656469617465CF
:101110002073796E63312074657374202E2E2E2E09
:101120002E2E2E2020000000C1A00AF0A6F8CC48E8
:1011300078440AF0A2F8CA48784440300AF09DF892
:10114000FFF733FD10BD704710B5C6A00AF095F843
:101150000520CF4900070AF032FE401C03D0CDA085
:101160000AF08BF810BDD8A0FAE7BD4810B5784456
:1011700052300AF082F80320E04940070AF01FFECF
:1011800010BD10B50120DE4940050AF048FEDD49DA
:10119000DD480AF044FEDDA00AF06FF810BD10B57E
:1011A000E4A00AF06AF8EB4988070AF008FEEAA012
:1011B0000AF063F810BD10B5FFF7D9FD0AF03EF84C
:1011C0000028FBD00AF03FF83628F5D005DC31388E
:1011D0000028F1D8FFF7E3FFEEE739280FD006DC4F
:1011E000372809D03828E7D1FFF7BFFFE4E76128A7
:1011F000E2D07828E0D110BDFFF7C3FFDCE7FFF7AE
:10120000A3FFD9E710B5DBA00AF037F8E24CA268DB
:10121000E2A1EB480AF01AFFE9480AF02EF8E2686A
:10122000E8A1E7480AF012FFE5480AF026F8EEA028
:101230000AF023F8A268D9A1E1480AF007FFE048C4
:101240000AF01BF8E268DFA1DD480AF0FFFEDC4887
:101250000AF013F8824878444E380AF00EF8EBA0F2
:101260000AF00BF8F84801214161006910BD10B582
:10127000FFF7AAFC7A487844223809F0FEFFF348C9
:10128000784409F0FAFF76487844143009F0F5FF05
:1012900073487844523009F0F0FF714878448C303C
:1012A00009F0EBFF6E487844D63009F0E6FFE848D5
:1012B000784409F0E2FFE6487844443009F0DDFF65
:1012C000E3487844863009F0D8FFE1487844C830D4
:1012D00009F0D3FFDF48784409F0CFFFDD487844B8
:1012E000483009F0CAFFDB487844923009F0C5FF66
:1012F000D8487844E03009F0C0FFD748784409F076
:10130000BCFFD5487844443009F0B7FFD248784450
:10131000863009F0B2FFD0487844C83009F0ADFFFC
:10132000CE48784409F0A9FFCC487844443009F00D
:10133000A4FFCA487844863009F09FFFC748784424
:10134000C83009F09AFFC648784409F096FFC448AF
:101350007844443009F091FFC1487844863009F060
:101360008CFFFFF722FC10BD70B5FFF780FF032450
:101370002404A50309F062FF0028FBD009F063FFF5
:1013800062283BD01ADC382840D008DC3138030012
:101390000BF0E4FA07343434444342413400432828
:1013A00035D006DC392833D0412832D0422825D127
:1013B0009EE144282ED0612820D10FE0633803003D
:1013C0000BF0CCFA161A1D34333231302F2E1C1C80
:1013D0001C1C1C1C1C1C1C1C1C1C2D1CA048784408
:1013E0004E3009F04AFF9E4878448C3009F045FFA2
:1013F0000F2109039B4866E108F002F880E12146CD
:1014000028460BF08CF808F0F8FE79E167E172E10C
:1014100068E16AE172E15FE15BE157E144E172E1B9
:101420003FE13BE137E133E12CE124E11CE1000045
:101430000A2A20382920636865636B20646174611F
:101440002052414D202D33324B2030783630303011
:10145000303030302020202020202020202A000082
:1014600038C10000200A20434D302B2072642F77B2
:10147000722041502D446275732036344B204461F4
:1014800074612052414D2E2E2E2E2E0A0000000097
:1014900000000150200A2052642F57722041502D25
:1014A000446275732036344B20446174612052418C
:1014B0004D20746573742E2E2E2E2E2E2E2E2E2041
:1014C0006661696C0A000000200A2052642F57727E
:1014D0002041502D446275732036344B2044617492
:1014E000612052414D20746573742E2E2E2E2E2EA7
:1014F0002E2E2E20706173730A000000FF7F0060A3
:10150000FF7F2300FF7F23200000202020417070F8
:101510007320636F64652052414D203232344B207A
:101520006279746573207465737420706173736578
:10153000642E0A00200A20636865636B696E672069
:10154000616C6C204453502052414D2E2E2E343469
:10155000384B2000FFFF06C0200A20445350205281
:10156000414D207465737420706173736564200A43
:1015700000000000200A205265616420525443207C
:10158000636F756E746572203173742074696D6554
:10159000202E2E2E2E2E2E0000000480200A2052F7
:1015A000656164205254432072656720525443435E
:1015B0004F554E54524C203D2020253878200A00AB
:1015C0003E010060200A205265616420525443208D
:1015D00072656720525443434F554E545248202061
:1015E000253878200A000000200A20526561642016
:1015F00052544320636F756E74657220326E64209E
:1016000074696D65202E2E2E2E2E2E00200A20436A
:101610006865636B20525443207374617475732042
:101620007468656E20636865636B2D207365742034
:1016300073746174757320676F6F64206269742EB0
:101640002E2E2E2E2E00000040010480F4B9000042
:1016500050C200005AC300007CC4000086C50000D0
:1016600090C60000003000C0214628460AF057FF0F
:1016700008F046FC44E0214628460AF050FF08F0F6
:1016800003FD3DE00521C90328460AF048FF37E085
:1016900006F01EFB34E007F0DBFF31E006F0D9FA7C
:1016A0002EE006F049FD2BE0FE48784409F0E5FD08
:1016B000FC4878443C3009F0E0FDFB490020886399
:1016C000032040210003FFF754FA19E006F03FFA27
:1016D00016E006F099FA13E006F0ADF810E006F017
:1016E00029FB0DE006F063FA0AE006F0F9F807E0DE
:1016F00006F021F904E004F035F801E006F058FBAB
:10170000FFF7B5FD36E670BD10B5FFF75DFAE7A04F
:1017100009F0B3FDF548784409F0AFFDE14878449D
:10172000143009F0AAFDDF4878445A3009F0A5FDCD
:10173000DC487844A03009F0A0FDDA487844EA306B
:1017400009F09BFDEA48784409F097FDE8487844A1
:101750004C3009F092FDE6487844963009F08DFD52
:10176000E3487844D83009F088FDE248784409F02D
:1017700084FDE04878444C3009F07FFDDEA009F09C
:101780007CFDDC487844903009F077FDEAA009F050
:1017900074FDD8487844D43009F06FFDF648784499
:1017A00009F06BFDFFF701FA10BD70B50125212688
:1017B000AD023604294630460AF0B1FEF04CEF483F
:1017C000A0634020A061EE490520403108605A2204
:1017D000294630460AF07CFE5A222946E0000AF0EB
:1017E00077FE03205A22402140070AF071FE0120B3
:1017F00020620BF0AFF870BD70B5E14CDF48A0631C
:101800004020A061DE480125403005600560460D9E
:1018100021205A22314600040AF05AFE5A2231464B
:10182000E0000AF055FE03205A22402140070AF04A
:101830004FFE25620BF08EF870BDF8B5FFF764FF20
:10184000CF4FCE4ECE4C4037012509F0F7FC002893
:10185000FBD009F0F8FC392868D008DC31380300E7
:101860000BF07CF80816191C282B3C41468762288F
:1018700072D006DC412874D042286FD0612878D11C
:101880005FE063286BD064286AD0782871D1F8BDF6
:10189000FFF7F7F96DE0FFF7AFFF6AE001212120C4
:1018A000890200040AF03BFEA6634020A061FF20ED
:1018B000563028E0FFF779FF5BE001212120890203
:1018C00000040AF02CFEA6634020A061112057E01E
:1018D0000AF0FEFD25620BF03DF84AE0A6634020C9
:1018E000A06141204CE0A6634020A061002047E0B9
:1018F00001212120890200040AF011FEA663402084
:10190000A061FF202C30386003205A22402140077C
:101910000AF0DEFD012121205A22890200040AF08A
:10192000D7FD01215A228902C802D1E701212120D5
:10193000890200040AF0F3FDA6634020A0610320A1
:101940001EE001212120890200040AF0E8FDA663BF
:101950004020A061092013E00EE002E012E018E050
:101960001DE08948874901608848E0610920A0613D
:101970002562FFF7C9FE68E7A6634020A061212029
:10198000386019E08048824901600420A061A663A4
:10199000A0E7A6634020A061FF208130F0E7A663A6
:1019A0004020A061FF20023038603D6001215A22B2
:1019B000C90278480AF08CFD012121205A228902AF
:1019C00000040AF085FD012189025A22C8020AF0AA
:1019D0007FFD5A2240210320400779E710B5FFF729
:1019E000F3F8434878443A3009F047FC6A487844B1
:1019F00009F043FC3E487844703009F03EFC3D4815
:101A00007844743809F039FC3A487844363809F09B
:101A100034FC38487844083009F02FFC35487844C5
:101A2000463009F02AFC33487844843009F025FC1C
:101A300051487844503809F020FC4F487844123817
:101A400009F01BFC4C4878442C3009F016FC4A483D
:101A500078446A3009F011FC47487844A83009F00E
:101A60000CFC45487844E63009F007FC4B487844C4
:101A700009F003FC494878443C3009F0FEFB474834
:101A80007844763009F0F9FB44487844B03009F0E6
:101A9000F4FB42487844EA3009F0EFFB40487844D0
:101AA00080E00000A2C40000400001A00A2A20201B
:101AB0002020202020202020202020202020204CFA
:101AC0006F7720506F776572205465737473202090
:101AD0002020202020202020202020202020202006
:101AE00020202020202020202A0000005EB50000B9
:101AF000D6C50000F8C600000A2A204129204869FE
:101B00006265726E6174652D57616B652D7570200D
:101B1000736F757263652073656C6563742028202C
:101B2000454954322F4750494F3320292020202047
:101B3000202020202A0000000A2A2042292048696B
:101B40006265726E6174652D57616B652D757020CD
:101B5000736F757263652073656C656374202820EC
:101B6000454954312F4750494F3420292020202007
:101B7000202020202A0000000AC80000FFFF0000EB
:101B8000000004802942920100010480FF07020046
:101B9000295092010080048086B200002EC9000006
:101BA00052CA000009F069FBFE48784409F065FB61
:101BB000FC4878443C3009F060FBFB48784409F06D
:101BC0005CFBFEF7F2FF10BD10B5F8490868012272
:101BD000120410430860FFF701FFF54C09F02EFBDB
:101BE0000028FBD009F02FFB622843D013DC3628F5
:101BF00037D007DC313803000AF0B0FE0522242A72
:101C00002D30270037282FD038281ED039281CD057
:101C100061281AD12BE067283BD008DC63282CD040
:101C200064282DD065282ED066280ED12EE0682895
:101C300032D0692833D06A2834D0782805D110BD35
:101C4000DC4801E0DB48001DE060FFF7C7FEC5E7A8
:101C5000D8480830F8E7D7480C30F5E7D5481030B9
:101C6000F2E7D4481430EFE7D2481930ECE7D14816
:101C70002530E9E7CF482930E6E7CE482D30E3E7C5
:101C8000CC483130E0E7CB483530DDE7C948393062
:101C9000DAE7C848B930D7E7C648BD30E060C54884
:101CA000C130E060C348C530CEE710B5FEF78CFF09
:101CB000BC4878447C3809F0E0FABF48784409F021
:101CC000DCFAB8487844463809F0D7FAB548784481
:101CD000083809F0D2FAB3487844363009F0CDFA22
:101CE000B0487844743009F0C8FAAE487844B2304D
:101CF00009F0C3FAAB487844F03009F0BEFAAF48B7
:101D0000784409F0BAFAAD487844403009F0B5FAA1
:101D1000AA4878448E3009F0B0FAA8487844CC300C
:101D200009F0ABFAA6A009F0A8FAB548784409F082
:101D3000A4FAFEF73AFF10BD08B59C4908684009AF
:101D400040011230086000200090401C0090642880
:101D5000FBD397490220C862AA48382101639549FC
:101D6000C91E0161A84A826162224262A74A0260DA
:101D70000122D2058263C161A54A00210B461343AB
:101D8000C361491C0F29F9D341688902FCD49F49DA
:101D9000491C0160C1680902FCD541680907FCD5EE
:101DA0000821416008BDF8B59A4C00252561012144
:101DB000E160022666610320206021612B46FEF768
:101DC000B4FE5B1C022BFAD9E069FF20924F8F30E2
:101DD000386192A009F051FA2561E560666103203F
:101DE00020600120206197490020401C8842FCD3DC
:101DF000E069C7208000386193A009F03EFAF8BD81
:101E000038B56A490868400940011230086000216D
:101E100000910098401C00906428FAD3644A022084
:101E2000D062784C38202063D017A0602160000C6D
:101E300020617548A0616020A0628F482061500435
:101E4000E0634011E0638D482060A068C007FCD0CB
:101E50000120A060E068C005FCD5226A88A19248F4
:101E60000AF0F4F8904809F008FAE26B8FA18E4866
:101E70000AF0ECF88C4809F000FAE26896A18A486A
:101E80000AF0E4F8884809F0F8F9A0680007FCD5E2
:101E90000820A06038BD10B545490220C862594CE1
:101EA000382020634348C01E20615749A1610022A9
:101EB00022602061A1615021616220610121C90578
:101EC000E1634811E0638011E0613A481B30206013
:101ED00060680007FCD5E1633B200005E0638948AA
:101EE000206060684007FCD504206060226A64A11D
:101EF0006D480AF0ABF86C4809F0BFF9E26B6BA1D2
:101F000069480AF0A3F8684809F0B7F9E2687EA1C9
:101F100065480AF09BF8644809F0AFF910BD00214C
:101F2000234A0220D062374818220263214AD21E77
:101F30000261354A8261502242627F4A0260012278
:101F4000D2058263D212C261314B0A461A43C26182
:101F5000491C0F29F9D37849491C0160C16809025D
:101F6000FCD541680907FCD508214160704710B5D0
:101F7000FEF72AFE0B4878443C3009F07EF96F48A2
:101F8000784409F07AF907487844723009F075F915
:101F90000A4878447E3809F070F908487844403897
:101FA000CEE000008AC90000B8B000000001048043
:101FB0004000018002000100B8AF0000B8CA000074
:101FC0000A2A2048292052756E2044687973746F5C
:101FD0006E6531207465737420202020202020201D
:101FE00020202020202020202020202020202020F1
:101FF000202020202020202020202A200000000057
:10200000BCCB000000000D80800380031C003F104B
:10201000A4A3A2A10031048000000380200A205361
:10202000776974636820444C4C20667265717565ED
:102030006E6379203D2039312E363532204D687A55
:102040002000000088130000200A20537769746381
:102050006820444C4C206672657175656E6379200A
:102060006261636B20746F203D203138332E344D14
:10207000687A202000000000FFFFFF06E003010057
:10208000200A2052782064617461207265672030D4
:1020900078383030645F30303230202D2D3E2030A3
:1020A00078253038780000000C010060200A2052AA
:1020B00078204649464F2063746C20726567203053
:1020C00078383030645F30303363202D2D3E20303F
:1020D0007825303878000000200A205278204649C0
:1020E000464F2063746C207265672030783830303A
:1020F000645F30303063202D2D3E2030782530381D
:10210000780000001F3C0000200A20527820464939
:10211000464F207374617475732072656720307840
:10212000383030645F30303063202D2D3E203078E1
:1021300025303878000000001C003C10F4AC000092
:1021400009F09BF8FB48784409F097F8F94878447F
:10215000403009F092F8F74878447E3009F08DF865
:10216000F4487844BC3009F088F8F2487844FA30F2
:1021700009F083F8F048784409F07FF8EE48784495
:10218000403009F07AF8EC4878447E3009F075F870
:10219000E9487844C03009F070F8E7487844FE30E8
:1021A00009F06BF8FEF701FD10BD10B5FFF7DFFE7B
:1021B00009F044F80028FBD009F045F8392837D059
:1021C00009DC313803000AF0C9FB081B1E21242753
:1021D0002A2D3005EAE7642808D00ADC61282AD0D5
:1021E00062282BD06328E1D107F00AF908F00EFD30
:1021F000DCE76528DAD06628D8D07828D6D110BD9B
:1022000008F079FDD2E708F047FDCFE708F00CFEB3
:10221000CCE708F095FDC9E708F0D1FDC6E708F066
:1022200037FEC3E705F027FBC0E708F0A9FDBDE7CF
:1022300005F0EAFCBAE705F0FEFAB7E707F021F986
:10224000B4E770B5BD4DBE4C82E008F0F7FF002842
:10225000FBD008F0F8FF46286CD00FDC31380300C3
:102260000AF07CFB152B2E3134373A3D404376760D
:10227000767676767649767655607600652849D00A
:102280000CDC612834D002DC472861D158E0622898
:1022900034D0632835D064285AD135E0692855D028
:1022A00006DC662843D0672847D0682850D14AE02A
:1022B0006A284DD078284BD170BDFFF776FF47E0F4
:1022C00008F0EAFC44E008F0AFFD41E008F038FD1A
:1022D0003EE008F074FD3BE0FFF721FE38E0FFF739
:1022E000DAFD35E005F0C7FA32E008F049FD2FE0ED
:1022F000FFF786FD2CE0FFF756FD29E005F084FC92
:1023000026E0FFF719FD23E008F0D3F820E008F0FD
:1023100097F81DE000268B4D0124EC6008F033F99E
:10232000EE60FAE721462846FDF76EFF10E008F060
:1023300007FA0DE007F0A5F80AE007F02FF807E02C
:1023400007F05EF804E008F061FC01E008F09FFB94
:10235000FFF7ABFC79E710B5FEF736FC764878441A
:102360007C3808F08AFF7848784408F086FF724885
:102370007844463808F081FF6F487844083808F000
:102380007CFF6D487844363008F077FF6A4878441F
:10239000743008F072FF68487844B23008F06DFF7E
:1023A00065487844F03008F068FF6848784408F0E1
:1023B00064FF66487844403008F05FFF6348784423
:1023C0007A3008F05AFF61487844C83008F055FF69
:1023D0005F48784408F051FF5D487844403008F089
:1023E0004CFF5B4878448E3008F047FF58487844EB
:1023F000CC3008F042FF5748784408F03EFFFEF723
:10240000D4FB10BD534810B578443C3008F035FF7C
:1024100050487844823008F030FF4E4878442830E5
:1024200008F02BFF4B487844BE3008F026FF4A489E
:10243000784408F022FF48487844483008F01DFFEF
:1024400010BD01224548D2038262D110C16220230F
:10245000036343488262C162036370474249414A51
:102460008A63424BCA171A60092292028A618A68FB
:1024700010180860C86848608868052292028018B1
:102480000861C86848613A4848633A4888617047BB
:1024900010B53A483849C160410D4160C802006832
:1024A000FFF7DCFF3049012008620AF053FA0AF016
:1024B00051FA10BDF8B50120400500902848816A06
:1024C000C56A006B2D4A10610123536100244F1B24
:1024D000460009E0FDF7A2FE39460AF022F8491944
:1024E000A2000098641C8150A642F3D8F8BD10B534
:1024F00022482349C1602021416008040068FFF799
:10250000ADFF1949012008620AF024FA0AF022FA04
:1025100010BDF8B50120400500901048816AC56AD9
:10252000006B164A10610123536100244F1B4600C3
:1025300032E0000016C900004ECA0000000003602F
:1025400000010360800001800CA900007CCB00002A
:1025500092CC00009CCD0000A0CE0000800067401F
:1025600080000070FFFF00000000048080E200E0B7
:10257000FC07000003180000341200000030048043
:10258000CDAB0000FDF74AFE394609F0CAFF4919F4
:10259000A2000098641C8150A642F3D8F8BD10B583
:1025A000FFF730FF08F04AFE0028FBD008F04BFE92
:1025B000312806D0322809D034280CD07828EFD121
:1025C00010BDFFF7A6FFFFF792FFE9E7FFF772FFE5
:1025D000FFF75EFFE4E7FFF734FF10BD70B50020A2
:1025E00072B60921EF4A09051160510D401C88425D
:1025F000FCD3ED4D4020E8620020401C8842FCD313
:102600004820E862E9A008F038FEF54C2068400157
:10261000FCD5F448784408F030FE2268F2A1FE4868
:1026200009F014FDFC4808F028FEFF20A8630120F3
:10263000EB498006803108602268EA4979442831F4
:10264000F54809F003FDF44808F017FE62B670BDC6
:10265000F34AF24900205161D34CD34AF149803406
:102660009163F14961610246606005210902401CE5
:102670008842FCD90120000320600020401C8842D1
:10268000FCD962600020401CFF28FCD9E748A0610B
:102690000020401CFF28FCD901206060A0610020C0
:1026A000401C8842FCD9E2A008F0E7FD2268CD4931
:1026B0007944091FD84809F0C9FCD74808F0DDFD66
:1026C000FEE710B5FFF747FE08F0B8FD0028FBD085
:1026D00008F0B9FD382832D009DC313803000AF09F
:1026E0003DF907191C1F2225282B0500EAE763285E
:1026F0002ED008DC392825D0612826D06228E1D1E7
:1027000002F0BAFCDEE7642824D0652825D07828BA
:10271000D8D110BD02F0B6FBD4E702F01DFCD1E722
:1027200002F0E9FBCEE702F047FCCBE702F074FCD5
:10273000C8E702F081FCC5E702F08CFCC2E702F0BA
:10274000ACFCBFE702F015FDBCE702F032FDB9E7D3
:10275000FFF77EFFFFF742FFB4E7FFF720FFB1E787
:10276000BD4B026840681A615861012900D11046CA
:102770007047F0B5002687B03546B8A008F07DFD5B
:1027800008F05CFD0028FBD0112101A808F095FDA0
:1027900000201C2201AF395C0B463039092901D9D0
:1027A000194657398300D31A99408E19401C0828BE
:1027B000F1D30924385D03463038092801D9184679
:1027C0005738A2004021891A884045192246B3A1F2
:1027D0009148009509F03AFC8F4808F04EFD641CC2
:1027E000112CE7D301213046FFF7BAFF3368324698
:1027F000B3A1894809F02AFC874808F03EFD3560FE
:1028000033683246BBA1844809F020FC824808F0B6
:1028100034FD07B0F0BD30B585B00024C2A008F08B
:102820002CFD08F00BFD0028FBD00821684608F0BD
:1028300044FD00206B461C25195C0A4630390929E5
:1028400001D9114657398200AA1A9140401C0C192F
:1028500080B20828F0D323682246BCA16E4809F054
:10286000F5FB6D4808F009FD05B030BD10B5FEF769
:10287000ABF9BD48784408F000FDBC48784408F046
:10288000FCFCB9487844383008F0F7FCB648784486
:10289000763008F0F2FC53487844AC3808F0EDFC90
:1028A00050487844523808F0E8FC4E4878441838CC
:1028B00008F0E3FC4B487844263008F0DEFC494839
:1028C0007844643008F0D9FC46487844A23008F0D7
:1028D000D4FC44487844E43008F0CFFCFEF765F9B6
:1028E00010BD10B5044603F0F4FE03462246A0A135
:1028F000494809F0ABFB484808F0BFFC10BDF0B5F3
:1029000087B00025A2A008F0B8FC08F097FC0028CA
:10291000FBD00D2101A808F0D0FC00210C2301AE52
:10292000705C02463038092801D9104657388A00B1
:102930009A1A9040491C451989B20429F0D30027FE
:102940000524305D03463038092801D91846573828
:10295000A2003021891A8840C71922464FA12E486B
:10296000009709F073FB2C4808F087FC641CA4B2A4
:102970000D2CE6D33946284603F087FE49E730B5EB
:1029800085B0002402F054FD8EA008F076FC08F01B
:1029900055FC0028FBD00821684608F08EFC00207A
:1029A0006B4625E1000002A0000004800A20474E8B
:1029B00053532073656E6420506275732077616B8A
:1029C00065757020696E74657272757074207265B9
:1029D00071756573742E2E2E2E2E2E2E2020000043
:1029E00000E200E05CCD0000200A20434D302B20A7
:1029F0004E5649432070656E64696E672072656744
:102A00002030786530303065323030203D203078ED
:102A100025303878000000000C01006042410000C1
:102A200000300480FFFF0000AF120000EFBE000086
:102A3000200A204E6F77207374617274207761745E
:102A40006368646F6720746573742E2E2E2E2E2E8D
:102A50002E2E2E2E2E00000000000060200A204E98
:102A60006F77207479706520726567206164647285
:102A70002C6461746120746F2062652077726974C0
:102A800074656E203C686868686868686820686873
:102A90006868686868683E2000000000200A2070AE
:102AA0005B25645D3D203078253034782C4461749A
:102AB00061203D2030782530347820200A20000025
:102AC000200A2044617461206265666F7265207718
:102AD00072697474656E2C6164647220307825307C
:102AE0003878203D3D3D3E20307825303878200A2A
:102AF00020000000200A2044617461206166746532
:102B000072207772697474656E2C6164647220300F
:102B10007825303878203D3D3D3E203078253038CE
:102B200078200A2000000000200A204E6F772074D1
:102B3000797065207265672061646472203C686802
:102B40006868686868683E2000000000200A20303D
:102B50007825303878203D3D3D3E20307825303492
:102B600078200A2000000000FCCB0000F8A3000041
:102B7000200A20537065656479207265672030787B
:102B800025303878203D2030782538780000000046
:102B9000200A204E6F77207479706520726620724B
:102BA000656720616464722C2064617461203D3D1E
:102BB0003D3E203C686868682068686868686868A6
:102BC000683E2000200A204E6F77207479706520BF
:102BD00072662072656720616464723D3D3D3D3ED2
:102BE000203C68686868686868683E2000000000EB
:102BF0001C25195C0A463039092901D91146573973
:102C00008200AA1A9140401C0C1980B20828F0D307
:102C1000204603F05EFD03462246F5A1FB4809F07D
:102C200015FAFA4808F029FB1EE610B5F84900200D
:102C300003F02BFDF749042003F027FDF649082097
:102C400003F023FDF5490C2003F01FFD8021102027
:102C500003F01BFD0021242003F017FDF04928207C
:102C600003F013FDEF493C2003F00FFDEE49402037
:102C700003F00BFDFF210231482003F006FDEB4974
:102C8000502003F002FDEA49602003F0FEFC002121
:102C9000642003F0FAFC2821682003F0F6FCE549E3
:102CA000782003F0F2FCE4497C2003F0EEFC2721BD
:102CB000802003F0EAFC01210905902003F0E5FCE7
:102CC0000021142003F0E1FC0021942003F0DDFC3E
:102CD0004021942003F0D9FC0021942003F0D5FC7E
:102CE0000021942003F0D1FC0821942003F0CDFCB6
:102CF0000021942003F0C9FC10BDF8B50D20D04987
:102D0000CE4C00050860D049CE48886153E008F0F9
:102D100095FA0028FBD008F096FA37284BD007DC4C
:102D20003138030009F01AFE051316191C1F47005D
:102D3000622821D006DC38283DD039283BD06128D4
:102D400039D113E063281BD0782834D1F8BDFFF7C0
:102D50006CFF30E003F0DEFB2DE003F014FC2AE012
:102D6000FFF70DFE27E0FFF7CAFD24E0B34900207E
:102D7000091D03F08AFC1EE00020FFF7B2FD1AE0F7
:102D800027460025AE00391D304603F07EFC0020AA
:102D9000401CFF28FCD9304603F09BFC0746034645
:102DA0003246AAA1994809F051F9984808F065FA05
:102DB0006D1C052DE6D3FFF759FDA8E7A249AC4AE3
:102DC0008A63AC4BCA171A60092292028A618B6827
:102DD0000A300322824098180860C86848608868F2
:102DE0000522120480180861C8684861A248486337
:102DF000A2488861704710B5A14994B05022794427
:102E00006846FDF727FA9F4B9969586900281BD03F
:102E100058698D4C0A1A0021E162401E58619AA13E
:102E20007A4809F013F9794808F027FAA6480068AB
:102E3000FFF7C4FF84494A20403108600120206226
:102E400009F088FD09F086FDFDF7D6FE9F4C08F0DD
:102E5000F5F90028FBD008F0F6F961281CD009DC50
:102E60003138030009F07AFD0926292C2F32353834
:102E70003B3E4000662837D006DC622834D0632809
:102E80000DD0642830D10DE067280ED068282BD0F3
:102E9000782829D114B010BDFFF72FFF24E0FFF7E9
:102EA000BAFC21E0FFF765FC1EE0E0212046FDF7BB
:102EB00060FE19E0FEF748F916E0FFF702FC13E0A8
:102EC000FFF7BFF910E0FEF77FFE0DE0FEF7B5FC5F
:102ED0000AE0FEF749FA07E0FEF794F904E0FEF78E
:102EE0006AF901E0FDF704FFFDF786FEAFE77848D9
:102EF00003214161764B0122403B9A63C217026174
:102F00008322C261016241628162714A4032D160B2
:102F1000C10BC1607047FFF7EAFF1D205949C0018E
:102F2000086053486A49C01CC860474900204031C6
:102F30008860E12100224902664808F070F94248A1
:102F40000421C162C16A4907FCD40121016209F070
:102F500001FD09F0FFFC09F0FDFC09F0FBFCFEE7B8
:102F600010B502461CCAC068012907D0022907D043
:102F7000032907D0042900D0002010BD104610BD41
:102F8000184610BD204610BD10B553A008F075F9C5
:102F90005749584808F013FF57A008F06EF910BDC4
:102FA000F8B50A460646014600245A4808F037F9A3
:102FB00000200090401C00906428FBD3204608F0BD
:102FC00050F90025F6080DE008F038F9002809D07E
:102FD00008F039F9A0420AD1641CE4B2204608F096
:102FE00040F96D1CAE42EFD80020C043F8BD93E01D
:102FF000200A20307825303878203D3D3D3E203075
:103000007825303478200A20000000000C01006090
:103010006DFB0F001056190040401A01A49BF40DDF
:103020000C41F120CC1D4600F0776A0BC803B400B8
:1030300004006000D808903E0000340C3012AA55FD
:10304000000002A001000C0000000480200A207390
:10305000706565647920726567203078253038782E
:10306000203D3D3D3E20307825303478200A200038
:10307000FFFF000080E200E0FC07000003180000F2
:10308000AE9B000000010480200A200A20546573D2
:1030900074206E6F3A202530386420202E2E2E2E7C
:1030A000205374617274206E65787420736C65654A
:1030B00070206D6F64652074657374206E6F772E59
:1030C0002E2E2E2E2E2E20000002048000F6FFA0B1
:1030D00040000180B4F13501200A20636865636B0C
:1030E000696E67204453503252414D2E2E2E2000DF
:1030F000FFFF04C0000003C0200A204453503220C8
:1031000052414D207465737420706173736564203F
:103110000A0000000000EE02002067E710B5411C25
:1031200005D0002802D1ECA008F0A7F810BDF4A04B
:10313000FAE77047FC492F2008600320FB4940054F
:103140004862FC48FA4AC261012252038261026964
:10315000521D426042698260F74A826100038860C2
:1031600001204863704710B50C4603F08EFA2246E2
:10317000F2A1FE4808F06AFFFC4808F07EF810BD96
:10318000F0B5FB4889B00026784408F076F8F9A03D
:1031900008F073F808F052F80028FBD013216846B5
:1031A00008F08BF800200C226F46395C0B46303952
:1031B000092901D9194657398300D31A9940401C6F
:1031C0008E1980B20428F0D30520395C0A463039C4
:1031D000092901D911465739052814D06D18401C0A
:1031E00080B20728F1D32A46ECA1E04808F02EFF70
:1031F000DE4808F042F86846417A08463038092827
:1032000005D8069005E00A2251430D46E7E75739F5
:103210000691E8A1D548069A08F018FFD34808F0AF
:103220002CF800200446059020E01220001B82B2FA
:103230006846805C0746303F092F00D9273F3B4650
:10324000E2A1CA4808F002FFC84808F016F805983D
:10325000A74007433B462246E1A1C448059708F032
:10326000F5FEC24808F009F8641CA4B2069884422E
:10327000DBD30598A8400590B0B202F0E5F800272E
:103280003C4607900EE02919012088403843074644
:103290000246DAA1B54808F0D9FEB44807F0EDFFC0
:1032A000641CA4B206988442EDD3079C0598BC43E5
:1032B0000443B0B2214602F008F923463246D6A1B3
:1032C000AA4808F0C3FEA94807F0D7FFB0B202F041
:1032D000BBF803463246DCA1A44808F0B7FEA34879
:1032E00007F0CBFF09B0F0BD10B5FDF76DFCE3486A
:1032F000784407F0C2FFE248784407F0BEFFDF4899
:103300007844383007F0B9FFDC487844763007F06D
:10331000B4FF97487844683807F0AFFFFDF745FCE5
:1033200010BDD849012048637047D6490220486340
:1033300070478048D4498163D44AC117116009217C
:103340008902816181680322120489180160C168C1
:10335000416081680522120489180161C1684161D8
:10336000CB494163CB498161704710B572B6C648FD
:10337000704CA063C549E0170860FDF7DDFBC6A1EE
:103380007A4808F063FE794807F077FF30BF09F00C
:10339000E1FA09F0DFFA09F0DDFA09F0DBFABB48DF
:1033A000803801688900490F0729FAD1C906A1634D
:1033B0000268B24979445C316C4808F047FE6B48BA
:1033C00007F05BFF62B610BD70470020C24A412182
:1033D0009160401C4128FBD3704710B50124FDF7D4
:1033E000DEFE07F0ADF9FDF70DFF641C0A2CF6D3E5
:1033F00010BD10B5FDF7E8FB10BD704710B5B7A0C4
:1034000007F03BFFB5A007F038FF10BD07F016FF2F
:103410000028FBD007F017FFFFF7F0FFF6E797480B
:1034200010B578443A3007F028FF94487844783053
:1034300007F023FF4E487844663807F01EFF4C48DB
:1034400078441C3807F019FF49487844223007F0C7
:1034500014FF47487844603007F00FFF4448784431
:103460009E3007F00AFF42487844DC3007F005FF41
:103470009B48784407F001FF99487844403007F0B2
:10348000FCFE10BD9749002808D0012808D002286A
:1034900003D0032801D19448086070479348FBE7A4
:1034A0009348F9E77CB593A103C900246E460191C6
:1034B0000090305D07F0D5FE641C062CF9D38F4DCB
:1034C0000024305D07F0CDFE07F0C4FE285500282B
:1034D00000D015E119E100000A41726974686D6558
:1034E0007469632073686966742072696768742000
:1034F00074657374206661696C65642E0000000059
:103500000A41726974686D657469632073686966DD
:1035100074207269676874207465737420706173B5
:103520007365642E000000000000098000000A801E
:10353000FF1900000000048003E000000A2053701F
:10354000656564792052462072656720207772692C
:1035500074652030783030203D2030782530387840
:1035600020202E2E2E2E2E646F6E65000C01006022
:10357000D4C50000200A20466F726D6174203D3D65
:103580003D3E203C20686868682044442044442034
:103590006262626262626262203E2000200A202033
:1035A0006269745F7374617274203D2025303864E1
:1035B00000000000200A20206269745F6C656E675D
:1035C0007468203D2025303864000000200A202047
:1035D000705B253038645D203D2025303878000050
:1035E000200A2020746D70446174615B2530326460
:1035F0005D203D202530387800000000200A206D35
:1036000061736B2044617461203D3D3D3E20307804
:1036100025303878200A2000200A20446174612077
:103620005772697465206174206164647265737394
:1036300020307825303878203D3D3D3E20307825BB
:10364000303878200A200000200A2044617461206C
:1036500072656164206261636B20617420616464DF
:103660007265737320307825303878203D3D3D3EBB
:1036700020307825303878200A200000B8C40000B7
:103680007C99000000000180FFFF000080E200E064
:10369000FC07000003180000200A2020457865631D
:1036A0007574652057464920696E7374727563742A
:1036B000696F6E207468656E206177616974696EE8
:1036C0006720696E746572727570742E2E2E2E2EA0
:1036D0002020200A00000000000003800A000000F3
:1036E000EEC6000000010480D200B5001200E10126
:1036F000D2005F0131321851520000000800006012
:10370000641C062C00D2DCE6DAE67CBD704730B5DE
:10371000C14BA1B040330FCB10AC0FC4BE49402207
:1037200050316846FCF796FDBB4B14AC8033103328
:103730000FCB0FC4B848B94C0146426A006A203129
:1037400019921890CA6888681B921A90086949698A
:103750001D91B1491C90886BC96B1E901F91B0A040
:1037600007F08BFD2288BBA1C44808F06FFCC3485A
:1037700007F083FD20888005850FC1A007F07DFD3F
:10378000A80014A9085807F078FD20884006C50F46
:10379000C4A007F072FDA80018A9085807F06DFD35
:1037A00020880007850FC6A007F067FDA80010A9B4
:1037B000085807F062FD20888006C50FC6A007F0F4
:1037C0005CFDA8001AA9085807F057FD2088050BD2
:1037D000C6A007F052FDA8006946085807F04DFD45
:1037E0002088C507ED0FC7A007F047FDA8001CA95A
:1037F000085807F042FD2088C006C40FC6A007F095
:103800003CFDA0001EA9085807F037FD21B030BDCF
:1038100010B5C6A007F031FD02F052F9C849C948F9
:1038200008F0CDFAC8A007F028FD10BDF8B5C848CB
:103830000024784407F021FDC648611E4162C74953
:10384000C54A0A8075498A8901231A438A81C54A73
:10385000C349118181684203114381608068C2A11C
:1038600082B2864808F0F2FB844807F006FDBB4DA3
:10387000203DAF89C6A13A46804808F0E7FB7F4863
:1038800007F0FBFC2E8ACCA132467C4808F0DEFB18
:103890007A4807F0F2FCAE4878441A3807F0EDFC9D
:1038A000CFA007F0EAFCBB20800028830A372F80D6
:1038B000361DAE80D9481021018001214180A748E2
:1038C00000218180D648641C8442FCD9A14C206828
:1038D000400002D4A88B4004F9D500200121490200
:1038E000401C8842FCD9CF4802884688CEA1634854
:1038F00008F0ACFB614807F0C0FC3246D9A15F4834
:1039000008F0A4FB5D4807F0B8FCA069E4A182B20E
:103910005A4808F09BFB594807F0AFFCE869E6A15C
:1039200082B2564808F092FB544807F0A6FC0120EA
:103930008003A883E8A007F0A0FCF8BDFEB500272F
:10394000364940203E460881FF213448403140300E
:1039500001823F218182ECA007F08FFCF84D00240A
:10396000F8486860F849A9602860012008F076FAF4
:10397000E86AA96B042C04D0641C0F4606460A2C86
:10398000EED3801BC91B4D084408062205210420E4
:103990006E4607C6ED4829462218FF39032316391B
:1039A000EBA007F083FDF0487D212818090188422B
:1039B00005D2EE48844202D8ED48844202D2ED4856
:1039C00008F05BFAFEBD0020704710B5EA49002000
:1039D0000860644934204860E8A007F04EFC4120AC
:1039E000F449000608F01BFAF3A007F046FC10BDEE
:1039F00010B5FFF7EAFFFFF7A1FFFFF717FFFFF78B
:103A000007FFFFF784FE10BD10B5F1A007F035FCED
:103A1000F9480288F2E10000000000600000018027
:103A2000200A20436865636B20706F7765722D757F
:103A30007020736F66747761726520636F6E66695C
:103A4000672E207374726170732E2E2E2E2E2E2EE2
:103A50002E2E2E00200A204348495020636F6E66A8
:103A60002E20726567283078383030313030303071
:103A700029203D3D3D3E2025303478000C0100607A
:103A80000A2045445B325D2F43505520626F6F74AE
:103A900020636C6B2073656C6563743D3D3D3D3EFA
:103AA000000000000A20475246332F475246326D2D
:103AB0002073656C656374696F6E3D3D3D3D3E00EE
:103AC0000A2077696474682045445B313A305D3D73
:103AD0003D3D3D3E000000000A20436869702070B3
:103AE00061636B6167653D3D3D3D3E000A20737734
:103AF000436F6E6669674269745B302D335D3D3D8F
:103B00003D3D3E000A20426F6F74206F7074696FF4
:103B10006E3D3D3D3D3E00000A20456E6469616E8C
:103B200020747970653D3D3D3D3E000063686563EE
:103B30006B696E6720424252414D2E2E2E200000AE
:103B4000FFCF048000800480646F6E652E0A000041
:103B5000BEC3000000000A8013E0000020000480C3
:103B600054F20000000009800A2E2E2E50726F675A
:103B700072616D20494E5420656E61626C652072E1
:103B80006567203D3D3E20253878200A0000000072
:103B90000A2E2E2E43757272656E7420415349436E
:103BA0005F525443434F554E54524C203D3D3E20AE
:103BB000253478200A0000000A2E2E2E43757272DA
:103BC000656E7420415349435F525443434F554EF1
:103BD00054524D203D3D3E20253478200A000000FF
:103BE0000A2057726974652030783030303020698F
:103BF0006E746F20636C6F636B2073746F702072D0
:103C0000656720616E64207761697420666F722039
:103C1000696E742E2E2E2E2E000000000000104221
:103C2000FF1F0000000018420A2E2E2E2044656C53
:103C30006179206F66662046504741206D6561734B
:103C40007572656D656E7420636F756E746572282C
:103C50004C53572920203D3D3E2030782530347884
:103C6000200A00000A2E2E2E2044656C6179206FF8
:103C700066662046504741206D6561737572656DBB
:103C8000656E7420636F756E746572284D53572985
:103C900020203D3D3E20307825303478200A000039
:103CA0000A2E2E2E20494E5449525120203D3D3E91
:103CB00020253878200A00000A2E2E2E2041534954
:103CC000435F5254435F535441545553203D3D3E4E
:103CD00020253878200A0000200A20202052544352
:103CE00020414C41524D20696E746572727570743A
:103CF000206465746563746564202E2E2E2E2E2E2E
:103D00002E2E200A000000000A63616C63756C614E
:103D100074696E6720414351434C4B202620454334
:103D20004C4B20617373756D696E67205254434329
:103D30004C4B3D3332373638487A2E2E2E20000039
:103D400000000CC0FF030000888888887EFDFFFF0C
:103D5000414351434C4B3D2564487A2C2045434C0C
:103D60004B3D2564487A0A00803E06FFE703EE02D9
:103D700018FCED022131000000030E804353312076
:103D8000776169745F73746174653D342C20314DC3
:103D90006279746573206578742052414D202F3309
:103DA000322D626974206163636573732E2E2E2039
:103DB00000000000FFFF0F41206578742052414D44
:103DC0002074657374207061737365642E0A00003B
:103DD0000A2052756E6E696E67204468727973743A
:103DE0006F6E652074657374202E2E2E2E2E2E2E4F
:103DF0002E2E2E2E0000000000000D80E6A1ED48C2
:103E000008F024F9EB4807F038FA10BD10B5EA497C
:103E100000200860E94880694007400F042801D06D
:103E2000E7A00EE0F34AD1680020401C6428FCD3D0
:103E3000D068401A41010A1AEFA1DE4808F006F9DD
:103E4000DC4807F01AFA10BD10B5DC48806940075D
:103E5000400F042801D0DAA011E0D7490120E54A3B
:103E60000860D1680020401C6428FCD3D068401A48
:103E700041010A1AE0A1CF4808F0E8F8CD4807F060
:103E8000FCF910BD10B5E4A007F0F7F9CB49F248F2
:103E90008039C861F149F24807F091FF10BD10B5B3
:103EA000F0A007F0EAF9C549EB488039C861FD493F
:103EB000EB4807F084FF10BD38B50020054689089F
:103EC00002E08300F458401C8142FAD894420FD09B
:103ED000800080191346F44902467944B54800949D
:103EE00008F0B4F8B34807F0C8F96D1C0A2D04D8DF
:103EF000ED4878442C3007F0C0F938BDF7B5002400
:103F000082B025468E081BE00298A107A200890F07
:103F10001718491C3846FFF723F8049988420ED039
:103F20000B46E149009079443A464C39A14808F0E3
:103F30008DF8A04807F0A1F96D1C0A2D07D8641C64
:103F4000A642E1D8D8487844283007F096F905B061
:103F5000F0BD10B5D5A007F090F901210907E14A9D
:103F60008B1200208400401C0A519842FAD3012091
:103F70004007DD49FFF7C2FF10BD10B5DBA007F019
:103F80007CF90520E249400707F049FFE1A007F06E
:103F900074F910BDC44810B57844263007F06DF9A7
:103FA00007F04CF9002802D007F04DF90446782CB0
:103FB00003D0732CF4D0772CF2D110BDBA4810B5D1
:103FC0007844463007F059F9B7487844843007F010
:103FD00054F9D2480F21C162864A00216032118211
:103FE000CF4A1168102389B21943116059058160C5
:103FF00001688901FCD5CBA007F03FF910BDF8B5E9
:10400000012635460124B74206D023462A46CDA1D3
:104010006848009708F01AF8CD487619641C844265
:10402000F1D96D1C8542EDD9F8BD30B585B00024BD
:10403000C8A007F022F907F001F90028FBD00821F9
:10404000684607F03AF900206B461C25195C0A46C1
:104050003039092901D9114657398200AA1A9140ED
:10406000401C0C1980B20828F0D3002210465100E1
:10407000E207D20F8A186408401C2028F7DBC3A18E
:104080004C4807F0E3FF4B4807F0F7F805B030BDA8
:1040900030B585B00024C7A007F0EFF807F0CEF8E0
:1040A0000028FBD00821684607F007F900206B467E
:1040B0001C25195C0A463039092901D9114657399E
:1040C0008200AA1A9140401C0C1980B20828F0D333
:1040D00001212046FEF744FB03462246BEA1354897
:1040E00007F0B4FF334807F0C8F8CFE7F0B5002673
:1040F00087B03546BFA007F0C0F807F09FF800284A
:10410000FBD0112101A807F0D8F800201C2201AF34
:10411000395C0B463039092901D9194657398300D2
:10412000D31A99408E19401C0828F1D30924385D10
:1041300003463038092801D918465738A2004021D3
:10414000891A884045192246BAA11A48009507F0F5
:104150007DFF184807F091F8641C112CE7D301216A
:104160003046FEF7FDFA03463246BBA1114807F080
:104170006DFF104807F081F8356001213046FEF7E9
:10418000EFFA03463246C1A10A4807F05FFF09482B
:1041900007F073F807B0F0BD0A20446872797374B1
:1041A0006F6E65207465737420253038782E2E2E3E
:1041B000000000000C01006000030E808000018000
:1041C000200A202054657374206F6E6C79207275FC
:1041D0006E2066726F6D204249552F657874657246
:1041E0006E616C20464C4153482021212121202022
:1041F00020200A00000004800A2045786563757459
:10420000696F6E2074696D65203D2025303864200B
:104210007573200A00000000636865636B696E6750
:1042200020696E7465726E616C2031364B2070614E
:10423000746368205352414D2E2E30783230323222
:104240003030303020746F20307832303232336684
:1042500066662E2E2E0A0000D3A50000FF3F222006
:1042600000002220636865636B696E6720696E7465
:1042700065726E616C2031364B2043616368652046
:104280005352414D2E2E307832303232343030306D
:1042900020746F20307832303232383766662E2EF6
:1042A0002E0A0000FF872220C6BD000063686563F8
:1042B0006B696E672044414D20626F6172642053C8
:1042C00052414D2E2E3078323030305F3030303029
:1042D00020746F203078323030305F303030302E04
:1042E000202E0A00AA55AA559CFF0F00636865633B
:1042F0006B696E6720394B20627974657320636146
:10430000636865206D656D6F72792E2E2E2000001A
:10431000FF2300A0646F6E652E0A000000000A8073
:10432000000003800A202E2E2E2E427265616B2023
:1043300055415254207061757365206D6F64652E10
:104340002E2E2E0025782025782025780A000000C2
:10435000FFFF0000200A204E6F77207479706520DF
:104360003332206269742076616C756520746F2029
:104370006265206269742072657665727365642077
:104380003C68686868686868683E2000200A204EBB
:104390006577207265766572736520626974207630
:1043A000616C7565203D20307825303878200A20F2
:1043B00000000000200A204E6F772074797065207D
:1043C0007265672061646472203C68686868686828
:1043D00068683E2000000000200A20307825303830
:1043E00078203D3D3D3E20307825303478200A202D
:1043F00000000000200A204E6F772074797065203D
:1044000072656720616464722C6461746120746FEA
:10441000206265207772697474656E203C686868F4
:1044200068686868682068686868686868683E20C6
:1044300000000000200A20705B25645D3D2030787C
:10444000253034782C44617461203D20307825304B
:10445000347820200A200000200A20446174612062
:104460006265666F7265207772697474656E2C611F
:1044700064647220307825303878203D3D3D3E2000
:10448000307825303878200A20000000200A2044A7
:1044900061746120616674657220777269747465F5
:1044A0006E2C6164647220307825303878203D3D70
:1044B0003D3E20307825303878200A20000000006A
:1044C00070B5B84D00242868082108432860B64E0E
:1044D0008905B0680843B060B448784406F0CDFE62
:1044E0002A68B24979444E31B14807F0AFFDB0486F
:1044F00006F0C3FE6A68AD4979448231AC4807F0E2
:10450000A5FDAB4806F0B9FE6868C005FCD5A9A1B9
:10451000A748B26907F09AFDA54806F0AEFE042050
:10452000F0622A68AFA1A24807F090FDA04806F00B
:10453000A4FE6A68B8A19E4807F088FD9C4806F072
:104540009CFE06F07BFE00281AD006F07CFE064694
:104550002246BEA1964807F079FD954806F08DFEEB
:104560003246C1A1924807F071FD914806F085FEE0
:104570006A68C1A18E4807F069FD8D4806F07DFE8E
:10458000641CA4B20F2CDCD36A68C7A1884807F06A
:104590005DFD874806F071FE70BD10B5CFA006F036
:1045A0006CFEDC4900208881DC49DB4808804B2117
:1045B00000224902DA4806F032FE10BD7B4810B5F1
:1045C0007844801C06F059FED24AD6A1784807F0FC
:1045D0003DFD774806F051FEDCA006F04EFECD4AC8
:1045E000E6A13032724807F031FD714806F045FE11
:1045F000EBA006F042FE10BD10B5F3A006F03DFEA4
:1046000010BD10B5FDA006F038FE012007F026FC15
:10461000C04A2120203A1081FE480B238381FF20CD
:10462000BC49403020310882FF208882B949088087
:1046300093812320F84900010883F7481321203093
:1046400001800021818010BDFEB500215648C9437C
:104650004162F14EF14920363180816842031143B5
:1046600081608268EEA1524807F0F0FC504806F0E5
:1046700004FE7503EA69F3A14D4807F0E7FC4C48D6
:1046800006F0FBFDF8A006F0F8FD298806200422BC
:10469000052700920290032301970222FDA006F055
:1046A00005FF07F011FC9B4C203C218901200143B0
:1046B0002181A1890143A181964920310A8A0243BF
:1046C0000A828A8A15231A438A82D24A918901432F
:1046D00091819048018839430180C7A006F0CDFD43
:1046E00007F0F2FB00227D20C00000920099491CD7
:1046F00000918142FAD30A21A18131212181A28036
:10470000F349298300920099491C00918142FAD310
:10471000B280FEBDF8B5EF48784406F0AEFD00204B
:10472000214DC0436862BC4EBC4820363080794879
:10473000203881890127394381817849E6480881F9
:10474000E6480188202211430180A86851060843E9
:10475000A860AA68E2A1164807F078FC144806F0A1
:104760008CFD7403E269E8A1114807F06FFC0C208E
:104770002083EE481021018047800020B080ED4961
:10478000EB48088048806920EB49C0000880A08B76
:10479000C00BFCD0002001214902401C8842FCD9FA
:1047A000E648CDE10000038000000A8086B90000E1
:1047B0000C010060200A204265666F726520554139
:1047C000525420412041434B20494E542C20494E05
:1047D0005449525120726567203D20307825303889
:1047E00078000000200A204265666F7265205265DD
:1047F0006164205278206275662C554152542041E4
:1048000020636F6E74726F6C20726567203D20307C
:104810007825303878000000200A204265666F72E3
:10482000652052656164205278206275662C55417E
:10483000525420412073746174757320726567202F
:10484000203D20307825303878000000200A2052A2
:10485000656164696E67205278206275662C2062FB
:10486000797465202564000020203D3D3D3D3E20BB
:104870002025632000000000200A20496E20726578
:104880006164696E67205278206275662C554152CA
:104890005420412073746174757320726567203DE4
:1048A0002030782530387800200A204166746572FF
:1048B0002072656164696E67205278206275662C8B
:1048C0005541525420412073746174757320726590
:1048D00067203D2030782530387800000A203D3DA3
:1048E0003D3D3D3D2043505520436C6B2020737768
:1048F00069746368656420746F20737065656420F3
:104900003530204D687A3D3D3D3D3D3D3D3D2020CB
:10491000200000002000018074F0000000000980E9
:104920000000EE02200A205541525420636C6B2097
:10493000636F6E74726F6C20207265676973746543
:1049400072203D2025303878000000000A2043689E
:10495000616E676520535020636C6F636B20736FCB
:10496000757263652066726F6D20414351434C4BF5
:1049700020746F2045434C4B20000000200A205338
:104980005020636C6B20636F6E74726F6C202072AA
:1049900065676973746572203D20253038780000A2
:1049A0000A205573696E67206E6577205350206327
:1049B0006C6F636B20746F20746573742044535064
:1049C0002052414D00000000200A202E2E2E2E2EB7
:1049D00020416C6C204857544C20726567732057F7
:1049E000522F524420746573742E2E2E2E2E2E2E8E
:1049F0002E706173736564200A0000000A415445FB
:104A0000207374616E64627920636F64652E2E2E4C
:104A10000A00000000000280000004801320000053
:104A20000950726F6772616D20494E5420656E6146
:104A3000626C6520726567203D3D3E2025387820F8
:104A40000A0000000943757272656E742052544367
:104A500053544154555320726567203D3D3E2025F7
:104A60003878200A000000000970726573732022F4
:104A700073362220627574746F6E20746F207475A3
:104A8000726E206F6E2043505520434C4B2E2E2EBD
:104A90000A0000000A20636865636B20626F6F7410
:104AA00073747261702072656769737465722073C4
:104AB000746179207468652073616D65206F722060
:104AC0006E6F743A203078253034780A0000000088
:104AD0003D03000078B8000054F20000000104809B
:104AE0000A2E2E2E50726F6772616D20494E54202F
:104AF000656E61626C6520726567203D3D3E2025D4
:104B00003878200A000000000A2E2E2E437572729B
:104B1000656E74205254435354415455532072656A
:104B200067203D3D3E20253878200A0000001042D5
:104B3000FFFF000000002842000020420000184251
:104B4000028846883FA14E4807F080FA4C4806F09C
:104B500094FB32464BA14A4807F078FAAA6958A15B
:104B6000474807F073FA464806F087FBA28B5AA124
:104B7000434807F06BFA424806F07FFB0120000330
:104B8000A0835DA006F079FBF8BD10B50022D243EA
:104B900065490023654C0B610A60226912180B609D
:104BA00020698242FBD810BD644861A1016064A104
:104BB000416069A1283001606AA141606CA18160F7
:104BC0006EA1C16070A11030016071A1416072A13D
:104BD000816073A1C16074A1016175A1416176A179
:104BE000816177A1C16178A1016279A141627AA155
:104BF00081627BA1C1627CA101637DA141637EA131
:104C000081637FA1C16380A14030016080A14160C8
:104C100080A181607CA1C16080A17038016082A107
:104C2000416084A10830016084A1416086A1083000
:104C3000016089A141608CA1083001608EA14160B2
:104C4000704700000A2E2E2E2044656C6179206F7B
:104C50006E2046504741206D6561737572656D65C4
:104C60006E7420636F756E746572284C53572920DB
:104C7000203D3D3E20307825303478200A00000069
:104C80000C0100600A2E2E2E2044656C6179206F85
:104C90006E2046504741206D6561737572656D6584
:104CA0006E7420636F756E746572284D535729209A
:104CB000203D3D3E20307825303478200A00000029
:104CC0000A2E2E2E20494E5449525120203D3D3E61
:104CD00020253878200A00000A2E2E2E2041534924
:104CE000435F5254435F535441545553203D3D3E1E
:104CF00020253878200A0000200A20202052544322
:104D000020414C41524D20696E7465727275707409
:104D1000206465746563746564202E2E2E2E2E2EFD
:104D20002E2E200A0000000000F007410000048041
:104D300052455345542070696E0000001800006011
:104D40007072696F72207761746368646F67207234
:104D50006573657400000000382062697420454462
:104D600000000000313620626974204544000000D4
:104D70003332206269742045440000007265736517
:104D80007276656400000000623030303000000050
:104D900062303030310000006230303130000000CD
:104DA00062303031310000006230313030000000BC
:104DB00062303130310000006230313130000000AB
:104DC000623031313100000062313030300000009B
:104DD000623130303100000062313031300000008B
:104DE000623130313100000062313130300000007A
:104DF0006231313031000000623131313000000069
:104E00006231313131000000616371636C6B00000D
:104E10007274630065636C6B000000004752463299
:104E20006D207573656400004752463320757365C5
:104E3000640000003130302070696E00313434205D
:104E400070696E200000000065787465726E616C98
:104E500020626F6F74000000696E7465726E616C21
:104E600020626F6F740000006C6974746C6520655B
:104E70006E6469616E00000062696720656E646936
:104E8000616E000070B572B60025D54EED433560F9
:104E9000D4A006F0F2F9D24C803C20684006FCD544
:104EA000DD48784406F0E9F92268DCA1E74807F01C
:104EB000CDF8E64806F0E1F9E54CE26AE5A1E34801
:104EC00007F0C4F8E14806F0D8F9A26AEDA1DF487E
:104ED00007F0BCF8DD4806F0D0F92562A26ACE4999
:104EE00079440A31D94807F0B1F8D84806F0C5F935
:104EF000356062B670BD70B572B60025B84EED4330
:104F00003560ECA006F0B9F9B54C803C206800068D
:104F1000FCD5C14878441A3006F0AFF92268BFA129
:104F2000CA4807F093F8C94806F0A7F907242407F0
:104F3000A269EDA1C54807F089F8C44806F09DF9BB
:104F40006269F5A1C14807F081F8C04806F095F9FB
:104F50002562356062B670BD30B5AF4885B00024BB
:104F60007844163006F089F906F068F90028FBD07D
:104F70000421684606F0A1F900206B461C25195C47
:104F80000A463039092901D9114657398200AA1A2F
:104F90009140401C0C1980B20428F0D3AC488460C6
:104FA000AB4A23460832E8A1A84807F04FF8A748C3
:104FB00006F063F905B030BD30B585B0002472B697
:104FC00095487844001F06F058F906F037F9002894
:104FD000FBD00421684606F070F900206B460C25D2
:104FE000195C0A463039092901D91146573982001E
:104FF000AA1A9140401C0C1980B20428F0D3072053
:105000000007C4612346D74ACFA1904807F01EF895
:105010008E4806F032F9CDE710B572B68C4AD24907
:10502000803200208300401CD1504028FAD3CFA00A
:1050300006F023F962B610BDCA4A10B56432CA49F7
:1050400000208300401CD1504028FAD3D4A006F0A1
:1050500014F910BD10B5704800247844543806F097
:105060000CF9DC490120086105200002641C84421F
:10507000FCD30020086110BD10B5674800247844B7
:105080002C3806F0FAF8D34940204039C862052090
:105090000002641C8442FCD310BDF0B55E4885B0AC
:1050A000002478440C3006F0E8F8CBA006F0E5F8D0
:1050B00006F0C4F80028FBD00421684606F0FDF88D
:1050C00000206E460C27315C0A463039092901D888
:1050D00089B201E0573A91B28200BA1A9140091997
:1050E000401C8CB20428EED3002001210903401C8F
:1050F0008842FCD3B748611EC03041618461B54C21
:105100000420403CE0620020210D401C8842FCD37A
:10511000414878441C3806F0B0F806F08FF80028B3
:10512000FBD00421684606F0C8F80020315C0A462E
:105130003039092901D889B201E0573A91B2820089
:10514000BA1A91404D19401C0428EFD3AAB2AFA15E
:105150003E4806F07BFF3D4806F08FF8B1480560F9
:105160002846FDF72BFE0120206207F0F3FB05B077
:10517000F0BD10B51A49AC480860964C0320403C7D
:10518000A0610220A061244878444E3806F075F8EA
:10519000A649BB20C8600420E0620020090D401C25
:1051A0008842FCD30120206207F0D4FB07F0D2FB39
:1051B00010BD194810B578442C3806F05EF89B49AC
:1051C000AA208860834A0420403AD0620020090D5A
:1051D000401C8842FCD30120106207F0BBFB10BDCD
:1051E00080E200E00A2077616974696E6720666F6B
:1051F000722041502D3E20474E53532049504320AA
:105200006F6363757272656E6365732E2E2E2E2E1C
:105210002E2E20200000000036B10000200A20437E
:105220004D302B204E5649432070656E64696E6781
:10523000207265672030786530303065323030203C
:105240003D20307825303878000000000C010060E7
:1052500000005740200A2041502F474E5353206DE5
:1052600061696C626F7820494E544D535231283039
:1052700078343035373030326329203D203078257E
:1052800030387800200A2041502F474E5353206D6C
:1052900061696C626F7820494E54535231283078DE
:1052A000343035373030323829203D2030782530C1
:1052B000387800000A2077616974696E6720666F2C
:1052C000722043502D3E20474E53532049504320D7
:1052D0006F6363757272656E6365732E2E2E2E2E4C
:1052E0002E2E202000000000200A2043502F474E81
:1052F0005353206D61696C626F7820494E544D5351
:105300005230283078373030303030313829203D35
:105310002030782530387800200A2043502F474E1F
:105320005353206D61696C626F7820494E5453521B
:1053300030283078373030303030313429203D203B
:105340003078253038780000200A20307825303831
:1053500078203D3D3D3E20307825303478200A20AD
:10536000000000001C0000703412AA55200A2041E1
:10537000502F474E5353206D61696C626F782073D4
:105380006861726564207265676973746572732001
:10539000746573742E2E2E2E2E7061737320000090
:1053A000200A2043502F474E5353206D61696C6291
:1053B0006F782073686172656420726567697374C1
:1053C00065727320746573742E2E2E2E2E70617389
:1053D0007320000040000480200A204E6F77207464
:1053E00079706520696E20726570656174207469DA
:1053F0006D657320696E20484558206E756D626535
:1054000072203A203C686868683E2000200A2069C3
:105410006E7075742064617461203D203078253091
:105420003478000000020480FFFF00000030048098
:1054300008B51120F949C001C86000200090401C47
:1054400000906428FBD308BD7CB505460246F4A154
:10545000FE4806F0FBFDFD4805F00FFF280A8021FD
:10546000EE4A08431060E8B210600020106010603F
:10547000106050601069C007FCD000216E46107AA1
:105480007054491C0529FAD900242A46F0A1F6488F
:1054900006F0DCFDF44805F0F0FE335D2246F3A192
:1054A000F14806F0D3FDF04805F0E7FE641C052C3A
:1054B000EBD96B46D97898780A04000619795B799C
:1054C00009021043084318437CBD7CB50C460546D1
:1054D000FFF7AEFFEDA005F0D0FED049280A086026
:1054E000E8B20860200E08602002000E0860200468
:1054F000000E0860E0B248600869C007FCD00020D8
:105500006B468A681A54401C0528FAD97CBDF8B548
:10551000FFF78EFF00210846FFF7D7FFEB4DEA4962
:105520002846FFF7D2FF2E1D00213046FFF7CDFFA2
:105530000324640521462846FFF7C7FF1921890483
:105540002846FFF7C2FFE2492846FFF7BEFFE149C0
:105550002846FFF7BAFF09213046FFF7B6FF0020C3
:1055600005210902401C8842FCD9DB49DB48FFF7D2
:10557000ACFF0A21B420FFF7A8FFD9490020FFF7AC
:10558000A4FFD8490420FFF7A0FFD7495020FFF718
:105590009CFFD021C420FFF798FFD44D0820294656
:1055A000FFF793FF0820FFF74FFFD1490C20FFF7CB
:1055B0008CFF0C20FFF748FFCE493C20FFF785FF0A
:1055C0003C20FFF741FFCC498020FFF77EFF802081
:1055D000FFF73AFFBD499020A431FFF776FF9020F6
:1055E000FFF732FFC5490820FFF76FFF0820FFF7DC
:1055F0002BFFC3497820FFF768FF7820FFF724FFCF
:10560000B24EA83E3046FFF71FFF371F0021384635
:10561000FFF75BFF3846FFF717FF08213846FFF713
:1056200054FF3846FFF710FFB648FFF70DFF30462E
:10563000FFF70AFF3046FFF707FF3046FFF704FF8A
:1056400021466020FFF741FFAF496020FFF73DFF93
:105650006020FFF7F9FEAD498420FFF736FF842074
:10566000FFF7F2FE2B2109019020FFF72EFF90207B
:10567000FFF7EAFEA6499020FFF727FF9020FFF7EB
:10568000E3FEA4499420FFF720FF9420FFF7DCFEFF
:10569000A1499020FFF719FF9020FFF7D5FE9F4901
:1056A0009020FFF712FF9020FFF7CEFE3046FFF765
:1056B000CBFE3046FFF7C8FEFF21B1319020FFF747
:1056C00004FF9020FFF7C0FE29460820FFF7FDFEEB
:1056D0000820FFF7B9FE92498420FFF7F6FE304616
:1056E000FFF7B2FE30212420FFF7EFFE8420FFF702
:1056F000ABFE7C20FFF7A8FE7420FFF7A5FE8820F4
:10570000FFF7A2FE9C20FFF79FFEF8BD7047704791
:1057100010B5FFF78DFE0A21B420FFF7D6FE10BDAD
:1057200010B52420FFF790FE7E4901402420FFF7AA
:10573000CCFE10BD10B52420FFF786FE802101436A
:105740002420FFF7C2FE10BD704710B576A005F00B
:1057500094FD03214420FFF7B8FE7D493420FFF774
:10576000B4FE10BD70B5FFF763FE00F0FFFF0A2125
:10577000B420FFF7AAFE774D00202946FFF7A5FECB
:1057800075490420FFF7A1FE5A493C20FFF79DFE12
:10579000D821C420FFF799FE8020FFF755FE012194
:1057A000490201438020FFF790FE03214905602054
:1057B000FFF78BFE00216420FFF787FE0820FFF72C
:1057C00043FE1121490301430820FFF77EFE634990
:1057D0007820FFF77AFE624A0023136208201062E5
:1057E00009218901506A08408842FBD15D4CA068BC
:1057F0000A30A1688142FCD313620020FFF724FE27
:10580000012601463605B1430020FFF75EFE374909
:105810000820FFF75AFE36490C20A5E0000004A03E
:10582000200A204861727269657220535049202C09
:1058300020726561642072662072656769737465A1
:105840007220307825303478200000003402006067
:105850002048617272696572205246207265672025
:105860002534782000000000A2010060200A2036C4
:10587000206279746573207265616420253064202C
:105880003D20307825303278200000000A20536512
:105890006E642048617272696572205246205350CE
:1058A00049206D657373616765202E2E2E2E2E2E76
:1058B0002E2E2E2E2E2E2E2E2E2E2E2E2E2E2E2E08
:1058C0002E2E2E20202000000000FEFF0C420000A3
:1058D000C0114400C0514F00488411004C400000EA
:1058E000E8FB1F005EDA2B008003B40000409A0240
:1058F0004037E91BFC1D4C00240A000000609A029E
:10590000E01F48013CF00000100060000020800013
:10591000B012000020030018B0100000B011000009
:105920000020800C7F070000200A20496E697469FE
:10593000616C697A652041494F2070696E2E2E2E68
:105940002E2E2E2E2E2E2E2E2E2E2E2E000000002F
:10595000C0730000E8FF1F00C0D92800B01F480D29
:105960004001048000000480FFF7AFFDFE49502095
:10597000FFF7ABFDFD495020FFF7A7FDA068801D94
:10598000A1688142FCD30020FFF75EFD3043014651
:105990000020FFF79AFD29460020FFF796FDFF2122
:1059A000B1312420FFF791FD0020FFF74DFD0420C9
:1059B000FFF74AFD0820FFF747FD0C20FFF744FDE5
:1059C0004020FFF741FD00F0D1FE0A21B420FFF78F
:1059D0007CFDE849E648C86070BD70B5FFF7C2FEBF
:1059E000E54CA068E5494018A1688142FCD3E44E2B
:1059F000A0203146FFF769FDE249A420FFF765FDCD
:105A0000E149A820FFF761FDE04DC0202946FFF7DE
:105A10005CFD3146A020FFF758FDA0687D210901FB
:105A20004018A1688142FCD32946C020FFF74DFDF4
:105A30000521B420FFF749FDCE49CD48C86070BDAF
:105A400010B5FFF7F5FC0321B420FFF73EFD10BDB4
:105A500070B5FFF7EDFC0521B420FFF736FDC9490D
:105A6000A420FFF732FDC849A820FFF72EFDC84942
:105A7000C020FFF72AFDC24DA0202946FFF725FDD3
:105A8000BD4CA0683C30A1688142FCD3C149A02034
:105A9000FFF71BFDA0683C30A1688142FCD329467A
:105AA000A020FFF712FD0521B420FFF70EFDB14C39
:105AB000AF4DE5600521B420FFF707FDE56070BD3F
:105AC00010B5FFF7B5FC18214420FFF7FEFCB249E2
:105AD0003420FFF7FAFCB1490520086010BDB14938
