:10000000480800202DBC01085D8A0108718A01089A
:10001000858A0108998A0108AD8A0108000000005C
:10002000000000000000000000000000C18A01087C
:10003000D58A010800000000A95E000855BC01082F
:1000400059BC01085DBC010861BC010819D6000853
:1000500065BC01084B920108AD8D010869BC01081F
:10006000BD8E0108A18F01086DBC010871BC01089B
:1000700075BC010879BC01087DBC010881BC010880
:1000800085BC010889BC01088DBC01080000000086
:1000900000000000000000000000000091BC01080A
:1000A00095BC0108E176010899BC01089DBC0108D6
:1000B000000000000000000000000000A1BC0108DA
:1000C000A5BC0108A9BC0108ADBC0108B1BC010870
:1000D000B5BC0108B9BC0108BDBC010800000000A6
:1000E000C1BC01085391010800000000000000009D
:1000F000000000000000000000000000C5BC010876
:100100000000000000000000C9BC01080000000061
:100110000000000000000000CDBC0108000000004D
:10012000EB900108D1BC0108D5BC010883900108FF
:10013000D9BC010800000000000000000000000021
:1001400000000000000000000000000000000000AF
:100150008B760108DDBC0108E1BC0108E5BC0108A3
:10016000000000000000000000000000000000008F
:10017000000000000000000000000000000000007F
:10018000E9BC0108EDBC010800000000000000000F
:1001900000000000F1BC01080000000000000000A9
:1001A000000000000000000000000000000000004F
:1001B000000000000000000000000000F5BC010885
:1001C000F9BC0108FDBC0108F8B5002240F6780131
:1001D000DFF8B00B01F07CFCDFF8AC4B0022102103
:1001E00004F1340001F074FCDFF8BC5C0020E8612D
:1001F000286268626064A064DFF8B06C7061A86215
:10020000E0642065E862286368630120A863002039
:100210006065A0654FF0FF30E863286400206864E3
:10022000E065B0612066A066E0662067A084E08497
:1002300002462021201D01F04BFC0020208160811E
:10024000606002460C21304601F042FCDFF8640C8D
:100250007060DFF8640C3060FF2030720020207086
:10026000A864288068802085F0656067B08130666A
:100270006085A085A067E86404F184072022211D21
:10028000384601F063FC2F6500206865A865F066BC
:10029000306770672866E865686601202867E86649
:1002A000A8660020E867A86768670620E085002048
:1002B0002086C4F88000E067DFF8EC037066002059
:1002C000B066062060860C207082002060660246C0
:1002D000402106F11C0001F0FBFB00221821281D23
:1002E000BDE8F84001F0F4BB10B584B0DFF8BC4BBA
:1002F0000C22214600A801F029FCFFF765FF0C2223
:1003000000A9204601F022FC1FBD00002DE9F047A6
:100310002DED0A8B00242546DFF8906B96ED1D0A23
:10032000D6ED060AC6ED1D0ADFF85C7A97ED178A4E
:1003300086ED068ADFF8708B98ED111AB8EE411A37
:10034000DFEDD91AC1EE818AC7ED178AD8F83C10C3
:10035000D8F82C90A9EB0100FA30FA22B0FBF2F2A7
:10036000FA2303FB120080B24C2803DAD8F83820B5
:10037000012A05D120467885B8850220F08152E116
:10038000D7F858A0BAF1040F22D3F4EE480AF1EEE0
:1003900010FA1DD5B4EE688AF1EE10FA18D59FED6B
:1003A000CC1A20EE811AB4EE681AF1EE10FA0FD5CD
:1003B0009FEDC81AF4EE418AF1EE10FA08DB87EDE2
:1003C000178AC6ED060A86ED1D0A0320F0813FE17B
:1003D00097ED119A87ED129AD7ED139AC7ED149AFB
:1003E000024600EE102AB8EE400AD8ED090AC0EE27
:1003F000800A98ED0A1A81EE001A22467A64FA649D
:100400001FE0491C89B2FA2900D12146DFF874396E
:1004100003EB8103D3ED0E1A71EEE01AD3F820340A
:1004200002EE103A32EE412AD7ED112A41EEA12A0E
:10043000C7ED112AD7ED131A42EE021AC7ED131AAF
:10044000521C92B28242DCDBD7ED110A80EE80AA08
:1004500087ED11AAD7ED130A80EE80BA87ED13BAA3
:10046000D6ED1CAA98ED150AD8ED160A70EE60BA02
:10047000C6ED1CBA00F08AFC012803D1204678851D
:10048000B885D0E0BAF1000F05D1788D052802DBE0
:10049000054620467885BAF1000F05D1B88D0528AC
:1004A00002DB45192046B8851AFA85F0002826D1C6
:1004B000B6EE00CA3BEE290A20EE0C0ADFED860AF2
:1004C000B4EE600AF1EE10FA11D43AEE090A20EE09
:1004D0000C0ADFED820AB4EE600AF1EE10FA06D4DF
:1004E000B3EE040AF4EE40BAF1EE10FA07D5788DB7
:1004F000401C7885C8F840900620F08193E0788D04
:10050000002802D04519204678851AFA85F000287F
:1005100019D1B7EE000AF4EE408AF1EE10FA02D5D6
:100520000720F0817FE09FED6E0AF4EE408AF1EE45
:1005300010FA05DBB88D401CB8850820F08172E008
:100540002046B88503E0B88D45192046B885284671
:1005500080B200F0B9FC012808D187ED178AC7EDF9
:10056000139AC6ED1CAA87ED119A5CE09FED5D0A17
:10057000F4EE408AF1EE10FA02DBDFF8280CF865A1
:1005800020467885BAF1000F08D1F86D386686EDFF
:1005900005AAC6ED1BBA00F09DFB36E0B6EE00CA18
:1005A00000F098FB012816D197ED170AF0EE000A2B
:1005B00020EE200A87ED170A6AEE0C0AC7ED110A31
:1005C0002BEE0C1A87ED131AC7ED120A87ED141AD9
:1005D00086ED060A6D1C97ED170AD6ED060A30EE79
:1005E000200A20EE0C0A87ED180A97ED110AD7EDC4
:1005F000120A30EE200A20EE0C0A86ED050A3AEEC9
:10060000AB0A20EE0C0A86ED1B0A97ED180A284665
:1006100080B200F069F800F020F8C8F8409001249A
:100620002046C8F84C00C8F83C900020C8F84400A8
:10063000C8F82400C8F82800C8F83800024610217D
:1006400007F1340001F0BAFA174870660020B0666E
:100650002046BDEC0A8BBDE8F08738B50025DFF8F1
:1006600028470120C4F8800000F0D6FC6060A06D2F
:10067000E18D884215D3606DE060606E2061A08CD2
:100680002081E08C60810120E067206F6061A06FB5
:100690002062A06EA061E06EE0612846C4F8800090
:1006A0000125284632BD000000007A44DFF8D80654
:1006B000C168416500218165018141818184C184D6
:1006C000C169C166016A81670021C0F88010704766
:1006D0006666E63F01004040000016430000A0426D
:1006E000666616400100A0402DE9F84F2DED048B01
:1006F00082B00446DFF89056AE6D06F10F0000F0B0
:100700000F0100200246F31D03F007030093034688
:10071000DFF8987707EB810C8CED070A002C1AD0D4
:10072000844616E0A1F1010EAEEB0C0E0EF1100E98
:100730004FEAEE080EEB18784FEA2818BEEB081EB9
:1007400003D407EB8E0E8EED070A0CF1010C0FFAA5
:100750008CFCA445E6DB102E02D2314609B200E043
:100760000F219FEDA48ADFEDA30A9FEDA31A844613
:100770001CE007EB810EDEED071AF5EE401AF1EEF4
:1007800010FA11DD38EE218AF4EE610AF1EE10FA6A
:1007900001D5F0EE610AF4EE411AF1EE10FA01D53E
:1007A000B0EE611A0CF1010C491E09B20029E0D526
:1007B0000FFA8CFC614603290BDB78EE600A70EEC1
:1007C000C10A891E01EE101AB8EEC11A80EE818AA4
:1007D00007E0012905DB00EE90CAF8EEE00A88EE9A
:1007E000208AB5EE408AF1EE10FA02D0BCF1000F7B
:1007F00001D1B0EE408A85ED198A9FED800AB4EEF2
:10080000408AF1EE10FA02D5B0EE408A08E09FED82
:100810007C0AB4EE408AF1EE10FA01DBB1EE028AF6
:10082000B0EE040AB4EE408AF1EE10FA08D495ED69
:100830001D0AF0EE080AB4EE600AF1EE10FA02D5D5
:100840000321A98401E00421A984D5F8548008F08B
:10085000070ADFF830950AEB090CA98C8CF86418AC
:10086000002C0BD0A8F1010E0EF0070ECE4408F0BC
:10087000070BCB449BF864B88EF864B84FF0080EB1
:1008800010E0BBF1040F00D15B1CAAF1010A0FFAC2
:100890008AFABAF1000F01D50AF1080AAEF1010E89
:1008A0000FFA8EFEBEF1010F16DB0FFA8AFA0AEB81
:1008B000090B9BF964B8BBF1030F01D1521C03E093
:1008C000BBF1040F00D1401CBEF1060FDDDBBBF114
:1008D000030FD6D15B1ED8E780B292B200EB020EB6
:1008E000BEEB420F08DBBEEB400F02DA0420E884C7
:1008F0000DE01BB2002B02D50320E88407E0012B9A
:1009000002DB0420E88402E09CF96408E88449B230
:10091000B0EE480A384600F01FF9DFED8E0AB4EE5B
:10092000600AF1EE10FA01D5B0EE600A85ED1A0A00
:10093000204600F1010A00EE90AAF8EEE08AD5ED1B
:100940001B0A48EE800AC5ED1B0A9FEDBF9A20EEF8
:10095000080A20EE090A009909EB810101F6080155
:1009600081ED000A002C1AD04FF0000E15E000991E
:10097000491EA1EB0E0108318A1001EB5272D21010
:10098000B1EBC20105D409EB810101F6080181ED4B
:10099000000A0EF1010E0FFA8EFE8645E7DB082EE7
:1009A00002D2304600B203E0072001E0401E00B250
:1009B0000028FBD585ED1C0AE98C49B2384600F0C9
:1009C00045F968EE090AB7EE001AC1EE200A20EEDA
:1009D000800AD5ED1E0A48EE800AC5ED1E0A0AEB14
:1009E000080068650AEB0600A86502B0BDEC048B40
:1009F000BDE8F18F000000000000C8426666A63F17
:100A00000100904049B2032944D1DFEDA40AB4EEBD
:100A1000600AF1EE10FA01DBB0EE600A9FEDA01A59
:100A2000DFEDA00A40EE010A90ED011A9FED9E0A4B
:100A3000B4EE401AF1EE10FA43DADFED9C1AB4EE90
:100A4000611AF1EE10FA74DBB4EE401AF1EE10FA0E
:100A50006FD59FED970A31EE000ADFED961A60EE32
:100A6000211A9FED950A9FED952A01EE002A22EEAC
:100A7000200A20EE210A9FED922ADFED922A41EE14
:100A8000022A62EEA00AB7EE001A31EE611A00EEF9
:100A9000810A56E0DFED8C0A60EE200A60EE800AE3
:100AA0009FED8A1A40EE410A9FED890A70EE800A96
:100AB00090ED011A9FED7C0AB4EE401AF1EE10FAA7
:100AC0000ADB90ED010A9FED7C1ADFED7C1A40EE07
:100AD000011A21EEA00A34E0DFED741AB4EE611AB7
:100AE000F1EE10FA25DBB4EE401AF1EE10FA20D543
:100AF0009FED6F0A31EE000ADFED6E1A60EE211AEB
:100B00009FED6D0A9FED6D2A01EE002A22EE200A6C
:100B100020EE210A9FED6A2ADFED6A2A41EE022AC1
:100B200062EEA00AB7EE001A31EE611A00EE810AF9
:100B300007E090ED010A20EE800ADFED8D0A20EE3D
:100B4000200A007A022803D1DFED8A0A20EE200A6B
:100B500070470000CDCC4C3E10B52DED028BB0EEB1
:100B6000408A0C46DFED848A49B2FFF74BFF64B23E
:100B7000042C31D1DFED810AB4EE608AF1EE10FA77
:100B800016DBB1EE021AB4EE418AF1EE10FA0FD57F
:100B9000DFED7B0A78EE200AB1EE041A60EE810ADE
:100BA000FCEEE00A10EE900AC01D08EE900A3DE04F
:100BB000B4EE608AF1EE10FA03D5072008EE900A31
:100BC00034E0F1EE020AB4EE608AF1EE10FA2DDBA9
:100BD000122008EE900A29E0F7EE080AB4EE608AC7
:100BE000F1EE10FA11DBDFEDAD0AB4EE608AF1EE42
:100BF00010FA0AD5FFEE080A78EE200AB1EE041AC0
:100C000060EE810AFCEEE08A10E0F7EE080AB4EE2E
:100C1000608AF1EE10FA09D4DFEDA00AB4EE608A22
:100C2000F1EE10FA02DB062008EE900ADFF8340D30
:100C300018EE901A00EB8100D0ED000A20EE200A99
:100C4000BDEC028B10BD00000000704270B506467E
:100C5000F0EE0C0A49B2042904D19FED911A40EE3E
:100C6000010A03E09FED8F1A40EE010A10EE900A90
:100C700000F0DCFFDFF8042BDFF8083D00F0FEFF9A
:100C800004460D46306800F0D1FF22462B4600F0A6
:100C9000F5FF01F0C5F800EE100A70BD9A991940F1
:100CA0006ADEF13D8638163F00002A4300001643F5
:100CB000000016C3CDCC4C3D4260E53A6666263F47
:100CC00052491D3BB81E053F2575C23E7593E83F4E
:100CD0002497534000202C4991ED170AD1ED180AB2
:100CE0009FED731A60EE810AB4EE600AF1EE10FA1D
:100CF00004D50A8D022A01DB012017E0DFED6F0A1F
:100D0000B4EE600AF1EE10FA10D5D1ED100A9FEDA5
:100D10006C1AF4EE410AF1EE10FA07DB9FED691A46
:100D2000F4EE410AF1EE10FA00D5012001281ED19F
:100D3000D1ED1D0AB0EE001AF4EE410AF1EE10FA00
:100D40000AD5DFEDB40AB4EE600AF1EE10FA03DB67
:100D5000098D022900DB0020544991ED190ADFEDCD
:100D6000BB0AB4EE600AF1EE10FA00D5002070471D
:100D7000C1C0C03B3333733F0000000066660640CD
:100D8000666606C07C340020381A00200021DFF897
:100D9000502CD38C032B1EDA92ED170ADFED9D0A3F
:100DA000B4EE600AF1EE10FA15DB92ED110AF2EEE4
:100DB000040AB4EE600AF1EE10FA0CD592ED130AB3
:100DC000DFEDA30AB4EE600AF1EE10FA03D50421B8
:100DD000364BD981012192ED130AF6EE000A92ED0D
:100DE000141A30EE011A21EE201AF3EE0E1AB4EEA8
:100DF000611AF1EE10FA1CD492ED111AD2ED121A0A
:100E000071EE211A61EEA01AB2EE042AF4EE421A33
:100E1000F1EE10FA0DD4F3EE041AB4EE610AF1EE1D
:100E200010FA06D4B1EE040AB4EE401AF1EE10FA4C
:100E300003D505211D4BD981012192ED170A9FEDA4
:100E4000A71AB4EE410AF1EE10FA24DB92ED0F0A74
:100E500092ED101A80EE010A9FEDA11AB4EE410A3C
:100E6000F1EE10FA17DB00EE100AB8EE400A20EEA1
:100E7000200AD2ED0D0AF4EE400AF1EE10FA0AD57E
:100E8000D2ED0E0AF4EE400AF1EE10FA03D5152069
:100E90000649C88101210846704700009A993940E7
:100EA000CDCC4C3ECDCCCC3D24650020701B002029
:100EB0003333333F00003543000090429A99993F05
:100EC000010020420000C8420021DFF8142B936D7E
:100ED00013FA80F3DFF8A40B022B18D392ED170A54
:100EE000DFEDA70AB4EE600AF1EE10FA0FDB92ED27
:100EF000140AD2ED130A80EE200ADFEDA20AB4EE46
:100F0000600AF1EE10FA02DB0921C1810121022BF6
:100F10001AD39FED9D0AD2ED140A92ED131AC0EE7A
:100F2000810AF4EE400AF1EE10FA0DDBD2ED120A5E
:100F300092ED111AC0EE810AF4EE400AF1EE10FAB9
:100F400002DB0A21C1810121002B0FD090ED1B0A89
:100F5000DFED8E0A20EE200AD0ED1C0AF4EE400AE6
:100F6000F1EE10FA02D50B21C181012192ED170A91
:100F7000DFED870AB4EE600AF1EE10FA08DA92EDBE
:100F8000180ADFED840AB4EE600AF1EE10FA1ADBFB
:100F900092ED130ADFED800AB4EE600AF1EE10FA6A
:100FA0000BD492ED110ADFED7D0AB4EE600AF1EE8A
:100FB00010FA02D4138D022B05DBD38C032B02DB3A
:100FC0000C21C181012190ED050ADFED730AB4EE19
:100FD000600AF1EE10FA08D492ED1D0AF1EE040A4F
:100FE000B4EE600AF1EE10FA12D5DFF8942AD36D50
:100FF000126ED21800EE102ABAEEEF0ADFED680A80
:10100000B4EE600AF1EE10FA02DB0D21C18101217C
:1010100008467047010000400020DFF8C4194A6DFF
:1010200012F10A0F0FD29FED600AD1ED1B0AF4EE08
:10103000400AF1EE10FA06DAD1ED1E0AF4EE400A8B
:10104000F1EE10FA00DB012070470000CDCC4C3FE0
:101050000000204210B401460020DFF8242ADFF807
:10106000283AD3F86C4800EE104AD1ED000AB4EEED
:10107000600AF1EE10FA03D15468641C546001E078
:101080000446546003F66C0393ED010AD1ED010AA6
:10109000B4EE600AF1EE10FA03D19468641C946017
:1010A00001E00446946093ED020AD1ED020AB4EE29
:1010B000600AF1EE10FA03D1D168491CD16001E059
:1010C0000146D1605168322905D29168322902D295
:1010D000D168322900D3012010BC70470100404084
:1010E0003433333F0146002091ED000AB5EE400A4B
:1010F000F1EE10FA01DCB1EE400ADFF88429DFEDF1
:101100002B0AB4EE600AF1EE10FA03DB13695B1CE4
:10111000136101E00346136191ED010AB5EE400A47
:10112000F1EE10FA01DCB1EE400AB4EE600AF1EE25
:1011300010FA03DB53695B1C536101E00346536102
:1011400091ED020AB5EE400AF1EE10FA01DCB1EEC3
:10115000400AB4EE600AF1EE10FA03DB9169491C13
:10116000916101E0014691611169322905D251690D
:10117000322902D29169322900D301207047000040
:10118000010060400100A040010070419A99993E21
:1011900001009040010080400000C8430000164359
:1011A00001005C420000A0408096184B35336B4133
:1011B0002DE9F24F0446002500F0B6FB2046FFF76C
:1011C00049FF82462046FFF78DFF8346DFF8B0686F
:1011D0002846F0647065B065DFF8A078F881B06EDD
:1011E000DFF8A488D8F86C1800EE101AD4ED000AC5
:1011F00070EEC00A01EE100AB8EEC11A60EE810A64
:10120000F5EE400AF1EE10FA18D5D6ED1D0A30EED3
:10121000601AB5EE401AF1EE10FA01DC30EEC01A99
:10122000DFED5A0AB4EE601AF1EE10FA02DB716ECD
:10123000491C716686ED1D0A4042B06608F66C00D6
:1012400090ED010AF16ED4ED010A70EEC00A01EED4
:10125000101AB8EEC11A60EE810AF5EE400AF1EEFE
:1012600010FA18D5D6ED1E0A30EE601AB5EE401A07
:10127000F1EE10FA01DC30EEC01ADFED440AB4EEF4
:10128000601AF1EE10FA02DB726E521C726686ED85
:101290001E0A4942F16690ED020A306FD4ED020A4F
:1012A00070EEC00A01EE100AB8EEC11A60EE810AB3
:1012B000F5EE400AF1EE10FA18D5D6ED1F0A30EE21
:1012C000601AB5EE401AF1EE10FA01DC30EEC01AE9
:1012D000DFED2E0AB4EE601AF1EE10FA02DB716E49
:1012E000491C716686ED1F0A40423067DFF894970B
:1012F00099F80000052806D10120B063284689F836
:10130000000030807080706C009908187064F06A7A
:10131000F16B884201D10120B0630099204600F0B2
:1013200065F9BAF1010F02D0BBF1010F30D19FED89
:10133000AE0AD4ED000A94ED001A60EE810A94ED35
:10134000011AD4ED011A21EE211AD4ED021A94EDFE
:10135000022A61EE821A7068322804D2306932287B
:1013600001D230EE800AB068322804D27069322887
:1013700001D230EE010AF068322804D2B069322876
:1013800001D230EE210A00F087FB15E0CECC4C3EB6
:1013900094ED000AD4ED000A20EE200AD4ED010AF3
:1013A00094ED011A00EE810AD4ED020A94ED021ABE
:1013B00000EE810A00F070FB706B002810D1284607
:1013C00004E008EB810181ED000A401C80B2014677
:1013D0000729F6DBF1EE0C0A60EE200AC6ED070ADB
:1013E000316B08EB8100D0ED000A70EE600A96EDDB
:1013F000071A70EE810AC6ED070A80ED000AF06A4E
:1014000008EB8000C0ED0E0A96ED090A30EE200AC6
:1014100086ED090A08EB810191ED070A30EEC00A5A
:1014200000F2204282ED000AC1ED070A96ED0A0A99
:10143000D0F8201400EE901A30EE200A86ED0A0A49
:1014400008F66C0194EC030A81EC030AB16C491CA8
:10145000B16499F80020012A01D0032A39D1022968
:101460002CD2B9F82620042A28DAD9F858100029F5
:1014700060D196ED080ADFEDC00AB4EE600AF1EE25
:1014800010FA08D5D0F8201401EE101AB4EE601A44
:10149000F1EE10FA0FDAF9EE0C0AB4EE600AF1EE92
:1014A00010FA47DBD0F8200400EE100AB4EE600A10
:1014B000F1EE10FA3ED50120B0633BE0272908D3B6
:1014C0003288002A03D011FA82F14B2901D301217D
:1014D000B163D0F8200400EE900A96ED080A00F0FF
:1014E0004FF999F80000012824D13088002821D034
:1014F000718800291ED0032211FA80F03D2801DBFB
:101500000120B063B9F82600042800DB0222B9F8F4
:101510002800824201D20120B063F06D3066706E07
:10152000F06528467066FEF7F1FE054600207080E3
:10153000A9F82800F06A316C401AFA30FA24398A86
:1015400001292146B0FBF1F104FB110002D19628DC
:1015500006D101E0642803D100F016FA0120F064FE
:10156000F06A316C401AFA302146B0FBF1F104FB0D
:101570001100642803D100F035FA0120F064B9F8B5
:101580000A00002802D00120F06405E0B9F8080044
:10159000002801D00120F064F06A08EB8001D1F846
:1015A00020143162401CF062FA2801D10020F06260
:1015B000306B401C3063072801D100203063706B12
:1015C000401C7063F06C00280BD009F104003065FA
:1015D00009F18404202209F10401204600F0B6FA42
:1015E00034652846BDE8F28F0000000030B4DFF813
:1015F000982490ED000AD2F86C3800EE903A30EE64
:10160000600A02F66C03D0ED010A93ED011A70EE48
:10161000C10A90ED021AD3ED021A31EE611AB5EE4D
:10162000400AF1EE10FA02DDF0EE401A01E0F1EEB0
:10163000401AF5EE400AF1EE10FA02DDB0EE602A33
:1016400001E0B1EE602AB5EE401AF1EE10FA02DDCB
:10165000F0EE412A01E0F1EE412A71EE821A71EEBC
:10166000A21AB5EE400AF1EE10FA01DCB1EE400A22
:10167000DFF86C3393ED0D2A32EE000A83ED0D0A8C
:10168000F5EE400AF1EE10FA01DCF1EE600A93ED9E
:101690000E0A30EE200A83ED0E0AB5EE401AF1EE86
:1016A00010FA01DCB1EE411A93ED0F0A30EE010A97
:1016B00083ED0F0A93ED100A30EE210A83ED100A34
:1016C000DFF8B803DFF8B843646B002C12D10024B4
:1016D00006E002EB850505F62805C5ED001A641C39
:1016E000A4B225460F2DF4DBB2EE0E0A21EE800ADD
:1016F00080ED170A848902EB8402D2F8285800EEA4
:10170000105A31EEC00AD0ED170A30EE200A80EDF3
:10171000170A02F62802C2ED001AF2EE0E0A80EE57
:10172000200A83ED1D0AD0ED190AB4EE600AF1EE2D
:1017300010FA01D580ED190AD0ED1A0AF4EE400A2C
:10174000F1EE10FA01D580ED1A0ADFEDB40AB4EE1D
:10175000600AF1EE10FA03D5026E8918016601E005
:1017600000210166611C818189B20F2901D100210C
:101770008181006E30BC70470100E0407B14AE47B1
:101780009FEDA71A9648C18C042901DBB0EE001A20
:10179000B5EE400AF1EE10FA07DBF5EE400AF1EE85
:1017A00010FA02D5018D491C01850178002905D068
:1017B00002295FD02DD3032976D0B3E0F1EE0C1AC5
:1017C00031EE211AB4EE401AF1EE10FA0CDBB4EE51
:1017D000601AF1EE10FA07D5A9498A6C102AC0F0F8
:1017E0008F8000228A648BE0A549CA6AA64901EB72
:1017F0008202D2F8201401EE901AA44A92ED010A56
:10180000F4EE401AF1EE10FA40F18C80C2ED011AAC
:1018100088E09B49CA6A9C4B03EB8202D2F82024E1
:1018200001EE902A994A92ED002AB4EE612AF1EE77
:1018300010FA01D5C2ED001AF7EE001AB4EE610AF3
:10184000F1EE10FA6EDBB7EE000AF4EE400AF1EEAC
:1018500010FA67D58A6C0A8000228A64B9EE0C0AF5
:1018600030EE410AF4EE400AF1EE10FA10D40221F3
:10187000017057E0F9EE0C1A31EEC11AB4EE410ACC
:10188000F1EE10FA4EDBF4EE410AF1EE10FA49D512
:10189000032101707C497A4AD26A01EB8201D1F8B6
:1018A00020147A4A51603DE07549CA6A764B03EBD1
:1018B0008202D2F8202401EE902A744A92ED012A85
:1018C000F4EE421AF1EE10FA01D5C2ED011ADFED85
:1018D0006A1AB4EE610AF1EE10FA23D5F4EE610A49
:1018E000F1EE10FA1EDB8A6C4A8000228A64B1EEA7
:1018F0000C0A31EE000AB4EE600AF1EE10FA0FD5D0
:1019000001210170614A5E4913684B6553688B651C
:101910005D4BC96A03EB8101D1F82014116001E02D
:1019200011460170007870475648007870470028CB
:1019300004D05349096D202200F008B9704780B5E2
:1019400000204F49486300F04DF800F01DF84D4865
:10195000052101702022011D8430BDE8084000F0FF
:10196000F5B800002C1D0020002806D0434942682D
:101970004A6002680A60007A087270473F48006E49
:1019800070470000E17A743F10B5154C0020A06547
:10199000606120612081A0846085A08520666066EA
:1019A000024640213A4800F093F8D4F8800001281C
:1019B00001D1FEF77BFE208E002808D0618E814287
:1019C00001D2E08500E0E18500202086E067E06F3D
:1019D000012801D1608EE0850020E06710BD000085
:1019E000381A002010B5274C0020606120610246A3
:1019F0000821284800F06CF80020E0846081206114
:101A00006085A085D4F88000012801D1FEF74EFE44
:101A1000E06F012801D1608EE08510BDEC51383EA9
:101A20000000000038B50446144D1648012C04D1BE
:101A3000062141860C21698203E0072141860F219E
:101A40006982298AA14209D0C18D082903DA408E12
:101A500000F006F802E0688A00F002F82C8231BD3E
:101A600008498A6DCB8D9A4203D2C8850020C86789
:101A70007047088670470000FEFF7FBF701B002084
:101A800024650020381A00207C340020AC68002037
:101A90008C1B0020E03C002081B08DED000A0098F6
:101AA000401000F1FE500090DDED000AC0EE200A6B
:101AB0009DED001A70EE810ACDED000AB5EE001A18
:101AC000DDED001A80EE210A00EE810A01B07047B8
:101AD00062F30F2262F31F4200B500BF1300964667
:101AE0009446103928BFA0E80C50FAD85FEA417C30
:101AF00028BF0CC048BF40F8042BC90728BF20F8F6
:101B0000022B48BF00F8012B00BD50F8041B61B147
:101B100050F8042BD30744BFA9F101039A180023FE
:101B2000091F42F8043BFAD1EFE7704762B38B0715
:101B300008D0521E11F8013B00F8013B00F0248050
:101B40008B07F6D1830740F0208000BF103A07D3FF
:101B500030B4B1E83810103AA0E83810F9D230BCEF
:101B6000530724BFB1E80810A0E8081044BF51F89B
:101B7000043B40F8043BD20724BF31F8022B20F885
:101B8000022B44BF0B7803707047083A07D3B1E8C3
:101B90000810083A40F8043B40F804CBF7D253074A
:101BA000E4E78268521C8260426832B10268531CCA
:101BB000036011704168491E4160704762F30F2253
:101BC00062F31F42401810F0030308D0C91A1FD354
:101BD000DB0748BF00F8012D28BF20F8022D1300B5
:101BE00030B414461546103928BF20E93C00FAD815
:101BF000490728BF20E90C0048BF40F8042D8900A0
:101C000028BF20F8022D48BF00F8012D30BC7047D6
:101C1000C91818BF00F8012DCB0728BF00F8012D07
:101C200070470268531C0360117070475FF0FF0C2F
:101C30001CEAD05114BF614506E0C110400721F0F5
:101C4000E04101F16051704779B900F000410002B4
:101C50000AD0B0FA80FC00FA0CF001F16051A1EB5F
:101C60000C5101EBD0214005704741020CBF40F4FC
:101C7000E0016FF00001002070470000B0B581EA7C
:101C8000030C0CF0004C40F2FF7515EA11541DBF17
:101C900015EA1357AC42AF4239E0E41923EA455341
:101CA00043F48013C90241F0004141EA505EC7028B
:101CB0001100A7FB020200284FF00000EEFB0120FC
:101CC0004FF00001E3FB072118BF42F0010240186A
:101CD00000214941E3FB0E01A4F580640F0302D209
:101CE00052004041494154F101046CDD470872F152
:101CF000004250F1000051EB0451A1F580115CBF8E
:101D000041EA0C01B0BD4CEA05510020B0BD05EA26
:101D10001357AC4214BFAF4241E050EA410E1CBF22
:101D200052EA430E02E061460020B0BD24423C442A
:101D30001BD15FEA070EF6D0090302BF014600205F
:101D4000AEF1140EB1FA81F7AEEB070401FA07FE0B
:101D50000C37C7F1200100FA07F7C8404EEA000E21
:101D600023EA455343F48013A2E733F00043B3FA68
:101D700083F704BFB2FA82FE77440B3FE41BB7F14E
:101D8000200E2FBF02FA0EF3BB40C7F1200E22FA3D
:101D90000EFE38BF43EA0E03BA40641C82E750EAE5
:101DA000410E14BF52EA430E6FF000014FF40017CA
:101DB00017EB430F8ABF194617EB410FB5E74CEA03
:101DC00005510020B0BDD4F10104B4F120070FDAB1
:101DD000C4F12007520828BF42F0010210FA07F5AB
:101DE00001FA07F7E1BF2A43E0403843E1400FE042
:101DF000352C98DCC7F1200452EA400220FA07F2A1
:101E000018BF42F0010231FA07F0A1400A43002155
:101E100072F1004250F1000051EB0C01B0BD000026
:101E20004FEAF17CBCF1E04C2CBFBCF5001F11E087
:101E30005FEA4C0C34BFBCF17F5F2EE05FEA9C0C84
:101E40004FEA0C1C4FEA3C0CC10071F100414CEB15
:101E500050707047C90241EA5051C00218BF41F0AA
:101E6000010141F000414FEA6C50C0F10900212806
:101E700010D240EACC7CCCF1200C11FA0CF070F1BD
:101E80000040CCF1200C21FA0CF00CF0004C40EB9F
:101E90000C0070474FEACC707047490011F5001FE5
:101EA00004D84FEACC10FF30C0057047C817704700
:101EB0000FB410B5DFF81C4D0020A0730120207274
:101EC000002060724FF0FF3020700F20E07214206D
:101ED000207300206073208720656074E0652066B1
:101EE0000246242104F11400FFF7F2FD01F01FFB6C
:101EF000606403220121002001F044FE022801D188
:101F000002201FE00FF2440001F070FB002060731C
:101F1000208720659DF80C209DF80B109DF80A0085
:101F200002F041F900223C21DFF8780DFFF7D0FDE7
:101F3000002060662074A073E063A066A4F84000EF
:101F4000A074012010BC5DF814FB000050443A203E
:101F500053746172745065646F2D303832330000F1
:101F600080B503220121084601F00CFE032801D1AF
:101F7000032002BD012002BD70B52DED028B9CB087
:101F800005A801F064FEDFF84C5C686CDFF8804C5B
:101F90006178427A914205D0407A02F004FC686C84
:101FA000407A6070686C2178027B914205D0007B9A
:101FB00002F0F6FB686C007B20700621032001F024
:101FC0008FFE002816D1DFF8E00C0D900020E863AA
:101FD000B5F84000401CA5F8400080B240F2EF2167
:101FE00088424ADB0FF2EC0001F000FB0020A5F86C
:101FF000400042E09DED0D8A95F90800022835D198
:1020000095ED1A0AB4EE408AF1EE10FA03D1A88FCA
:10201000401CA88701E00020A8879FED8B0AB4EE42
:10202000408AF1EE10FA06D49FED880AB4EE408A99
:10203000F1EE10FA03DBE88F401CE88701E0002096
:10204000E887EE8FAC8F972C01DA972E10DB18EE15
:10205000100AFFF7EBFDCDE90001324621460FF2F1
:102060008C0001F0C3FA0020E86301E00020E8637F
:102070000020A5F8400085ED1A8AA86CC068446865
:1020800002F0E0F8287295F90800022806D13C2CED
:1020900004D11421032001F0DCFD07E0012805D163
:1020A000142C03D13C21032001F0D3FD05980290AC
:1020B000069803900798049021469DED0D0A02A80A
:1020C00001F0B7FFE86C2018E86401201CB0BDECFB
:1020D000028B70BD50443A204261726F4469736153
:1020E000626C6564203038323300000050443A207E
:1020F0004241524F202564202564202566000000BF
:1021000010B5DFF8D04A94F9000000283AD494F9C9
:102110000A0094F90110814228D1217B0818A0728D
:1021200040B23D2801DB3C38A07294F90A100FF24E
:10213000700001F05BFA0020E064DFF8000C90F919
:10214000010010F1010F01D1012010BD94F901101F
:10215000081A02F02DFB21F0004102F041FB40B2D1
:10216000012801DB012010BD002010BDDFF8D00BDD
:1021700090F90120914203D0D4E90023C0E9002363
:10218000002010BDE06CDFF8BC1B884205DB0FF2BD
:102190001C0001F02BFA012010BD002010BD000032
:1021A00050443A204E5420256400000050443A2008
:1021B0004E6F54696D6500002DE9F8430026DFF885
:1021C000144A01E07819A07294F90A50002E1BD429
:1021D0006078461B76B294F90C70002EF2D530462A
:1021E00002F0E6FA21F0004102460B46904699467D
:1021F000384602F0DDFA42464B4602F01DFBE3D2C0
:10220000E81BA0720026DFE73C2D02DBA5F13C00B5
:10221000A072BDE8F18338B5DFF8B8394FF46164D6
:10222000C1EB0115AD0014FB005414194FF47A757D
:102230006C43DC611B7C009313460A4601460FF297
:10224000100001F0D3F931BD0000FA430180BB4416
:1022500050443A20425420256420256420256420DF
:1022600025640000F8B52DED028B9CB0DFF8346AD0
:10227000314684B068463C22FFF768FC0FBC00F092
:1022800015FD10EE100AFFF7D1FC41EC100B9FED8D
:10229000848BDFF84049256A53EC102B51EC180B66
:1022A000FFF7ECFC02F09CFA15FA80F020624FF682
:1022B000FF75A84200D32562314684B068463C22AF
:1022C000FFF744FC0FBC00F0A5FC10EE100AFFF76E
:1022D000ADFC41EC100B676A53EC102B51EC180B62
:1022E000FFF7CCFC02F07CFA17FA80F06062A8429B
:1022F00000D3656200200C9002200B90314684B020
:1023000068463C22FFF722FC0FBC00F00DFBE18A7F
:102310004018E08280B2FF2801DBFF20E08200202D
:102320000C9003200B90314684B068463C22FFF7A6
:102330000DFC0FBC00F0F8FAA16A4018A062A84298
:1023400000D3A56200200C9006200B90314684B08B
:1023500068463C22FFF7FAFB0FBC00F0E5FA218B40
:102360004018208380B2FF2801DBFF20208300205B
:102370000C9007200B90314684B068463C22FFF752
:10238000E5FB0FBC00F0D0FA618B4018608380B28F
:10239000FF2801DBFF20608300200C9008200B90B9
:1023A000314684B068463C22FFF7D0FB0FBC00F0FA
:1023B000BBFAE16A4018E062A84200D3E56200205F
:1023C0000C9009200B90314684B068463C22FFF700
:1023D000BDFB0FBC00F0A8FA216B40182063A84297
:1023E00000D325630DA801F0ACFEE76D1A98FFF746
:1023F0001DFC0022DFF85439FFF740FC02F0F0F931
:1024000057FA80F0E065216E491C2166B0FBF1F0BF
:10241000207500200C9001200B90314684B0684656
:102420003C22FFF793FB0FBC00F07EFA616B401873
:102430006063A84200D36563E27B616B0FF2140016
:1024400001F0D4F8E07B00F062FB1CB0BDEC028B25
:10245000F1BD000050442042542073746570202563
:10246000642C202564000000DFF86807C18A002979
:1024700014D1816A002911D1018B00290ED1418B21
:1024800000290BD1C16A002908D1016B002905D1AF
:10249000406B401E8041C043C00F70470120704711
:1024A00000000000000059402DE9F04F9DB00646A5
:1024B0000025B146DFF81C47A07B3146884210D08A
:1024C000B9F1010F40F09D80284602F067F9A06C39
:1024D000002806D0C068027841780FF2383001F049
:1024E00085F80DA801F02DFEDFF8B8A728460C905E
:1024F00001200B90514684B068463C22FFF726FB32
:102500000FBC00F011FA07469DED1A0ADAED0D0A2C
:1025100030EE600A10EE100AFFF788FB2A46DFF85B
:102520002C38FFF7ABFB02F05BF980461FFA88F806
:10253000BDF83600BAF80210A0EB010B5FFA8BFB76
:10254000A06C816C4A78002A02D10978002905D054
:10255000A16D0F9A5118626E891AA165C06C4178FD
:10256000002902D10278002A05D0626D0F9B9A18CB
:10257000636ED21A6265626C927A002A18D1626D1B
:10258000002A07D0002902D10078002802D00120BB
:1025900002F0DAF9A06D00280AD0A06C806C4178B6
:1025A000002902D10078002802D0012002F085FA2B
:1025B000002E36D1002F02D15BEA080000D00125A1
:1025C0000020E0644FF0FF302070D4E90001DFF814
:1025D0007027C2E90001DFF8882DC2E90001DFF8A9
:1025E0005C27C2E90001E07AA072A07B002850D0ED
:1025F0000020A073207C00284BD001206074054689
:1026000047E0002E07D10FF2282000F0EFFF012055
:1026100002F0C4F865E70FF2242000F0E7FF284637
:10262000F4E000F001FA00281BD000A801F058FAED
:10263000204600A90522FFF779FA28466072D4E9FE
:102640000001DFF8FC26C2E9000194F9023094F998
:10265000012094F900100FF2002000F0C7FFFFF7EF
:10266000ABFD00A801F03CFA204600A90522FFF7C7
:102670005DFAFFF745FD00280BD0D4E90001DFF833
:10268000BC26C2E90001207C002801D00120607432
:102690000125B9F1010F06D1A07B3146884202D055
:1026A00000F0A4FAA673B9F1010F5DD1002F5BD041
:1026B000DFF8AC6CE07B217C08430CD10120207456
:1026C0000522214606F10800FFF740FAA27861785A
:1026D0002078FFF7A0FD94F9010096F90910401A3F
:1026E000411E222901D2012005E010F1230F01DA59
:1026F000012000E0002001282FD1FFF7B5FE0028BF
:102700002BD0E07B401CE073C0B2152809D10FF23A
:10271000601000F06BFF012060741420E07301254D
:102720001BE00020E06520660246242104F114002D
:10273000FFF7CEF9207C401C2074A27861782078C5
:10274000FFF769FD0522214606F10800FFF7FEF9B3
:10275000217C0FF22C1000F049FFFFF783FD3C2293
:102760000DA95046FFF7F2F9607B012834D1208F84
:10277000002805D10FF2181000F038FF012523E0E2
:10278000216D814218D2002F02D15BEA080000D0EF
:102790000125DFF8CC6B96F9020094F902209042F3
:1027A00012D0491C21650FF2FC0000F01FFFD4E994
:1027B0000001C6E9000107E0002060732087206562
:1027C0000FF2F00000F012FFB9F1010F04D1207CEC
:1027D000002801D0012060742846012801D1002181
:1027E000E164A16CC9684978002906D10021E1643F
:1027F000012801D100F0FAF90025002D03D1A07CB9
:10280000012800D101250F98606628461DB0BDE85B
:10281000F08F000050443A20526566204528256418
:10282000292C492825642920303832330000000043
:1028300050443A206C63646F6E00000050443A20AC
:102840006249734150536C656570696E6720777299
:102850006F6E67202564000050443A2054696D650E
:102860004E6F7469202564202564202564000000D3
:1028700050443A2042542042462046554C4C0000D9
:1028800050443A204E4557204254202825642900C0
:1028900050443A20526571205065646F496E666FEE
:1028A0003100000050443A207574696D657220252E
:1028B0006400000050443A20526571205065646FF6
:1028C000496E666F3200000010B50020DFF8841BEF
:1028D000C8640322062101F055F9044600F007F808
:1028E000204610BD03220621012001F04BB900B59E
:1028F0008FB000A801F025FC3C2200A9DFF85C0B9A
:10290000FFF724F901200FB000BDDFF8480B406D40
:1029100070470020DFF83C1B486570470020DFF857
:10292000341B8865704700000FB410B590B00024C8
:102930009DF9880001286DD000A801F002FC9DF9E6
:102940008400401E082865D8DFE800F02905111D25
:102950002935414D590003981599884201D3441AED
:1029600058E0DFF8102B1018401A441C52E004986D
:102970001699884201D3441A4CE0DFF8F82A10185F
:10298000401A441C46E005981799884201D3441A1E
:1029900040E0DFF8E02A1018401A441C3AE00298A0
:1029A0001499884201D3441A34E0DFF8C82A101879
:1029B000401A441C2EE006981899884201D3441A04
:1029C00028E0DFF8B02A1018401A441C22E00798CB
:1029D0001999884201D3441A1CE0DFF8982A10188C
:1029E000401A441C16E008981A99884201D3441AE8
:1029F00010E0DFF8802A1018401A441C0AE00998F9
:102A00001B99884201D3441A04E0DFF8682A1018A1
:102A1000401A441C204610B010BC5DF814FB012085
:102A2000DFF8301A48727047DFF8280A407A70479A
:102A300010B5044601F08FFB022C0DD1DFF8140A0B
:102A4000806CC06890F9002090F901100FF63820D2
:102A5000BDE8104000F0CABD10BD0146DFF8F42902
:102A6000792902DB7820108700E01087012050735D
:102A70000FF62C2000F0BABD0000000010B50400D5
:102A800001D1012402E0072C00DB062421460FF6C9
:102A9000242000F0ABFD641E052C2DD8DFE804F0E7
:102AA000030A11181F26DFF8AC093721C1723C2137
:102AB000017321E0DFF89C091921C1721E21017305
:102AC0001AE0DFF890090F21C1721421017313E09D
:102AD000DFF880090A21C1720F2101730CE0DFF8D1
:102AE00074090721C1720C21017305E0DFF8640944
:102AF0000521C1720A210173DFF85809C17A817278
:102B0000BDE81040FFF758BBDFF83009704700EB15
:102B100080018800421CDFF824092E49CB691B0E76
:102B200092B21354521CCB691B0C92B21354521C18
:102B3000CB691B0A92B21354521CCB6992B2135444
:102B4000521C0B6A1B0A92B21354521C0B6A92B2AB
:102B50001354521C4B6A1B0A92B21354521C4B6AF8
:102B600092B21354521CCB8A92B21354521C8B6AE9
:102B70001B0A92B21354521C8B6A92B21354521C09
:102B80000B8B92B21354521C4B8B92B21354521CA7
:102B9000CB6A1B0A92B21354521CCB6A92B21354E2
:102BA000521C0B6B1B0A92B21354521C0B6B92B249
:102BB0001354521C0B7D92B21354521C4B6B1B0AC4
:102BC00092B21354521C4B6B92B21354501C488750
:102BD00070470000DC1A002010B5DFF87848618FDC
:102BE0000FF6DC0000F002FD608F10BD10B5DFF8BD
:102BF00064480022242104F11400FEF769FF00203C
:102C0000E0730120608700202074E065206610BD1D
:102C1000146900200FB400B58FB000A801F091FA3C
:102C20009DED0A0ADDED1A0AB4EE600AF1EE10FA23
:102C300002DB30EE600A05E09FED431A71EE600A98
:102C400030EE800A10EE100AFEF7F0FFDFF8F027F2
:102C5000DFF8F03701F07AFFFFF7E2F8FEF7E6FF62
:102C60000022DFF8E437FFF709F801F0B9FD00EEC4
:102C7000100AB8EEC00A10EE100AFEF7D7FFDFF810
:102C8000C027DFF8C837FEF7F9FFDFF8C427DFF801
:102C9000E83701F05BFFFFF7C3F800EE100A0FB052
:102CA0005DF814FBF866002000007A440FB400B50C
:102CB0008FB000A801F045FA9DED0C0ADDED1C0A6D
:102CC000B4EE600AF1EE10FA02DB30EE600A05E0C5
:102CD0009FED1D1A71EE600A30EE800A10EE100AA8
:102CE000FEF7A4FFDFF85827DFF8583701F02EFF72
:102CF000FFF796F8FEF79AFF0022DFF84C37FEF751
:102D0000BDFF01F06DFD00EE100AB8EEC00A10EE36
:102D1000100AFEF78BFFDFF82827DFF83037FEF7C1
:102D2000ADFFDFF82C27DFF8503701F00FFFFFF77A
:102D300077F800EE100A0FB05DF814FBC8680020A9
:102D4000C068002040771B00002474490000244024
:102D50002DE9F0412DED048B9CB005460C460DA8E5
:102D600001F0EFF9DFF8EC66707B012804D1308FB9
:102D7000002801D1002070732088411C218001218E
:102D800041552088411C2180012141552088411C4A
:102D9000218003214155B07C01284CD12088411C61
:102DA0002180E0214155002035E051F82020130218
:102DB00023F0FF13120A02F0FF121A4341F82020F9
:102DC0004FEA324241F8202001EB80014A681302A9
:102DD00023F0FF13120A02F0FF121A434A604FEA6F
:102DE00032424A608A68130223F0FF13120A02F08B
:102DF000FF121A438A604FEA32428A60CA6813029D
:102E000023F0FF13120A02F0FF121A43CA604FEABE
:102E10003242CA60001DDFF840161428C5DB0422C8
:102E200020884019FEF782FE2088001D20800020A7
:102E3000B07401208FE2707C01281FD1307C002803
:102E40001CD02088411C2180C0214155FFF75CFE29
:102E50008046FFF7C1FE0746307CDFF8E0150870BA
:102E60003A46414620884019FEF760FE208838180F
:102E70002080FFF7BBFE002070746BE29FED848B17
:102E80009FED859BDFF8D46500200C9001200B900E
:102E9000314684B068463C22FEF758FE0FBCFFF76F
:102EA00043FD0A2880F0FC8000200C9002200B904B
:102EB000314684B068463C22FEF748FE0FBCFFF75F
:102EC00033FD21884A1C2280485500200C900320A5
:102ED0000B90314684B068463C22FEF737FE0FBCAB
:102EE000FFF722FD21884A1C2280485500200C90C3
:102EF00004200B90314684B068463C22FEF726FE43
:102F00000FBCFFF711FD21884A1C228048552088FC
:102F1000411C21800021415508460C9005200B9052
:102F2000314684B068463C22FEF710FE0FBCFFF726
:102F3000FBFC21884A1C22804855314684B06846F3
:102F40003C22FEF703FE0FBCFFF7B0FE10EE100AA6
:102F5000FEF76CFE41EC100B53EC102B51EC190BEF
:102F6000FEF78CFE01F03CFC80B221884A1C2280D6
:102F70000246120A4A5521884A1C228048551A984E
:102F8000FEF754FE53EC182BFEF778FE41EC100BC5
:102F90002788781C208051EC100B01F021FC78551B
:102FA000BDF8360021884A1C22804855314684B03D
:102FB00068463C22FEF7CAFD0FBCFFF72BFE10EE61
:102FC000100AFEF733FE41EC100B2788781C208096
:102FD00053EC102B51EC190BFEF750FE01F000FCE6
:102FE00078551B98FEF722FE53EC182BFEF746FE91
:102FF00041EC100B2788781C208051EC100B01F05D
:10300000EFFB785500200C9006200B90314684B0E1
:1030100068463C22FEF79AFD0FBCFFF785FC21882D
:103020004A1C2280485500200C9007200B90314606
:1030300084B068463C22FEF789FD0FBCFFF774FCA4
:1030400021884A1C2280485500200C9008200B90B3
:10305000314684B068463C22FEF778FD0FBCFFF78E
:1030600063FC21884A1C2280485500200C900920CE
:103070000B90314684B068463C22FEF767FD0FBCDA
:10308000FFF752FC21884A1C2280485560E100BFAE
:103090000000000000002440000000000000594033
:1030A0002088411C21808021415500200C90022065
:1030B0000B90314684B068463C22FEF747FD0FBCBA
:1030C000FFF732FC21884A1C2280020C4A552188D5
:1030D0004A1C2280020A4A5521884A1C22804855EF
:1030E00000200C9003200B90314684B068463C22AF
:1030F000FEF72CFD0FBCFFF717FC21884A1C22802D
:10310000020C4A5521884A1C2280020A4A5521880D
:103110004A1C2280485500200C9004200B90314618
:1031200084B068463C22FEF711FD0FBCFFF7FCFBA4
:1031300021884A1C2280020C4A5521884A1C228080
:10314000020A4A5521884A1C2280485500200C90CA
:1031500005200B90314684B068463C22FEF7F6FC11
:103160000FBCFFF7E1FB21884A1C2280020C4A5564
:1031700021884A1C2280020A4A5521884A1C228042
:103180004855314684B068463C22FEF7DFFC0FBC50
:10319000FFF78CFD10EE100AFEF748FD41EC100B16
:1031A00053EC102B51EC190BFEF768FD01F02EFBD0
:1031B00021884A1C2280020C4A5521884A1C228000
:1031C000020A4A5521884A1C228048551A98FEF75F
:1031D0002DFD53EC182BFEF751FD41EC100B278809
:1031E000781C208051EC100B01F0FAFA7855BDF8EC
:1031F000360021884A1C22804855314684B06846F2
:103200003C22FEF7A3FC0FBCFFF704FD10EE100AF2
:10321000FEF70CFD41EC190B914A924B01F00AFDAF
:1032200006D8914A914B01F007FB01D29FED939B89
:1032300053EC192B51EC180BFEF720FD01F0D0FADE
:1032400080B221884A1C22800246120A4A552188EF
:103250004A1C228048551B98FEF7E8FC53EC182BBB
:10326000FEF70CFD41EC100B2788781C208051ECF8
:10327000100B01F0B5FA785500200C9006200B9049
:10328000314684B068463C22FEF760FC0FBCFFF775
:103290004BFB21884A1C2280020C4A5521884A1C7B
:1032A0002280020A4A5521884A1C22804855002063
:1032B0000C9007200B90314684B068463C22FEF704
:1032C00045FC0FBCFFF730FB21884A1C2280020C12
:1032D0004A5521884A1C2280020A4A5521884A1CE4
:1032E0002280485500200C9008200B90314684B075
:1032F00068463C22FEF72AFC0FBCFFF715FB21882D
:103300004A1C2280020C4A5521884A1C2280020A4B
:103310004A5521884A1C2280485500200C900920DB
:103320000B90314684B068463C22FEF70FFC0FBC80
:10333000FFF7FAFA21884A1C2280020C4A5521889C
:103340004A1C2280020A4A5521884A1C228048557C
:10335000FFF7CDFA01201CB0BDEC048BBDE8F08175
:103360005C680020F8B504460025002C05D10FF25A
:10337000641000F03BF92846F2BD04F1500040789B
:10338000012843D10FF2601000F030F92846ADF863
:103390000000374E304F16E0BDF8000047F82020FF
:1033A00000EE102AB8EE400ADFED360A20EE200AC1
:1033B000BDF8000006EB800080ED000ABDF80000BB
:1033C000401CADF80000BDF8000014281BDABDF861
:1033D000000054F82020A2F52F70B0F5167FDBD93D
:1033E000BDF800100FF20C1000F000F9BDF800005D
:1033F0004FF07E5146F820104FF47A70BDF800105F
:1034000047F82100DAE7012030650CE002280AD1F4
:1034100094F850100FF2F00000F0E8F894F8500023
:103420000120C04605462846F2BD80B500F0A8FB45
:10343000084988646C31C160012002BDF852002047
:103440007B14AE47E17A743F00005940E17A843F33
:103450002D431CEBDC1A0020D41D0020F866002050
:10346000B81E85EB51B89E3F9A9999999999B93FA1
:10347000801D002080969800E2361A3F9A9999990B
:103480009999B93F6F12833A50443A205265663297
:103490002045282564292C4928256429000000009E
:1034A00050443A2053746172742044617461202541
:1034B0006400000050443A20555420256400000068
:1034C00050443A204241544C454E475448202564CC
:1034D0000000000050443A205346205054523320FC
:1034E0006E756C6C0000000050443A205346205327
:1034F0004554310050443A205346204552525B25F2
:10350000645D20256400000050443A205346205357
:10351000455432202564000010B5DFF8D045002264
:103520004FF408712046FEF7D3FA204610BDDFF8AD
:10353000BC05704710B5FFF7EFFF044600231A469D
:103540001146084600F029FAC046C04601F0C5FB06
:103550000B21204600F033F801F092FD204600F0E8
:10356000F1F9204600F00AF800F098F900206072A6
:10357000A072E07220730120607310BD10B5044684
:10358000DFF86C0501F071FCDFF8680501F06DFCF7
:103590000120607110BD10B5044601F0A6FC0120A9
:1035A000A07110BD80B501F0CFFE012002BD10B5A5
:1035B0000446E07901F0AAFF0121217010BD70B529
:1035C00004460025E679E171FFF7F1FF002807D0F6
:1035D0002046FFF7D3FF2046FFF7DDFF012503E07C
:1035E000E6712046FFF7E3FF284670BD0EB470B5C4
:1035F000C1B0054600A84FF4807102F005FCFFF74A
:1036000096FF044645AB2A464FF4807100A802F0AD
:10361000FFFB00A802F01AFC451C002000A9691855
:1036200001F8010CDFF8D0643078401C30707078FD
:10363000F021084202D0992002F024FC02F098FC0C
:103640007078401C707094F81C012818FA2817DA5A
:1036500094F81C01002805D00A2094F81C110919BF
:1036600081F81C0194F81C01001900F21D102A4673
:1036700000A9FEF75BFA94F81C01281884F81C01D5
:103680007078F021084202D0992002F0FBFB70789C
:10369000401E7070C0B2002801D102F063FC02F03D
:1036A00051FF41B070BC5DF810FB052803D008281D
:1036B00001D01D2805D1DFF83C04DFF84014086074
:1036C0007047DFF82C04DFF834140860704710B539
:1036D0000446FFF72CFFD0E9442310461946224642
:1036E00003F054F800F0010011F0000101D10028AE
:1036F0000ED0DFF810442068401C20601E2807DB35
:103700000FF21040FFF772FF01F07BFF00202060F6
:1037100010BD0020DFF8EC13086070472DE9F84376
:1037200005460E4617464FF00208DFF8CC43607896
:10373000F021084202D0992002F0A4FB02F018FC0C
:103740006078401C60709DF80000401E8DF80000FD
:1037500017F8019B2846FFF7A8FF00AB4A463946F9
:10376000304601F083FF002812D06078F021084233
:1037700002D0992002F086FB6078401E6070C0B2D3
:10378000002801D102F0EEFBFFF7C3FF01201FE08C
:103790005FFA88F8424629460FF28C30FFF726FF81
:1037A0004046A0F101080028D7D16078F0210842F6
:1037B00002D0992002F066FB6078401E6070C0B2B3
:1037C000002801D102F0CEFB2846FFF780FF002041
:1037D000BDE8F2832DE9F04704460D4616461F4624
:1037E000DFF82483089888F80000DFF80C9399F834
:1037F0000100F021084202D0992002F043FB02F0C0
:10380000B7FB99F80100401C89F801002046FFF73A
:103810004CFF4FF0020A434632463946284601F033
:10382000D7FF002815D099F80100F021084202D0F6
:10383000992002F027FB99F80100401E89F8010049
:10384000C0B2002801D102F08DFBFFF762FF01201A
:1038500022E05FFA8AFA524621460FF2D820FFF79B
:10386000C5FE5046A0F1010A0028D4D199F8010004
:10387000F021084202D0992002F004FB99F80100DF
:10388000401E89F80100C0B2002801D102F06AFB95
:103890002046FFF71CFF0020BDE8F08703F034BC92
:1038A0002DE9F843044602264FF000080125DFF811
:1038B000509216E03046461EC0B2002813D1B8F12F
:1038C000000F0CD1D4E94467012000212A4603F0FF
:1038D00025FD26EA000027EA0101C4E94401022689
:1038E0006D1C202D1ADA59F825000028E2D0C06F8F
:1038F000006880478046B8F1010FDBD1D4E9446706
:10390000012000212A4603F009FD30433943C4E970
:103910004401012059F825100877D0E7D4E9440183
:10392000002901D1032807D0002901D1022803D0A2
:10393000002905D1012803D140F48050C4E9440195
:10394000BDE8F18302F08DB802F0EFB802F0A0B844
:1039500069490A6A0B6A00BF00BF00BF00BF00BF11
:103960009B1A8342F6DB704702F0FEB802F006B9FC
:10397000012001F077B9002001F074B9012001F0B5
:103980007DB9002001F07AB902F002B910B5044601
:10399000FFF7CDFD80F8194110BD2DE9F04782B049
:1039A0000C4615462F46264680464FF47A714FF056
:1039B0003C0C4FF4616918FB09F216FB0C22BA1893
:1039C00001FB0232DFF844E19EF900A01AFB09F97D
:1039D0009EF901A01AFB0C9C9EF902904CFA89FCFE
:1039E000BEF9039001FB0C919EF808C0BCF1000FDA
:1039F00022D144EA00012943194302D001218EF863
:103A000008108EF80000B8F1000F04D59EF80000F1
:103A100018308EF800008EF801408EF80250AEF893
:103A2000033000933B4632469EF900100FF23410EB
:103A3000FFF7DCFDBDE8F38791420DD3A1EB020C4B
:103A4000ACF2D17CDFF8C890CC45DAD30FF2F000AD
:103A500002B0BDE8F047C9E5D3D2A2EB010CACF24D
:103A6000D179DFF8ACA0D145CBD363460FF2E000AB
:103A700002B0BDE8F047B9E510B504002FD003F05F
:103A800004FD2249CA68002A00D0841AB1F8032034
:103A9000A218A1F8032012B2B2F57A7F06DBA2F5D4
:103AA0007A72A1F803208A78521C8A7091F9022058
:103AB0003C2A04DB3C3A8A704A78521C4A7091F9DD
:103AC00001203C2A04DB3C3A4A700A78521C0A70F6
:103AD00091F90020182A01DB00220A70C86010BD8D
:103AE0000A490522FEF722B800000000004F00201E
:103AF0000058004000540040001F0020DC2100203E
:103B0000A4650020E0680020196900204C680020AE
:103B10005F4C2605233E496E6974696C61697A655C
:103B200020493243000000004957452025642025E4
:103B300064000000495245202564202564000000EF
:103B400041542D536574545331202564202564005D
:103B500041542D536574545332202564202564202C
:103B60002564000053657453797374656D54696DF1
:103B7000652025643A25643A25642E2564000000FA
:103B800064487047F8B50C461746012500282ED129
:103B9000604E56F82700C1680A46E240D10708D5B2
:103BA0002346C26839460FF2A820FFF71FFD022006
:103BB000F2BD4FF0FF3100910B462A464168204686
:103BC00004F0D1FD002810D0234656F82700C26823
:103BD00039460FF28C20FFF709FD56F82700C1681F
:103BE0002A46A2401143C1602FE00220F2BD012805
:103BF0002BD1484E56F82700C1680A46E240D1074B
:103C000008D42346C26839460FF26420FFF7EEFC61
:103C100003251AE04FF0FF332A464168204604F09E
:103C2000EBFD002809D0234656F82700C268394624
:103C30000FF24C20FFF7DAFC00E0032556F82700CE
:103C4000C1680122A2409143C1602846F2BD05F03F
:103C5000A1BB02B598B00021ADF858108DF8011045
:103C60000DF101010A224A7000228A70CA700521F2
:103C70008DF800108DF80100042218A90DF1030041
:103C8000FDF754FF0020ADF8580000A800F044F8FC
:103C900019B000BDFEF7C3BE10B541788478007836
:103CA000032802D038280CD010BD012917D1204696
:103CB000FEF7D3FE21460FF2D810BDE81040FFF703
:103CC00095BC012903D1BDE8104006F049B803298D
:103CD00005D10FF2C810BDE81040FFF787BC10BD3A
:103CE00070B505460E460024A81E3E280FD2284671
:103CF00005F0B8FB002801D1204670BD054850F8FA
:103D00002500C0680146F140C80700D501242046BF
:103D100070BD0000045D002030B593B0044601255D
:103D200094F90000062800F28980DFE800F00425FD
:103D3000334F657F8300E11C82B068465422FDF753
:103D4000F5FE0CBC94F9021094F9010005F017F887
:103D5000022809D1607805F049F9002561780FF251
:103D60005010FFF743FC6FE003286DD161780FF22C
:103D70004810FFF73BFC67E094F9021094F901004A
:103D800005F0ACF803285FD161780FF23410FFF72B
:103D90002DFC59E0B4F8581000A805F040F99DF941
:103DA000040002280AD1009800B205F01FF900258E
:103DB00000990FF21410FFF719FC45E0032843D1D6
:103DC00000990FF20C10FFF711FC3DE006F01CFC0F
:103DD000022809D1607805F009F9002561780FF211
:103DE000F800FFF703FC2FE003282DD161780FF2D4
:103DF000F000FFF7FBFB27E06078382824D105F0BE
:103E000078FF40B2022809D1607805F0EFF800256C
:103E100061780FF2D400FFF7E9FB15E0032813D116
:103E200061780FF2D000FFF7E1FB0DE0204605F0CE
:103E300059F909E0204605F0E0FA05E061780FF253
:103E4000C000FFF7D3FB0025284613B030BD0000AB
:103E5000534D414320256420256420256400000043
:103E6000534D412025642025642025640000000076
:103E7000534D524320256420256420256400000012
:103E8000534D522025642025642025640000000045
:103E900050442055542D2564000000004450434DEB
:103EA0002056455253494F4E20494E464F00000080
:103EB000414C4F4620256400414C43462025640078
:103EC000524C434620256400504C4F462025640048
:103ED000504C43462025640050414F462025640045
:103EE00050414346202564004450434D20504F46E6
:103EF000202564004450434D2043462025640000A3
:103F00004558204C4D454C2025640000DFF87008D2
:103F1000C17900EB810181ED030AC17900EB8101D8
:103F2000C1ED070AC17900EB810181ED0B1A017A1D
:103F3000042901DA491C0172C179491CC171C9B255
:103F4000042901DB0021C171704700000020DFF867
:103F500030180A7A022A00DA704730B4034601E0CA
:103F600000205B1C93425CDACC79002C02D1032444
:103F7000022503E0641E651E00D52D1D01EB85059D
:103F800095ED030A01EB8404D4ED030A95ED031AC1
:103F900070EEC10AF5EE400AF1EE10FAD4ED030A14
:103FA00002DD30EEC00A01E030EE600AD5ED070A0E
:103FB00094ED071AD5ED071A31EE611AB5EE401AE5
:103FC000F1EE10FA94ED071A02DD71EE600A01E0DD
:103FD00070EEC10A95ED0B1AD4ED0B1A95ED0B2A74
:103FE00071EEC21AF5EE401AF1EE10FAD4ED0B1A8A
:103FF00002DD31EEC11A01E031EE611ADFED931AF4
:10400000B4EE610AF1EE10FA09DAF4EE610AF1EEAB
:1040100010FA04DAB4EE611AF1EE10FAA0DB401CDB
:104020009FE7C0B2042801DB012000E0002030BC83
:104030007047F8B52DED028B84B0B0EE408A0C4687
:104040000025016800914168019181680291DFF8C3
:10405000306706F1480796ED120AD0ED000AB4EE7B
:10406000600AF1EE10FA1BD197ED010AD0ED010ABA
:10407000B4EE600AF1EE10FA12D197ED020AD0ED1B
:10408000020AB4EE600AF1EE10FA09D1DFF8F40684
:104090000168491C016015290CD32946016009E01B
:1040A0000098B064019878600298B8602846DFF8FC
:1040B000D416086000A890EC030AFFF727FFB07938
:1040C000022831D1204680B2B0EE480A06F00AFB41
:1040D000214600A8FDF76CF8054606F15400FDF7EF
:1040E00026FCF86801280DD1FCF7FEF806F1540013
:1040F000FDF71DFC202206F1540106F17400FDF7C6
:1041000025FD19E000F0DCF900280AD0388A0028E3
:1041100007D10120B071FDF712FC06F15400FDF744
:1041200006FC00F095F807E0012805D1FFF70EFF27
:10413000002801D00220B071284604B0BDEC028BEB
:10414000F2BD002806D0DFF83816D1F894103C22D2
:10415000FDF7FCBC704700280AD115291FDB00EED3
:10416000101AB8EE400ADFF8200680ED010A16E0CA
:1041700001280AD1032912DB00EE101AB8EE400A1A
:10418000DFF8FC0580ED0F0A09E0022807D1084698
:10419000012801D0022802D1DFF8EC050172DFF816
:1041A000E805FDF7E1BB2DE9F84381460C461546CD
:1041B000DFF8CC6500224FF4C4713046FDF788FC6F
:1041C00006F13C0706F1D408C7F85880A9F115009C
:1041D000B0F58B7F06D800EE109AB8EEC00A87EDD6
:1041E000010A02E0DFF8A4057860E01EB0F5F87F70
:1041F00006D800EE104AB8EEC00A86ED0F0A02E0BB
:10420000DFF86C05F063012D01D0022D01D13D7264
:1042100001E001203872FBF7D7FF3846FDF7A4FB19
:104220000020A6F8980006F1980148803C224046FC
:10423000FDF78CFC0120B07106F046FA0120707188
:10424000BDE8F183DFF83805807970470100803FD1
:104250002DE9F0412DED028BDFF8244504F15C05DA
:10426000286AE16D814205D1B4F85A20EB8B9A425D
:1042700000F08680B1EB000802D5DFF81405804419
:1042800095ED050AD5ED0D0A70EE608AF5EE408ACF
:10429000F1EE10FA03D59FED890A78EE808A95ED4C
:1042A000040AD5ED0C0A30EE608AB5EE408AF1EED4
:1042B00010FA03D59FED810A38EE008AB4F85A004F
:1042C000C0B295ED020A06F009FBB0EE401A261DB9
:1042D0007078012802D002282BD033E004F58877CB
:1042E00039469FEDDD1AF0EE480AB0EE680A404606
:1042F00000F04AF8207940442071C0B2062821DB42
:1043000004F58C7004F198019FEDD31AD0ED0A0AE0
:1043100090ED080AD4F8180100F036F82079401C16
:10432000207100223C213846FDF7D2FB022070703C
:1043300008E004F19801F0EE480AB0EE680A404641
:1043400000F022F8B4F85A00002809D100223C21DC
:1043500004F58870FDF7BCFB00202071012070700F
:10436000202204F1540104F17400FDF7EFFB04F185
:104370009801A963D4343C222046FDF7E7FBAC63E7
:10438000BDEC028BBDE8F081F8B52DED048B88B053
:10439000B0EE409AB0EE608AF0EE418A0C46DFF84B
:1043A000E053B5F85A60B5F85870A680B0EE680AC8
:1043B00000F0BEF82868002818D194ED0A0A30EE03
:1043C000090A84ED0A0A00F0B3F984ED0A0A66804E
:1043D0002780A86EE06294ED0C0A30EE080A84EDA6
:1043E0000C0A00F099F984ED0C0A4AE005F13C0052
:1043F00004AA0AC80AC20368136005F1540184B014
:1044000068462022FDF7A2FB0FBCB0EE680A00F060
:1044100035F9D4ED0A0A30EE800A84ED0A0A00F07C
:1044200087F984ED0A0AF5EE408AF1EE10FA0BDD09
:10443000032E03D106206080208010E0042E0ED1D0
:104440000820608020800AE0032E03D107206080CE
:10445000208004E0042E02D1092060802080F6EE46
:10446000000A95ED1A0A20EE200A84ED0B0A94ED5D
:104470000C0A08EE200A84ED0C0A00F04DF984EDD8
:104480000C0A95ED190ADFEDB30A20EE200A84ED3F
:104490000D0ADFEDB10AB4EE600AF1EE10FA01DBAD
:1044A000BC486063286EA0636088002801D10020AA
:1044B000A06308B0BDEC048BF1BD0000002474497A
:1044C00080B5FDF75BFA40F6B931884201D301208F
:1044D00002BD002002BD10B50C46A188032912D1EF
:1044E000B5EE400AF1EE10FA06DDA1694018A061B0
:1044F00000F02AF9A06110BDE1694018E06100F008
:1045000023F9E06110BD042911D1B5EE400AF1EEA6
:1045100010FA06DD216A4018206200F015F92062C9
:1045200010BD616A4018606200F00EF9606210BD53
:1045300070B52DED028B0546B0EE408A0C46A068A2
:104540002818A06000F000F9A060B5EE408AF1EEF6
:1045500010FA02DDB0EE480A01E0B1EE480AB5EE0D
:10456000400AF1EE10FA46DD854E3068002833D15E
:10457000D6F86001062811D26188042905D1D6F841
:104580005C116918C6F85C1104E0D6F85811691876
:10459000C6F858112818C6F8600151E06169401842
:1045A000606100F0D1F860612146B0EE480AD6F8AB
:1045B0006001FFF790FF60692818606100F0C4F89F
:1045C00060612146B0EE480A2846FFF784FF00F0FC
:1045D0003AF80120306033E060692818606100F02B
:1045E000B3F860612146B0EE480A2846BDEC028B64
:1045F000BDE870406FE76088032802D0042807D028
:104600000DE0E0682818E06000F09EF8E0600CE043
:1046100020692818206100F097F8206105E0E06823
:104620002818E06000F090F8E060554ED6F8600180
:10463000002801D000F012F800F005F800203060EA
:10464000BDEC028B70BD4E480021C0F8581100F53A
:10465000AC70416081607047000000004848D0F8AD
:10466000A410D0F858215118C0F8A41000F1A401EA
:104670004A68D0F85C018018486070470FB4DFEDDD
:10468000370A9FED361AF0EE0C1A9DED042ABDF89C
:10469000060004280FD1DFED322A42EE221AB5EED1
:1046A000400AF1EE10FA15D49FED2E1A22EE011AEF
:1046B00021EE001A0EE0DFED2C2A42EE221AB5EEB2
:1046C000400AF1EE10FA05D49FED281A22EE011AE5
:1046D00021EE001AB5EE402AF1EE10FA0ED09DED53
:1046E000030AB5EE400AF1EE10FA07D0DFED200A1A
:1046F00020EE200AF7EE000AC0EE800A31EE810AB1
:104700009FED1C1A20EE010A9DED081A20EE010A09
:1047100020EE200A04B07047DFED170AB4EE600AFD
:10472000F1EE10FA03DBDFED150A30EE200A7047D8
:10473000DFED110AB4EE600AF1EE10FA03DBDFEDF3
:104740000F0A30EE200A70471149884201D31249FE
:10475000081870478FC2753D0100C8410000000075
:10476000CDCC4C3E6666663FCDCCCC3D6666E63F22
:10477000000070420AD7A33B01247449002474C985
:1047800058580020DC6800209458002000002F4377
:10479000819698000000C841806967FFFDF742B923
:1047A000024908707047014948707047106900203D
:1047B000010040F10980F446404200F005F851F054
:1047C00000416047010000BF09D0B0FA80F1884085
:1047D000C91CC1F58461090501EBD0214005704772
:1047E000F446400D40EAC120490006D200F014F81A
:1047F000004248BF6FF00040604700F00DF84FF0F6
:10480000004188428CBF084640426047400D40EA64
:10481000C120490080F00D8040F00040490DA1F515
:104820008061491C05D4D1F11F0154BFC840C01795
:1048300070474FF0000070474FF4001C1CEB410F15
:1048400094BF1CEB430F09E041EA030C50EA4C0C07
:1048500052EA0C0C03D2994208BF9042704714BF31
:104860008B428242704700000FB400B5ADB001200A
:104870008DF80400AA208DF802003C208DF803007A
:104880000020ADF8AC000A208DF856000DF157005D
:1048900000A95422FDF74AF900208DF854000320A6
:1048A0008DF85500002000F04FF8FEF732F815A8FB
:1048B000FFF732FA01202DB05DF814FB00B597B078
:1048C0000020ADF858000DF101000A2141700021CF
:1048D0008170C17001208DF8000003208DF8010067
:1048E00000A8FFF719FA012017B000BD10B582B07B
:1048F0003048C46C002C06D113210FF2C800FEF71B
:1049000075FE002016BD00F022F8012810D1FDF739
:10491000FCFF0090A27F00A9E068A3691818FDF7CA
:1049200005F901206077002000F00EF8FDF7F1FF97
:10493000012016BD20480068D0F89000407800287B
:1049400001D1002070470BE01C49087070471B48DC
:104950000078704780B5002000F006F8012002BD05
:10496000174890F90000704715490870704780B5E6
:104970000A88531C0B80012313540A88531C0B8094
:10498000012313540A88531C0B80242313540A88D0
:10499000531C0B8000211154FFF7DCFF012002BDE6
:1049A00080B5FFF7EDF804490860091DC0F89010C4
:1049B000012002BDA4650020182000201D690020F0
:1049C0001C69002073656E736F722028256429208E
:1049D0002A206973206E756C6C0000000FB400B55E
:1049E000ADB001208DF80400AA208DF802003C2013
:1049F0008DF803000020ADF8AC000A208DF85600B9
:104A00000DF1570000A95422FDF790F800208DF811
:104A1000540003208DF8550015A8FFF77DF9FDF728
:104A20007DFF002000F049F801202DB05DF814FB57
:104A300000B597B00020ADF858000DF101000A2133
:104A4000417000218170C17001208DF800000320A9
:104A50008DF8010000A8FFF75FF9012017B000BD35
:104A600010B582B02F48846C002C06D112210FF2B1
:104A7000C400FEF7BBFD002016BD00F021F80128A0
:104A800010D101208DF80000A27F00A9E068A36981
:104A90001818FDF74BF801206077002000F00DF8A2
:104AA000FDF73CFF012016BD1F480068C06F40782D
:104AB000002801D1002070470BE01C4908707047A6
:104AC0001A480078704780B5002000F006F80120F1
:104AD00002BD174890F900007047154908707047EB
:104AE00080B50A88531C0B80012313540A88531C79
:104AF0000B80012313540A88531C0B801F2313546B
:104B00000A88531C0B8000211154FFF7DCFF0120A1
:104B100002BD80B5FFF734F803490860091DC1677D
:104B2000012002BDA4650020442000201F69002050
:104B30001E69002073656E736F722028256429201A
:104B40002A206973206E756C6C00000070B44FF001
:104B5000004591EA030C44BF6B4006F095B800BFD6
:104B6000841A71EB030603D2001BB1411219734181
:104B70004FF4001C1CEB410F34BF7CEB430443E0BB
:104B80000C0DA4EB1356352E50DC45EAC323DB0A8B
:104B900045EAC121C912B6F120050DDD63FA05F61B
:104BA000EB4086EA0305124218BF45F00105C01824
:104BB00051F100010CD213E062FA06F5F2405540C3
:104BC000F3415A40B340F3405A408018594107D34B
:104BD00049085FEA30005FEA350528BF45F0010566
:104BE00001F58011420875F1004250F1000041EBDF
:104BF000045170BC4FF4001C1CEB410F38BF7047D0
:104C00000020090D090570471CEB410F10D252EA34
:104C100043060BD0BCEB410F05D80C0DAB43661E11
:104C2000342EB5DD02E0AB438018594170BC7047AB
:104C300070BC70474FF4001C1CEB410F94BF1CEB81
:104C4000430F09E041EA030C50EA4C0C52EA0C0C09
:104C500003D28B4208BF8242704714BF99429042F0
:104C600070470000DFF8582B002803D04021104681
:104C700006F0B8B94021104606F0B6B9DFF8402B6F
:104C800000284FF48051104601D006F0ABB906F071
:104C9000ABB91CB5DFF82C4B204606F0ABF8012170
:104CA000084606F030FA01208DF8040000208DF847
:104CB0000500ADF806004FF4807120460183C04620
:104CC0004FF48070009000A9204606F041F94FF49F
:104CD00080710020FEF748FE13BDF0B583B0DFF809
:104CE000E04A204606F086F8DFF8DC5A284606F04F
:104CF00081F8DFF8D86A304606F07CF801210846D2
:104D000006F001FA0121022006F0FDF9012104203C
:104D100006F0F9F90121802006F0F5F903208DF85D
:104D2000040001208DF8060000208DF807008DF8A2
:104D3000050049F6FF600090DFF8747C00A9384652
:104D400006F006F94FF6FF70009000A9204606F025
:104D5000FFF800A9284606F0FBF800A9304606F047
:104D6000F7F80021012006F0CEF90021022006F01C
:104D7000CAF90021042006F0C6F90021802006F0BF
:104D8000C2F90121032006F0BEF901208DF80400CC
:104D900000208DF80500ADF806000121022006F084
:104DA000B2F9402120460183C0464020009000A96E
:104DB000204606F0CDF84FF4805120460183C046CE
:104DC0004FF48055009500A9204606F0C1F8294609
:104DD00038464183C046009500A9384606F0B8F829
:104DE00004220A21204606F001F909220321204667
:104DF00006F0FCF802208DF8040001208DF8050073
:104E00008DF8060000208DF807004FF480600090B8
:104E100000A9204606F09CF80820009000A9204632
:104E200006F096F804220821204606F0DFF8042256
:104E30000721204606F0DAF802208DF80400012050
:104E40008DF805008DF8060000208DF807004FF45E
:104E50008070009000A9204606F07AF8802000902B
:104E600000A9204606F074F8F7BD30B585B0DFF82C
:104E7000441B884235D0DFF8401B88422FD14FF4C5
:104E800080050C460121284606F048F90121022040
:104E900006F039F90121284606F061F9002128467B
:104EA00006F05DF90020ADF804004BF6FF70ADF898
:104EB00006004FF48060ADF80A004FF48040ADF872
:104EC0000C000A20ADF80800DFF8FC0A009000A9E9
:104ED000204606F0DAF90121204606F039FA05B03D
:104EE00030BD4FF400150C46CCE72DE9F04192B0EF
:104EF00001214FF4805006F01CF90121032006F037
:104F000002F901214FF4800006F0FDF8DFF8B44803
:104F100005221146204606F069F8DFF8A45805225C
:104F20001146284606F062F805220421284606F0BC
:104F30005DF805220F21204606F058F802208DF872
:104F4000080001208DF809000020ADF80A0020209B
:104F5000019001A9204605F0FBFF2020019001A946
:104F6000284605F0F5FF1020019001A9284605F01C
:104F7000EFFF4FF40040019001A9204605F0E8FF43
:104F8000DFF8384A204606F045FADFF8345A0020A8
:104F9000288068600120288100206881E86007205F
:104FA000288200206880DFF81C6A304606F0D4FAB8
:104FB000DFF8187A384606F0CFFA4FF48060079091
:104FC00000210E9103210F91002110910B91099066
:104FD000DFF8B80A0490084611900A9008904FF440
:104FE00000300D9008460C904FF0C068CDF80C8052
:104FF000402006900846059003A9304606F030FB95
:1050000000200C90CDF80C80069005F1140005905E
:1050100003A9384606F024FB0E208DF8010000207D
:105020008DF8020001208DF8030038208DF8000073
:1050300000A806F0FCFB3B208DF8000000A806F05D
:10504000F6FB002068802946204606F03FFA012240
:105050000221204606F06EFA01221146204606F093
:1050600069FA0121204606F059FA0021304606F07F
:105070002FFB0021384606F02BFB12B0BDE8F08173
:105080001FB50121084606F03EF801214FF480408B
:1050900006F04FF800208DF80C008DF80F0001206D
:1050A0000290DFF80C4902A9204605F051FF0420C8
:1050B000029002A9204605F04BFF0820029002A9A9
:1050C000204605F045FF0021084606F0E9FB0221D5
:1050D000002006F0E5FB0321002006F0E1FB0020A4
:1050E0008DF8040001208DF8060000900C208DF84A
:1050F000050000A806F0E8FB042000900C208DF8C5
:10510000050000A806F0E0FB082000908DF80500DF
:1051100000A806F0D9FB012006F014FC042006F0DC
:1051200011FC082006F00EFC1FBD00B585B0012162
:10513000084605F0E8FF01214FF4804005F0F9FF33
:1051400000208DF810008DF813000820039003A9AB
:10515000DFF85C0805F0FCFE0321002006F0A0FB50
:1051600000208DF8080001208DF80A000820019029
:105170008DF8090001A806F0A7FB082006F0E2FB65
:1051800009208DF800000E208DF8010000208DF818
:10519000020001208DF8030000A806F048FB05B0CE
:1051A00000BD00B585B00121084605F0ACFF012126
:1051B0004FF4804005F0BDFF00208DF810008DF801
:1051C00013000420039003A9DFF8E40705F0C0FEF4
:1051D0000221002006F064FB00208DF80800012069
:1051E0008DF80A00042001900C208DF8090001A818
:1051F00006F06AFB042006F0A5FB08208DF80000ED
:105200000E208DF8010000208DF8020001208DF89D
:10521000030000A806F00BFB05B000BD30B58DB053
:10522000044601214FF4807005F083FF00A805F0CB
:10523000C9FE0A20009003208DF8040000208DF89C
:10524000070000A9DFF87C0505F082FE06F082FB6E
:1052500002A806F0C4FB4FF48030039002A806F0C9
:10526000B0FB06A806F0A3FBDFF8B85A06A928464B
:1052700006F07DFB072301222146284606F0C0FBED
:105280000121284606F0FFFB0121284606F0ADFB70
:105290000DB030BD38B5DFF88C4A204606F0EEFB85
:1052A0004FF47A750221204606F004FC002803D151
:1052B0002846451E0128F5DA2046BDE8324006F0B2
:1052C000EDBB80B50021DFF85C0A06F08EFB002103
:1052D0004FF48070BDE8044005F02BBFDFF8E4090F
:1052E0000068704710B506F06BFDDFF854490246C0
:1052F0000B46226063604FF47A72002306F000FED2
:10530000A0602146DFF83C0906F072FEDFF8B849DC
:1053100006F0A6FE00280DD0002006F0AAFE06F03A
:10532000AFFE406DFEF73EF921460620BDE8104075
:1053300006F0AABEDFF8F00906F079FF2146022048
:10534000BDE8104006F0A0BE10B5DFF8781908607F
:10535000DFF8D449002808D00146204606F0F2FFC5
:105360002046BDE8104006F062BF2046BDE8104070
:1053700006F0AFBF30B4014601200023DFF8AC29AE
:105380001C469460946814F00C0FFBD10C460C2C56
:105390005DD8DFE804F0215C5C5C071A21323940FB
:1053A000474E5500946844F0800494604FF4C06404
:1053B000DFF87C592C60146824F080741460DFF8E6
:1053C0007449DFF874592C6042E00346DFF86C49F9
:1053D000DFF864592C603BE0946894604FF4C0643B
:1053E000DFF84C592C60146824F080741460DFF8E6
:1053F0005449DFF844592C602AE00223DFF8484979
:10540000DFF834592C6023E00323DFF84049DFF84C
:1054100028592C601CE00423DFF83449DFF81859C0
:105420002C6015E00523DFF82C49DFF80C592C60BF
:105430000EE00623DFF82049DFF8FC582C6007E077
:105440000723DFF81849DFF8F0582C6000E0184611
:10545000002B4AD00FF6681403EBC3031B199468A2
:105460009460146824F080741460146824F08064DC
:1054700014609C781D8844EA8514DD786D086D1EE3
:1054800044EA05441D7944EA05645460DC881D7AC9
:105490002D0745EA8414DFF8C8582C60146844F0DE
:1054A000807414601468A401FCD55B7943F4E06354
:1054B000DFF87C48236093689360936893600529C4
:1054C00004D1916841F09001916005E00B2903D16E
:1054D000916841F480519160916841F002019160BE
:1054E000916801F00C010829FAD1DFF84C1809681D
:1054F000DFF87028914207D2DFF86C180A6822F4AE
:10550000404242F480420A6030BC704732E70028D3
:1055100000E0401EFDD17047F0B583B00727DFF8EB
:105520009414884203D14FF48074802502E04FF434
:105530008064082501208DF804008DF805008DF8A1
:10554000060000208DF807000094DFF8206800A90D
:10555000304605F0FDFC009500A9304605F0F8FC4A
:10556000214630464183C0460F20FFF7D0FF214639
:1055700030460183C0460F20FFF7C9FF3846471E5B
:1055800080B20028ECD1009500A9304605F0E0FC7F
:10559000214630464183C0460520FFF7B8FF294623
:1055A00030460183C0460520FFF7B1FF2146304653
:1055B0000183C0460A20FFF7AAFF214630464183F7
:1055C000C0460520FFF7A3FF294630464183C04669
:1055D0000520FFF79CFF02208DF8040001208DF8C4
:1055E00005008DF8060000208DF80700009400A942
:1055F000304605F0ADFC009500A9304605F0A8FC4A
:10560000F7BD38B50024DFF868570121286805F098
:10561000D8FE286805F00AFE2868FFF726FC05E09A
:105620002868FFF779FF2868FFF71FFC4FF4003167
:10563000286805F0D1FE002802D0641C332CEFDB73
:1056400031BD30B40022838A008BDFF824476568BF
:1056500043EA00400840000255EA1020606008401C
:10566000884200D10122104630BC70472DE9F84F26
:1056700004460D4616464FF420691F78DFF8F08681
:105680004FF40031D8F8000005F0A6FE002808D03D
:105690004846A0F101090028F2D1FFF7B2FF00202F
:1056A0008CE0D8F8000001884FF6FF5211400180CD
:1056B0000121D8F8000005F057FE4FF4007AD146DA
:1056C0000020C8F80400D8F800B0DFF8A816584643
:1056D000FFF7B7FF002805D14846A0F101090028CF
:1056E000F1D163E0D14600222146584605F054FE30
:1056F0000020C8F80400D8F80040DFF87C162046E7
:10570000FFF79FFF002805D14846A0F101090028B6
:10571000F1D14BE03146C9B220460182C046D146A4
:105720000020C8F80400D8F80040DFF850162046E2
:10573000FFF787FF002805D14846A0F1010900289E
:10574000F1D133E0012F15D1297820460182C046DE
:10575000D1460020C8F80400DFF82416D8F800006D
:10576000FFF76FFF002823D14846A0F10109002868
:10577000F2D11BE03846471EC0B2002818D015F8F9
:10578000011BD8F800000182C046D1460020C8F8AD
:105790000400DFF8EC15D8F80000FFF752FF0028EE
:1057A000E8D14846A0F101090028F2D1002005E027
:1057B0000121D8F8000005F0E3FD0120BDE8F28FDB
:1057C000000402400000024000080240001C0240A9
:1057D0002DE9F54F81B00D461E464FF4206837780D
:1057E000DFF88C454FF40031206805F0F5FD002806
:1057F00008D04046A0F101080028F3D1FFF701FFCF
:105800000020D3E0206801884FF6FF52114001804C
:105810000121206805F0A8FD4FF40079C84600205A
:105820006060DFF850A5D4F800B051465846FFF745
:1058300008FF002805D14046A0F101080028F2D158
:1058400091E000229DF80410584605F0A5FDC846D9
:1058500000206060D4F800B0DFF81C155846FFF750
:10586000F0FE002805D14046A0F101080028F1D142
:1058700079E0BDF80810C9B258460182C046C84652
:10588000DFF80015206805F0A7FD002805D1404687
:10589000A0F101080028F3D165E00121206805F09E
:1058A00063FDC84600206060D4F800B051465846F9
:1058B000FFF7C7FE002805D14046A0F101080028E7
:1058C000F2D150E001229DF80410584605F064FD25
:1058D000022FC84639DADFF8B014206805F07CFDE5
:1058E000002805D14046A0F101080028F3D13AE094
:1058F0000021206805F059FD2068018B012105F089
:105900003FFDC846DFF88414206805F065FD0028D7
:1059100005D14046A0F101080028F3D123E020681A
:10592000008AC0B228703078401E3070C8462068A7
:105930000188890505D54046A0F101080028F6D167
:1059400011E0012105F031FD2BE000206060DFF85F
:1059500040142068FFF775FE002806D14046A0F1EC
:1059600001080028F3D1002020E0012616E0012FD5
:105970000CD1012E0AD100263146206805F015FD14
:105980002068818A018B012105F0FAFC2068818A58
:10599000490603D5008A05F8010B7F1EFFB2002FD0
:1059A000E5D10121206805F000FD0120BDE8FE8F52
:1059B0000000024000540040005800400030014008
:1059C000346700205864024070F305001064024000
:1059D000DFF8C0030168082933D1DFF850130A68E3
:1059E00042F080720A604268B2F1806F03D10A68A7
:1059F00042F080620A600A689201FCD58A6842F02F
:105A000002028A608A6802F00C02082AFAD142680F
:105A1000B2F1806F02D10A681201FCD5DFF81813C9
:105A20000968DFF84023914207D2DFF83C130A6887
:105A300022F4404242F480420A6000210160416049
:105A400070474168B1F1806F0AD1DFF8E0120A684F
:105A500042F080620A600A681201FCD500214160B0
:105A60007047DFF83403016841F080510160DFF8CE
:105A7000F80201688908890041F0010101600FF214
:105A80002900DFF818130860704700000C3001404F
:105A9000DFF80C03016821F00401016030BF0168E8
:105AA00041F004010160704710B5FDF740FD807AB8
:105AB000012803D1012006F06CFC02E0002006F072
:105AC00068FCDFF8DC428021DFF8D80205F03CFDFD
:105AD000002820D172B69548DFF8B812826802F02B
