:1000000048080020E1BA0108358A0108498A010838
:100010005D8A0108718A0108858A010800000000D4
:10002000000000000000000000000000998A0108A4
:10003000AD8A010800000000AD5D00080DBB01089D
:1000400011BB010815BB010819BB01084DDA0008F6
:100050001DBB0108B7910108178D010821BB0108DC
:10006000018F0108E38F010825BB010829BB0108A6
:100070002DBB010831BB010835BB010839BB0108A4
:100080003DBB010841BB010845BB01080000000061
:1000900000000000000000000000000049BB010853
:1000A0004DBB010851BB010855BB010859BB0108F4
:1000B0000000000000000000000000005DBB01081F
:1000C00061BB010865BB010869BB01086DBB010884
:1000D00071BB010875BB010879BB01080000000075
:1000E0007DBB0108BF900108000000000000000077
:1000F00000000000000000000000000081BB0108BB
:10010000000000000000000085BB010800000000A6
:10011000000000000000000089BB01080000000092
:100120008DBB010891BB010895BB010899BB010873
:100130009DBB01080000000000000000000000005E
:1001400000000000000000000000000000000000AF
:10015000A1BB0108A5BB0108A9BB0108ADBB0108F3
:10016000000000000000000000000000000000008F
:10017000000000000000000000000000000000007F
:10018000B1BB0108B5BB0108000000000000000081
:1001900000000000B9BB01080000000000000000E2
:1001A000000000000000000000000000000000004F
:1001B000000000000000000000000000BDBB0108BE
:1001C000C1BB0108C5BB010870B5002240F6CC01D7
:1001D000DFF8380C01F05EFCDFF8344C002210210F
:1001E00004F1100001F056FCDFF82C5C002068617F
:1001F000A861E861DFF8246CB063F06330642862C2
:100200007064B0646862A862E8620120286300201C
:10021000F06430654FF0FF306863A8630020E86346
:1002200070652864B06530667066B066F066B0626E
:1002300002462821304601F02DFC42F21070308138
:10024000708100207060306002460C21204601F071
:1002500021FCDFF8CC0B6060DFF8B00920600120E2
:1002600020720020287268646881E860F06220666D
:10027000306760663086286568657067A865E865E0
:100280006866286601202867E866A8660020E86797
:10029000A8676867062070860020B086F067B067A0
:1002A000DFF8DC03A8640020E8640120288296209F
:1002B00068820620F0860C20A0810020F0650246AE
:1002C000402104F1200001F0E5FB00220621284630
:1002D000BDE8704001F0DEBB10B584B0DFF8304BF4
:1002E0000C22214600A801F013FCFFF76DFF0C2241
:1002F00000A9204601F00CFC1FBD00002DE9F843C9
:100300002DED0A8B00242546DFF80C6B96ED170ABD
:10031000D6ED100AC6ED170ADFF8007B97ED158AB7
:1003200086ED108A96ED0F1AB8EE411ADFEDD41A59
:10033000C1EE818AC7ED158A716BD6F82480A8EBCF
:100340000100FA30FA22B0FBF2F2FA2303FB1200AA
:1003500080B2002800F04A814C2880F27F80326B06
:10036000012A7BD0D7F85090B9F1040F20D3F4EED6
:10037000480AF1EE10FA1BD5B4EE688AF1EE10FAD5
:1003800016D59FEDC01A20EE811AB4EE681AF1EE70
:1003900010FA0DD59FEDBC1AF4EE418AF1EE10FA79
:1003A00006DB87ED158AC6ED100A86ED170A2EE1E9
:1003B00097ED0E9A87ED0F9AD7ED119AC7ED129A25
:1003C000024600EE102AB8EE400AD6ED070AC0EE4B
:1003D000800A96ED081A81EE001A2246BA637A6402
:1003E0001FE0491C89B2FA2900D12146DFF81C3AE6
:1003F00003EB8103D3ED0E1A71EEE01AD3F820342B
:1004000002EE103A32EE412AD7ED0E2A41EEA12A31
:10041000C7ED0E2AD7ED111A42EE021AC7ED111AD6
:10042000521C92B28242DCDBD7ED0E0A80EE80AA2B
:1004300087ED0EAAD7ED110A80EE80BA87ED11BACA
:10044000D6ED16AA96ED140AD6ED150A70EE60BA2E
:10045000C6ED16BA00F04EFC012803D12046F885FF
:100460003886C3E0B9F1000F0BD1F88D052802DB07
:1004700005462046F885388E052802DB45192046BA
:10048000388619FA85F0002824D1B6EE00CA3BEE72
:10049000290A20EE0C0ADFED7D0AB4EE600AF1EEC7
:1004A00010FA11D43AEE090A20EE0C0ADFED780AB0
:1004B000B4EE600AF1EE10FA06D4B3EE040AF4EEDC
:1004C00040BAF1EE10FA05D5F88D401CF885C6F853
:1004D00038808BE0F88D002802D045192046F88539
:1004E00019FA85F0002814D1B7EE000AF4EE408A1C
:1004F000F1EE10FA7AD49FED670AF4EE408AF1EE3D
:1005000010FA03DB388E401C38866FE020463886B0
:1005100003E0388E451920463886284680B200F020
:1005200081FC012808D187ED158AC7ED119AC6ED27
:1005300016AA87ED0E9A59E09FED570AF4EE408A0D
:10054000F1EE10FA02DBDFF8EC0B78652046F88557
:10055000B9F1000F08D1786DB86587ED10AAC7ED25
:100560001DBA00F067FB36E0B6EE00CA00F062FB91
:10057000012816D197ED150AF0EE000A20EE200AA8
:1005800087ED150A6AEE0C0AC7ED0E0A2BEE0C1A5F
:1005900087ED111AC7ED0F0A87ED121A86ED100AC2
:1005A0006D1C97ED150AD6ED100A30EE200A20EEEC
:1005B0000C0A87ED160A97ED0E0AD7ED0F0A30EEFA
:1005C000200A20EE0C0A87ED100A3AEEAB0A20EE64
:1005D0000C0A87ED1D0A97ED160A284680B200F036
:1005E0005DF800F019F80446C6F83880C6F8348083
:1005F0000020F063F0613062306302461021DFF8C2
:10060000380B01F047FA1E48B0640020F064204621
:10061000BDEC0A8BBDE8F28338B50025DFF8FC4756
:100620000120E06700F09EFC2060206D618E884212
:1006300014D3E06CE060208DA080608DE080E06DE0
:100640006061206EA061606EE061A06E2062E06E6D
:1006500060620120A0672846E0670125284632BD78
:10066000DFF8B807C168C16400210165416081629B
:10067000C1694166416AC1660021C16770470000D7
:1006800000007A446666E63F0100404000001643E1
:100690000000A042666616400100A0402DE9F84F18
:1006A0002DED048B82B0044600239E461846DFF8E9
:1006B0006C572E6D06F10F0101F00F01F21D02F0D3
:1006C00007020092DFF8487707EB810282ED080A03
:1006D000002C18D0024614E0A1F1010CACEB020C86
:1006E0000CF1100C4FEAEC080CEB18784FEA2818C4
:1006F000BCEB081C03D407EB8C0C8CED080A521CD5
:1007000012B2A242E8DB102E02D2314609B200E05A
:100710000F219FED9D8ADFED9C0A9FED9C1A0246FA
:100720001BE007EB810CDCED081AF5EE401AF1EE48
:1007300010FA10DD38EE218AF4EE610AF1EE10FABB
:1007400001D5F0EE610AF4EE411AF1EE10FA01D58E
:10075000B0EE611A521C491E09B20029E1D512B24D
:10076000114603290BDB78EE600A70EEC10A891E80
:1007700001EE101AB8EEC11A80EE818A07E0012955
:1007800005DB00EE902AF8EEE00A88EE208AB5EE4E
:10079000408AF1EE10FA01D0002A01D1B0EE408A71
:1007A00085ED178A9FED7A0AB4EE408AF1EE10FAD1
:1007B00002D5B0EE408A08E09FED760AB4EE408A9A
:1007C000F1EE10FA01DBB1EE028AB0EE040AB4EEEB
:1007D000408AF1EE10FA08D495ED1C0AF0EE080AF2
:1007E000B4EE600AF1EE10FA02D50321298501E08A
:1007F00004212985D5F84C8008F0070ADFF80C960B
:100800000AEB090C298D8CF86418002C0BD0A8F188
:10081000010202F007024A4408F0070BCB449BF8A0
:1008200064B882F864B808220EE0BBF1040F00D16E
:10083000401CAAF1010A0FFA8AFABAF1000F01D599
:100840000AF1080A521E12B2012A16DB0FFA8AFABE
:100850000AEB090B9BF964B8BBF1030F02D10EF14F
:10086000010E03E0BBF1040F00D15B1C062AE0DBA4
:10087000BBF1030FD9D1401EDBE79BB21FFA8EFEFE
:10088000734507D39E4502D2042068850DE000B26F
:10089000002802D50320688507E0012802DB042038
:1008A000688502E09CF96408688549B2B0EE480AA0
:1008B000384600F01BF9DFED8C0AB4EE600AF1EE69
:1008C00010FA01D5B0EE600A85ED180A204600F155
:1008D000010A00EE90AAF8EEE08AD5ED190A48EE7A
:1008E000800AC5ED190A9FEDC99A20EE080A20EE8C
:1008F000090A009909EB810101F6080181ED000A5E
:10090000002C16D0002212E00099491E891A0831E5
:100910008B1001EB5373DB10B1EBC30105D409EB72
:10092000810101F6080181ED000A521C12B28242D7
:10093000EADB082E02D2304600B203E0072001E0D5
:10094000401E00B20028FBD585ED1A0A698D49B218
:10095000384600F043F968EE090AB7EE001AC1EE16
:10096000200A20EE800AD5ED1B0A48EE800AC5ED6C
:100970001B0A0AEB0800E8640AEB0600286502B0CF
:10098000BDEC048BBDE8F18F000000000000C84200
:100990006666A63F0100904049B2032944D1DFEDCD
:1009A0009C0AB4EE600AF1EE10FA01DBB0EE600AC8
:1009B0009FED981ADFED980A40EE010A90ED011ABA
:1009C0009FED960AB4EE401AF1EE10FA43DADFED2D
:1009D000941AB4EE611AF1EE10FA74DBB4EE401A18
:1009E000F1EE10FA6FD59FED8F0A31EE000ADFEDC0
:1009F0008E1A60EE211A9FED8D0A9FED8D2A01EE71
:100A0000002A22EE200A20EE210A9FEDB22ADFED15
:100A1000B22A41EE022A62EEA00AB7EE001A31EEC7
:100A2000611A00EE810A56E0DFEDAC0A60EE200AA2
:100A300060EE800A9FEDAA1A40EE410A9FEDA90AD6
:100A400070EE800A90ED011A9FED740AB4EE401A20
:100A5000F1EE10FA0ADB90ED010A9FED741ADFED5A
:100A6000741A40EE011A21EEA00A34E0DFED6C1A90
:100A7000B4EE611AF1EE10FA25DBB4EE401AF1EE95
:100A800010FA20D59FED670A31EE000ADFED661AF5
:100A900060EE211A9FED650A9FED652A01EE002A9E
:100AA00022EE200A20EE210A9FED8A2ADFED8A2A13
:100AB00041EE022A62EEA00AB7EE001A31EE611A88
:100AC00000EE810A07E090ED010A20EE800ADFEDDA
:100AD000860A20EE200A007A022803D1DFEDC40A3C
:100AE00020EE200A70470000CDCC4C3E10B52DED15
:100AF000028BB0EE408A0C46DFED7C8A49B2FFF7EC
:100B00004BFF64B2042C31D1DFED790AB4EE608A78
:100B1000F1EE10FA16DBB1EE021AB4EE418AF1EEF4
:100B200010FA0FD5DFEDB30A78EE200AB1EE041A01
:100B300060EE810AFCEEE00A10EE900AC01D08EE9D
:100B4000900A3DE0B4EE608AF1EE10FA03D507207A
:100B500008EE900A34E0F1EE020AB4EE608AF1EE9B
:100B600010FA2DDB122008EE900A29E0F7EE080AB1
:100B7000B4EE608AF1EE10FA11DBDFED9F0AB4EEFD
:100B8000608AF1EE10FA0AD5FFEE080A78EE200A24
:100B9000B1EE041A60EE810AFCEEE08A10E0F7EE96
:100BA000080AB4EE608AF1EE10FA09D4DFED920A79
:100BB000B4EE608AF1EE10FA02DB062008EE900A2D
:100BC000DFF86C0D18EE901A00EB8100D0ED000AF2
:100BD00020EE200ABDEC028B10BD0000F0EE0C0AE6
:100BE00049B2042904D19FED851A40EE010A03E0C1
:100BF0009FED831A40EE010A9FEDD80A20EE800A8D
:100C0000D0ED000A20EE200A70470000000070427C
:100C10009A9919406ADEF13D8638163F00002A4352
:100C200000001643000016C3CDCC4C3D4260E53AAF
:100C30006666263F0020794991ED150AF7EE040A11
:100C4000B4EE600AF1EE10FA43DA8A8D042A40DA33
:100C5000D1ED160A9FED6B1A60EE810AB4EE600AC0
:100C6000F1EE10FA03D5022A01DB012011E06849F8
:100C700091ED070ADFED640AB4EE600AF1EE10FAB6
:100C800007DBDFED640AB4EE600AF1EE10FA00D57E
:100C9000012001281DD1604991ED120AD1ED130AFE
:100CA00070EEC00A9FEDAE1AF4EE410AF1EE10FAB2
:100CB00007DBF7EE080AB4EE600AF1EE10FA00D591
:100CC0000020DFEDB50AB4EE600AF1EE10FA00D5AF
:100CD0000020704752491D3BB81E053F2575C23E96
:100CE0007593E83F24975340C1C0C03B000000000B
:100CF000666606400021494A538D032B1BDA92EDAC
:100D0000150ADFEDA60AB4EE600AF1EE10FA12DB66
:100D100092ED0E0AF2EE040AB4EE600AF1EE10FA59
:100D200009D592ED110ADFED9E0AB4EE600AF1EEEC
:100D300010FA00D5012192ED110AF6EE000A92EDAB
:100D4000121A30EE011A21EE201AF3EE0E1AB4EE4A
:100D5000611AF1EE10FA1CD492ED0E1AD2ED0F1AB0
:100D600071EE211A61EEA01AB2EE042AF4EE421AD4
:100D7000F1EE10FA0DD4F3EE041AB4EE610AF1EEBE
:100D800010FA06D4B1EE040AB4EE401AF1EE10FAED
:100D900000D5012192ED150A9FED821AB4EE410AA9
:100DA000F1EE10FA22DB1A4A92ED060A92ED071ACA
:100DB00080EE010A9FEDA61AB4EE410AF1EE10FA98
:100DC00014DB00EE100AB8EE400A20EE200AD2ED45
:100DD000040AF4EE400AF1EE10FA07D5D2ED050A46
:100DE000F4EE400AF1EE10FA00D5012108467047F2
:100DF0003333733F666606C09A993940CDCC4C3E7A
:100E0000CDCCCC3D3333333F01002042744300202E
:100E1000C01B00200000C842F06C0020CC1A00204B
:100E200000002F430021DFF8142C136D13FA80F01B
:100E3000022816D392ED150ADFED860AB4EE600A99
:100E4000F1EE10FA0DDB92ED120AD2ED110A80EEEE
:100E5000200ADFED810AB4EE600AF1EE10FA00DB41
:100E60000121022818D39FEDAB0AD2ED120A92EDB0
:100E7000111AC0EE810AF4EE400AF1EE10FA0BDB13
:100E8000D2ED0F0A92ED0E1AC0EE810AF4EE400A7E
:100E9000F1EE10FA00DB012100280FD092ED1D0ABF
:100EA000DFED9D0A20EE200ADFF8980BD0ED160A40
:100EB000F4EE400AF1EE10FA00D5012192ED150A88
:100EC000DFED960AB4EE600AF1EE10FA08DA92ED60
:100ED000160ADFED930AB4EE600AF1EE10FA18DBA1
:100EE00092ED110ADFED8F0AB4EE600AF1EE10FA0E
:100EF0000BD492ED0E0ADFED8C0AB4EE600AF1EE2F
:100F000010FA02D4908D022803DB508D032800DBF9
:100F1000012192ED100ADFED830AB4EE600AF1EED2
:100F200010FA08D492ED1C0AF1EE040AB4EE600A3D
:100F3000F1EE10FA10D5DFF80C0B026E406E80183F
:100F400000EE100ABAEEEF0ADFED780AB4EE600A9E
:100F5000F1EE10FA00DB0121084670470AD7A33BE7
:100F60000100C03F0020DFF8D41ACA6C12F10A0F4A
:100F70000FD29FED6F0AD1ED190AF4EE400AF1EE9F
:100F800010FA06DAD1ED1B0AF4EE400AF1EE10FA7F
:100F900000DB01207047000085EB113F010000409D
:100FA000000020420100404010B401460020DFF85C
:100FB000942ADFF8943AD3F8C04800EE104AD1EDF5
:100FC000000AB4EE600AF1EE10FA08D11478641C3D
:100FD0001470E4B2FE2C04DB3224147001E00446E9
:100FE000147003F50C6393ED010AD1ED010AB4EE20
:100FF000600AF1EE10FA08D15478641C5470E4B21F
:10100000FE2C04DB3224547001E00446547093ED4E
:10101000020AD1ED020AB4EE600AF1EE10FA08D12C
:101020009178491C9170C9B2FE2904DB322191707C
:1010300001E0014691701178322905DA51783229A0
:1010400002DA9178322900DB012010BC70470000E1
:101050003433333F010060400100A04001460020CE
:1010600091ED000AB5EE400AF1EE10FA01DCB1EEA6
:10107000400ADFF8D029DFED310AB4EE600AF1EE64
:1010800010FA08DBD3785B1CD370DBB2FE2B04DBD9
:101090003223D37001E00346D37091ED010AB5EE1F
:1010A000400AF1EE10FA01DCB1EE400AB4EE600A3B
:1010B000F1EE10FA08DB13795B1C1371DBB2FE2B27
:1010C00004DB3223137101E00346137191ED020A30
:1010D000B5EE400AF1EE10FA01DCB1EE400AB4EED2
:1010E000600AF1EE10FA08DB5179491C5171C9B25E
:1010F000FE2904DB3221517101E001465171D178A2
:10110000322905DA1179322902DA5179322900DBE4
:1011100001207047010070419A99993E010090406A
:10112000010080400000C8430000164301005C42FB
:101130008096184B0000A040D01B002035336B4137
:101140002DE9F24F82B00446DFF8F058E888ADF898
:101150000200A888ADF80000002637462046FFF7B9
:1011600023FF01902046FFF779FF8246DFF8D488FD
:101170003046C8F85000C8F85400D8F86800DFF8C6
:10118000C898D9F8C01800EE101AD4ED000A30EE55
:10119000C01A01EE900AF8EEE11A21EE211AB5EE1E
:1011A000401AF1EE10FA1BD598ED1D1A70EE411A97
:1011B000F5EE401AF1EE10FA01DC71EE401A9FEDE7
:1011C0006D1AF4EE411AF1EE10FA04DBD8F8601053
:1011D000491CC8F8601088ED1D0A4042C8F8680034
:1011E00009F50C6090ED010AD8F86C1094ED011A25
:1011F00031EE401A01EE901AF8EEE11A21EE211AB2
:10120000B5EE401AF1EE10FA1BD598ED1E1A70EEED
:10121000411AF5EE401AF1EE10FA01DC71EE401AB7
:101220009FED541AF4EE411AF1EE10FA04DBD8F8EF
:101230006020521CC8F8602088ED1E0A4942C8F898
:101240006C1090ED020AD8F8700094ED021A31EE9D
:10125000401A01EE900AF8EEE11A21EE211AB5EEDD
:10126000401AF1EE10FA1BD598ED1F1A70EE411AD4
:10127000F5EE401AF1EE10FA01DC71EE401A9FED26
:101280003D1AF4EE411AF1EE10FA04DBD8F86010C2
:10129000491CC8F8601088ED1F0A4042C8F8700069
:1012A00098F80800052809D10120C8F83000304618
:1012B00088F80800A8F80A00A8F80C00D8F83C0044
:1012C00002990818C8F83C00D8F82400D8F834105F
:1012D000884202D10120C8F83000D8F8280000EB7D
:1012E000400109EB810B0BF66C00C0ED000A616850
:1012F0004160A16881600299204600F071F901986F
:10130000012802D0BAF1010F36D19FEDB40ADBF803
:101310006C0800EE900A60EEA00ADBF8700801EE9F
:10132000100A21EE011ADBF8740801EE900A61EE52
:10133000A11A98F80000322805DA98F8030032283C
:1013400001DA30EE800A98F80100322805DA98F8C0
:101350000400322801DA30EE010A98F8020032283F
:1013600005DA98F80500322801DA30EE210A00F09B
:1013700075FB13E0CECC4C3E0BF66C00D0ED020AB0
:1013800090ED011ADBF86C0800EE100A20EE000A5E
:1013900001EE010A00EEA00A00F060FBD8F82C0074
:1013A000002810D1304604E009EB810181ED000AEC
:1013B000401C80B201460729F6DBF1EE0C0A60EE14
:1013C000200AC8ED050AD8F8280009EB8000D0ED06
:1013D000000A70EE600A98ED051A70EE810AC8EDF9
:1013E000050AD8F8280009EB800080ED000AD8F83B
:1013F000240009EB8000C0ED0E0A98ED070A30EEDC
:10140000200A88ED070AD8F8281009EB810191ED30
:10141000070A30EEC00A00F2204282ED000AC1ED58
:10142000070A98ED080AD0F8201400EE901A30EE62
:10143000200A88ED080A09F50C6194EC030A81EC96
:10144000030AD8F84410491CC8F8441098F808203A
:10145000012A01D0032A3AD102292BD26A8D042A0B
:1014600028DA296D002965D198ED060ADFEDBF0A5B
:10147000B4EE600AF1EE10FA08D5D0F8201401EEAF
:10148000101AB4EE601AF1EE10FA0FDAF9EE0C0A47
:10149000B4EE600AF1EE10FA4CDBD0F8200400EE56
:1014A000100AB4EE600AF1EE10FA43D50120C8F834
:1014B00030003FE027290AD3B8F80A20002A03D0D9
:1014C00011FA82F14B2902D30121C8F83010D0F86B
:1014D000200400EE900A98ED060A00F049F998F809
:1014E0000800012826D1B8F80A00002822D0B8F850
:1014F0000C1000291ED0032211FA80F03D2802DBD7
:101500000120C8F83000688D042800DB0222A88D75
:10151000824202D20120C8F83000FEF7EFFE0646F4
:10152000D8F86000C8F864003846C8F86000A8F829
:101530000C00A885D8F82400D8F83810401AFA30E2
:10154000FA242146B0FBF1F104FB1100B8F81210A7
:10155000884201D100F0FBF9D8F82400D8F83810FF
:10156000401AFA302146B0FBF1F104FB1100642867
:1015700001D100F016FABDF80200E988884204D1D2
:10158000BDF80000A988884200D00127D8F82400BF
:1015900009EB8001D1F82014C8F81810401CC8F8D5
:1015A0002400FA2802D10020C8F82400D8F8280026
:1015B000401CC8F82800072802D10020C8F82800DD
:1015C000D8F82C00401CC8F82C0046EA0700401E42
:1015D0008041C043C00FBDE8FE8F00000000000046
:1015E00030B4DFF8643490ED000AD3F8C02800EE80
:1015F000902A30EE600A03F50C62D0ED010A92EDFC
:10160000011A70EEC10A90ED021AD2ED021A31EE03
:10161000611AB5EE400AF1EE10FA02DDF0EE401A62
:1016200001E0F1EE401AF5EE400AF1EE10FA02DDAB
:10163000B0EE602A01E0B1EE602AB5EE401AF1EE9C
:1016400010FA02DDF0EE412A01E0F1EE412A71EEDE
:10165000821A71EEA21AB5EE400AF1EE10FA01DC20
:10166000B1EE400ADFF8E40390ED042A32EE000AFE
:1016700080ED040AF5EE400AF1EE10FA01DCF1EE1D
:10168000600A90ED050A30EE200A80ED050AB5EEFD
:10169000401AF1EE10FA01DCB1EE411A90ED060AA3
:1016A00030EE010A80ED060A90ED070A30EE210ABD
:1016B00080ED070ADFF88C23D46A002C12D10024B5
:1016C00006E003EB850505F62805C5ED001A641C48
:1016D000A4B225460F2DF4DBB2EE0E0A21EE800AED
:1016E00080ED180AD48903EB8403D3F8285800EE60
:1016F000105A31EEC00AD0ED180A30EE200A80ED03
:10170000180A03F62803C3ED001AF2EE0E0A80EE63
:10171000200ADFF8283383ED1C0AD2ED120AB4EE5A
:10172000600AF1EE10FA01D582ED120AD2ED130A29
:10173000F4EE400AF1EE10FA01D582ED130ADFED66
:10174000AB0AB4EE600AF1EE10FA03D5436EC91885
:10175000416601E000214166611CD18189B20F29F7
:1017600001D10021D181406E30BC70470100E040C2
:101770009FED9F1AB148418D042901DBB0EE001A9C
:10178000B5EE400AF1EE10FA07DBF5EE400AF1EE95
:1017900010FA02D5818D491C8185AA48017A002959
:1017A00005D002295CD02BD3032972D0ACE0F1EE36
:1017B0000C1A31EE211AB4EE401AF1EE10FA0BDBDE
:1017C000B4EE601AF1EE10FA06D5416C1029C0F0A3
:1017D0008B800021416487E0416A9B4A02EB8101D2
:1017E000D1F8201401EE901A994991ED010AF4EE16
:1017F000401AF1EE10FA40F18780C1ED011A83E042
:10180000416A914A02EB8101D1F8201401EE901A4D
:101810008F4991ED002AB4EE612AF1EE10FA01D55C
:10182000C1ED001AF7EE001AB4EE610AF1EE10FAFB
:101830006ADBB7EE000AF4EE400AF1EE10FA63D567
:10184000416C418100214164B9EE0C0A30EE410A3D
:10185000F4EE400AF1EE10FA10D40221017253E0C6
:10186000F9EE0C1A31EEC11AB4EE410AF1EE10FA9B
:101870004ADBF4EE410AF1EE10FA45D5032101727C
:101880007149426A01EB8201D1F82014704A51601B
:101890003AE0416A6C4A02EB8101D1F8201401EE72
:1018A000901A6B4991ED012AF4EE421AF1EE10FA0A
:1018B00001D5C1ED011ADFED621AB4EE610AF1EE55
:1018C00010FA21D5F4EE610AF1EE10FA1CDB416C3E
:1018D000818100214164B1EE0C0A31EE000AB4EEC0
:1018E000600AF1EE10FA0ED50121017258490A681A
:1018F00002654A684265544A436A02EB8302D2F8A1
:1019000020240A6000E00172007A7047002803D0AA
:101910004A49282200F0FCB8704710B5494C002015
:10192000E06200F03EF800F012F80520207210BDD1
:101930008C1C0020002806D0444942684A60026896
:101940000A60007A087270474048406E704710B5D0
:101950003A4C0020206520626061A0802085E085EF
:101960002086A065E065024640213A4800F092F8E2
:10197000E06F012801D1FEF773FEA08E002808D089
:10198000E18E814201D2608600E061860020A0865F
:10199000A067A06F012801D1E08E60860020A067BB
:1019A00010BD10B5254C0020206260616085E0808C
:1019B00002460821284800F06DF80020E0852086C6
:1019C000E06F012801D1FEF74BFEA06F012801D185
:1019D000E08E608610BD19490A6D4B8E9A4203D283
:1019E000488600208867704788867047EC51383EEB
:1019F0000000000038B50446124D14480F49012C70
:101A000006D10622CA860C22828196226A8205E0CD
:101A10000722CA860F22828164226A822A8AA2420F
:101A200009D04A8E082A03DAC88EFFF7D4FF02E0F5
:101A30008089FFF7D0FF2C8231BD0000CC1A002036
:101A4000FEFF7FBFF06C002074430020C01B00200D
:101A500004710020E01B0020D84B002081B08DEDE8
:101A6000000A0098401000F1FE500090DDED000AE1
:101A7000C0EE200A9DED001A70EE810ACDED000A3D
:101A8000B5EE001ADDED001A80EE210A00EE810AA3
:101A900001B0704762F30F2262F31F4200B500BF2E
:101AA000130096469446103928BFA0E80C50FAD887
:101AB0005FEA417C28BF0CC048BF40F8042BC9072F
:101AC00028BF20F8022B48BF00F8012B00BD50F8BA
:101AD000041B61B150F8042BD30744BFA9F10103E3
:101AE0009A180023091F42F8043BFAD1EFE7704728
:101AF00062B38B0708D0521E11F8013B00F8013B7E
:101B000000F024808B07F6D1830740F0208000BFCF
:101B1000103A07D330B4B1E83810103AA0E83810C2
:101B2000F9D230BC530724BFB1E80810A0E8081070
:101B300044BF51F8043B40F8043BD20724BF31F8BE
:101B4000022B20F8022B44BF0B7803707047083A31
:101B500007D3B1E80810083A40F8043B40F804CB3A
:101B6000F7D25307E4E78268521C8260426832B1C0
:101B70000268531C036011704168491E4160704740
:101B80000FB410B5DFF80C4D0020A07301202072B7
:101B9000002060724FF0FF3020700F20E0721420A0
:101BA000207300206073208720656074E0652066E4
:101BB0000246242104F11400FFF76CFF01F005FB3D
:101BC000606403220121002001F02AFE022801D1D5
:101BD00002201FE00FF2440001F056FB002060736A
:101BE000208720659DF80C209DF80B109DF80A00B9
:101BF00002F02CF900223C21DFF8500DFFF74AFFDC
:101C0000002060662074A073E063A066A4F8400022
:101C1000A074012010BC5DF814FB000050443A2071
:101C200053746172745065646F2D30383233000024
:101C300080B503220121084601F0F2FD032801D1FD
:101C4000032002BD012002BD70B52DED028B9CB0BA
:101C500005A801F04AFEDFF83C5C686CDFF8F04C48
:101C60006178427A914205D0407A02F0ECFB686CD0
:101C7000407A6070686C2178027B914205D0007BCD
:101C800002F0DEFB686C007B20700621032001F06F
:101C900075FE002816D1DFF8BC0C0D900020E8631B
:101CA000B5F84000401CA5F8400080B240F2EF219A
:101CB00088424ADB0FF2EC0001F0E6FA0020A5F8BA
:101CC000400042E09DED0D8A95F90800022835D1CB
:101CD00095ED1A0AB4EE408AF1EE10FA03D1A88FFE
:101CE000401CA88701E00020A8879FED8B0AB4EE76
:101CF000408AF1EE10FA06D49FED880AB4EE408ACD
:101D0000F1EE10FA03DBE88F401CE88701E00020C9
:101D1000E887EE8FAC8F972C01DA972E10DB18EE48
:101D2000100A02F095FBCDE90001324621460FF280
:101D30008C0001F0A9FA0020E86301E00020E863CC
:101D40000020A5F8400085ED1A8AA86CC068446898
:101D500002F045F8287295F90800022806D13C2CBB
:101D600004D11421032001F0C2FD07E0012805D1B0
:101D7000142C03D13C21032001F0B9FD05980290F9
:101D8000069803900798049021469DED0D0A02A83D
:101D900001F09DFFE86C2018E86401201CB0BDEC48
:101DA000028B70BD50443A204261726F4469736186
:101DB000626C6564203038323300000050443A20B1
:101DC0004241524F202564202564202566000000F2
:101DD00010B5DFF8C04A94F9000000283AD494F90D
:101DE0000A0094F90110814228D1217B0818A072C1
:101DF00040B23D2801DB3C38A07294F90A100FF282
:101E0000700001F041FA0020E064DFF8DC0B90F98B
:101E1000010010F1010F01D1012010BD94F9011052
:101E2000081A02F041FB21F0004102F055FB40B2DC
:101E3000012801DB012010BD002010BDDFF8AC0B34
:101E400090F90120914203D0D4E90023C0E9002396
:101E5000002010BDE06CDFF8981B884205DB0FF214
:101E60001C0001F011FA012010BD002010BD00007F
:101E700050443A204E5420256400000050443A203B
:101E80004E6F54696D6500002DE9F8430026DFF8B8
:101E9000044A01E07819A07294F90A50002E1BD46C
:101EA0006078461B76B294F90C70002EF2D530465D
:101EB00002F0FAFA21F0004102460B46904699469C
:101EC000384602F0F1FA42464B4602F031FBE3D2CB
:101ED000E81BA0720026DFE73C2D02DBA5F13C00E9
:101EE000A072BDE8F18338B5DFF8A8394FF461641A
:101EF000C1EB0115AD0014FB005414194FF47A75B1
:101F00006C43DC611B7C009313460A4601460FF2CA
:101F1000100001F0B9F931BD0000FA430180BB4463
:101F200050443A2042542025642025642025642012
:101F300025640000F8B52DED028B9CB0DFF80C6A2B
:101F4000314684B068463C22FFF7E2FD0FBC00F04A
:101F500003FD10EE100A02F07BFA41EC100B9FED2E
:101F6000848BDFF83049256A53EC102B51EC180BA9
:101F700002F0F6FA02F0B0FA15FA80F020624FF69D
:101F8000FF75A84200D32562314684B068463C22E2
:101F9000FFF7BEFD0FBC00F091FC10EE100A02F03E
:101FA00057FA41EC100B676A53EC102B51EC180BED
:101FB00002F0D6FA02F090FA17FA80F06062A842B6
:101FC00000D3656200200C9002200B90314684B053
:101FD00068463C22FFF79CFD0FBC00F0FBFAE18A4B
:101FE0004018E08280B2FF2801DBFF20E082002061
:101FF0000C9003200B90314684B068463C22FFF7DA
:1020000087FD0FBC00F0E6FAA16A4018A062A84262
:1020100000D3A56200200C9006200B90314684B0BE
:1020200068463C22FFF774FD0FBC00F0D3FA218B09
:102030004018208380B2FF2801DBFF20208300208E
:102040000C9007200B90314684B068463C22FFF785
:102050005FFD0FBC00F0BEFA618B4018608380B258
:10206000FF2801DBFF20608300200C9008200B90EC
:10207000314684B068463C22FFF74AFD0FBC00F0B1
:10208000A9FAE16A4018E062A84200D3E5620020A4
:102090000C9009200B90314684B068463C22FFF733
:1020A00037FD0FBC00F096FA216B40182063A84260
:1020B00000D325630DA801F096FEE76D1A9802F093
:1020C000C7F90022DFF8303902F04AFA02F004FAC8
:1020D00057FA80F0E065216E491C2166B0FBF1F0F3
:1020E000207500200C9001200B90314684B068468A
:1020F0003C22FFF70DFD0FBC00F06CFA616B40183D
:102100006063A84200D36563E27B616B0FF2140049
:1021100001F0BAF8E07B00F050FB1CB0BDEC028B84
:10212000F1BD000050442042542073746570202596
:10213000642C202564000000DFF85807C18A0029BC
:1021400014D1816A002911D1018B00290ED1418B54
:1021500000290BD1C16A002908D1016B002905D1E2
:10216000406B401E8041C043C00F70470120704744
:1021700000000000000059402DE9F04F9DB00646D8
:102180000025B146DFF80C47A07B3146884210D0CD
:10219000B9F1010F40F09D80284602F04FF9A06C84
:1021A000002806D0C068027841780FF2383001F07C
:1021B0006BF80DA801F017FEDFF890A728460C90E9
:1021C00001200B90514684B068463C22FFF7A0FCEA
:1021D0000FBC00F0FFF907469DED1A0ADAED0D0A73
:1021E00030EE600A10EE100A02F032F92A46DFF8EB
:1021F000083802F0B5F902F06FF980461FFA88F846
:10220000BDF83600BAF80210A0EB010B5FFA8BFBA9
:10221000A06C816C4A78002A02D10978002905D087
:10222000A16D0F9A5118626E891AA165C06C417830
:10223000002902D10278002A05D0626D0F9B9A18FE
:10224000636ED21A6265626C927A002A18D1626D4E
:10225000002A07D0002902D10078002802D00120EE
:1022600002F0C0FAA06D00280AD0A06C806C417802
:10227000002902D10078002802D0012002F06BFB77
:10228000002E36D1002F02D15BEA080000D00125D4
:102290000020E0644FF0FF302070D4E90001DFF847
:1022A0004C27C2E90001DFF8642DC2E90001DFF824
:1022B0003827C2E90001E07AA072A07B002850D044
:1022C0000020A073207C00284BD0012060740546BC
:1022D00047E0002E07D10FF2282000F0D5FF0120A3
:1022E00002F0ACF865E70FF2242000F0CDFF28469D
:1022F000F4E000F0EFF900281BD000A801F03EFA4E
:10230000204600A90522FFF7F3FB28466072D4E9B6
:102310000001DFF8D826C2E9000194F9023094F9EF
:10232000012094F900100FF2002000F0ADFFFFF73C
:10233000ABFD00A801F022FA204600A90522FFF714
:10234000D7FBFFF745FD00280BD0D4E90001DFF8EB
:102350009826C2E90001207C002801D00120607489
:102360000125B9F1010F06D1A07B3146884202D088
:1023700000F092FAA673B9F1010F5DD1002F5BD086
:10238000DFF8886CE07B217C08430CD101202074AD
:102390000522214606F10800FFF7BAFBA278617812
:1023A0002078FFF7A0FD94F9010096F90910401A72
:1023B000411E222901D2012005E010F1230F01DA8C
:1023C000012000E0002001282FD1FFF7B5FE0028F2
:1023D0002BD0E07B401CE073C0B2152809D10FF26E
:1023E000601000F051FF012060741420E07301259B
:1023F0001BE00020E06520660246242104F1140061
:10240000FFF748FB207C401C2074A278617820787C
:10241000FFF769FD0522214606F10800FFF778FB6A
:10242000217C0FF22C1000F02FFFFFF783FD3C22E0
:102430000DA95046FFF76CFB607B012834D1208F3B
:10244000002805D10FF2181000F01EFF012523E02F
:10245000216D814218D2002F02D15BEA080000D022
:102460000125DFF8A86B96F9020094F9022090424A
:1024700012D0491C21650FF6884000F005FFD4E911
:102480000001C6E9000107E0002060732087206595
:102490000FF67C4000F0F8FEB9F1010F04D1207C6A
:1024A000002801D0012060742846012801D10021B4
:1024B000E164A16CC9684978002906D10021E16472
:1024C000012801D100F0E8F90025002D03D1A07CFE
:1024D000012800D101250F98606628461DB0BDE88F
:1024E000F08F000050443A2052656620452825644C
:1024F000292C492825642920303832330000000077
:1025000050443A206C63646F6E00000050443A20DF
:102510006249734150536C656570696E67207772CC
:102520006F6E67202564000050443A2054696D6541
:102530004E6F746920256420256420256400000006
:1025400050443A2042542042462046554C4C00000C
:1025500050443A204E4557204254202825642900F3
:1025600050443A20526571205065646F496E666F21
:102570003100000010B50020DFF8581BC8640322AA
:10258000062101F04DF9044600F007F8204610BD81
:1025900003220621012001F043B900B58FB000A845
:1025A00001F021FC3C2200A9DFF8300BFFF7B0FA64
:1025B00001200FB000BDDFF81C0B406D70470020FC
:1025C000DFF8101B486570470020DFF8081B88659E
:1025D000704700000FB410B590B000249DF988003A
:1025E00001286DD000A801F0FEFB9DF98400401E7B
:1025F000082865D8DFE800F02905111D2935414D6F
:10260000590003981599884201D3441A58E0DFF81D
:10261000E02A1018401A441C52E004981699884287
:1026200001D3441A4CE0DFF8C82A1018401A441CA1
:1026300046E005981799884201D3441A40E0DFF834
:10264000B02A1018401A441C3AE0029814998842A3
:1026500001D3441A34E0DFF8982A1018401A441CB9
:102660002EE006981899884201D3441A28E0DFF832
:10267000802A1018401A441C22E0079819998842B1
:1026800001D3441A1CE0DFF8682A1018401A441CD1
:1026900016E008981A99884201D3441A10E0DFF82E
:1026A000502A1018401A441C0AE009981B998842C5
:1026B00001D3441A04E0DFF8382A1018401A441CE9
:1026C000204610B010BC5DF814FB0120DFF8041A9E
:1026D00048727047DFF8FC09407A704710B504462D
:1026E00001F08BFB022C0DD1DFF8E809806CC0688B
:1026F00090F9002090F901100FF62820BDE8104055
:1027000000F0C2BD10BD0146DFF8C829792902DBFF
:102710007820108700E01087012050730FF61C20EE
:1027200000F0B2BD0000000010B5040001D101248A
:1027300002E0072C00DB062421460FF6142000F0EF
:10274000A3FD641E052C2DD8DFE804F0030A111840
:102750001F26DFF880093721C1723C21017321E077
:10276000DFF870091921C1721E2101731AE0DFF828
:1027700064090F21C1721421017313E0DFF85409B9
:102780000A21C1720F2101730CE0DFF8480907210B
:10279000C1720C21017305E0DFF838090521C1720F
:1027A0000A210173DFF82C09C17A8172BDE810405B
:1027B000FFF76ABBDFF80409704700EB800188006F
:1027C000421CDFF8F8083349CB691B0E92B2135450
:1027D000521CCB691B0C92B21354521CCB691B0ABE
:1027E00092B21354521CCB6992B21354521C0B6A0E
:1027F0001B0A92B21354521C0B6A92B21354521C0D
:102800004B6A1B0A92B21354521C4B6A92B2135475
:10281000521CCB8A92B21354521C8B6A1B0A92B27E
:102820001354521C8B6A92B21354521C0B8B92B2EB
:102830001354521C4B8B92B21354521CCB6A1B0A7A
:1028400092B21354521CCB6A92B21354521C0B6BAB
:102850001B0A92B21354521C0B6B92B21354521CAB
:102860000B7D92B21354521C4B6B1B0A92B2135441
:10287000521C4B6B92B21354501C4887704710B5D2
:10288000DFF85048618F0FF6D40000F0FDFC608F38
:1028900010BD0000381A002010B5DFF838480022BB
:1028A000242104F11400FFF7F5F80020E073012063
:1028B000608700202074E065206610BD0FB400B56D
:1028C0008FB000A801F08FFA9DED0A0ADDED1A0A1B
:1028D000B4EE600AF1EE10FA02DB30EE600A05E0B9
:1028E0009FED441A71EE600A30EE800A10EE100A75
:1028F00001F0AEFDDFF8C827DFF8C83702F074F842
:1029000002F0E6F801F0A4FD0022DFF8BC3701F088
:1029100027FE01F0E1FD00EE100AB8EEC00A10EE4D
:10292000100A01F095FDDFF89827DFF8A03701F0D5
:1029300017FEDFF89C27DFF8BC3702F055F802F0ED
:10294000C7F800EE100A0FB05DF814FB286F0020E6
:102950006871002000007A440FB400B58FB000A861
:1029600001F041FA9DED0C0ADDED1C0AB4EE600A9F
:10297000F1EE10FA02DB30EE600A05E09FED1D1A61
:1029800071EE600A30EE800A10EE100A01F060FD70
:10299000DFF82C27DFF82C3702F026F802F098F841
:1029A00001F056FD0022DFF8203701F0D9FD01F0DB
:1029B00093FD00EE100AB8EEC00A10EE100A01F006
:1029C00047FDDFF8FC26DFF8043701F0C9FDDFF82A
:1029D0000027DFF8203702F007F802F079F800EE60
:1029E000100A0FB05DF814FB207100201871002050
:1029F00040771B0000247449000024402DE9F04179
:102A00002DED048B9CB005460C460DA801F0EBF9AA
:102A1000DFF8C066707B012804D1308F002801D117
:102A2000002070732088411C21800121415520889D
:102A3000411C2180012141552088411C2180032116
:102A40004155B07C01284CD12088411C2180E021D7
:102A50004155002035E051F82020130223F0FF13E8
:102A6000120A02F0FF121A4341F820204FEA3242C4
:102A700041F8202001EB80014A68130223F0FF1384
:102A8000120A02F0FF121A434A604FEA32424A60C9
:102A90008A68130223F0FF13120A02F0FF121A438E
:102AA0008A604FEA32428A60CA68130223F0FF1339
:102AB000120A02F0FF121A43CA604FEA3242CA6099
:102AC000001DDFF814161428C5DB042220884019E5
:102AD000FFF70EF82088001D20800020B074012030
:102AE0008FE2707C01281FD1307C00281CD0208808
:102AF000411C2180C0214155FFF75CFE8046FFF755
:102B0000BEFE0746307CDFF8B41508703A464146F1
:102B100020884019FEF7ECFF208838182080FFF746
:102B2000BBFE002070746BE29FED848B9FED859B54
:102B3000DFF8A86500200C9001200B90314684B08E
:102B400068463C22FEF7E4FF0FBCFFF743FD0A286E
:102B500080F0FC8000200C9002200B90314684B065
:102B600068463C22FEF7D4FF0FBCFFF733FD2188F7
:102B70004A1C2280485500200C9003200B903146BF
:102B800084B068463C22FEF7C3FF0FBCFFF722FD6E
:102B900021884A1C2280485500200C9004200B906C
:102BA000314684B068463C22FEF7B2FF0FBCFFF707
:102BB00011FD21884A1C228048552088411C218013
:102BC0000021415508460C9005200B90314684B0F9
:102BD00068463C22FEF79CFF0FBCFFF7FBFC2188F8
:102BE0004A1C22804855314684B068463C22FEF794
:102BF0008FFF0FBCFFF7B0FE10EE100A01F028FCAB
:102C000041EC100B53EC102B51EC190B01F0A8FC0C
:102C100001F062FC80B221884A1C22800246120A1E
:102C20004A5521884A1C228048551A9801F010FC08
:102C300053EC182B01F094FC41EC100B2788781C06
:102C4000208051EC100B01F047FC7855BDF83600A0
:102C500021884A1C22804855314684B068463C226F
:102C6000FEF756FF0FBCFFF729FE10EE100A01F029
:102C7000EFFB41EC100B2788781C208053EC102BC5
:102C800051EC190B01F06CFC01F026FC78551B98F7
:102C900001F0DEFB53EC182B01F062FC41EC100B51
:102CA0002788781C208051EC100B01F015FC78551A
:102CB00000200C9006200B90314684B068463C22E0
:102CC000FEF726FF0FBCFFF785FC21884A1C2280F7
:102CD000485500200C9007200B90314684B0684680
:102CE0003C22FEF715FF0FBCFFF774FC21884A1C3D
:102CF0002280485500200C9008200B90314684B06B
:102D000068463C22FEF704FF0FBCFFF763FC2188F6
:102D10004A1C2280485500200C9009200B90314617
:102D200084B068463C22FEF7F3FE0FBCFFF752FC6E
:102D300021884A1C2280485560E100BF0000000045
:102D40000000244000000000000059402088411C81
:102D500021808021415500200C9002200B903146AB
:102D600084B068463C22FEF7D3FE0FBCFFF732FC6E
:102D700021884A1C2280020C4A5521884A1C228044
:102D8000020A4A5521884A1C2280485500200C908E
:102D900003200B90314684B068463C22FEF7B8FE13
:102DA0000FBCFFF717FC21884A1C2280020C4A55F1
:102DB00021884A1C2280020A4A5521884A1C228006
:102DC000485500200C9004200B90314684B0684692
:102DD0003C22FEF79DFE0FBCFFF7FCFB21884A1C3E
:102DE0002280020C4A5521884A1C2280020A4A5538
:102DF00021884A1C2280485500200C9005200B9009
:102E0000314684B068463C22FEF782FE0FBCFFF7D5
:102E1000E1FB21884A1C2280020C4A5521884A1C69
:102E20002280020A4A5521884A1C22804855314690
:102E300084B068463C22FEF76BFE0FBCFFF78CFDAA
:102E400010EE100A01F004FB41EC100B53EC102BB8
:102E500051EC190B01F084FB01F054FB21884A1C52
:102E60002280020C4A5521884A1C2280020A4A55B7
:102E700021884A1C228048551A9801F0E9FA53EC3F
:102E8000182B01F06DFB41EC100B2788781C20807B
:102E900051EC100B01F020FB7855BDF8360021886D
:102EA0004A1C22804855314684B068463C22FEF7D1
:102EB0002FFE0FBCFFF702FD10EE100A01F0C8FA5A
:102EC00041EC190B864A874B01F04AFE06D8864A28
:102ED000864B01F02DFB01D29FED879B53EC192B04
:102EE00051EC180B01F03CFB01F0F6FA80B221889E
:102EF0004A1C22800246120A4A5521884A1C228016
:102F000048551B9801F0A4FA53EC182B01F028FB4C
:102F100041EC100B2788781C208051EC100B01F03D
:102F2000DBFA785500200C9006200B90314684B0D7
:102F300068463C22FEF7ECFD0FBCFFF74BFB2188F7
:102F40004A1C2280020C4A5521884A1C2280020A0F
:102F50004A5521884A1C2280485500200C900720A1
:102F60000B90314684B068463C22FEF7D1FD0FBC81
:102F7000FFF730FB21884A1C2280020C4A55218829
:102F80004A1C2280020A4A5521884A1C2280485540
:102F900000200C9008200B90314684B068463C22FB
:102FA000FEF7B6FD0FBCFFF715FB21884A1C2280F7
:102FB000020C4A5521884A1C2280020A4A5521885F
:102FC0004A1C2280485500200C9009200B90314665
:102FD00084B068463C22FEF79BFD0FBCFFF7FAFA6F
:102FE00021884A1C2280020C4A5521884A1C2280D2
:102FF000020A4A5521884A1C22804855FFF7CDFA1B
:1030000001201CB0BDEC048BBDE8F081B470002041
:1030100070B582B004460025002C05D10FF2501087
:1030200000F032F9284676BD04F1500040780128BE
:103030002BD10FF2501000F027F92846ADF8000010
:10304000254E08E0BDF8000046F82020BDF800003D
:10305000401CADF80000BDF80000142822DABDF8CD
:10306000000054F82020A2F52F70B0F5167FE9D9A2
:10307000BDF800100FF2181000F006F94FF47A7046
:10308000BDF8001046F82100E0E702280AD194F8C4
:1030900050100FF2101000F0F7F894F850000120D3
:1030A000C0460546284676BD80B500F0B7FB094905
:1030B00088646C31C160012002BD0000B05B00205B
:1030C0007B14AE47E17A743F00005940E17A843FB7
:1030D0002D431CEB381A0020E01C0020286F002034
:1030E000B81E85EB51B89E3F9A9999999999B93F25
:1030F00080969800E2361A3F9A9999999999B93F22
:1031000050443A207574696D657220256400000092
:1031100050443A20526571205065646F496E666F65
:103120003200000050443A2052656632204528257E
:1031300064292C49282564290000000050443A20C5
:10314000537461727420446174612025640000002E
:1031500050443A20555420256400000050443A2041
:103160004241544C454E475448202564000000001D
:1031700050443A2053462050545233206E756C6CA4
:103180000000000050443A2053462053455431007B
:1031900050443A205346204552525B25645D202519
:1031A0006400000050443A205346205345543220D6
:1031B0002564000010B5DFF8D04500224FF40871F7
:1031C0002046FEF767FC204610BDDFF8BC057047BF
:1031D00010B5FFF7EFFF044600231A4611460846D4
:1031E00000F029FAC046C04601F00DFD0B21204633
:1031F00000F033F801F0C5FE204600F0F1F920465A
:1032000000F00AF800F098F900206072A072E072F5
:1032100020730120607310BD10B50446DFF86C0503
:1032200001F0B9FDDFF8680501F0B5FD012060711E
:1032300010BD10B5044601F0EEFD0120A07110BDD7
:1032400080B502F002F8012002BD10B50446E07915
:1032500002F0DEF80121217010BD70B50446002592
:10326000E679E171FFF7F1FF002807D02046FFF76C
:10327000D3FF2046FFF7DDFF012503E0E67120467E
:10328000FFF7E3FF284670BD0EB470B5C1B0054628
:1032900000A84FF4807102F039FDFFF796FF044655
:1032A00045AB2A464FF4807100A802F033FD00A818
:1032B00002F04EFD451C002000A9691801F8010C20
:1032C000DFF8D0643078401C30707078F02108420C
:1032D00002D0992002F058FD02F0CCFD7078401C1D
:1032E000707094F81C012818FA2817DA94F81C0159
:1032F000002805D00A2094F81C11091981F81C0136
:1033000094F81C01001900F21D102A4600A9FEF7CE
:10331000EFFB94F81C01281884F81C017078F02148
:10332000084202D0992002F02FFD7078401E707084
:10333000C0B2002801D102F097FD03F085F841B03A
:1033400070BC5DF810FB052803D0082801D01D28AB
:1033500005D1DFF83C04DFF8401408607047DFF85F
:103360002C04DFF834140860704710B50446FFF7EA
:103370002CFFD0E9442310461946224603F088F971
:1033800000F0010011F0000101D100280ED0DFF89B
:1033900010442068401C20601E2807DB0FF21040FC
:1033A000FFF772FF02F0AFF80020206010BD002090
:1033B000DFF8EC13086070472DE9F84305460E4628
:1033C00017464FF00208DFF8CC436078F02108423E
:1033D00002D0992002F0D8FC02F04CFD6078401C2D
:1033E00060709DF80000401E8DF8000017F8019BEA
:1033F0002846FFF7A8FF00AB4A463946304602F0A0
:10340000B7F8002812D06078F021084202D0992045
:1034100002F0BAFC6078401E6070C0B2002801D192
:1034200002F022FDFFF7C3FF01201FE05FFA88F8DA
:10343000424629460FF28C30FFF726FF4046A0F1A6
:1034400001080028D7D16078F021084202D09920E5
:1034500002F09AFC6078401E6070C0B2002801D172
:1034600002F002FD2846FFF780FF0020BDE8F2834E
:103470002DE9F04704460D4616461F46DFF8248323
:10348000089888F80000DFF80C9399F80100F02103
:10349000084202D0992002F077FC02F0EBFC99F888
:1034A0000100401C89F801002046FFF74CFF4FF057
:1034B000020A434632463946284602F00BF90028F4
:1034C00015D099F80100F021084202D0992002F0AD
:1034D0005BFC99F80100401E89F80100C0B2002889
:1034E00001D102F0C1FCFFF762FF012022E05FFA88
:1034F0008AFA524621460FF2D820FFF7C5FE504601
:10350000A0F1010A0028D4D199F80100F021084265
:1035100002D0992002F038FC99F80100401E89F889
:103520000100C0B2002801D102F09EFC2046FFF746
:103530001CFF0020BDE8F08703F05ABD2DE9F843D9
:10354000044602264FF000080125DFF8509216E0ED
:103550003046461EC0B2002813D1B8F1000F0CD17E
:10356000D4E94467012000212A4603F03BFE26EA05
:10357000000027EA0101C4E9440102266D1C202D48
:103580001ADA59F825000028E2D0C06F0068804799
:103590008046B8F1010FDBD1D4E944670120002156
:1035A0002A4603F01FFE30433943C4E94401012099
:1035B00059F825100877D0E7D4E94401002901D152
:1035C000032807D0002901D1022803D0002905D102
:1035D000012803D140F48050C4E94401BDE8F183DF
:1035E00002F0C1B902F023BA02F0D1B969490A6AFE
:1035F0000B6A00BF00BF00BF00BF00BF9B1A834221
:10360000F6DB704702F032BA02F03ABA012001F05C
:10361000BFBA002001F0BCBA012001F0C5BA0020F9
:1036200001F0C2BA02F036BA10B50446FFF7CDFD7C
:1036300080F8194110BD2DE9F04782B00C461546BF
:103640002F46264680464FF47A714FF03C0C4FF4DB
:10365000616918FB09F216FB0C22BA1801FB023251
:10366000DFF844E19EF900A01AFB09F99EF901A0D8
:103670001AFB0C9C9EF902904CFA89FCBEF903904F
:1036800001FB0C919EF808C0BCF1000F22D144EA66
:1036900000012943194302D001218EF808108EF849
:1036A0000000B8F1000F04D59EF8000018308EF825
:1036B00000008EF801408EF80250AEF803300093FF
:1036C0003B4632469EF900100FF23410FFF7DCFD46
:1036D000BDE8F38791420DD3A1EB020CACF2D17C93
:1036E000DFF8C890CC45DAD30FF2F00002B0BDE8A5
:1036F000F047C9E5D3D2A2EB010CACF2D179DFF8E7
:10370000ACA0D145CBD363460FF2E00002B0BDE8D8
:10371000F047B9E510B504002FD003F01AFE224996
:10372000CA68002A00D0841AB1F80320A218A1F8B0
:10373000032012B2B2F57A7F06DBA2F57A72A1F805
:1037400003208A78521C8A7091F902203C2A04DBFB
:103750003C3A8A704A78521C4A7091F901203C2AFE
:1037600004DB3C3A4A700A78521C0A7091F9002036
:10377000182A01DB00220A70C86010BD0A49052220
:10378000FEF7B6B900000000B8570020005800400E
:1037900000540040C01D0020AC200020706D0020AF
:1037A000347100206C710020A47000205F4C26054D
:1037B000233E496E6974696C61697A6520493243B8
:1037C00000000000495745202564202564000000C2
:1037D00049524520256420256400000041542D53A2
:1037E00065745453312025642025640041542D53C1
:1037F000657454533220256420256420256400001C
:1038000053657453797374656D54696D65202564CF
:103810003A25643A25642E25640000006448704708
:10382000F8B50C461746012500282ED1604E56F8F3
:103830002700C1680A46E240D10708D52346C2687E
:1038400039460FF2A820FFF71FFD0220F2BD4FF00E
:10385000FF3100910B462A464168204604F031FFB3
:10386000002810D0234656F82700C26839460FF2C8
:103870008C20FFF709FD56F82700C1682A46A240B0
:103880001143C1602FE00220F2BD01282BD1484E28
:1038900056F82700C1680A46E240D10708D42346FB
:1038A000C26839460FF26420FFF7EEFC03251AE0E8
:1038B0004FF0FF332A464168204604F04BFF0028B2
:1038C00009D0234656F82700C26839460FF24C202B
:1038D000FFF7DAFC00E0032556F82700C168012253
:1038E000A2409143C1602846F2BD05F0E5BC02B597
:1038F00098B00021ADF858108DF801100DF10101BC
:103900000A224A7000228A70CA7005218DF80010C0
:103910008DF80100042218A90DF10300FEF7E8F864
:103920000020ADF8580000A800F044F819B000BD20
:10393000FEF7CBBE10B5417884780078032802D01A
:1039400038280CD010BD012917D12046FEF7DBFE28
:1039500021460FF2D810BDE81040FFF795BC0129B1
:1039600003D1BDE8104006F08DB9032905D10FF24F
:10397000C810BDE81040FFF787BC10BD70B5054604
:103980000E460024A81E3E280FD2284605F0FCFC57
:10399000002801D1204670BD054850F82500C068B8
:1039A0000146F140C80700D50124204670BD000043
:1039B000CC65002030B593B00446012594F9000091
:1039C000062800F28980DFE800F00425334F657F88
:1039D0008300E11C82B068465422FEF789F80CBCD3
:1039E00094F9021094F9010005F05BF9022809D15D
:1039F000607805F08DFA002561780FF25010FFF71E
:103A000043FC6FE003286DD161780FF24810FFF797
:103A10003BFC67E094F9021094F9010005F0F0F91D
:103A200003285FD161780FF23410FFF72DFC59E0C5
:103A3000B4F8581000A805F084FA9DF90400022893
:103A40000AD1009800B205F063FA002500990FF240
:103A50001410FFF719FC45E0032843D100990FF239
:103A60000C10FFF711FC3DE006F060FD022809D1C3
:103A7000607805F04DFA002561780FF2F800FFF745
:103A800003FC2FE003282DD161780FF2F000FFF73F
:103A9000FBFB27E06078382824D106F0BCF840B260
:103AA000022809D1607805F033FA002561780FF219
:103AB000D400FFF7E9FB15E0032813D161780FF27A
:103AC000D000FFF7E1FB0DE0204605F09DFA09E08C
:103AD000204605F024FC05E061780FF2C000FFF7F6
:103AE000D3FB0025284613B030BD0000534D4143A1
:103AF000202564202564202564000000534D4120CA
:103B0000256420256420256400000000534D5243A5
:103B1000202564202564202564000000534D522098
:103B200025642025642025640000000050442055B1
:103B3000542D2564000000004450434D205645524A
:103B400053494F4E20494E464F000000414C4F46CE
:103B500020256400414C434620256400524C4346D6
:103B600020256400504C4F4620256400504C4346AD
:103B70002025640050414F462025640050414346B3
:103B8000202564004450434D20504F4620256400BA
:103B90004450434D20434620256400004558204CA6
:103BA0004D454C2025640000DFF87408C17900EB16
:103BB000810181ED030AC17900EB8101C1ED070AA2
:103BC000C17900EB810181ED0B1A017A042901DA38
:103BD000491C0172C179491CC171C9B2042901DBB8
:103BE0000021C171704700000020DFF834180A7A04
:103BF000022A00DA704730B4034601E000205B1C63
:103C000093425CDACC79002C02D10324022503E034
:103C1000641E651E00D52D1D01EB850595ED030A7B
:103C200001EB8404D4ED030A95ED031A70EEC10A8A
:103C3000F5EE400AF1EE10FAD4ED030A02DD30EEA3
:103C4000C00A01E030EE600AD5ED070A94ED071ACC
:103C5000D5ED071A31EE611AB5EE401AF1EE10FA01
:103C600094ED071A02DD71EE600A01E070EEC10A00
:103C700095ED0B1AD4ED0B1A95ED0B2A71EEC21AC5
:103C8000F5EE401AF1EE10FAD4ED0B1A02DD31EE2A
:103C9000C11A01E031EE611ADFED941AB4EE610A47
:103CA000F1EE10FA09DAF4EE610AF1EE10FA04DA34
:103CB000B4EE611AF1EE10FAA0DB401C9FE7C0B22F
:103CC000042801DB012000E0002030BC7047F8B57B
:103CD0002DED028B84B0B0EE408A0C4600250168C1
:103CE00000914168019181680291DFF8346706F123
:103CF000480796ED120AD0ED000AB4EE600AF1EE24
:103D000010FA1BD197ED010AD0ED010AB4EE600A5A
:103D1000F1EE10FA12D197ED020AD0ED020AB4EEDC
:103D2000600AF1EE10FA09D1DFF8F8060168491CC3
:103D3000016015290CD32946016009E00098B064A0
:103D4000019878600298B8602846DFF8D8160860B5
:103D500000A890EC030AFFF727FFB079022831D1C1
:103D6000204680B2B0EE480A06F04EFC214600A87C
:103D7000FDF7E6F9054606F15400FDF7C7FDF868C2
:103D800001280DD1FCF7A8FA06F15400FDF7BEFD9D
:103D9000282206F1540106F17C00FDF7B9FE19E076
:103DA00000F0DEF900280AD0388A002807D1012067
:103DB000B071FDF7B2FD06F15400FDF7A7FD00F06C
:103DC00097F807E0012805D1FFF70EFF002801D082
:103DD0000220B071284604B0BDEC028BF2BDDFF8C2
:103DE000400680797047002806D0DFF83416D1F8F5
:103DF000A4103C22FDF78CBE704700280AD115297B
:103E00001FDB00EE101AB8EE400ADFF81C0680ED4A
:103E1000010A16E001280AD1032912DB00EE101A6C
:103E2000B8EE400ADFF8F80580ED0F0A09E0022835
:103E30000BD10846012801D0022802D1DFF8E8059D
:103E40000172DFF8E405FDF775BD70472DE9F84311
:103E500081460C461546DFF8C86500224FF4CC7148
:103E60003046FDF717FE06F13C0706F1E408C7F8F7
:103E70006880A9F11500B0F58B7F06D800EE109A86
:103E8000B8EEC00A87ED010A02E0DFF8A00578600D
:103E9000E01EB0F5F87F06D800EE104AB8EEC00A72
:103EA00086ED0F0A02E0DFF86805F063012D01D00E
:103EB000022D01D13D7201E001203872FCF784F936
:103EC0003846FDF737FD0020A6F8A80006F1A80146
:103ED00048803C224046FDF71BFE0120B07106F0F1
:103EE00085FB01207071BDE8F18300000100803F77
:103EF0002DE9F0412DED028BDFF8244504F160053A
:103F0000A86A216E814205D1B4F85A206B8C9A427E
:103F100000F08680B1EB000802D5DFF8140580447C
:103F200095ED060AD5ED100A70EE608AF5EE408A2E
:103F3000F1EE10FA03D59FED890A78EE808A95EDAF
:103F4000040AD5ED0E0A30EE608AB5EE408AF1EE35
:103F500010FA03D59FED810A38EE008AB4F85A00B2
:103F6000C0B295ED050A06F04BFCB0EE401A261DD6
:103F70007078012802D002282BD033E004F5907726
:103F800039469FEDDD1AF0EE480AB0EE680A404669
:103F900000F04AF8207940442071C0B2062821DBA5
:103FA00004F5947004F1A8019FEDD31AD0ED0A0A2C
:103FB00090ED080AD4F8280100F036F82079401C6A
:103FC000207100223C213846FDF764FD022070700C
:103FD00008E004F1A801F0EE480AB0EE680A404695
:103FE00000F022F8B4F85A00002809D100223C2140
:103FF00004F59070FDF74EFD0020207101207070D7
:10400000282204F1540104F17C00FDF781FD04F144
:10401000A8016964E4343C222046FDF779FD6C6414
:10402000BDEC028BBDE8F081F8B52DED048B8AB0B4
:10403000B0EE409AB0EE608AF0EE418A0C46DFF8AE
:10404000E053B5F85A60B5F85870A680B0EE680A2B
:1040500000F0BEF82868002818D194ED0A0A30EE66
:10406000090A84ED0A0A00F0B3F984ED0A0A6680B1
:104070002780E86EE06294ED0C0A30EE080A84EDC9
:104080000C0A00F099F984ED0C0A4AE005F13C00B5
:1040900006AA0AC80AC20368136005F1540184B075
:1040A00068462822FDF734FD0FBCB0EE680A00F028
:1040B00035F9D4ED0A0A30EE800A84ED0A0A00F0E0
:1040C00087F984ED0A0AF5EE408AF1EE10FA0BDD6D
:1040D000032E03D106206080208010E0042E0ED134
:1040E0000820608020800AE0032E03D10720608032
:1040F000208004E0042E02D1092060802080F6EEAA
:10410000000A95ED1B0A20EE200A84ED0B0A94EDBF
:104110000C0A08EE200A84ED0C0A00F04DF984ED3B
:104120000C0A95ED1D0ADFEDB30A20EE200A84ED9E
:104130000D0ADFEDB10AB4EE600AF1EE10FA01DB10
:10414000BC486063A86EA0636088002801D100208D
:10415000A0630AB0BDEC048BF1BD000000247449DB
:1041600080B5FDF7F1FB40F6B931884201D301205B
:1041700002BD002002BD10B50C46A188032912D152
:10418000B5EE400AF1EE10FA06DDA1694018A06113
:1041900000F02AF9A06110BDE1694018E06100F06B
:1041A00023F9E06110BD042911D1B5EE400AF1EE0A
:1041B00010FA06DD216A4018206200F015F920622D
:1041C00010BD616A4018606200F00EF9606210BDB7
:1041D00070B52DED028B0546B0EE408A0C46A06806
:1041E0002818A06000F000F9A060B5EE408AF1EE5A
:1041F00010FA02DDB0EE480A01E0B1EE480AB5EE71
:10420000400AF1EE10FA46DD854E3068002833D1C1
:10421000D6F87001062811D26188042905D1D6F894
:104220006C116918C6F86C1104E0D6F868116918A9
:10423000C6F868112818C6F8700151E06169401885
:10424000606100F0D1F860612146B0EE480AD6F80E
:104250007001FFF790FF60692818606100F0C4F8F2
:1042600060612146B0EE480A2846FFF784FF00F05F
:104270003AF80120306033E060692818606100F08E
:10428000B3F860612146B0EE480A2846BDEC028BC7
:10429000BDE870406FE76088032802D0042807D08B
:1042A0000DE0E0682818E06000F09EF8E0600CE0A7
:1042B00020692818206100F097F8206105E0E06887
:1042C0002818E06000F090F8E060554ED6F87001D4
:1042D000002801D000F012F800F005F8002030604E
:1042E000BDEC028B70BD4E480021C0F8681100F58E
:1042F000B470416081607047000000004848D0F809
:10430000B410D0F868215118C0F8B41000F1B4010D
:104310004A68D0F86C018018486070470FB4DFED30
:10432000370A9FED361AF0EE0C1A9DED082ABDF8FB
:10433000060004280FD1DFED322A42EE221AB5EE34
:10434000400AF1EE10FA15D49FED2E1A22EE011A52
:1043500021EE001A0EE0DFED2C2A42EE221AB5EE15
:10436000400AF1EE10FA05D49FED281A22EE011A48
:1043700021EE001AB5EE402AF1EE10FA0ED09DEDB6
:10438000050AB5EE400AF1EE10FA07D0DFED200A7B
:1043900020EE200AF7EE000AC0EE800A31EE810A14
:1043A0009FED1C1A20EE010A9DED0A1A20EE010A6B
:1043B00020EE200A04B07047DFED170AB4EE600A61
:1043C000F1EE10FA03DBDFED150A30EE200A70473C
:1043D000DFED110AB4EE600AF1EE10FA03DBDFED57
:1043E0000F0A30EE200A70471149884201D3124962
:1043F000081870478FC2753D0100C84100000000D9
:10440000CDCC4C3E6666663FCDCCCC3D6666E63F85
:10441000000070420AD7A33B01247449002474C9E8
:10442000785F002030710020B45F002000002F432F
:10443000819698000000C841806967FFFDF7DABAED
:104440000249087070470149487070476471002044
:104450005FF0FF0C1CEAD05114BF614506E0C110AB
:10446000400721F0E04101F16051704779B900F057
:10447000004100020AD0B0FA80FC00FA0CF001F111
:104480006051A1EB0C5101EBD02140057047410276
:104490000CBF40F4E0016FF000010020704702689B
:1044A000531C036011707047010040F10980F4460D
:1044B000404200F005F851F000416047010000BFA4
:1044C00009D0B0FA80F18840C91CC1F584610905A2
:1044D00001EBD02140057047F446400D40EAC12071
:1044E000490006D200F014F8004248BF6FF00040C7
:1044F000604700F00DF84FF0004188428CBF08463D
:1045000040426047400D40EAC120490080F00D80E4
:1045100040F00040490DA1F58061491C05D4D1F15E
:104520001F0154BFC840C01770474FF000007047CC
:104530004FF4001C1CEB410F94BF1CEB430F09E030
:1045400041EA030C50EA4C0C52EA0C0C03D299429B
:1045500008BF9042704714BF8B42824270470000F0
:10456000B0B581EA030C0CF0004C40F2FF7515EA7F
:1045700011541DBF15EA1357AC42AF4239E0E4199C
:1045800023EA455343F48013C90241F0004141EA54
:10459000505EC7021100A7FB020200284FF0000086
:1045A000EEFB01204FF00001E3FB072118BF42F0B2
:1045B0000102401800214941E3FB0E01A4F580648B
:1045C0000F0302D252004041494154F101046CDD15
:1045D000470872F1004250F1000051EB0451A1F57F
:1045E00080115CBF41EA0C01B0BD4CEA05510020CE
:1045F000B0BD05EA1357AC4214BFAF4241E050EAE8
:10460000410E1CBF52EA430E02E061460020B0BDDD
:1046100024423C441BD15FEA070EF6D0090302BFD7
:1046200001460020AEF1140EB1FA81F7AEEB07049B
:1046300001FA07FE0C37C7F1200100FA07F7C8405E
:104640004EEA000E23EA455343F48013A2E733F009
:104650000043B3FA83F704BFB2FA82FE77440B3FFC
:10466000E41BB7F1200E2FBF02FA0EF3BB40C7F1D7
:10467000200E22FA0EFE38BF43EA0E03BA40641C35
:1046800082E750EA410E14BF52EA430E6FF0000178
:104690004FF4001717EB430F8ABF194617EB410F72
:1046A000B5E74CEA05510020B0BDD4F10104B4F1E6
:1046B00020070FDAC4F12007520828BF42F0010298
:1046C00010FA07F501FA07F7E1BF2A43E040384343
:1046D000E1400FE0352C98DCC7F1200452EA40029B
:1046E00020FA07F218BF42F0010231FA07F0A140A8
:1046F0000A43002172F1004250F1000051EB0C011D
:10470000B0BD00000FB400B5ADB001208DF80400BD
:10471000AA208DF802003C208DF803000020ADF89F
:10472000AC000A208DF856000DF1570000A9542264
:10473000FDF7DEF900208DF8540003208DF85500B8
:10474000002000F04FF8FDF73AFF15A8FFF732F907
:1047500001202DB05DF814FB00B597B00020ADF836
:1047600058000DF101000A21417000218170C170D3
:1047700001208DF8000003208DF8010000A8FFF74C
:1047800019F9012017B000BD10B582B03048C46CD3
:10479000002C06D113210FF2C800FEF775FD002092
:1047A00016BD00F022F8012810D1FDF704FF00909B
:1047B000A27F00A9E068A3691818FDF799F9012004
:1047C0006077002000F00EF8FDF7F9FE012016BD1D
:1047D00020480068D0F890004078002801D10020DF
:1047E00070470BE01C49087070471B480078704701
:1047F00080B5002000F006F8012002BD174890F9AE
:104800000000704715490870704780B50A88531C2E
:104810000B80012313540A88531C0B80012313546B
:104820000A88531C0B80242313540A88531C0B80C2
:1048300000211154FFF7DCFF012002BD80B5FEF717
:10484000EDFF04490860091DC0F89010012002BD69
:10485000706D0020081F0020707100206F71002013
:1048600073656E736F722028256429202A2069736E
:10487000206E756C6C0000000FB400B5ADB0012067
:104880008DF80400AA208DF802003C208DF803006A
:104890000020ADF8AC000A208DF856000DF157004D
:1048A00000A95422FDF724F900208DF854000320BC
:1048B0008DF8550015A8FFF77DF8FDF785FE00205F
:1048C00000F049F801202DB05DF814FB00B597B059
:1048D0000020ADF858000DF101000A2141700021BF
:1048E0008170C17001208DF8000003208DF8010057
:1048F00000A8FFF75FF8012017B000BD10B582B027
:104900002F48846C002C06D112210FF2C400FEF750
:10491000BBFC002016BD00F021F8012810D10120B9
:104920008DF80000A27F00A9E068A3691818FDF7C0
:10493000DFF801206077002000F00DF8FDF744FE5D
:10494000012016BD1F480068C06F4078002801D1C3
:10495000002070470BE01C49087070471A48007827
:10496000704780B5002000F006F8012002BD17480E
:1049700090F90000704715490870704780B50A88A3
:10498000531C0B80012313540A88531C0B800123F2
:1049900013540A88531C0B801F2313540A88531C7A
:1049A0000B8000211154FFF7DCFF012002BD80B510
:1049B000FEF734FF03490860091DC167012002BDED
:1049C000706D0020341F0020727100207171002072
:1049D00073656E736F722028256429202A206973FD
:1049E000206E756C6C00000070B44FF0004591EAC9
:1049F000030C44BF6B4006F0D9B800BF841A71EBBA
:104A0000030603D2001BB141121973414FF4001C7D
:104A10001CEB410F34BF7CEB430443E00C0DA4EBD3
:104A20001356352E50DC45EAC323DB0A45EAC12183
:104A3000C912B6F120050DDD63FA05F6EB4086EAF2
:104A40000305124218BF45F00105C01851F10001DD
:104A50000CD213E062FA06F5F2405540F3415A4099
:104A6000B340F3405A408018594107D349085FEAE0
:104A700030005FEA350528BF45F0010501F58011DA
:104A8000420875F1004250F1000041EB045170BC46
:104A90004FF4001C1CEB410F38BF70470020090D7C
:104AA000090570471CEB410F10D252EA43060BD0A8
:104AB000BCEB410F05D80C0DAB43661E342EB5DDA3
:104AC00002E0AB438018594170BC704770BC70471E
:104AD0004FEAF17CBCF1E04C2CBFBCF5001F11E0AB
:104AE0005FEA4C0C34BFBCF17F5F2EE05FEA9C0CA8
:104AF0004FEA0C1C4FEA3C0CC10071F100414CEB39
:104B000050707047C90241EA5051C00218BF41F0CD
:104B1000010141F000414FEA6C50C0F10900212829
:104B200010D240EACC7CCCF1200C11FA0CF070F1E0
:104B30000040CCF1200C21FA0CF00CF0004C40EBC2
:104B40000C0070474FEACC707047490011F5001F08
:104B500004D84FEACC10FF30C0057047C817704723
:104B60004FF4001C1CEB410F94BF1CEB430F09E0FA
:104B700041EA030C50EA4C0C52EA0C0C03D28B4273
:104B800008BF8242704714BF9942904270470000AC
:104B9000DFF8302B002803D04021104606F0B4B9CE
:104BA0004021104606F0B2B9DFF8182B00284FF468
:104BB0008051104601D006F0A7B906F0A7B91CB580
:104BC000DFF8044B204606F0A7F80121084606F05E
:104BD0002CFA01208DF8040000208DF80500ADF8B6
:104BE00006004FF4807120460183C0464FF4807068
:104BF000009000A9204606F03DF94FF48071002096
:104C0000FEF700FD13BDF0B583B0DFF8B84A2046CB
:104C100006F082F8DFF8B45A284606F07DF8DFF88F
:104C2000B06A304606F078F80121084606F0FDF932
:104C30000121022006F0F9F90121042006F0F5F91E
:104C40000121802006F0F1F903208DF804000120F5
:104C50008DF8060000208DF807008DF8050049F654
:104C6000FF600090DFF84C7C00A9384606F002F99E
:104C70004FF6FF70009000A9204606F0FBF800A94F
:104C8000284606F0F7F800A9304606F0F3F80021B0
:104C9000012006F0CAF90021022006F0C6F9002121
:104CA000042006F0C2F90021802006F0BEF901219F
:104CB000032006F0BAF901208DF8040000208DF8D9
:104CC0000500ADF806000121022006F0AEF94021F2
:104CD00020460183C0464020009000A9204606F0EF
:104CE000C9F84FF4805120460183C0464FF48055E7
:104CF000009500A9204606F0BDF8294638464183B4
:104D0000C046009500A9384606F0B4F804220A21EE
:104D1000204606F0FDF809220321204606F0F8F8A7
:104D200002208DF8040001208DF805008DF80600A2
:104D300000208DF807004FF48060009000A9204605
:104D400006F098F80820009000A9204606F092F896
:104D500004220821204606F0DBF804220721204621
:104D600006F0D6F802208DF8040001208DF8050029
:104D70008DF8060000208DF807004FF48070009039
:104D800000A9204606F076F88020009000A9204671
:104D900006F070F8F7BD30B585B0DFF81C1B88420F
:104DA00035D0DFF8181B88422FD14FF480050C4610
:104DB0000121284606F044F90121022006F035F9C8
:104DC0000121284606F05DF90021284606F059F930
:104DD0000020ADF804004BF6FF70ADF806004FF46C
:104DE0008060ADF80A004FF48040ADF80C000A2056
:104DF000ADF80800DFF8CC0A009000A9204606F0C4
:104E0000D6F90121204606F035FA05B030BD4FF441
:104E100000150C46CCE72DE9F04192B001214FF48A
:104E2000805006F018F90121032006F0FEF8012158
:104E30004FF4800006F0F9F8DFF88C48052211469F
:104E4000204606F065F8DFF87C5805221146284612
:104E500006F05EF805220421284606F059F80522DE
:104E60000F21204606F054F802208DF8040001209E
:104E70008DF805000020ADF806002020009000A964
:104E8000204605F0F7FF2020009000A9284605F0F5
:104E9000F1FF1020009000A9284605F0EBFF4FF429
:104EA0000040009000A9204605F0E4FFDFF8104A1A
:104EB000204606F041FADFF8105A0020288068608A
:104EC0000120288100206881E860072028820020D6
:104ED0006880DFF8F869304606F0D0FADFF8F0793C
:104EE000384606F0CBFA4FF48060069000210D9111
:104EF00003210E9100210F910A910890DFF8A80A72
:104F0000039008461090099007904FF400300C90E1
:104F100008460B904FF0C068CDF8088040200590FF
:104F20000846049002A9304606F02CFB00200B90A6
:104F3000CDF80880059005F11400049002A93846C8
:104F400006F020FB002068802946204606F050FA33
:104F500001220221204606F07FFA01221146204656
:104F600006F07AFA0121204606F06AFA002130465E
:104F700006F02FFB0021384606F02BFB12B0BDE8EF
:104F8000F0811FB50121084606F04FF801214FF4CA
:104F9000804006F060F800208DF80C008DF80F00BE
:104FA00001200290DFF80C4902A9204605F062FFBB
:104FB0000420029002A9204605F05CFF0820029020
:104FC00002A9204605F056FF0021084606F06AFBBC
:104FD0000221002006F066FB0321002006F062FBA0
:104FE00000208DF8040001208DF8060000900C20B0
:104FF0008DF8050000A806F069FB042000900C2045
:105000008DF8050000A806F061FB082000908DF8DF
:10501000050000A806F05AFB012006F095FB0420CD
:1050200006F092FB082006F08FFB1FBD00B585B08F
:105030000121084605F0F9FF01214FF4804006F0F8
:105040000AF800208DF810008DF813000820039056
:1050500003A9DFF8600805F00DFF0321002006F02A
:1050600021FB00208DF8080001208DF80A0008209F
:1050700001908DF8090001A806F028FB082006F031
:1050800063FB09208DF800000E208DF80100002040
:105090008DF8020001208DF8030000A806F061FBE6
:1050A00005B000BD00B585B00121084605F0BDFF83
:1050B00001214FF4804005F0CEFF00208DF8100054
:1050C0008DF813000420039003A9DFF8E80705F02A
:1050D000D1FE0221002006F0E5FA00208DF808003C
:1050E00001208DF80A00042001900C208DF80900A1
:1050F00001A806F0EBFA042006F026FB08208DF844
:1051000000000E208DF8010000208DF80200012023
:105110008DF8030000A806F024FB05B000BD30B5F3
:105120008DB0044601214FF4807005F094FF00A873
:1051300005F0DAFE0A20009003208DF8040000201C
:105140008DF8070000A9DFF8800505F093FE06F052
:1051500041FB02A806F083FB4FF48030039002A8C5
:1051600006F06FFB06A806F062FBDFF8BC5A06A942
:10517000284606F03CFB072301222146284606F07C
:105180007FFB0121284606F0BEFB0121284606F0E0
:105190006CFB0DB030BD38B5DFF88C4A204606F008
:1051A000ADFB4FF47A750221204606F0C3FB0028C0
:1051B00003D12846451E0128F5DA2046BDE83240D5
:1051C00006F0ACBB80B50021DFF85C0A06F04DFBB1
:1051D00000214FF48070BDE8044005F03CBFDFF8CB
:1051E000E8090068704710B506F02AFDDFF8544959
:1051F00002460B46226063604FF47A72002306F089
:10520000BFFDA0602146DFF8400906F031FEDFF85F
:10521000BC4906F065FE00280DD0002006F069FEAE
:1052200006F06EFE406DFEF70BF821460620BDE845
:10523000104006F069BEDFF8F40906F038FF214699
:105240000220BDE8104006F05FBE10B5DFF8781907
:105250000860DFF8D849002808D00146204606F04B
:10526000B1FF2046BDE8104006F021BF2046BDE852
:10527000104006F06EBF000030B40146012000234C
:10528000DFF8AC291C469460946814F00C0FFBD135
:105290000C460C2C5DD8DFE804F0215C5C5C071A3E
:1052A00021323940474E5500946844F080049460A0
:1052B0004FF4C064DFF87C592C60146824F08074CB
:1052C0001460DFF87449DFF874592C6042E003463B
:1052D000DFF86C49DFF864592C603BE09468946017
:1052E0004FF4C064DFF84C592C60146824F08074CB
:1052F0001460DFF85449DFF844592C602AE0022397
:10530000DFF84849DFF834592C6023E00323DFF845
:105310004049DFF828592C601CE00423DFF83449A9
:10532000DFF818592C6015E00523DFF82C49DFF869
:105330000C592C600EE00623DFF82049DFF8FC58FA
:105340002C6007E00723DFF81849DFF8F0582C60DD
:1053500000E01846002B4AD00FF6681403EBC30395
:105360001B1994689460146824F0807414601468A5
:1053700024F0806414609C781D8844EA8514DD78EC
:105380006D086D1E44EA05441D7944EA05645460C5
:10539000DC881D7A2D0745EA8414DFF8C8582C6094
:1053A000146844F0807414601468A401FCD55B791F
:1053B00043F4C063DFF87C4823609368936093688C
:1053C0009360052904D1916841F09001916005E056
:1053D0000B2903D1916841F480519160916841F0AB
:1053E00002019160916801F00C010829FAD1DFF8FF
:1053F0004C180968DFF87028914207D2DFF86C1862
:105400000A6822F4404242F480420A6030BC70478D
:1054100032E7002800E0401EFDD17047F0B583B0B0
:105420000727DFF89414884203D14FF48074802555
:1054300002E04FF48064082501208DF804008DF807
:1054400005008DF8060000208DF807000094DFF8B5
:10545000206800A9304605F00DFD009500A93046F2
:1054600005F008FD214630464183C0460F20FFF776
:10547000D0FF214630460183C0460F20FFF7C9FF09
:105480003846471E80B20028ECD1009500A930466E
:1054900005F0F0FC214630464183C0460520FFF769
:1054A000B8FF294630460183C0460520FFF7B1FF0B
:1054B000214630460183C0460A20FFF7AAFF214655
:1054C00030464183C0460520FFF7A3FF29463046FA
:1054D0004183C0460520FFF79CFF02208DF80400A1
:1054E00001208DF805008DF8060000208DF80700DA
:1054F000009400A9304605F0BDFC009500A9304697
:1055000005F0B8FCF7BD38B50024DFF86857012175
:10551000286805F0E8FE286805F01AFE2868FFF7FD
:105520003AFC05E02868FFF779FF2868FFF733FCAD
:105530004FF40031286805F0E1FE002802D0641C19
:10554000332CEFDB31BD30B40022838A008BDFF8CF
:105550002447656843EA00400840000255EA1020ED
:1055600060600840884200D10122104630BC70477C
:105570002DE9F84F04460D4616464FF420691F7872
:10558000DFF8F0864FF40031D8F8000005F0B6FEE1
:10559000002808D04846A0F101090028F2D1FFF701
:1055A000B2FF00208CE0D8F8000001884FF6FF52CF
:1055B000114001800121D8F8000005F067FE4FF48A
:1055C000007AD1460020C8F80400D8F800B0DFF80F
:1055D000A8165846FFF7B7FF002805D14846A0F1A6
:1055E00001090028F1D163E0D14600222146584646
:1055F00005F064FE0020C8F80400D8F80040DFF889
:105600007C162046FFF79FFF002805D14846A0F1F1
:1056100001090028F1D14BE03146C9B22046018290
:10562000C046D1460020C8F80400D8F80040DFF892
:1056300050162046FFF787FF002805D14846A0F105
:1056400001090028F1D133E0012F15D12978204636
:105650000182C046D1460020C8F80400DFF82416B5
:10566000D8F80000FFF76FFF002823D14846A0F1CB
:1056700001090028F2D11BE03846471EC0B20028BD
:1056800018D015F8011BD8F800000182C046D14699
:105690000020C8F80400DFF8EC15D8F80000FFF788
:1056A00052FF0028E8D14846A0F101090028F2D1B4
:1056B000002005E00121D8F8000005F0F3FD0120ED
:1056C000BDE8F28F000402400000024000080240E2
:1056D000001C02402DE9F54F81B00D461E464FF4E7
:1056E00020683778DFF88C454FF40031206805F0EA
:1056F00005FE002808D04046A0F101080028F3D19B
:10570000FFF701FF0020D3E0206801884FF6FF5229
:10571000114001800121206805F0B8FD4FF40079A7
:10572000C84600206060DFF850A5D4F800B05146AC
:105730005846FFF708FF002805D14046A0F10108B0
:105740000028F2D191E000229DF80410584605F09F
:10575000B5FDC84600206060D4F800B0DFF81C1525
:105760005846FFF7F0FE002805D14046A0F1010899
:105770000028F1D179E0BDF80810C9B2584601827D
:10578000C046C846DFF80015206805F0B7FD0028C0
:1057900005D14046A0F101080028F3D165E00121C0
:1057A000206805F073FDC84600206060D4F800B0A2
:1057B00051465846FFF7C7FE002805D14046A0F1E4
:1057C00001080028F2D150E001229DF8041058464B
:1057D00005F074FD022FC84639DADFF8B0142068EE
:1057E00005F08CFD002805D14046A0F101080028F5
:1057F000F3D13AE00021206805F069FD2068018BB3
:10580000012105F04FFDC846DFF88414206805F03B
:1058100075FD002805D14046A0F101080028F3D10C
:1058200023E02068008AC0B228703078401E3070B3
:10583000C84620680188890505D54046A0F10108C1
:105840000028F6D111E0012105F041FD2BE00020F8
:105850006060DFF840142068FFF775FE002806D16D
:105860004046A0F101080028F3D1002020E00126E5
:1058700016E0012F0CD1012E0AD1002631462068F6
:1058800005F025FD2068818A018B012105F00AFDC4
:105890002068818A490603D5008A05F8010B7F1E1E
:1058A000FFB2002FE5D10121206805F010FD012095
:1058B000BDE8FE8F00000240005400400058004048
:1058C0000030014070F30500646F0020586402400E
:1058D00010640240DFF8C0030168082933D1DFF803
:1058E00050130A6842F080720A604268B2F1806F19
:1058F00003D10A6842F080620A600A689201FCD50E
:105900008A6842F002028A608A6802F00C02082A61
:10591000FAD14268B2F1806F02D10A681201FCD557
:10592000DFF818130968DFF84023914207D2DFF847
:105930003C130A6822F4404242F480420A6000218B
:105940000160416070474168B1F1806F0AD1DFF8B2
:10595000E0120A6842F080620A600A681201FCD50F
:10596000002141607047DFF83403016841F0805145
:105970000160DFF8F80201688908890041F001013F
:1059800001600FF22900DFF8181308607047DFF894
:105990001403016821F00401016030BF016841F087
:1059A00004010160704700000C30014010B5FDF7A4
:1059B0000CFC807A012803D1012006F02AFC02E0C9
:1059C000002006F026FCDFF8DC428021DFF8D80258
:1059D00005F04CFD002820D172B69548DFF8B812CA
:1059E000826802F00C020A60006800F08060486083
:1059F000206840F00400206006F088FDB0F5704F8C
:105A000002D9022006F078FD30BF62B6206820F08F
:105A100004002060BDE810405CE7206820F004002E
:105A2000206030BF206840F00400206010BDDFF827
:105A30007002006800470000DFF87012401E052861
:105A400012D8DFE800F00306090C110FDFF820126E
:105A50000AE0DFF85C1207E0DFF8581204E0DFF834
:105A6000581201E0DFF854120846704710B50C4692
:105A7000FFF7E2FF214689B2BDE8104005F044BAC5
:105A800010B50C46FFF7D8FF214689B2BDE810409B
:105A900005F03CBAE0B5002A03D10C228DF80920AC
:105AA00002E008228DF8092000281CD0012802D02D
:105AB000032821D007BD0120019010208DF8090096
:105AC00006208DF800000E208DF8010000208DF8D2
:105AD00008008DF80200012917D101208DF80A0075
